{
  "contractName": "AsureCrowdsale",
  "abi": [
    {
      "constant": false,
      "inputs": [
        {
          "name": "account",
          "type": "address"
        }
      ],
      "name": "addWhitelisted",
      "outputs": [],
      "payable": false,
      "stateMutability": "nonpayable",
      "type": "function"
    },
    {
      "constant": true,
      "inputs": [],
      "name": "hasClosed",
      "outputs": [
        {
          "name": "",
          "type": "bool"
        }
      ],
      "payable": false,
      "stateMutability": "view",
      "type": "function"
    },
    {
      "constant": false,
      "inputs": [
        {
          "name": "account",
          "type": "address"
        }
      ],
      "name": "removeWhitelisted",
      "outputs": [],
      "payable": false,
      "stateMutability": "nonpayable",
      "type": "function"
    },
    {
      "constant": true,
      "inputs": [],
      "name": "rate",
      "outputs": [
        {
          "name": "",
          "type": "uint256"
        }
      ],
      "payable": false,
      "stateMutability": "view",
      "type": "function"
    },
    {
      "constant": true,
      "inputs": [],
      "name": "cap",
      "outputs": [
        {
          "name": "",
          "type": "uint256"
        }
      ],
      "payable": false,
      "stateMutability": "view",
      "type": "function"
    },
    {
      "constant": true,
      "inputs": [
        {
          "name": "account",
          "type": "address"
        }
      ],
      "name": "isWhitelisted",
      "outputs": [
        {
          "name": "",
          "type": "bool"
        }
      ],
      "payable": false,
      "stateMutability": "view",
      "type": "function"
    },
    {
      "constant": true,
      "inputs": [],
      "name": "weiRaised",
      "outputs": [
        {
          "name": "",
          "type": "uint256"
        }
      ],
      "payable": false,
      "stateMutability": "view",
      "type": "function"
    },
    {
      "constant": true,
      "inputs": [],
      "name": "isOpen",
      "outputs": [
        {
          "name": "",
          "type": "bool"
        }
      ],
      "payable": false,
      "stateMutability": "view",
      "type": "function"
    },
    {
      "constant": true,
      "inputs": [],
      "name": "closingTime",
      "outputs": [
        {
          "name": "",
          "type": "uint256"
        }
      ],
      "payable": false,
      "stateMutability": "view",
      "type": "function"
    },
    {
      "constant": false,
      "inputs": [],
      "name": "renounceWhitelistAdmin",
      "outputs": [],
      "payable": false,
      "stateMutability": "nonpayable",
      "type": "function"
    },
    {
      "constant": true,
      "inputs": [],
      "name": "capReached",
      "outputs": [
        {
          "name": "",
          "type": "bool"
        }
      ],
      "payable": false,
      "stateMutability": "view",
      "type": "function"
    },
    {
      "constant": true,
      "inputs": [],
      "name": "wallet",
      "outputs": [
        {
          "name": "",
          "type": "address"
        }
      ],
      "payable": false,
      "stateMutability": "view",
      "type": "function"
    },
    {
      "constant": false,
      "inputs": [
        {
          "name": "account",
          "type": "address"
        }
      ],
      "name": "addWhitelistAdmin",
      "outputs": [],
      "payable": false,
      "stateMutability": "nonpayable",
      "type": "function"
    },
    {
      "constant": true,
      "inputs": [],
      "name": "openingTime",
      "outputs": [
        {
          "name": "",
          "type": "uint256"
        }
      ],
      "payable": false,
      "stateMutability": "view",
      "type": "function"
    },
    {
      "constant": true,
      "inputs": [
        {
          "name": "account",
          "type": "address"
        }
      ],
      "name": "isWhitelistAdmin",
      "outputs": [
        {
          "name": "",
          "type": "bool"
        }
      ],
      "payable": false,
      "stateMutability": "view",
      "type": "function"
    },
    {
      "constant": false,
      "inputs": [],
      "name": "renounceWhitelisted",
      "outputs": [],
      "payable": false,
      "stateMutability": "nonpayable",
      "type": "function"
    },
    {
      "constant": false,
      "inputs": [
        {
          "name": "beneficiary",
          "type": "address"
        }
      ],
      "name": "buyTokens",
      "outputs": [],
      "payable": true,
      "stateMutability": "payable",
      "type": "function"
    },
    {
      "constant": true,
      "inputs": [],
      "name": "token",
      "outputs": [
        {
          "name": "",
          "type": "address"
        }
      ],
      "payable": false,
      "stateMutability": "view",
      "type": "function"
    },
    {
      "inputs": [
        {
          "name": "rate",
          "type": "uint256"
        },
        {
          "name": "wallet",
          "type": "address"
        },
        {
          "name": "token",
          "type": "address"
        },
        {
          "name": "cap",
          "type": "uint256"
        },
        {
          "name": "openingTime",
          "type": "uint256"
        },
        {
          "name": "closingTime",
          "type": "uint256"
        }
      ],
      "payable": false,
      "stateMutability": "nonpayable",
      "type": "constructor"
    },
    {
      "payable": true,
      "stateMutability": "payable",
      "type": "fallback"
    },
    {
      "anonymous": false,
      "inputs": [
        {
          "indexed": true,
          "name": "purchaser",
          "type": "address"
        },
        {
          "indexed": true,
          "name": "beneficiary",
          "type": "address"
        },
        {
          "indexed": false,
          "name": "value",
          "type": "uint256"
        },
        {
          "indexed": false,
          "name": "amount",
          "type": "uint256"
        }
      ],
      "name": "TokensPurchased",
      "type": "event"
    },
    {
      "anonymous": false,
      "inputs": [
        {
          "indexed": true,
          "name": "account",
          "type": "address"
        }
      ],
      "name": "WhitelistedAdded",
      "type": "event"
    },
    {
      "anonymous": false,
      "inputs": [
        {
          "indexed": true,
          "name": "account",
          "type": "address"
        }
      ],
      "name": "WhitelistedRemoved",
      "type": "event"
    },
    {
      "anonymous": false,
      "inputs": [
        {
          "indexed": true,
          "name": "account",
          "type": "address"
        }
      ],
      "name": "WhitelistAdminAdded",
      "type": "event"
    },
    {
      "anonymous": false,
      "inputs": [
        {
          "indexed": true,
          "name": "account",
          "type": "address"
        }
      ],
      "name": "WhitelistAdminRemoved",
      "type": "event"
    },
    {
      "constant": false,
      "inputs": [
        {
          "name": "accounts",
          "type": "address[]"
        }
      ],
      "name": "addWhitelistedAccounts",
      "outputs": [],
      "payable": false,
      "stateMutability": "nonpayable",
      "type": "function"
    }
  ],
  "bytecode": "0x60806040523480156200001157600080fd5b5060405160c080620013e9833981018060405260c08110156200003357600080fd5b81019080805190602001909291908051906020019092919080519060200190929190805190602001909291908051906020019092919080519060200190929190505050818184888888620000963362000243640100000000026401000000009004565b600160028190555060008311620000ac57600080fd5b600073ffffffffffffffffffffffffffffffffffffffff168273ffffffffffffffffffffffffffffffffffffffff161415620000e757600080fd5b600073ffffffffffffffffffffffffffffffffffffffff168173ffffffffffffffffffffffffffffffffffffffff1614156200012257600080fd5b8260058190555081600460006101000a81548173ffffffffffffffffffffffffffffffffffffffff021916908373ffffffffffffffffffffffffffffffffffffffff16021790555080600360006101000a81548173ffffffffffffffffffffffffffffffffffffffff021916908373ffffffffffffffffffffffffffffffffffffffff16021790555050505060008111620001bc57600080fd5b806007819055505042821015620001d257600080fd5b818111620001df57600080fd5b816008819055508060098190555050506200020985620002ad640100000000026401000000009004565b6200023773cbbc3d3d381f3a9a48cbae9ca701ac3c92e0aea5620002ad640100000000026401000000009004565b5050505050506200046d565b62000267816000620002ee6401000000000262000c7b179091906401000000009004565b8073ffffffffffffffffffffffffffffffffffffffff167f22380c05984257a1cb900161c713dd71d39e74820f1aea43bd3f1bdd2096129960405160405180910390a250565b620002c733620003ad640100000000026401000000009004565b620002d157600080fd5b620002eb8162000243640100000000026401000000009004565b50565b600073ffffffffffffffffffffffffffffffffffffffff168173ffffffffffffffffffffffffffffffffffffffff1614156200032957600080fd5b620003448282620003da640100000000026401000000009004565b156200034f57600080fd5b60018260000160008373ffffffffffffffffffffffffffffffffffffffff1673ffffffffffffffffffffffffffffffffffffffff16815260200190815260200160002060006101000a81548160ff0219169083151502179055505050565b6000620003d3826000620003da6401000000000262000a8b179091906401000000009004565b9050919050565b60008073ffffffffffffffffffffffffffffffffffffffff168273ffffffffffffffffffffffffffffffffffffffff1614156200041657600080fd5b8260000160008373ffffffffffffffffffffffffffffffffffffffff1673ffffffffffffffffffffffffffffffffffffffff16815260200190815260200160002060009054906101000a900460ff16905092915050565b610f6c806200047d6000396000f3fe608060405260043610610131576000357c0100000000000000000000000000000000000000000000000000000000900480634b6753bc116100bd578063b7a8807c11610081578063b7a8807c14610504578063bb5f747b1461052f578063d6cd947314610598578063ec8ac4d8146105af578063fc0c546a146105f357610131565b80634b6753bc146103eb5780634c5a628c146104165780634f9359451461042d578063521eb2731461045c5780637362d9c8146104b357610131565b80632c4e722e116101045780632c4e722e146102d2578063355274ea146102fd5780633af32abf146103285780634042b66f1461039157806347535d7b146103bc57610131565b806310154bad1461013c5780631515bc2b1461018d578063291d9549146101bc5780632a4bc3211461020d575b61013a3361064a565b005b34801561014857600080fd5b5061018b6004803603602081101561015f57600080fd5b81019080803573ffffffffffffffffffffffffffffffffffffffff169060200190929190505050610740565b005b34801561019957600080fd5b506101a261075e565b604051808215151515815260200191505060405180910390f35b3480156101c857600080fd5b5061020b600480360360208110156101df57600080fd5b81019080803573ffffffffffffffffffffffffffffffffffffffff16906020019092919050505061076a565b005b34801561021957600080fd5b506102d06004803603602081101561023057600080fd5b810190808035906020019064010000000081111561024d57600080fd5b82018360208201111561025f57600080fd5b8035906020019184602083028401116401000000008311171561028157600080fd5b919080806020026020016040519081016040528093929190818152602001838360200280828437600081840152601f19601f820116905080830192505050505050509192919290505050610788565b005b3480156102de57600080fd5b506102e76107d6565b6040518082815260200191505060405180910390f35b34801561030957600080fd5b506103126107e0565b6040518082815260200191505060405180910390f35b34801561033457600080fd5b506103776004803603602081101561034b57600080fd5b81019080803573ffffffffffffffffffffffffffffffffffffffff1690602001909291905050506107ea565b604051808215151515815260200191505060405180910390f35b34801561039d57600080fd5b506103a6610807565b6040518082815260200191505060405180910390f35b3480156103c857600080fd5b506103d1610811565b604051808215151515815260200191505060405180910390f35b3480156103f757600080fd5b5061040061082c565b6040518082815260200191505060405180910390f35b34801561042257600080fd5b5061042b610836565b005b34801561043957600080fd5b50610442610841565b604051808215151515815260200191505060405180910390f35b34801561046857600080fd5b50610471610855565b604051808273ffffffffffffffffffffffffffffffffffffffff1673ffffffffffffffffffffffffffffffffffffffff16815260200191505060405180910390f35b3480156104bf57600080fd5b50610502600480360360208110156104d657600080fd5b81019080803573ffffffffffffffffffffffffffffffffffffffff16906020019092919050505061087f565b005b34801561051057600080fd5b5061051961089d565b6040518082815260200191505060405180910390f35b34801561053b57600080fd5b5061057e6004803603602081101561055257600080fd5b81019080803573ffffffffffffffffffffffffffffffffffffffff1690602001909291905050506108a7565b604051808215151515815260200191505060405180910390f35b3480156105a457600080fd5b506105ad6108c4565b005b6105f1600480360360208110156105c557600080fd5b81019080803573ffffffffffffffffffffffffffffffffffffffff16906020019092919050505061064a565b005b3480156105ff57600080fd5b506106086108cf565b604051808273ffffffffffffffffffffffffffffffffffffffff1673ffffffffffffffffffffffffffffffffffffffff16815260200191505060405180910390f35b600160026000828254019250508190555060006002549050600034905061067183826108f9565b600061067c82610919565b90506106938260065461093790919063ffffffff16565b6006819055506106a38482610956565b8373ffffffffffffffffffffffffffffffffffffffff163373ffffffffffffffffffffffffffffffffffffffff167f6faf93231a456e552dbc9961f58d9713ee4f2e69d15f1975b050ef0911053a7b8484604051808381526020018281526020019250505060405180910390a361071a8483610964565b610722610968565b61072c84836109d3565b5050600254811461073c57600080fd5b5050565b610749336108a7565b61075257600080fd5b61075b816109d7565b50565b60006009544211905090565b610773336108a7565b61077c57600080fd5b61078581610a31565b50565b610791336108a7565b61079a57600080fd5b60008090505b81518110156107d2576107c58282815181106107b857fe5b60200260200101516109d7565b80806001019150506107a0565b5050565b6000600554905090565b6000600754905090565b6000610800826001610a8b90919063ffffffff16565b9050919050565b6000600654905090565b6000600854421015801561082757506009544211155b905090565b6000600954905090565b61083f33610b1d565b565b600060075461084e610807565b1015905090565b6000600460009054906101000a900473ffffffffffffffffffffffffffffffffffffffff16905090565b610888336108a7565b61089157600080fd5b61089a81610b77565b50565b6000600854905090565b60006108bd826000610a8b90919063ffffffff16565b9050919050565b6108cd33610a31565b565b6000600360009054906101000a900473ffffffffffffffffffffffffffffffffffffffff16905090565b610902826107ea565b61090b57600080fd5b6109158282610bd1565b5050565b600061093060055483610bf090919063ffffffff16565b9050919050565b60008082840190508381101561094c57600080fd5b8091505092915050565b6109608282610c2a565b5050565b5050565b600460009054906101000a900473ffffffffffffffffffffffffffffffffffffffff1673ffffffffffffffffffffffffffffffffffffffff166108fc349081150290604051600060405180830381858888f193505050501580156109d0573d6000803e3d6000fd5b50565b5050565b6109eb816001610c7b90919063ffffffff16565b8073ffffffffffffffffffffffffffffffffffffffff167fee1504a83b6d4a361f4c1dc78ab59bfa30d6a3b6612c403e86bb01ef2984295f60405160405180910390a250565b610a45816001610d2790919063ffffffff16565b8073ffffffffffffffffffffffffffffffffffffffff167f270d9b30cf5b0793bbfd54c9d5b94aeb49462b8148399000265144a8722da6b660405160405180910390a250565b60008073ffffffffffffffffffffffffffffffffffffffff168273ffffffffffffffffffffffffffffffffffffffff161415610ac657600080fd5b8260000160008373ffffffffffffffffffffffffffffffffffffffff1673ffffffffffffffffffffffffffffffffffffffff16815260200190815260200160002060009054906101000a900460ff16905092915050565b610b31816000610d2790919063ffffffff16565b8073ffffffffffffffffffffffffffffffffffffffff167f0a8eb35e5ca14b3d6f28e4abf2f128dbab231a58b56e89beb5d636115001e16560405160405180910390a250565b610b8b816000610c7b90919063ffffffff16565b8073ffffffffffffffffffffffffffffffffffffffff167f22380c05984257a1cb900161c713dd71d39e74820f1aea43bd3f1bdd2096129960405160405180910390a250565b610bd9610811565b610be257600080fd5b610bec8282610dd2565b5050565b600080831415610c035760009050610c24565b6000828402905082848281610c1457fe5b0414610c1f57600080fd5b809150505b92915050565b610c778282600360009054906101000a900473ffffffffffffffffffffffffffffffffffffffff1673ffffffffffffffffffffffffffffffffffffffff16610e089092919063ffffffff16565b5050565b600073ffffffffffffffffffffffffffffffffffffffff168173ffffffffffffffffffffffffffffffffffffffff161415610cb557600080fd5b610cbf8282610a8b565b15610cc957600080fd5b60018260000160008373ffffffffffffffffffffffffffffffffffffffff1673ffffffffffffffffffffffffffffffffffffffff16815260200190815260200160002060006101000a81548160ff0219169083151502179055505050565b600073ffffffffffffffffffffffffffffffffffffffff168173ffffffffffffffffffffffffffffffffffffffff161415610d6157600080fd5b610d6b8282610a8b565b610d7457600080fd5b60008260000160008373ffffffffffffffffffffffffffffffffffffffff1673ffffffffffffffffffffffffffffffffffffffff16815260200190815260200160002060006101000a81548160ff0219169083151502179055505050565b610ddc8282610ef4565b600754610df982610deb610807565b61093790919063ffffffff16565b1115610e0457600080fd5b5050565b8273ffffffffffffffffffffffffffffffffffffffff1663a9059cbb83836040518363ffffffff167c0100000000000000000000000000000000000000000000000000000000028152600401808373ffffffffffffffffffffffffffffffffffffffff1673ffffffffffffffffffffffffffffffffffffffff16815260200182815260200192505050602060405180830381600087803b158015610eab57600080fd5b505af1158015610ebf573d6000803e3d6000fd5b505050506040513d6020811015610ed557600080fd5b8101908080519060200190929190505050610eef57600080fd5b505050565b600073ffffffffffffffffffffffffffffffffffffffff168273ffffffffffffffffffffffffffffffffffffffff161415610f2e57600080fd5b6000811415610f3c57600080fd5b505056fea165627a7a723058200ee376add8d5be2fb46fc7ff30c65832a723de37d421b8fc4971a0fb4b3c3f5d0029",
  "source": "pragma solidity ^0.5.0;\n\nimport \"openzeppelin-solidity/contracts/token/ERC20/ERC20.sol\";\nimport \"openzeppelin-solidity/contracts/token/ERC20/IERC20.sol\";\nimport \"openzeppelin-solidity/contracts/crowdsale/validation/CappedCrowdsale.sol\";\nimport \"openzeppelin-solidity/contracts/crowdsale/validation/TimedCrowdsale.sol\";\nimport \"openzeppelin-solidity/contracts/crowdsale/validation/WhitelistCrowdsale.sol\";\nimport \"openzeppelin-solidity/contracts/crowdsale/Crowdsale.sol\";\n\ncontract AsureCrowdsale is Crowdsale, CappedCrowdsale, TimedCrowdsale, WhitelistCrowdsale {\n  //\n  constructor(\n    uint256 rate, // rate, in Asure Tokens\n    address payable wallet, // wallet to send Ether\n    IERC20 token, // the token\n    uint256 cap, // total cap, in wei\n    uint256 openingTime, // opening time in unix epoch seconds\n    uint256 closingTime    // closing time in unix epoch seconds\n  )\n  public\n  CappedCrowdsale(cap)\n  TimedCrowdsale(openingTime, closingTime)\n  Crowdsale(rate, wallet, token)\n  {\n    // nice, we just created a crowdsale that's only open\n    // for a certain amount of time\n    // and stops accepting contributions once it reaches `cap`\n    addWhitelistAdmin(wallet);\n    addWhitelistAdmin(0xcbBc3D3d381f3A9a48CbAE9Ca701aC3c92e0aEA5);\n  }\n\n  function addWhitelistedAccounts(address[] memory accounts) public onlyWhitelistAdmin {\n    for (uint i = 0; i < accounts.length; i++) {\n      _addWhitelisted(accounts[i]);\n    }\n  }\n\n}\n",
  "sourcePath": "/home/mischi/p/asurenetwork/crowdsale/packages/crowdsale/contracts/AsureCrowdsale.sol",
  "compiler": {
    "name": "solc",
    "version": "0.5.6+commit.b259423e.Emscripten.clang"
  },
  "schemaVersion": "3.0.3",
  "updatedAt": "2019-03-16T12:58:48.243Z",
  "devdoc": {
    "methods": {
      "buyTokens(address)": {
        "details": "low level token purchase ***DO NOT OVERRIDE*** This function has a non-reentrancy guard, so it shouldn't be called by another `nonReentrant` function.",
        "params": {
          "beneficiary": "Recipient of the token purchase"
        }
      },
      "cap()": {
        "return": "the cap of the crowdsale."
      },
      "capReached()": {
        "details": "Checks whether the cap has been reached.",
        "return": "Whether the cap was reached"
      },
      "closingTime()": {
        "return": "the crowdsale closing time."
      },
      "hasClosed()": {
        "details": "Checks whether the period in which the crowdsale is open has already elapsed.",
        "return": "Whether crowdsale period has elapsed"
      },
      "isOpen()": {
        "return": "true if the crowdsale is open, false otherwise."
      },
      "openingTime()": {
        "return": "the crowdsale opening time."
      },
      "rate()": {
        "return": "the number of token units a buyer gets per wei."
      },
      "token()": {
        "return": "the token being sold."
      },
      "wallet()": {
        "return": "the address where funds are collected."
      },
      "weiRaised()": {
        "return": "the amount of wei raised."
      }
    }
  },
  "userdoc": {
    "methods": {}
  }
}