{
  "contractName": "AsureTokenVesting",
  "abi": [
    {
      "constant": false,
      "inputs": [],
      "name": "renounceOwnership",
      "outputs": [],
      "payable": false,
      "stateMutability": "nonpayable",
      "type": "function"
    },
    {
      "constant": true,
      "inputs": [
        {
          "name": "",
          "type": "uint256"
        }
      ],
      "name": "vestings",
      "outputs": [
        {
          "name": "releaseTime",
          "type": "uint256"
        },
        {
          "name": "amount",
          "type": "uint256"
        },
        {
          "name": "beneficiary",
          "type": "address"
        },
        {
          "name": "released",
          "type": "bool"
        }
      ],
      "payable": false,
      "stateMutability": "view",
      "type": "function"
    },
    {
      "constant": true,
      "inputs": [],
      "name": "owner",
      "outputs": [
        {
          "name": "",
          "type": "address"
        }
      ],
      "payable": false,
      "stateMutability": "view",
      "type": "function"
    },
    {
      "constant": true,
      "inputs": [],
      "name": "isOwner",
      "outputs": [
        {
          "name": "",
          "type": "bool"
        }
      ],
      "payable": false,
      "stateMutability": "view",
      "type": "function"
    },
    {
      "constant": false,
      "inputs": [
        {
          "name": "newOwner",
          "type": "address"
        }
      ],
      "name": "transferOwnership",
      "outputs": [],
      "payable": false,
      "stateMutability": "nonpayable",
      "type": "function"
    },
    {
      "inputs": [
        {
          "name": "token",
          "type": "address"
        }
      ],
      "payable": false,
      "stateMutability": "nonpayable",
      "type": "constructor"
    },
    {
      "anonymous": false,
      "inputs": [
        {
          "indexed": true,
          "name": "beneficiary",
          "type": "address"
        },
        {
          "indexed": true,
          "name": "_vestingId",
          "type": "uint256"
        },
        {
          "indexed": false,
          "name": "amount",
          "type": "uint256"
        }
      ],
      "name": "TokensReleased",
      "type": "event"
    },
    {
      "anonymous": false,
      "inputs": [
        {
          "indexed": true,
          "name": "beneficiary",
          "type": "address"
        },
        {
          "indexed": true,
          "name": "_vestingId",
          "type": "uint256"
        },
        {
          "indexed": false,
          "name": "amount",
          "type": "uint256"
        }
      ],
      "name": "TokensVesting",
      "type": "event"
    },
    {
      "anonymous": false,
      "inputs": [
        {
          "indexed": true,
          "name": "previousOwner",
          "type": "address"
        },
        {
          "indexed": true,
          "name": "newOwner",
          "type": "address"
        }
      ],
      "name": "OwnershipTransferred",
      "type": "event"
    },
    {
      "constant": true,
      "inputs": [],
      "name": "token",
      "outputs": [
        {
          "name": "",
          "type": "address"
        }
      ],
      "payable": false,
      "stateMutability": "view",
      "type": "function"
    },
    {
      "constant": true,
      "inputs": [
        {
          "name": "_vestingId",
          "type": "uint256"
        }
      ],
      "name": "beneficiary",
      "outputs": [
        {
          "name": "",
          "type": "address"
        }
      ],
      "payable": false,
      "stateMutability": "view",
      "type": "function"
    },
    {
      "constant": true,
      "inputs": [
        {
          "name": "_vestingId",
          "type": "uint256"
        }
      ],
      "name": "releaseTime",
      "outputs": [
        {
          "name": "",
          "type": "uint256"
        }
      ],
      "payable": false,
      "stateMutability": "view",
      "type": "function"
    },
    {
      "constant": true,
      "inputs": [
        {
          "name": "_vestingId",
          "type": "uint256"
        }
      ],
      "name": "vestingAmount",
      "outputs": [
        {
          "name": "",
          "type": "uint256"
        }
      ],
      "payable": false,
      "stateMutability": "view",
      "type": "function"
    },
    {
      "constant": false,
      "inputs": [
        {
          "name": "_beneficiary",
          "type": "address"
        },
        {
          "name": "_releaseTime",
          "type": "uint256"
        },
        {
          "name": "_amount",
          "type": "uint256"
        }
      ],
      "name": "addVesting",
      "outputs": [],
      "payable": false,
      "stateMutability": "nonpayable",
      "type": "function"
    },
    {
      "constant": false,
      "inputs": [
        {
          "name": "_vestingId",
          "type": "uint256"
        }
      ],
      "name": "release",
      "outputs": [],
      "payable": false,
      "stateMutability": "nonpayable",
      "type": "function"
    }
  ],
  "bytecode": "0x6080604052600060025534801561001557600080fd5b50604051610dc4380380610dc48339818101604052602081101561003857600080fd5b8101908080519060200190929190505050336000806101000a81548173ffffffffffffffffffffffffffffffffffffffff021916908373ffffffffffffffffffffffffffffffffffffffff1602179055506000809054906101000a900473ffffffffffffffffffffffffffffffffffffffff1673ffffffffffffffffffffffffffffffffffffffff16600073ffffffffffffffffffffffffffffffffffffffff167f8be0079c531659141344cd1fd0a4f28419497f9722a3daafe3b4186f6b6457e060405160405180910390a380600160006101000a81548173ffffffffffffffffffffffffffffffffffffffff021916908373ffffffffffffffffffffffffffffffffffffffff16021790555050610c6e806101566000396000f3fe608060405234801561001057600080fd5b50600436106100a95760003560e01c8063715018a611610071578063715018a614610226578063821bee73146102305780638da5cb5b146102b75780638f32d59b14610301578063f2fde38b14610323578063fc0c546a14610367576100a9565b806307ad23ef146100ae57806309c4bb2b146100f057806337bdc99b146101325780634691a998146101605780635daa3160146101b8575b600080fd5b6100da600480360360208110156100c457600080fd5b81019080803590602001909291905050506103b1565b6040518082815260200191505060405180910390f35b61011c6004803603602081101561010657600080fd5b81019080803590602001909291905050506103d1565b6040518082815260200191505060405180910390f35b61015e6004803603602081101561014857600080fd5b81019080803590602001909291905050506103f1565b005b6101b66004803603606081101561017657600080fd5b81019080803573ffffffffffffffffffffffffffffffffffffffff16906020019092919080359060200190929190803590602001909291905050506106fd565b005b6101e4600480360360208110156101ce57600080fd5b810190808035906020019092919050505061083d565b604051808273ffffffffffffffffffffffffffffffffffffffff1673ffffffffffffffffffffffffffffffffffffffff16815260200191505060405180910390f35b61022e61087d565b005b61025c6004803603602081101561024657600080fd5b810190808035906020019092919050505061094d565b604051808581526020018481526020018373ffffffffffffffffffffffffffffffffffffffff1673ffffffffffffffffffffffffffffffffffffffff1681526020018215151515815260200194505050505060405180910390f35b6102bf6109aa565b604051808273ffffffffffffffffffffffffffffffffffffffff1673ffffffffffffffffffffffffffffffffffffffff16815260200191505060405180910390f35b6103096109d3565b604051808215151515815260200191505060405180910390f35b6103656004803603602081101561033957600080fd5b81019080803573ffffffffffffffffffffffffffffffffffffffff169060200190929190505050610a2a565b005b61036f610a47565b604051808273ffffffffffffffffffffffffffffffffffffffff1673ffffffffffffffffffffffffffffffffffffffff16815260200191505060405180910390f35b600060036000838152602001908152602001600020600101549050919050565b600060036000838152602001908152602001600020600001549050919050565b600073ffffffffffffffffffffffffffffffffffffffff166003600083815260200190815260200160002060020160009054906101000a900473ffffffffffffffffffffffffffffffffffffffff1673ffffffffffffffffffffffffffffffffffffffff161415801561048557506003600082815260200190815260200160002060020160149054906101000a900460ff16155b61048e57600080fd5b60036000828152602001908152602001600020600001544210156104b157600080fd5b6000600160009054906101000a900473ffffffffffffffffffffffffffffffffffffffff1673ffffffffffffffffffffffffffffffffffffffff166370a08231306040518263ffffffff1660e01b8152600401808273ffffffffffffffffffffffffffffffffffffffff1673ffffffffffffffffffffffffffffffffffffffff16815260200191505060206040518083038186803b15801561055257600080fd5b505afa158015610566573d6000803e3d6000fd5b505050506040513d602081101561057c57600080fd5b81019080805190602001909291905050501161059757600080fd5b60016003600083815260200190815260200160002060020160146101000a81548160ff02191690831515021790555061065f6003600083815260200190815260200160002060020160009054906101000a900473ffffffffffffffffffffffffffffffffffffffff166003600084815260200190815260200160002060010154600160009054906101000a900473ffffffffffffffffffffffffffffffffffffffff1673ffffffffffffffffffffffffffffffffffffffff16610a719092919063ffffffff16565b806003600083815260200190815260200160002060020160009054906101000a900473ffffffffffffffffffffffffffffffffffffffff1673ffffffffffffffffffffffffffffffffffffffff167fc5c52c2a9175470464d5ea4429889e7df2ea88630a3d32f4d0d3d2d44865621060036000858152602001908152602001600020600101546040518082815260200191505060405180910390a350565b6107056109d3565b61070e57600080fd5b60016002540160028190555060405180608001604052808381526020018281526020018473ffffffffffffffffffffffffffffffffffffffff16815260200160001515815250600360006002548152602001908152602001600020600082015181600001556020820151816001015560408201518160020160006101000a81548173ffffffffffffffffffffffffffffffffffffffff021916908373ffffffffffffffffffffffffffffffffffffffff16021790555060608201518160020160146101000a81548160ff0219169083151502179055509050506002548373ffffffffffffffffffffffffffffffffffffffff167f05fbb6d3965dbf10ec77a853b726ddddf987d3f05620490c5910c1c48d9de743836040518082815260200191505060405180910390a3505050565b60006003600083815260200190815260200160002060020160009054906101000a900473ffffffffffffffffffffffffffffffffffffffff169050919050565b6108856109d3565b61088e57600080fd5b600073ffffffffffffffffffffffffffffffffffffffff166000809054906101000a900473ffffffffffffffffffffffffffffffffffffffff1673ffffffffffffffffffffffffffffffffffffffff167f8be0079c531659141344cd1fd0a4f28419497f9722a3daafe3b4186f6b6457e060405160405180910390a360008060006101000a81548173ffffffffffffffffffffffffffffffffffffffff021916908373ffffffffffffffffffffffffffffffffffffffff160217905550565b60036020528060005260406000206000915090508060000154908060010154908060020160009054906101000a900473ffffffffffffffffffffffffffffffffffffffff16908060020160149054906101000a900460ff16905084565b60008060009054906101000a900473ffffffffffffffffffffffffffffffffffffffff16905090565b60008060009054906101000a900473ffffffffffffffffffffffffffffffffffffffff1673ffffffffffffffffffffffffffffffffffffffff163373ffffffffffffffffffffffffffffffffffffffff1614905090565b610a326109d3565b610a3b57600080fd5b610a4481610b41565b50565b6000600160009054906101000a900473ffffffffffffffffffffffffffffffffffffffff16905090565b8273ffffffffffffffffffffffffffffffffffffffff1663a9059cbb83836040518363ffffffff1660e01b8152600401808373ffffffffffffffffffffffffffffffffffffffff1673ffffffffffffffffffffffffffffffffffffffff16815260200182815260200192505050602060405180830381600087803b158015610af857600080fd5b505af1158015610b0c573d6000803e3d6000fd5b505050506040513d6020811015610b2257600080fd5b8101908080519060200190929190505050610b3c57600080fd5b505050565b600073ffffffffffffffffffffffffffffffffffffffff168173ffffffffffffffffffffffffffffffffffffffff161415610b7b57600080fd5b8073ffffffffffffffffffffffffffffffffffffffff166000809054906101000a900473ffffffffffffffffffffffffffffffffffffffff1673ffffffffffffffffffffffffffffffffffffffff167f8be0079c531659141344cd1fd0a4f28419497f9722a3daafe3b4186f6b6457e060405160405180910390a3806000806101000a81548173ffffffffffffffffffffffffffffffffffffffff021916908373ffffffffffffffffffffffffffffffffffffffff1602179055505056fea265627a7a7230582077b0c1e3245ce42820ebd165f4407b75ee94824d644046237aaee44a6385a84864736f6c634300050a0032",
  "source": "pragma solidity ^0.5.0;\n\nimport \"openzeppelin-solidity/contracts/token/ERC20/IERC20.sol\";\nimport \"openzeppelin-solidity/contracts/token/ERC20/ERC20.sol\";\nimport \"openzeppelin-solidity/contracts/token/ERC20/SafeERC20.sol\";\nimport \"openzeppelin-solidity/contracts/ownership/Ownable.sol\";\nimport \"openzeppelin-solidity/contracts/math/SafeMath.sol\";\n\n\n/**\n * @title AsureTokenVesting\n * @dev A token holder contract that can release its token balance gradually like a\n * typical vesting scheme, with vesting period.\n */\ncontract AsureTokenVesting is Ownable {\n  using SafeMath for uint256;\n  using SafeERC20 for IERC20;\n\n  IERC20 private _token;\n  uint256 internal vestingId = 0;\n\n  struct vesting {\n    uint256 releaseTime;\n    uint256 amount;\n    address beneficiary;\n    bool released;\n  }\n  mapping(uint256 => vesting) public vestings;\n\n  event TokensReleased(address indexed beneficiary, uint256 indexed _vestingId, uint256 amount);\n  event TokensVesting(address indexed beneficiary, uint256 indexed _vestingId, uint256 amount);\n\n  constructor (IERC20 token) public {\n    _token = token;\n  }\n\n  function token() public view returns (IERC20) {\n    return _token;\n  }\n\n  function beneficiary(uint256 _vestingId) public view returns (address) {\n    return vestings[_vestingId].beneficiary;\n  }\n\n  function releaseTime(uint256 _vestingId) public view returns (uint256) {\n    return vestings[_vestingId].releaseTime;\n  }\n\n  function vestingAmount(uint256 _vestingId) public view returns (uint256) {\n    return vestings[_vestingId].amount;\n  }\n\n  function addVesting(address _beneficiary, uint256 _releaseTime, uint256 _amount) public onlyOwner {\n    vestingId = vestingId + 1;\n    vestings[vestingId] = vesting({\n      beneficiary: _beneficiary,\n      releaseTime: _releaseTime,\n      amount: _amount,\n      released: false\n      });\n    emit TokensVesting(_beneficiary, vestingId, _amount);\n  }\n\n  function release(uint256 _vestingId) public {\n    // solhint-disable-next-line not-rely-on-time\n    require(vestings[_vestingId].beneficiary != address(0x0) && !vestings[_vestingId].released);\n    require(block.timestamp >= vestings[_vestingId].releaseTime);\n\n    require(_token.balanceOf(address(this)) > 0);\n    vestings[_vestingId].released = true;\n    _token.safeTransfer(vestings[_vestingId].beneficiary, vestings[_vestingId].amount);\n    emit TokensReleased(vestings[_vestingId].beneficiary,_vestingId, vestings[_vestingId].amount);\n  }\n}\n",
  "sourcePath": "/home/mischi/p/asurenetwork/crowdsale/packages/crowdsale/contracts/AsureTokenVesting.sol",
  "compiler": {
    "name": "solc",
    "version": "0.5.10+commit.5a6ea5b1.Emscripten.clang"
  },
  "schemaVersion": "3.0.11",
  "updatedAt": "2019-07-24T10:33:32.485Z",
  "devdoc": {
    "details": "A token holder contract that can release its token balance gradually like a typical vesting scheme, with vesting period.",
    "methods": {
      "isOwner()": {
        "return": "true if `msg.sender` is the owner of the contract."
      },
      "owner()": {
        "return": "the address of the owner."
      },
      "renounceOwnership()": {
        "details": "Allows the current owner to relinquish control of the contract."
      },
      "transferOwnership(address)": {
        "details": "Allows the current owner to transfer control of the contract to a newOwner.",
        "params": {
          "newOwner": "The address to transfer ownership to."
        }
      }
    },
    "title": "AsureTokenVesting"
  },
  "userdoc": {
    "methods": {
      "renounceOwnership()": {
        "notice": "Renouncing to ownership will leave the contract without an owner. It will not be possible to call the functions with the `onlyOwner` modifier anymore."
      }
    }
  }
}