{
  "contractName": "AsureCrowdsaleDeployer",
  "abi": [
    {
      "constant": false,
      "inputs": [],
      "name": "renounceOwnership",
      "outputs": [],
      "payable": false,
      "stateMutability": "nonpayable",
      "type": "function",
      "signature": "0x715018a6"
    },
    {
      "constant": true,
      "inputs": [],
      "name": "owner",
      "outputs": [
        {
          "name": "",
          "type": "address"
        }
      ],
      "payable": false,
      "stateMutability": "view",
      "type": "function",
      "signature": "0x8da5cb5b"
    },
    {
      "constant": true,
      "inputs": [],
      "name": "isOwner",
      "outputs": [
        {
          "name": "",
          "type": "bool"
        }
      ],
      "payable": false,
      "stateMutability": "view",
      "type": "function",
      "signature": "0x8f32d59b"
    },
    {
      "constant": false,
      "inputs": [
        {
          "name": "newOwner",
          "type": "address"
        }
      ],
      "name": "transferOwnership",
      "outputs": [],
      "payable": false,
      "stateMutability": "nonpayable",
      "type": "function",
      "signature": "0xf2fde38b"
    },
    {
      "constant": true,
      "inputs": [],
      "name": "mainsale",
      "outputs": [
        {
          "name": "",
          "type": "address"
        }
      ],
      "payable": false,
      "stateMutability": "view",
      "type": "function",
      "signature": "0xf6fc96ad"
    },
    {
      "constant": true,
      "inputs": [],
      "name": "token",
      "outputs": [
        {
          "name": "",
          "type": "address"
        }
      ],
      "payable": false,
      "stateMutability": "view",
      "type": "function",
      "signature": "0xfc0c546a"
    },
    {
      "constant": true,
      "inputs": [],
      "name": "presale",
      "outputs": [
        {
          "name": "",
          "type": "address"
        }
      ],
      "payable": false,
      "stateMutability": "view",
      "type": "function",
      "signature": "0xfdea8e0b"
    },
    {
      "inputs": [
        {
          "name": "rate",
          "type": "uint256"
        },
        {
          "name": "owner",
          "type": "address"
        },
        {
          "name": "crowdsaleWallet",
          "type": "address"
        },
        {
          "name": "foundationWallet",
          "type": "address"
        },
        {
          "name": "bountyWallet",
          "type": "address"
        },
        {
          "name": "familyFriendsWallet",
          "type": "address"
        },
        {
          "name": "preSaleOpeningTime",
          "type": "uint256"
        },
        {
          "name": "preSaleClosingTime",
          "type": "uint256"
        },
        {
          "name": "mainSaleOpeningTime",
          "type": "uint256"
        },
        {
          "name": "mainSaleClosingTime",
          "type": "uint256"
        },
        {
          "name": "teamAddr",
          "type": "address[]"
        },
        {
          "name": "teamAmounts",
          "type": "uint256[]"
        },
        {
          "name": "advisorAddr",
          "type": "address[]"
        },
        {
          "name": "advisorAmounts",
          "type": "uint256[]"
        }
      ],
      "payable": false,
      "stateMutability": "nonpayable",
      "type": "constructor",
      "signature": "constructor"
    },
    {
      "anonymous": false,
      "inputs": [
        {
          "indexed": true,
          "name": "previousOwner",
          "type": "address"
        },
        {
          "indexed": true,
          "name": "newOwner",
          "type": "address"
        }
      ],
      "name": "OwnershipTransferred",
      "type": "event",
      "signature": "0x8be0079c531659141344cd1fd0a4f28419497f9722a3daafe3b4186f6b6457e0"
    }
  ],
  "bytecode": "0x60806040523480156200001157600080fd5b5060405162005aa038038062005aa083398101806040526101c08110156200003857600080fd5b81019080805190602001909291908051906020019092919080519060200190929190805190602001909291908051906020019092919080519060200190929190805190602001909291908051906020019092919080519060200190929190805190602001909291908051640100000000811115620000b557600080fd5b82810190506020810184811115620000cc57600080fd5b8151856020820283011164010000000082111715620000ea57600080fd5b505092919060200180516401000000008111156200010757600080fd5b828101905060208101848111156200011e57600080fd5b81518560208202830111640100000000821117156200013c57600080fd5b505092919060200180516401000000008111156200015957600080fd5b828101905060208101848111156200017057600080fd5b81518560208202830111640100000000821117156200018e57600080fd5b50509291906020018051640100000000811115620001ab57600080fd5b82810190506020810184811115620001c257600080fd5b8151856020820283011164010000000082111715620001e057600080fd5b5050929190505050336000806101000a81548173ffffffffffffffffffffffffffffffffffffffff021916908373ffffffffffffffffffffffffffffffffffffffff1602179055506000809054906101000a900473ffffffffffffffffffffffffffffffffffffffff1673ffffffffffffffffffffffffffffffffffffffff16600073ffffffffffffffffffffffffffffffffffffffff167f8be0079c531659141344cd1fd0a4f28419497f9722a3daafe3b4186f6b6457e060405160405180910390a3620002be8d62000fe7640100000000026401000000009004565b8c6012604051620002cf9062001177565b808373ffffffffffffffffffffffffffffffffffffffff1673ffffffffffffffffffffffffffffffffffffffff16815260200180602001806020018460ff1681526020018381038352600a8152602001807f4173757265546f6b656e00000000000000000000000000000000000000000000815250602001838103825260038152602001807f4153520000000000000000000000000000000000000000000000000000000000815250602001945050505050604051809103906000f0801580156200039e573d6000803e3d6000fd5b50600160006101000a81548173ffffffffffffffffffffffffffffffffffffffff021916908373ffffffffffffffffffffffffffffffffffffffff1602179055508d8d8d600160009054906101000a900473ffffffffffffffffffffffffffffffffffffffff168b8b604051620004159062001185565b808781526020018673ffffffffffffffffffffffffffffffffffffffff1673ffffffffffffffffffffffffffffffffffffffff1681526020018573ffffffffffffffffffffffffffffffffffffffff1673ffffffffffffffffffffffffffffffffffffffff1681526020018473ffffffffffffffffffffffffffffffffffffffff1673ffffffffffffffffffffffffffffffffffffffff1681526020018381526020018281526020019650505050505050604051809103906000f080158015620004e3573d6000803e3d6000fd5b50600260006101000a81548173ffffffffffffffffffffffffffffffffffffffff021916908373ffffffffffffffffffffffffffffffffffffffff1602179055508d8d8d600160009054906101000a900473ffffffffffffffffffffffffffffffffffffffff1689896040516200055a9062001185565b808781526020018673ffffffffffffffffffffffffffffffffffffffff1673ffffffffffffffffffffffffffffffffffffffff1681526020018573ffffffffffffffffffffffffffffffffffffffff1673ffffffffffffffffffffffffffffffffffffffff1681526020018473ffffffffffffffffffffffffffffffffffffffff1673ffffffffffffffffffffffffffffffffffffffff1681526020018381526020018281526020019650505050505050604051809103906000f08015801562000628573d6000803e3d6000fd5b50600360006101000a81548173ffffffffffffffffffffffffffffffffffffffff021916908373ffffffffffffffffffffffffffffffffffffffff160217905550600160009054906101000a900473ffffffffffffffffffffffffffffffffffffffff1673ffffffffffffffffffffffffffffffffffffffff166340c10f19600260009054906101000a900473ffffffffffffffffffffffffffffffffffffffff166012600a0a62989680026040518363ffffffff167c0100000000000000000000000000000000000000000000000000000000028152600401808373ffffffffffffffffffffffffffffffffffffffff1673ffffffffffffffffffffffffffffffffffffffff16815260200182815260200192505050602060405180830381600087803b1580156200075a57600080fd5b505af11580156200076f573d6000803e3d6000fd5b505050506040513d60208110156200078657600080fd5b810190808051906020019092919050505050600160009054906101000a900473ffffffffffffffffffffffffffffffffffffffff1673ffffffffffffffffffffffffffffffffffffffff166340c10f19600360009054906101000a900473ffffffffffffffffffffffffffffffffffffffff166012600a0a6302160ec0026040518363ffffffff167c0100000000000000000000000000000000000000000000000000000000028152600401808373ffffffffffffffffffffffffffffffffffffffff1673ffffffffffffffffffffffffffffffffffffffff16815260200182815260200192505050602060405180830381600087803b1580156200088a57600080fd5b505af11580156200089f573d6000803e3d6000fd5b505050506040513d6020811015620008b657600080fd5b810190808051906020019092919050505050600160009054906101000a900473ffffffffffffffffffffffffffffffffffffffff1673ffffffffffffffffffffffffffffffffffffffff166340c10f198c6012600a0a6302160ec0026040518363ffffffff167c0100000000000000000000000000000000000000000000000000000000028152600401808373ffffffffffffffffffffffffffffffffffffffff1673ffffffffffffffffffffffffffffffffffffffff16815260200182815260200192505050602060405180830381600087803b1580156200099857600080fd5b505af1158015620009ad573d6000803e3d6000fd5b505050506040513d6020811015620009c457600080fd5b810190808051906020019092919050505050600160009054906101000a900473ffffffffffffffffffffffffffffffffffffffff1673ffffffffffffffffffffffffffffffffffffffff166340c10f198b6012600a0a624c4b40026040518363ffffffff167c0100000000000000000000000000000000000000000000000000000000028152600401808373ffffffffffffffffffffffffffffffffffffffff1673ffffffffffffffffffffffffffffffffffffffff16815260200182815260200192505050602060405180830381600087803b15801562000aa557600080fd5b505af115801562000aba573d6000803e3d6000fd5b505050506040513d602081101562000ad157600080fd5b810190808051906020019092919050505050600160009054906101000a900473ffffffffffffffffffffffffffffffffffffffff1673ffffffffffffffffffffffffffffffffffffffff166340c10f198a6012600a0a624c4b40026040518363ffffffff167c0100000000000000000000000000000000000000000000000000000000028152600401808373ffffffffffffffffffffffffffffffffffffffff1673ffffffffffffffffffffffffffffffffffffffff16815260200182815260200192505050602060405180830381600087803b15801562000bb257600080fd5b505af115801562000bc7573d6000803e3d6000fd5b505050506040513d602081101562000bde57600080fd5b81019080805190602001909291905050505060008090505b845181101562000d4057600160009054906101000a900473ffffffffffffffffffffffffffffffffffffffff1673ffffffffffffffffffffffffffffffffffffffff166340c10f1986838151811062000c4b57fe5b60200260200101516012600a0a87858151811062000c6557fe5b6020026020010151026040518363ffffffff167c0100000000000000000000000000000000000000000000000000000000028152600401808373ffffffffffffffffffffffffffffffffffffffff1673ffffffffffffffffffffffffffffffffffffffff16815260200182815260200192505050602060405180830381600087803b15801562000cf457600080fd5b505af115801562000d09573d6000803e3d6000fd5b505050506040513d602081101562000d2057600080fd5b810190808051906020019092919050505050808060010191505062000bf6565b5060008090505b825181101562000e9157600160009054906101000a900473ffffffffffffffffffffffffffffffffffffffff1673ffffffffffffffffffffffffffffffffffffffff166340c10f1984838151811062000d9c57fe5b60200260200101516012600a0a85858151811062000db657fe5b6020026020010151026040518363ffffffff167c0100000000000000000000000000000000000000000000000000000000028152600401808373ffffffffffffffffffffffffffffffffffffffff1673ffffffffffffffffffffffffffffffffffffffff16815260200182815260200192505050602060405180830381600087803b15801562000e4557600080fd5b505af115801562000e5a573d6000803e3d6000fd5b505050506040513d602081101562000e7157600080fd5b810190808051906020019092919050505050808060010191505062000d47565b506012600a0a6305f5e10002600160009054906101000a900473ffffffffffffffffffffffffffffffffffffffff1673ffffffffffffffffffffffffffffffffffffffff166318160ddd6040518163ffffffff167c010000000000000000000000000000000000000000000000000000000002815260040160206040518083038186803b15801562000f2257600080fd5b505afa15801562000f37573d6000803e3d6000fd5b505050506040513d602081101562000f4e57600080fd5b81019080805190602001909291905050501462000fd3576040517f08c379a00000000000000000000000000000000000000000000000000000000081526004018080602001828103825260168152602001807f415641494c41424c455f544f54414c5f535550504c590000000000000000000081525060200191505060405180910390fd5b505050505050505050505050505062001193565b6200100062001027640100000000026401000000009004565b6200100a57600080fd5b62001024816200107e640100000000026401000000009004565b50565b60008060009054906101000a900473ffffffffffffffffffffffffffffffffffffffff1673ffffffffffffffffffffffffffffffffffffffff163373ffffffffffffffffffffffffffffffffffffffff1614905090565b600073ffffffffffffffffffffffffffffffffffffffff168173ffffffffffffffffffffffffffffffffffffffff161415620010b957600080fd5b8073ffffffffffffffffffffffffffffffffffffffff166000809054906101000a900473ffffffffffffffffffffffffffffffffffffffff1673ffffffffffffffffffffffffffffffffffffffff167f8be0079c531659141344cd1fd0a4f28419497f9722a3daafe3b4186f6b6457e060405160405180910390a3806000806101000a81548173ffffffffffffffffffffffffffffffffffffffff021916908373ffffffffffffffffffffffffffffffffffffffff16021790555050565b61260980620016dd83390190565b611dba8062003ce683390190565b61053a80620011a36000396000f3fe608060405234801561001057600080fd5b506004361061009a576000357c010000000000000000000000000000000000000000000000000000000090048063f2fde38b11610078578063f2fde38b14610115578063f6fc96ad14610159578063fc0c546a146101a3578063fdea8e0b146101ed5761009a565b8063715018a61461009f5780638da5cb5b146100a95780638f32d59b146100f3575b600080fd5b6100a7610237565b005b6100b1610307565b604051808273ffffffffffffffffffffffffffffffffffffffff1673ffffffffffffffffffffffffffffffffffffffff16815260200191505060405180910390f35b6100fb610330565b604051808215151515815260200191505060405180910390f35b6101576004803603602081101561012b57600080fd5b81019080803573ffffffffffffffffffffffffffffffffffffffff169060200190929190505050610387565b005b6101616103a4565b604051808273ffffffffffffffffffffffffffffffffffffffff1673ffffffffffffffffffffffffffffffffffffffff16815260200191505060405180910390f35b6101ab6103ca565b604051808273ffffffffffffffffffffffffffffffffffffffff1673ffffffffffffffffffffffffffffffffffffffff16815260200191505060405180910390f35b6101f56103f0565b604051808273ffffffffffffffffffffffffffffffffffffffff1673ffffffffffffffffffffffffffffffffffffffff16815260200191505060405180910390f35b61023f610330565b61024857600080fd5b600073ffffffffffffffffffffffffffffffffffffffff166000809054906101000a900473ffffffffffffffffffffffffffffffffffffffff1673ffffffffffffffffffffffffffffffffffffffff167f8be0079c531659141344cd1fd0a4f28419497f9722a3daafe3b4186f6b6457e060405160405180910390a360008060006101000a81548173ffffffffffffffffffffffffffffffffffffffff021916908373ffffffffffffffffffffffffffffffffffffffff160217905550565b60008060009054906101000a900473ffffffffffffffffffffffffffffffffffffffff16905090565b60008060009054906101000a900473ffffffffffffffffffffffffffffffffffffffff1673ffffffffffffffffffffffffffffffffffffffff163373ffffffffffffffffffffffffffffffffffffffff1614905090565b61038f610330565b61039857600080fd5b6103a181610416565b50565b600360009054906101000a900473ffffffffffffffffffffffffffffffffffffffff1681565b600160009054906101000a900473ffffffffffffffffffffffffffffffffffffffff1681565b600260009054906101000a900473ffffffffffffffffffffffffffffffffffffffff1681565b600073ffffffffffffffffffffffffffffffffffffffff168173ffffffffffffffffffffffffffffffffffffffff16141561045057600080fd5b8073ffffffffffffffffffffffffffffffffffffffff166000809054906101000a900473ffffffffffffffffffffffffffffffffffffffff1673ffffffffffffffffffffffffffffffffffffffff167f8be0079c531659141344cd1fd0a4f28419497f9722a3daafe3b4186f6b6457e060405160405180910390a3806000806101000a81548173ffffffffffffffffffffffffffffffffffffffff021916908373ffffffffffffffffffffffffffffffffffffffff1602179055505056fea165627a7a723058208825dc97b610363287ec610e988cabe79560f015d9f436a32d70cf8ffe8624d0002960806040523480156200001157600080fd5b506040516200260938038062002609833981018060405260808110156200003757600080fd5b810190808051906020019092919080516401000000008111156200005a57600080fd5b828101905060208101848111156200007157600080fd5b81518560018202830111640100000000821117156200008f57600080fd5b50509291906020018051640100000000811115620000ac57600080fd5b82810190506020810184811115620000c357600080fd5b8151856001820283011164010000000082111715620000e157600080fd5b50509291906020018051906020019092919050505082828282600390805190602001906200011192919062000594565b5081600490805190602001906200012a92919062000594565b5080600560006101000a81548160ff021916908360ff160217905550505050620001633362000245640100000000026401000000009004565b33600760006101000a81548173ffffffffffffffffffffffffffffffffffffffff021916908373ffffffffffffffffffffffffffffffffffffffff160217905550600760009054906101000a900473ffffffffffffffffffffffffffffffffffffffff1673ffffffffffffffffffffffffffffffffffffffff16600073ffffffffffffffffffffffffffffffffffffffff167f8be0079c531659141344cd1fd0a4f28419497f9722a3daafe3b4186f6b6457e060405160405180910390a36200023b84620002af640100000000026401000000009004565b5050505062000643565b62000269816006620002ef6401000000000262001e33179091906401000000009004565b8073ffffffffffffffffffffffffffffffffffffffff167f6ae172837ea30b801fbfcdd4108aa1d5bf8ff775444fd70256b44e6bf3dfc3f660405160405180910390a250565b620002c8620003ae640100000000026401000000009004565b620002d257600080fd5b620002ec8162000406640100000000026401000000009004565b50565b600073ffffffffffffffffffffffffffffffffffffffff168173ffffffffffffffffffffffffffffffffffffffff1614156200032a57600080fd5b62000345828262000501640100000000026401000000009004565b156200035057600080fd5b60018260000160008373ffffffffffffffffffffffffffffffffffffffff1673ffffffffffffffffffffffffffffffffffffffff16815260200190815260200160002060006101000a81548160ff0219169083151502179055505050565b6000600760009054906101000a900473ffffffffffffffffffffffffffffffffffffffff1673ffffffffffffffffffffffffffffffffffffffff163373ffffffffffffffffffffffffffffffffffffffff1614905090565b600073ffffffffffffffffffffffffffffffffffffffff168173ffffffffffffffffffffffffffffffffffffffff1614156200044157600080fd5b8073ffffffffffffffffffffffffffffffffffffffff16600760009054906101000a900473ffffffffffffffffffffffffffffffffffffffff1673ffffffffffffffffffffffffffffffffffffffff167f8be0079c531659141344cd1fd0a4f28419497f9722a3daafe3b4186f6b6457e060405160405180910390a380600760006101000a81548173ffffffffffffffffffffffffffffffffffffffff021916908373ffffffffffffffffffffffffffffffffffffffff16021790555050565b60008073ffffffffffffffffffffffffffffffffffffffff168273ffffffffffffffffffffffffffffffffffffffff1614156200053d57600080fd5b8260000160008373ffffffffffffffffffffffffffffffffffffffff1673ffffffffffffffffffffffffffffffffffffffff16815260200190815260200160002060009054906101000a900460ff16905092915050565b828054600181600116156101000203166002900490600052602060002090601f016020900481019282601f10620005d757805160ff191683800117855562000608565b8280016001018555821562000608579182015b8281111562000607578251825591602001919060010190620005ea565b5b5090506200061791906200061b565b5090565b6200064091905b808211156200063c57600081600090555060010162000622565b5090565b90565b611fb680620006536000396000f3fe608060405234801561001057600080fd5b506004361061015f576000357c01000000000000000000000000000000000000000000000000000000009004806379cc6790116100d557806398650275116100995780639865027514610678578063a457c2d714610682578063a9059cbb146106e8578063aa271e1a1461074e578063dd62ed3e146107aa578063f2fde38b146108225761015f565b806379cc6790146104f75780638da5cb5b146105455780638f32d59b1461058f57806395d89b41146105b1578063983b2d56146106345761015f565b80633950935111610127578063395093511461031557806340c10f191461037b57806342966c68146103e157806361ead3381461040f57806370a0823114610495578063715018a6146104ed5761015f565b806306fdde0314610164578063095ea7b3146101e757806318160ddd1461024d57806323b872dd1461026b578063313ce567146102f1575b600080fd5b61016c610866565b6040518080602001828103825283818151815260200191508051906020019080838360005b838110156101ac578082015181840152602081019050610191565b50505050905090810190601f1680156101d95780820380516001836020036101000a031916815260200191505b509250505060405180910390f35b610233600480360360408110156101fd57600080fd5b81019080803573ffffffffffffffffffffffffffffffffffffffff16906020019092919080359060200190929190505050610908565b604051808215151515815260200191505060405180910390f35b610255610a33565b6040518082815260200191505060405180910390f35b6102d76004803603606081101561028157600080fd5b81019080803573ffffffffffffffffffffffffffffffffffffffff169060200190929190803573ffffffffffffffffffffffffffffffffffffffff16906020019092919080359060200190929190505050610a3d565b604051808215151515815260200191505060405180910390f35b6102f9610c45565b604051808260ff1660ff16815260200191505060405180910390f35b6103616004803603604081101561032b57600080fd5b81019080803573ffffffffffffffffffffffffffffffffffffffff16906020019092919080359060200190929190505050610c5c565b604051808215151515815260200191505060405180910390f35b6103c76004803603604081101561039157600080fd5b81019080803573ffffffffffffffffffffffffffffffffffffffff16906020019092919080359060200190929190505050610e91565b604051808215151515815260200191505060405180910390f35b61040d600480360360208110156103f757600080fd5b8101908080359060200190929190505050610eb9565b005b61047b6004803603606081101561042557600080fd5b81019080803573ffffffffffffffffffffffffffffffffffffffff169060200190929190803573ffffffffffffffffffffffffffffffffffffffff16906020019092919080359060200190929190505050610ec6565b604051808215151515815260200191505060405180910390f35b6104d7600480360360208110156104ab57600080fd5b81019080803573ffffffffffffffffffffffffffffffffffffffff169060200190929190505050610fc6565b6040518082815260200191505060405180910390f35b6104f561100e565b005b6105436004803603604081101561050d57600080fd5b81019080803573ffffffffffffffffffffffffffffffffffffffff169060200190929190803590602001909291905050506110e0565b005b61054d6110ee565b604051808273ffffffffffffffffffffffffffffffffffffffff1673ffffffffffffffffffffffffffffffffffffffff16815260200191505060405180910390f35b610597611118565b604051808215151515815260200191505060405180910390f35b6105b9611170565b6040518080602001828103825283818151815260200191508051906020019080838360005b838110156105f95780820151818401526020810190506105de565b50505050905090810190601f1680156106265780820380516001836020036101000a031916815260200191505b509250505060405180910390f35b6106766004803603602081101561064a57600080fd5b81019080803573ffffffffffffffffffffffffffffffffffffffff169060200190929190505050611212565b005b610680611230565b005b6106ce6004803603604081101561069857600080fd5b81019080803573ffffffffffffffffffffffffffffffffffffffff1690602001909291908035906020019092919050505061123b565b604051808215151515815260200191505060405180910390f35b610734600480360360408110156106fe57600080fd5b81019080803573ffffffffffffffffffffffffffffffffffffffff16906020019092919080359060200190929190505050611470565b604051808215151515815260200191505060405180910390f35b6107906004803603602081101561076457600080fd5b81019080803573ffffffffffffffffffffffffffffffffffffffff169060200190929190505050611487565b604051808215151515815260200191505060405180910390f35b61080c600480360360408110156107c057600080fd5b81019080803573ffffffffffffffffffffffffffffffffffffffff169060200190929190803573ffffffffffffffffffffffffffffffffffffffff1690602001909291905050506114a4565b6040518082815260200191505060405180910390f35b6108646004803603602081101561083857600080fd5b81019080803573ffffffffffffffffffffffffffffffffffffffff16906020019092919050505061152b565b005b606060038054600181600116156101000203166002900480601f0160208091040260200160405190810160405280929190818152602001828054600181600116156101000203166002900480156108fe5780601f106108d3576101008083540402835291602001916108fe565b820191906000526020600020905b8154815290600101906020018083116108e157829003601f168201915b5050505050905090565b60008073ffffffffffffffffffffffffffffffffffffffff168373ffffffffffffffffffffffffffffffffffffffff16141561094357600080fd5b81600160003373ffffffffffffffffffffffffffffffffffffffff1673ffffffffffffffffffffffffffffffffffffffff16815260200190815260200160002060008573ffffffffffffffffffffffffffffffffffffffff1673ffffffffffffffffffffffffffffffffffffffff168152602001908152602001600020819055508273ffffffffffffffffffffffffffffffffffffffff163373ffffffffffffffffffffffffffffffffffffffff167f8c5be1e5ebec7d5bd14f71427d1e84f3dd0314c0f7b2291e5b200ac8c7c3b925846040518082815260200191505060405180910390a36001905092915050565b6000600254905090565b6000610ace82600160008773ffffffffffffffffffffffffffffffffffffffff1673ffffffffffffffffffffffffffffffffffffffff16815260200190815260200160002060003373ffffffffffffffffffffffffffffffffffffffff1673ffffffffffffffffffffffffffffffffffffffff1681526020019081526020016000205461154890919063ffffffff16565b600160008673ffffffffffffffffffffffffffffffffffffffff1673ffffffffffffffffffffffffffffffffffffffff16815260200190815260200160002060003373ffffffffffffffffffffffffffffffffffffffff1673ffffffffffffffffffffffffffffffffffffffff16815260200190815260200160002081905550610b59848484611568565b3373ffffffffffffffffffffffffffffffffffffffff168473ffffffffffffffffffffffffffffffffffffffff167f8c5be1e5ebec7d5bd14f71427d1e84f3dd0314c0f7b2291e5b200ac8c7c3b925600160008873ffffffffffffffffffffffffffffffffffffffff1673ffffffffffffffffffffffffffffffffffffffff16815260200190815260200160002060003373ffffffffffffffffffffffffffffffffffffffff1673ffffffffffffffffffffffffffffffffffffffff168152602001908152602001600020546040518082815260200191505060405180910390a3600190509392505050565b6000600560009054906101000a900460ff16905090565b60008073ffffffffffffffffffffffffffffffffffffffff168373ffffffffffffffffffffffffffffffffffffffff161415610c9757600080fd5b610d2682600160003373ffffffffffffffffffffffffffffffffffffffff1673ffffffffffffffffffffffffffffffffffffffff16815260200190815260200160002060008673ffffffffffffffffffffffffffffffffffffffff1673ffffffffffffffffffffffffffffffffffffffff1681526020019081526020016000205461173290919063ffffffff16565b600160003373ffffffffffffffffffffffffffffffffffffffff1673ffffffffffffffffffffffffffffffffffffffff16815260200190815260200160002060008573ffffffffffffffffffffffffffffffffffffffff1673ffffffffffffffffffffffffffffffffffffffff168152602001908152602001600020819055508273ffffffffffffffffffffffffffffffffffffffff163373ffffffffffffffffffffffffffffffffffffffff167f8c5be1e5ebec7d5bd14f71427d1e84f3dd0314c0f7b2291e5b200ac8c7c3b925600160003373ffffffffffffffffffffffffffffffffffffffff1673ffffffffffffffffffffffffffffffffffffffff16815260200190815260200160002060008773ffffffffffffffffffffffffffffffffffffffff1673ffffffffffffffffffffffffffffffffffffffff168152602001908152602001600020546040518082815260200191505060405180910390a36001905092915050565b6000610e9c33611487565b610ea557600080fd5b610eaf8383611751565b6001905092915050565b610ec333826118a3565b50565b6000610ed0611118565b610ed957600080fd5b60008490508073ffffffffffffffffffffffffffffffffffffffff1663a9059cbb85856040518363ffffffff167c0100000000000000000000000000000000000000000000000000000000028152600401808373ffffffffffffffffffffffffffffffffffffffff1673ffffffffffffffffffffffffffffffffffffffff16815260200182815260200192505050602060405180830381600087803b158015610f8157600080fd5b505af1158015610f95573d6000803e3d6000fd5b505050506040513d6020811015610fab57600080fd5b81019080805190602001909291905050509150509392505050565b60008060008373ffffffffffffffffffffffffffffffffffffffff1673ffffffffffffffffffffffffffffffffffffffff168152602001908152602001600020549050919050565b611016611118565b61101f57600080fd5b600073ffffffffffffffffffffffffffffffffffffffff16600760009054906101000a900473ffffffffffffffffffffffffffffffffffffffff1673ffffffffffffffffffffffffffffffffffffffff167f8be0079c531659141344cd1fd0a4f28419497f9722a3daafe3b4186f6b6457e060405160405180910390a36000600760006101000a81548173ffffffffffffffffffffffffffffffffffffffff021916908373ffffffffffffffffffffffffffffffffffffffff160217905550565b6110ea82826119f5565b5050565b6000600760009054906101000a900473ffffffffffffffffffffffffffffffffffffffff16905090565b6000600760009054906101000a900473ffffffffffffffffffffffffffffffffffffffff1673ffffffffffffffffffffffffffffffffffffffff163373ffffffffffffffffffffffffffffffffffffffff1614905090565b606060048054600181600116156101000203166002900480601f0160208091040260200160405190810160405280929190818152602001828054600181600116156101000203166002900480156112085780601f106111dd57610100808354040283529160200191611208565b820191906000526020600020905b8154815290600101906020018083116111eb57829003601f168201915b5050505050905090565b61121b33611487565b61122457600080fd5b61122d81611bf3565b50565b61123933611c4d565b565b60008073ffffffffffffffffffffffffffffffffffffffff168373ffffffffffffffffffffffffffffffffffffffff16141561127657600080fd5b61130582600160003373ffffffffffffffffffffffffffffffffffffffff1673ffffffffffffffffffffffffffffffffffffffff16815260200190815260200160002060008673ffffffffffffffffffffffffffffffffffffffff1673ffffffffffffffffffffffffffffffffffffffff1681526020019081526020016000205461154890919063ffffffff16565b600160003373ffffffffffffffffffffffffffffffffffffffff1673ffffffffffffffffffffffffffffffffffffffff16815260200190815260200160002060008573ffffffffffffffffffffffffffffffffffffffff1673ffffffffffffffffffffffffffffffffffffffff168152602001908152602001600020819055508273ffffffffffffffffffffffffffffffffffffffff163373ffffffffffffffffffffffffffffffffffffffff167f8c5be1e5ebec7d5bd14f71427d1e84f3dd0314c0f7b2291e5b200ac8c7c3b925600160003373ffffffffffffffffffffffffffffffffffffffff1673ffffffffffffffffffffffffffffffffffffffff16815260200190815260200160002060008773ffffffffffffffffffffffffffffffffffffffff1673ffffffffffffffffffffffffffffffffffffffff168152602001908152602001600020546040518082815260200191505060405180910390a36001905092915050565b600061147d338484611568565b6001905092915050565b600061149d826006611ca790919063ffffffff16565b9050919050565b6000600160008473ffffffffffffffffffffffffffffffffffffffff1673ffffffffffffffffffffffffffffffffffffffff16815260200190815260200160002060008373ffffffffffffffffffffffffffffffffffffffff1673ffffffffffffffffffffffffffffffffffffffff16815260200190815260200160002054905092915050565b611533611118565b61153c57600080fd5b61154581611d39565b50565b60008282111561155757600080fd5b600082840390508091505092915050565b600073ffffffffffffffffffffffffffffffffffffffff168273ffffffffffffffffffffffffffffffffffffffff1614156115a257600080fd5b6115f3816000808673ffffffffffffffffffffffffffffffffffffffff1673ffffffffffffffffffffffffffffffffffffffff1681526020019081526020016000205461154890919063ffffffff16565b6000808573ffffffffffffffffffffffffffffffffffffffff1673ffffffffffffffffffffffffffffffffffffffff16815260200190815260200160002081905550611686816000808573ffffffffffffffffffffffffffffffffffffffff1673ffffffffffffffffffffffffffffffffffffffff1681526020019081526020016000205461173290919063ffffffff16565b6000808473ffffffffffffffffffffffffffffffffffffffff1673ffffffffffffffffffffffffffffffffffffffff168152602001908152602001600020819055508173ffffffffffffffffffffffffffffffffffffffff168373ffffffffffffffffffffffffffffffffffffffff167fddf252ad1be2c89b69c2b068fc378daa952ba7f163c4a11628f55a4df523b3ef836040518082815260200191505060405180910390a3505050565b60008082840190508381101561174757600080fd5b8091505092915050565b600073ffffffffffffffffffffffffffffffffffffffff168273ffffffffffffffffffffffffffffffffffffffff16141561178b57600080fd5b6117a08160025461173290919063ffffffff16565b6002819055506117f7816000808573ffffffffffffffffffffffffffffffffffffffff1673ffffffffffffffffffffffffffffffffffffffff1681526020019081526020016000205461173290919063ffffffff16565b6000808473ffffffffffffffffffffffffffffffffffffffff1673ffffffffffffffffffffffffffffffffffffffff168152602001908152602001600020819055508173ffffffffffffffffffffffffffffffffffffffff16600073ffffffffffffffffffffffffffffffffffffffff167fddf252ad1be2c89b69c2b068fc378daa952ba7f163c4a11628f55a4df523b3ef836040518082815260200191505060405180910390a35050565b600073ffffffffffffffffffffffffffffffffffffffff168273ffffffffffffffffffffffffffffffffffffffff1614156118dd57600080fd5b6118f28160025461154890919063ffffffff16565b600281905550611949816000808573ffffffffffffffffffffffffffffffffffffffff1673ffffffffffffffffffffffffffffffffffffffff1681526020019081526020016000205461154890919063ffffffff16565b6000808473ffffffffffffffffffffffffffffffffffffffff1673ffffffffffffffffffffffffffffffffffffffff16815260200190815260200160002081905550600073ffffffffffffffffffffffffffffffffffffffff168273ffffffffffffffffffffffffffffffffffffffff167fddf252ad1be2c89b69c2b068fc378daa952ba7f163c4a11628f55a4df523b3ef836040518082815260200191505060405180910390a35050565b611a8481600160008573ffffffffffffffffffffffffffffffffffffffff1673ffffffffffffffffffffffffffffffffffffffff16815260200190815260200160002060003373ffffffffffffffffffffffffffffffffffffffff1673ffffffffffffffffffffffffffffffffffffffff1681526020019081526020016000205461154890919063ffffffff16565b600160008473ffffffffffffffffffffffffffffffffffffffff1673ffffffffffffffffffffffffffffffffffffffff16815260200190815260200160002060003373ffffffffffffffffffffffffffffffffffffffff1673ffffffffffffffffffffffffffffffffffffffff16815260200190815260200160002081905550611b0e82826118a3565b3373ffffffffffffffffffffffffffffffffffffffff168273ffffffffffffffffffffffffffffffffffffffff167f8c5be1e5ebec7d5bd14f71427d1e84f3dd0314c0f7b2291e5b200ac8c7c3b925600160008673ffffffffffffffffffffffffffffffffffffffff1673ffffffffffffffffffffffffffffffffffffffff16815260200190815260200160002060003373ffffffffffffffffffffffffffffffffffffffff1673ffffffffffffffffffffffffffffffffffffffff168152602001908152602001600020546040518082815260200191505060405180910390a35050565b611c07816006611e3390919063ffffffff16565b8073ffffffffffffffffffffffffffffffffffffffff167f6ae172837ea30b801fbfcdd4108aa1d5bf8ff775444fd70256b44e6bf3dfc3f660405160405180910390a250565b611c61816006611edf90919063ffffffff16565b8073ffffffffffffffffffffffffffffffffffffffff167fe94479a9f7e1952cc78f2d6baab678adc1b772d936c6583def489e524cb6669260405160405180910390a250565b60008073ffffffffffffffffffffffffffffffffffffffff168273ffffffffffffffffffffffffffffffffffffffff161415611ce257600080fd5b8260000160008373ffffffffffffffffffffffffffffffffffffffff1673ffffffffffffffffffffffffffffffffffffffff16815260200190815260200160002060009054906101000a900460ff16905092915050565b600073ffffffffffffffffffffffffffffffffffffffff168173ffffffffffffffffffffffffffffffffffffffff161415611d7357600080fd5b8073ffffffffffffffffffffffffffffffffffffffff16600760009054906101000a900473ffffffffffffffffffffffffffffffffffffffff1673ffffffffffffffffffffffffffffffffffffffff167f8be0079c531659141344cd1fd0a4f28419497f9722a3daafe3b4186f6b6457e060405160405180910390a380600760006101000a81548173ffffffffffffffffffffffffffffffffffffffff021916908373ffffffffffffffffffffffffffffffffffffffff16021790555050565b600073ffffffffffffffffffffffffffffffffffffffff168173ffffffffffffffffffffffffffffffffffffffff161415611e6d57600080fd5b611e778282611ca7565b15611e8157600080fd5b60018260000160008373ffffffffffffffffffffffffffffffffffffffff1673ffffffffffffffffffffffffffffffffffffffff16815260200190815260200160002060006101000a81548160ff0219169083151502179055505050565b600073ffffffffffffffffffffffffffffffffffffffff168173ffffffffffffffffffffffffffffffffffffffff161415611f1957600080fd5b611f238282611ca7565b611f2c57600080fd5b60008260000160008373ffffffffffffffffffffffffffffffffffffffff1673ffffffffffffffffffffffffffffffffffffffff16815260200190815260200160002060006101000a81548160ff021916908315150217905550505056fea165627a7a723058202e5ada26ddd32aaa3b0dcc215bc0b7aa1d884e8c4828959471aa3469bf30212d002960806040523480156200001157600080fd5b5060405160c08062001dba833981018060405260c08110156200003357600080fd5b81019080805190602001909291908051906020019092919080519060200190929190805190602001909291908051906020019092919080519060200190929190505050858583838988886200009733620004fc640100000000026401000000009004565b60016002819055506000831162000116576040517f08c379a00000000000000000000000000000000000000000000000000000000081526004018080602001828103825260018152602001807f310000000000000000000000000000000000000000000000000000000000000081525060200191505060405180910390fd5b600073ffffffffffffffffffffffffffffffffffffffff168273ffffffffffffffffffffffffffffffffffffffff161415620001ba576040517f08c379a00000000000000000000000000000000000000000000000000000000081526004018080602001828103825260018152602001807f320000000000000000000000000000000000000000000000000000000000000081525060200191505060405180910390fd5b600073ffffffffffffffffffffffffffffffffffffffff168173ffffffffffffffffffffffffffffffffffffffff1614156200025e576040517f08c379a00000000000000000000000000000000000000000000000000000000081526004018080602001828103825260018152602001807f330000000000000000000000000000000000000000000000000000000000000081525060200191505060405180910390fd5b8260058190555081600460006101000a81548173ffffffffffffffffffffffffffffffffffffffff021916908373ffffffffffffffffffffffffffffffffffffffff16021790555080600360006101000a81548173ffffffffffffffffffffffffffffffffffffffff021916908373ffffffffffffffffffffffffffffffffffffffff1602179055505050504282101562000361576040517f08c379a00000000000000000000000000000000000000000000000000000000081526004018080602001828103825260018152602001807f390000000000000000000000000000000000000000000000000000000000000081525060200191505060405180910390fd5b818111620003d7576040517f08c379a00000000000000000000000000000000000000000000000000000000081526004018080602001828103825260028152602001807f313000000000000000000000000000000000000000000000000000000000000081525060200191505060405180910390fd5b8160078190555080600881905550505033600960006101000a81548173ffffffffffffffffffffffffffffffffffffffff021916908373ffffffffffffffffffffffffffffffffffffffff160217905550600960009054906101000a900473ffffffffffffffffffffffffffffffffffffffff1673ffffffffffffffffffffffffffffffffffffffff16600073ffffffffffffffffffffffffffffffffffffffff167f8be0079c531659141344cd1fd0a4f28419497f9722a3daafe3b4186f6b6457e060405160405180910390a360008211620004b357600080fd5b81600a81905550620004d48162000566640100000000026401000000009004565b5050620004f085620005a6640100000000026401000000009004565b505050505050620008b9565b62000520816000620005e76401000000000262001236179091906401000000009004565b8073ffffffffffffffffffffffffffffffffffffffff167f22380c05984257a1cb900161c713dd71d39e74820f1aea43bd3f1bdd2096129960405160405180910390a250565b6200057f620006a6640100000000026401000000009004565b6200058957600080fd5b620005a381620006fe640100000000026401000000009004565b50565b620005c033620007f9640100000000026401000000009004565b620005ca57600080fd5b620005e481620004fc640100000000026401000000009004565b50565b600073ffffffffffffffffffffffffffffffffffffffff168173ffffffffffffffffffffffffffffffffffffffff1614156200062257600080fd5b6200063d828262000826640100000000026401000000009004565b156200064857600080fd5b60018260000160008373ffffffffffffffffffffffffffffffffffffffff1673ffffffffffffffffffffffffffffffffffffffff16815260200190815260200160002060006101000a81548160ff0219169083151502179055505050565b6000600960009054906101000a900473ffffffffffffffffffffffffffffffffffffffff1673ffffffffffffffffffffffffffffffffffffffff163373ffffffffffffffffffffffffffffffffffffffff1614905090565b600073ffffffffffffffffffffffffffffffffffffffff168173ffffffffffffffffffffffffffffffffffffffff1614156200073957600080fd5b8073ffffffffffffffffffffffffffffffffffffffff16600960009054906101000a900473ffffffffffffffffffffffffffffffffffffffff1673ffffffffffffffffffffffffffffffffffffffff167f8be0079c531659141344cd1fd0a4f28419497f9722a3daafe3b4186f6b6457e060405160405180910390a380600960006101000a81548173ffffffffffffffffffffffffffffffffffffffff021916908373ffffffffffffffffffffffffffffffffffffffff16021790555050565b60006200081f826000620008266401000000000262000f0b179091906401000000009004565b9050919050565b60008073ffffffffffffffffffffffffffffffffffffffff168273ffffffffffffffffffffffffffffffffffffffff1614156200086257600080fd5b8260000160008373ffffffffffffffffffffffffffffffffffffffff1673ffffffffffffffffffffffffffffffffffffffff16815260200190815260200160002060009054906101000a900460ff16905092915050565b6114f180620008c96000396000f3fe6080604052600436106101b9576000357c0100000000000000000000000000000000000000000000000000000000900480637362d9c811610109578063c404c721116100a7578063ec8ac4d811610081578063ec8ac4d81461077b578063f2fde38b146107bf578063f7fb07b014610810578063fc0c546a1461083b576101b9565b8063c404c721146106fe578063d1c6f44814610729578063d6cd947314610764576101b9565b80639e51051f116100e35780639e51051f14610614578063a02d85631461063f578063b7a8807c1461066a578063bb5f747b14610695576101b9565b80637362d9c81461053d5780638da5cb5b1461058e5780638f32d59b146105e5576101b9565b80633af32abf116101765780634b6753bc116101505780634b6753bc1461048d5780634c5a628c146104b8578063521eb273146104cf578063715018a614610526576101b9565b80633af32abf146103ca5780634042b66f1461043357806347535d7b1461045e576101b9565b806310154bad146101c45780631515bc2b14610215578063291d9549146102445780632a4bc321146102955780632aa3ae9c1461035a5780632c4e722e1461039f575b6101c233610892565b005b3480156101d057600080fd5b50610213600480360360208110156101e757600080fd5b81019080803573ffffffffffffffffffffffffffffffffffffffff169060200190929190505050610988565b005b34801561022157600080fd5b5061022a6109a6565b604051808215151515815260200191505060405180910390f35b34801561025057600080fd5b506102936004803603602081101561026757600080fd5b81019080803573ffffffffffffffffffffffffffffffffffffffff1690602001909291905050506109b2565b005b3480156102a157600080fd5b50610358600480360360208110156102b857600080fd5b81019080803590602001906401000000008111156102d557600080fd5b8201836020820111156102e757600080fd5b8035906020019184602083028401116401000000008311171561030957600080fd5b919080806020026020016040519081016040528093929190818152602001838360200280828437600081840152601f19601f8201169050808301925050505050505091929192905050506109d0565b005b34801561036657600080fd5b5061039d6004803603604081101561037d57600080fd5b810190808035906020019092919080359060200190929190505050610a1e565b005b3480156103ab57600080fd5b506103b4610a3d565b6040518082815260200191505060405180910390f35b3480156103d657600080fd5b50610419600480360360208110156103ed57600080fd5b81019080803573ffffffffffffffffffffffffffffffffffffffff169060200190929190505050610a44565b604051808215151515815260200191505060405180910390f35b34801561043f57600080fd5b50610448610a61565b6040518082815260200191505060405180910390f35b34801561046a57600080fd5b50610473610a6b565b604051808215151515815260200191505060405180910390f35b34801561049957600080fd5b506104a2610a86565b6040518082815260200191505060405180910390f35b3480156104c457600080fd5b506104cd610a90565b005b3480156104db57600080fd5b506104e4610a9b565b604051808273ffffffffffffffffffffffffffffffffffffffff1673ffffffffffffffffffffffffffffffffffffffff16815260200191505060405180910390f35b34801561053257600080fd5b5061053b610ac5565b005b34801561054957600080fd5b5061058c6004803603602081101561056057600080fd5b81019080803573ffffffffffffffffffffffffffffffffffffffff169060200190929190505050610b97565b005b34801561059a57600080fd5b506105a3610bb5565b604051808273ffffffffffffffffffffffffffffffffffffffff1673ffffffffffffffffffffffffffffffffffffffff16815260200191505060405180910390f35b3480156105f157600080fd5b506105fa610bdf565b604051808215151515815260200191505060405180910390f35b34801561062057600080fd5b50610629610c37565b6040518082815260200191505060405180910390f35b34801561064b57600080fd5b50610654610c41565b6040518082815260200191505060405180910390f35b34801561067657600080fd5b5061067f610c4b565b6040518082815260200191505060405180910390f35b3480156106a157600080fd5b506106e4600480360360208110156106b857600080fd5b81019080803573ffffffffffffffffffffffffffffffffffffffff169060200190929190505050610c55565b604051808215151515815260200191505060405180910390f35b34801561070a57600080fd5b50610713610c72565b6040518082815260200191505060405180910390f35b34801561073557600080fd5b506107626004803603602081101561074c57600080fd5b8101908080359060200190929190505050610c7c565b005b34801561077057600080fd5b50610779610c99565b005b6107bd6004803603602081101561079157600080fd5b81019080803573ffffffffffffffffffffffffffffffffffffffff169060200190929190505050610892565b005b3480156107cb57600080fd5b5061080e600480360360208110156107e257600080fd5b81019080803573ffffffffffffffffffffffffffffffffffffffff169060200190929190505050610ca4565b005b34801561081c57600080fd5b50610825610cc1565b6040518082815260200191505060405180910390f35b34801561084757600080fd5b50610850610cf4565b604051808273ffffffffffffffffffffffffffffffffffffffff1673ffffffffffffffffffffffffffffffffffffffff16815260200191505060405180910390f35b60016002600082825401925050819055506000600254905060003490506108b98382610d1e565b60006108c482610d3e565b90506108db82600654610d6690919063ffffffff16565b6006819055506108eb8482610d85565b8373ffffffffffffffffffffffffffffffffffffffff163373ffffffffffffffffffffffffffffffffffffffff167f6faf93231a456e552dbc9961f58d9713ee4f2e69d15f1975b050ef0911053a7b8484604051808381526020018281526020019250505060405180910390a36109628483610d93565b61096a610d97565b6109748483610e02565b5050600254811461098457600080fd5b5050565b61099133610c55565b61099a57600080fd5b6109a381610e06565b50565b60006008544211905090565b6109bb33610c55565b6109c457600080fd5b6109cd81610e60565b50565b6109d933610c55565b6109e257600080fd5b60008090505b8151811015610a1a57610a0d828281518110610a0057fe5b6020026020010151610e06565b80806001019150506109e8565b5050565b610a26610bdf565b610a2f57600080fd5b610a398282610eba565b5050565b6000806000fd5b6000610a5a826001610f0b90919063ffffffff16565b9050919050565b6000600654905090565b60006007544210158015610a8157506008544211155b905090565b6000600854905090565b610a9933610f9d565b565b6000600460009054906101000a900473ffffffffffffffffffffffffffffffffffffffff16905090565b610acd610bdf565b610ad657600080fd5b600073ffffffffffffffffffffffffffffffffffffffff16600960009054906101000a900473ffffffffffffffffffffffffffffffffffffffff1673ffffffffffffffffffffffffffffffffffffffff167f8be0079c531659141344cd1fd0a4f28419497f9722a3daafe3b4186f6b6457e060405160405180910390a36000600960006101000a81548173ffffffffffffffffffffffffffffffffffffffff021916908373ffffffffffffffffffffffffffffffffffffffff160217905550565b610ba033610c55565b610ba957600080fd5b610bb281610ff7565b50565b6000600960009054906101000a900473ffffffffffffffffffffffffffffffffffffffff16905090565b6000600960009054906101000a900473ffffffffffffffffffffffffffffffffffffffff1673ffffffffffffffffffffffffffffffffffffffff163373ffffffffffffffffffffffffffffffffffffffff1614905090565b6000600a54905090565b6000600b54905090565b6000600754905090565b6000610c6b826000610f0b90919063ffffffff16565b9050919050565b6000600c54905090565b610c84610bdf565b610c8d57600080fd5b610c9681611051565b50565b610ca233610e60565b565b610cac610bdf565b610cb557600080fd5b610cbe81611092565b50565b6000610ccb610a6b565b610cd85760009050610cf1565b600b544210610ceb57600c549050610cf1565b600a5490505b90565b6000600360009054906101000a900473ffffffffffffffffffffffffffffffffffffffff16905090565b610d2782610a44565b610d3057600080fd5b610d3a828261118c565b5050565b600080610d49610cc1565b9050610d5e83826111ab90919063ffffffff16565b915050919050565b600080828401905083811015610d7b57600080fd5b8091505092915050565b610d8f82826111e5565b5050565b5050565b600460009054906101000a900473ffffffffffffffffffffffffffffffffffffffff1673ffffffffffffffffffffffffffffffffffffffff166108fc349081150290604051600060405180830381858888f19350505050158015610dff573d6000803e3d6000fd5b50565b5050565b610e1a81600161123690919063ffffffff16565b8073ffffffffffffffffffffffffffffffffffffffff167fee1504a83b6d4a361f4c1dc78ab59bfa30d6a3b6612c403e86bb01ef2984295f60405160405180910390a250565b610e748160016112e290919063ffffffff16565b8073ffffffffffffffffffffffffffffffffffffffff167f270d9b30cf5b0793bbfd54c9d5b94aeb49462b8148399000265144a8722da6b660405160405180910390a250565b81600b8190555080600c819055507f4e7e6d92843fbe2fd0f27456b98f02069ee4d44de6a198b7db55f5bfd76fe9248282604051808381526020018281526020019250505060405180910390a15050565b60008073ffffffffffffffffffffffffffffffffffffffff168273ffffffffffffffffffffffffffffffffffffffff161415610f4657600080fd5b8260000160008373ffffffffffffffffffffffffffffffffffffffff1673ffffffffffffffffffffffffffffffffffffffff16815260200190815260200160002060009054906101000a900460ff16905092915050565b610fb18160006112e290919063ffffffff16565b8073ffffffffffffffffffffffffffffffffffffffff167f0a8eb35e5ca14b3d6f28e4abf2f128dbab231a58b56e89beb5d636115001e16560405160405180910390a250565b61100b81600061123690919063ffffffff16565b8073ffffffffffffffffffffffffffffffffffffffff167f22380c05984257a1cb900161c713dd71d39e74820f1aea43bd3f1bdd2096129960405160405180910390a250565b80600a819055507f2d5f5ea15ed32044e5f601470ede06bf73cf3c8983ebcfd001fc563fcec0fc9d816040518082815260200191505060405180910390a150565b600073ffffffffffffffffffffffffffffffffffffffff168173ffffffffffffffffffffffffffffffffffffffff1614156110cc57600080fd5b8073ffffffffffffffffffffffffffffffffffffffff16600960009054906101000a900473ffffffffffffffffffffffffffffffffffffffff1673ffffffffffffffffffffffffffffffffffffffff167f8be0079c531659141344cd1fd0a4f28419497f9722a3daafe3b4186f6b6457e060405160405180910390a380600960006101000a81548173ffffffffffffffffffffffffffffffffffffffff021916908373ffffffffffffffffffffffffffffffffffffffff16021790555050565b611194610a6b565b61119d57600080fd5b6111a7828261138d565b5050565b6000808314156111be57600090506111df565b60008284029050828482816111cf57fe5b04146111da57600080fd5b809150505b92915050565b6112328282600360009054906101000a900473ffffffffffffffffffffffffffffffffffffffff1673ffffffffffffffffffffffffffffffffffffffff166113d99092919063ffffffff16565b5050565b600073ffffffffffffffffffffffffffffffffffffffff168173ffffffffffffffffffffffffffffffffffffffff16141561127057600080fd5b61127a8282610f0b565b1561128457600080fd5b60018260000160008373ffffffffffffffffffffffffffffffffffffffff1673ffffffffffffffffffffffffffffffffffffffff16815260200190815260200160002060006101000a81548160ff0219169083151502179055505050565b600073ffffffffffffffffffffffffffffffffffffffff168173ffffffffffffffffffffffffffffffffffffffff16141561131c57600080fd5b6113268282610f0b565b61132f57600080fd5b60008260000160008373ffffffffffffffffffffffffffffffffffffffff1673ffffffffffffffffffffffffffffffffffffffff16815260200190815260200160002060006101000a81548160ff0219169083151502179055505050565b600073ffffffffffffffffffffffffffffffffffffffff168273ffffffffffffffffffffffffffffffffffffffff1614156113c757600080fd5b60008114156113d557600080fd5b5050565b8273ffffffffffffffffffffffffffffffffffffffff1663a9059cbb83836040518363ffffffff167c0100000000000000000000000000000000000000000000000000000000028152600401808373ffffffffffffffffffffffffffffffffffffffff1673ffffffffffffffffffffffffffffffffffffffff16815260200182815260200192505050602060405180830381600087803b15801561147c57600080fd5b505af1158015611490573d6000803e3d6000fd5b505050506040513d60208110156114a657600080fd5b81019080805190602001909291905050506114c057600080fd5b50505056fea165627a7a72305820b1f085cfd7a042e2b646852aa3e5052b1ed79ce0faa923e90f79064240ec14bd0029",
  "source": "pragma solidity ^0.5.0;\n\nimport \"./AsureToken.sol\";\nimport \"./AsureCrowdsale.sol\";\nimport \"openzeppelin-solidity/contracts/drafts/TokenVesting.sol\";\n\ncontract AsureCrowdsaleDeployer is Ownable{\n  AsureToken public token;\n  AsureCrowdsale public presale;\n  AsureCrowdsale public mainsale;\n\n  uint256 private constant decimalFactor = 10**uint256(18);\n  uint256 private constant AVAILABLE_TOTAL_SUPPLY         = 100000000 * decimalFactor;\n  uint256 private constant AVAILABLE_PRESALE_SUPPLY       =  10000000 * decimalFactor; // 10% Released at Token Distribution (TD)\n  uint256 private constant AVAILABLE_MAINSALE_SUPPLY      =  35000000 * decimalFactor; // 35% Released at Token Distribution (TD)\n  uint256 private constant AVAILABLE_FOUNDATION_SUPPLY    =  35000000 * decimalFactor; // 35% Released at Token Distribution (TD)\n  uint256 private constant AVAILABLE_BOUNTY_SUPPLY        =   5000000 * decimalFactor; // 5% Released at TD\n  uint256 private constant AVAILABLE_FAMILYFRIENDS_SUPPLY =   5000000 * decimalFactor; // 5% Released at TD\n  uint256 private constant AVAILABLE_TEAM_SUPPLY          =   8000000 * decimalFactor; // 8% Released at TD +2 years\n  uint256 private constant AVAILABLE_ADVISOR_SUPPLY       =   2000000 * decimalFactor; // 2% Released at TD +2 years\n\n\n  constructor(\n    uint256 rate,\n    address payable owner,\n    address payable crowdsaleWallet,\n    address payable foundationWallet,\n    address payable bountyWallet,\n    address payable familyFriendsWallet,\n    uint256 preSaleOpeningTime, // opening time in unix epoch seconds\n    uint256 preSaleClosingTime,  // closing time in unix epoch seconds\n    uint256 mainSaleOpeningTime, // mainSale start\n    uint256 mainSaleClosingTime, // mainSale end\n    address[] memory teamAddr,\n    uint256[] memory teamAmounts,\n    address[] memory advisorAddr,\n    uint256[] memory advisorAmounts\n  )\n  public\n  {\n    transferOwnership(owner);\n    token = new AsureToken(owner, \"AsureToken\", \"ASR\", 18);\n    presale = new AsureCrowdsale(\n      rate, // rate, in AsureTokens - 1 ETH == 1000 RUHR\n      owner, // owner\n      crowdsaleWallet, // wallet to send Ether\n      token, // the token\n      preSaleOpeningTime, // opening time in unix epoch seconds\n      preSaleClosingTime  // closing time in unix epoch seconds\n    );\n    mainsale = new AsureCrowdsale(\n      rate, // rate, in AsureTokens - 1 ETH == 1000\n      owner, // owner\n      crowdsaleWallet, // wallet to send Ether\n      token, // the token\n      mainSaleOpeningTime, // opening time in unix epoch seconds\n      mainSaleClosingTime  // closing time in unix epoch seconds\n    );\n    //presale\n    token.mint(address(presale), AVAILABLE_PRESALE_SUPPLY);\n    //mainsale\n    token.mint(address(mainsale), AVAILABLE_MAINSALE_SUPPLY);\n    //foundation\n    token.mint(foundationWallet, AVAILABLE_FOUNDATION_SUPPLY);\n    //bounty\n    token.mint(bountyWallet, AVAILABLE_BOUNTY_SUPPLY);\n    //family and friends\n    token.mint(familyFriendsWallet, AVAILABLE_FAMILYFRIENDS_SUPPLY);\n\n    //team\n    for (uint i = 0; i < teamAddr.length; i++) {\n      token.mint(teamAddr[i], teamAmounts[i]*decimalFactor);\n    }\n    //advisors\n    for (uint i = 0; i < advisorAddr.length; i++) {\n      token.mint(advisorAddr[i], advisorAmounts[i]*decimalFactor);\n    }\n\n    require(token.totalSupply() == AVAILABLE_TOTAL_SUPPLY, \"AVAILABLE_TOTAL_SUPPLY\");\n  }\n\n}\n\n\n",
  "sourcePath": "C:/git/crowdsale/packages/crowdsale/contracts/AsureCrowdsaleDeployer.sol",
  "compiler": {
    "name": "solc",
    "version": "0.5.6+commit.b259423e.Emscripten.clang"
  },
  "schemaVersion": "3.0.2",
  "updatedAt": "2019-03-16T18:30:16.170Z",
  "devdoc": {
    "methods": {
      "isOwner()": {
        "return": "true if `msg.sender` is the owner of the contract."
      },
      "owner()": {
        "return": "the address of the owner."
      },
      "renounceOwnership()": {
        "details": "Allows the current owner to relinquish control of the contract."
      },
      "transferOwnership(address)": {
        "details": "Allows the current owner to transfer control of the contract to a newOwner.",
        "params": {
          "newOwner": "The address to transfer ownership to."
        }
      }
    }
  },
  "userdoc": {
    "methods": {
      "renounceOwnership()": {
        "notice": "Renouncing to ownership will leave the contract without an owner. It will not be possible to call the functions with the `onlyOwner` modifier anymore."
      }
    }
  }
}