{
  "contractName": "AsureCrowdsaleDeployer",
  "abi": [
    {
      "constant": true,
      "inputs": [],
      "name": "mainsale",
      "outputs": [
        {
          "name": "",
          "type": "address"
        }
      ],
      "payable": false,
      "stateMutability": "view",
      "type": "function",
      "signature": "0xf6fc96ad"
    },
    {
      "constant": true,
      "inputs": [],
      "name": "token",
      "outputs": [
        {
          "name": "",
          "type": "address"
        }
      ],
      "payable": false,
      "stateMutability": "view",
      "type": "function",
      "signature": "0xfc0c546a"
    },
    {
      "constant": true,
      "inputs": [],
      "name": "presale",
      "outputs": [
        {
          "name": "",
          "type": "address"
        }
      ],
      "payable": false,
      "stateMutability": "view",
      "type": "function",
      "signature": "0xfdea8e0b"
    },
    {
      "inputs": [
        {
          "name": "owner",
          "type": "address"
        },
        {
          "name": "preSaleOpeningTime",
          "type": "uint256"
        },
        {
          "name": "preSaleClosingTime",
          "type": "uint256"
        },
        {
          "name": "mainSaleOpeningTime",
          "type": "uint256"
        },
        {
          "name": "mainSaleClosingTime",
          "type": "uint256"
        },
        {
          "name": "teamAddr",
          "type": "address[]"
        },
        {
          "name": "teamAmounts",
          "type": "uint256[]"
        },
        {
          "name": "advisorAddr",
          "type": "address[]"
        },
        {
          "name": "advisorAmounts",
          "type": "uint256[]"
        }
      ],
      "payable": false,
      "stateMutability": "nonpayable",
      "type": "constructor",
      "signature": "constructor"
    }
  ],
  "bytecode": "0x60806040523480156200001157600080fd5b5060405162004d6a38038062004d6a83398101806040526101208110156200003857600080fd5b81019080805190602001909291908051906020019092919080519060200190929190805190602001909291908051906020019092919080516401000000008111156200008357600080fd5b828101905060208101848111156200009a57600080fd5b8151856020820283011164010000000082111715620000b857600080fd5b50509291906020018051640100000000811115620000d557600080fd5b82810190506020810184811115620000ec57600080fd5b81518560208202830111640100000000821117156200010a57600080fd5b505092919060200180516401000000008111156200012757600080fd5b828101905060208101848111156200013e57600080fd5b81518560208202830111640100000000821117156200015c57600080fd5b505092919060200180516401000000008111156200017957600080fd5b828101905060208101848111156200019057600080fd5b8151856020820283011164010000000082111715620001ae57600080fd5b50509291905050508251845114620001c557600080fd5b8051825114620001d457600080fd5b6012604051620001e49062000d73565b8080602001806020018460ff1681526020018381038352600a8152602001807f4173757265546f6b656e00000000000000000000000000000000000000000000815250602001838103825260038152602001807f41535200000000000000000000000000000000000000000000000000000000008152506020019350505050604051809103906000f08015801562000280573d6000803e3d6000fd5b506000806101000a81548173ffffffffffffffffffffffffffffffffffffffff021916908373ffffffffffffffffffffffffffffffffffffffff1602179055506103e8896000809054906101000a900473ffffffffffffffffffffffffffffffffffffffff166a084595161401484a0000008b8b604051620003029062000d81565b808781526020018673ffffffffffffffffffffffffffffffffffffffff1673ffffffffffffffffffffffffffffffffffffffff1681526020018573ffffffffffffffffffffffffffffffffffffffff1673ffffffffffffffffffffffffffffffffffffffff1681526020018481526020018381526020018281526020019650505050505050604051809103906000f080158015620003a4573d6000803e3d6000fd5b50600160006101000a81548173ffffffffffffffffffffffffffffffffffffffff021916908373ffffffffffffffffffffffffffffffffffffffff1602179055506000809054906101000a900473ffffffffffffffffffffffffffffffffffffffff1673ffffffffffffffffffffffffffffffffffffffff166340c10f19600160009054906101000a900473ffffffffffffffffffffffffffffffffffffffff166a084595161401484a0000006040518363ffffffff167c0100000000000000000000000000000000000000000000000000000000028152600401808373ffffffffffffffffffffffffffffffffffffffff1673ffffffffffffffffffffffffffffffffffffffff16815260200182815260200192505050602060405180830381600087803b158015620004d757600080fd5b505af1158015620004ec573d6000803e3d6000fd5b505050506040513d60208110156200050357600080fd5b8101908080519060200190929190505050506000809054906101000a900473ffffffffffffffffffffffffffffffffffffffff1673ffffffffffffffffffffffffffffffffffffffff166340c10f1973cbbc3d3d381f3a9a48cbae9ca701ac3c92e0aea56a0422ca8b0a00a4250000006040518363ffffffff167c0100000000000000000000000000000000000000000000000000000000028152600401808373ffffffffffffffffffffffffffffffffffffffff1673ffffffffffffffffffffffffffffffffffffffff16815260200182815260200192505050602060405180830381600087803b158015620005f957600080fd5b505af11580156200060e573d6000803e3d6000fd5b505050506040513d60208110156200062557600080fd5b8101908080519060200190929190505050506000809054906101000a900473ffffffffffffffffffffffffffffffffffffffff1673ffffffffffffffffffffffffffffffffffffffff166340c10f1973cbbc3d3d381f3a9a48cbae9ca701ac3c92e0aea56a0422ca8b0a00a4250000006040518363ffffffff167c0100000000000000000000000000000000000000000000000000000000028152600401808373ffffffffffffffffffffffffffffffffffffffff1673ffffffffffffffffffffffffffffffffffffffff16815260200182815260200192505050602060405180830381600087803b1580156200071b57600080fd5b505af115801562000730573d6000803e3d6000fd5b505050506040513d60208110156200074757600080fd5b8101908080519060200190929190505050506103e8896000809054906101000a900473ffffffffffffffffffffffffffffffffffffffff166a1cf389cd46047d0300000089896040516200079b9062000d81565b808781526020018673ffffffffffffffffffffffffffffffffffffffff1673ffffffffffffffffffffffffffffffffffffffff1681526020018573ffffffffffffffffffffffffffffffffffffffff1673ffffffffffffffffffffffffffffffffffffffff1681526020018481526020018381526020018281526020019650505050505050604051809103906000f0801580156200083d573d6000803e3d6000fd5b50600260006101000a81548173ffffffffffffffffffffffffffffffffffffffff021916908373ffffffffffffffffffffffffffffffffffffffff1602179055506000809054906101000a900473ffffffffffffffffffffffffffffffffffffffff1673ffffffffffffffffffffffffffffffffffffffff166340c10f19600260009054906101000a900473ffffffffffffffffffffffffffffffffffffffff166a1cf389cd46047d030000006040518363ffffffff167c0100000000000000000000000000000000000000000000000000000000028152600401808373ffffffffffffffffffffffffffffffffffffffff1673ffffffffffffffffffffffffffffffffffffffff16815260200182815260200192505050602060405180830381600087803b1580156200097057600080fd5b505af115801562000985573d6000803e3d6000fd5b505050506040513d60208110156200099c57600080fd5b8101908080519060200190929190505050506000809054906101000a900473ffffffffffffffffffffffffffffffffffffffff1673ffffffffffffffffffffffffffffffffffffffff166340c10f1973cbbc3d3d381f3a9a48cbae9ca701ac3c92e0aea56a1cf389cd46047d030000006040518363ffffffff167c0100000000000000000000000000000000000000000000000000000000028152600401808373ffffffffffffffffffffffffffffffffffffffff1673ffffffffffffffffffffffffffffffffffffffff16815260200182815260200192505050602060405180830381600087803b15801562000a9257600080fd5b505af115801562000aa7573d6000803e3d6000fd5b505050506040513d602081101562000abe57600080fd5b81019080805190602001909291905050505060008090505b845181101562000c19576000809054906101000a900473ffffffffffffffffffffffffffffffffffffffff1673ffffffffffffffffffffffffffffffffffffffff166340c10f1986838151811062000b2a57fe5b602002602001015186848151811062000b3f57fe5b60200260200101516040518363ffffffff167c0100000000000000000000000000000000000000000000000000000000028152600401808373ffffffffffffffffffffffffffffffffffffffff1673ffffffffffffffffffffffffffffffffffffffff16815260200182815260200192505050602060405180830381600087803b15801562000bcd57600080fd5b505af115801562000be2573d6000803e3d6000fd5b505050506040513d602081101562000bf957600080fd5b810190808051906020019092919050505050808060010191505062000ad6565b5060008090505b825181101562000d63576000809054906101000a900473ffffffffffffffffffffffffffffffffffffffff1673ffffffffffffffffffffffffffffffffffffffff166340c10f1984838151811062000c7457fe5b602002602001015184848151811062000c8957fe5b60200260200101516040518363ffffffff167c0100000000000000000000000000000000000000000000000000000000028152600401808373ffffffffffffffffffffffffffffffffffffffff1673ffffffffffffffffffffffffffffffffffffffff16815260200182815260200192505050602060405180830381600087803b15801562000d1757600080fd5b505af115801562000d2c573d6000803e3d6000fd5b505050506040513d602081101562000d4357600080fd5b810190808051906020019092919050505050808060010191505062000c20565b5050505050505050505062000d8f565b611eb18062000f7d83390190565b611f3c8062002e2e83390190565b6101de8062000d9f6000396000f3fe608060405234801561001057600080fd5b506004361061005e576000357c010000000000000000000000000000000000000000000000000000000090048063f6fc96ad14610063578063fc0c546a146100ad578063fdea8e0b146100f7575b600080fd5b61006b610141565b604051808273ffffffffffffffffffffffffffffffffffffffff1673ffffffffffffffffffffffffffffffffffffffff16815260200191505060405180910390f35b6100b5610167565b604051808273ffffffffffffffffffffffffffffffffffffffff1673ffffffffffffffffffffffffffffffffffffffff16815260200191505060405180910390f35b6100ff61018c565b604051808273ffffffffffffffffffffffffffffffffffffffff1673ffffffffffffffffffffffffffffffffffffffff16815260200191505060405180910390f35b600260009054906101000a900473ffffffffffffffffffffffffffffffffffffffff1681565b6000809054906101000a900473ffffffffffffffffffffffffffffffffffffffff1681565b600160009054906101000a900473ffffffffffffffffffffffffffffffffffffffff168156fea165627a7a72305820c588f47b177e66d966898b35bb8cc424b5800624ce489af08061796f5b0e5e29002960806040523480156200001157600080fd5b5060405162001eb138038062001eb1833981018060405260608110156200003757600080fd5b8101908080516401000000008111156200005057600080fd5b828101905060208101848111156200006757600080fd5b81518560018202830111640100000000821117156200008557600080fd5b50509291906020018051640100000000811115620000a257600080fd5b82810190506020810184811115620000b957600080fd5b8151856001820283011164010000000082111715620000d757600080fd5b5050929190602001805190602001909291905050508282828260039080519060200190620001079291906200031e565b508160049080519060200190620001209291906200031e565b5080600560006101000a81548160ff021916908360ff160217905550505050620001593362000162640100000000026401000000009004565b505050620003cd565b62000186816006620001cc6401000000000262001951179091906401000000009004565b8073ffffffffffffffffffffffffffffffffffffffff167f6ae172837ea30b801fbfcdd4108aa1d5bf8ff775444fd70256b44e6bf3dfc3f660405160405180910390a250565b600073ffffffffffffffffffffffffffffffffffffffff168173ffffffffffffffffffffffffffffffffffffffff1614156200020757600080fd5b6200022282826200028b640100000000026401000000009004565b156200022d57600080fd5b60018260000160008373ffffffffffffffffffffffffffffffffffffffff1673ffffffffffffffffffffffffffffffffffffffff16815260200190815260200160002060006101000a81548160ff0219169083151502179055505050565b60008073ffffffffffffffffffffffffffffffffffffffff168273ffffffffffffffffffffffffffffffffffffffff161415620002c757600080fd5b8260000160008373ffffffffffffffffffffffffffffffffffffffff1673ffffffffffffffffffffffffffffffffffffffff16815260200190815260200160002060009054906101000a900460ff16905092915050565b828054600181600116156101000203166002900490600052602060002090601f016020900481019282601f106200036157805160ff191683800117855562000392565b8280016001018555821562000392579182015b828111156200039157825182559160200191906001019062000374565b5b509050620003a19190620003a5565b5090565b620003ca91905b80821115620003c6576000816000905550600101620003ac565b5090565b90565b611ad480620003dd6000396000f3fe608060405234801561001057600080fd5b5060043610610128576000357c01000000000000000000000000000000000000000000000000000000009004806370a08231116100bf578063986502751161008e5780639865027514610545578063a457c2d71461054f578063a9059cbb146105b5578063aa271e1a1461061b578063dd62ed3e1461067757610128565b806370a08231146103d857806379cc67901461043057806395d89b411461047e578063983b2d561461050157610128565b8063313ce567116100fb578063313ce567146102ba57806339509351146102de57806340c10f191461034457806342966c68146103aa57610128565b806306fdde031461012d578063095ea7b3146101b057806318160ddd1461021657806323b872dd14610234575b600080fd5b6101356106ef565b6040518080602001828103825283818151815260200191508051906020019080838360005b8381101561017557808201518184015260208101905061015a565b50505050905090810190601f1680156101a25780820380516001836020036101000a031916815260200191505b509250505060405180910390f35b6101fc600480360360408110156101c657600080fd5b81019080803573ffffffffffffffffffffffffffffffffffffffff16906020019092919080359060200190929190505050610791565b604051808215151515815260200191505060405180910390f35b61021e6108bc565b6040518082815260200191505060405180910390f35b6102a06004803603606081101561024a57600080fd5b81019080803573ffffffffffffffffffffffffffffffffffffffff169060200190929190803573ffffffffffffffffffffffffffffffffffffffff169060200190929190803590602001909291905050506108c6565b604051808215151515815260200191505060405180910390f35b6102c2610ace565b604051808260ff1660ff16815260200191505060405180910390f35b61032a600480360360408110156102f457600080fd5b81019080803573ffffffffffffffffffffffffffffffffffffffff16906020019092919080359060200190929190505050610ae5565b604051808215151515815260200191505060405180910390f35b6103906004803603604081101561035a57600080fd5b81019080803573ffffffffffffffffffffffffffffffffffffffff16906020019092919080359060200190929190505050610d1a565b604051808215151515815260200191505060405180910390f35b6103d6600480360360208110156103c057600080fd5b8101908080359060200190929190505050610d42565b005b61041a600480360360208110156103ee57600080fd5b81019080803573ffffffffffffffffffffffffffffffffffffffff169060200190929190505050610d4f565b6040518082815260200191505060405180910390f35b61047c6004803603604081101561044657600080fd5b81019080803573ffffffffffffffffffffffffffffffffffffffff16906020019092919080359060200190929190505050610d97565b005b610486610da5565b6040518080602001828103825283818151815260200191508051906020019080838360005b838110156104c65780820151818401526020810190506104ab565b50505050905090810190601f1680156104f35780820380516001836020036101000a031916815260200191505b509250505060405180910390f35b6105436004803603602081101561051757600080fd5b81019080803573ffffffffffffffffffffffffffffffffffffffff169060200190929190505050610e47565b005b61054d610e65565b005b61059b6004803603604081101561056557600080fd5b81019080803573ffffffffffffffffffffffffffffffffffffffff16906020019092919080359060200190929190505050610e70565b604051808215151515815260200191505060405180910390f35b610601600480360360408110156105cb57600080fd5b81019080803573ffffffffffffffffffffffffffffffffffffffff169060200190929190803590602001909291905050506110a5565b604051808215151515815260200191505060405180910390f35b61065d6004803603602081101561063157600080fd5b81019080803573ffffffffffffffffffffffffffffffffffffffff1690602001909291905050506110bc565b604051808215151515815260200191505060405180910390f35b6106d96004803603604081101561068d57600080fd5b81019080803573ffffffffffffffffffffffffffffffffffffffff169060200190929190803573ffffffffffffffffffffffffffffffffffffffff1690602001909291905050506110d9565b6040518082815260200191505060405180910390f35b606060038054600181600116156101000203166002900480601f0160208091040260200160405190810160405280929190818152602001828054600181600116156101000203166002900480156107875780601f1061075c57610100808354040283529160200191610787565b820191906000526020600020905b81548152906001019060200180831161076a57829003601f168201915b5050505050905090565b60008073ffffffffffffffffffffffffffffffffffffffff168373ffffffffffffffffffffffffffffffffffffffff1614156107cc57600080fd5b81600160003373ffffffffffffffffffffffffffffffffffffffff1673ffffffffffffffffffffffffffffffffffffffff16815260200190815260200160002060008573ffffffffffffffffffffffffffffffffffffffff1673ffffffffffffffffffffffffffffffffffffffff168152602001908152602001600020819055508273ffffffffffffffffffffffffffffffffffffffff163373ffffffffffffffffffffffffffffffffffffffff167f8c5be1e5ebec7d5bd14f71427d1e84f3dd0314c0f7b2291e5b200ac8c7c3b925846040518082815260200191505060405180910390a36001905092915050565b6000600254905090565b600061095782600160008773ffffffffffffffffffffffffffffffffffffffff1673ffffffffffffffffffffffffffffffffffffffff16815260200190815260200160002060003373ffffffffffffffffffffffffffffffffffffffff1673ffffffffffffffffffffffffffffffffffffffff1681526020019081526020016000205461116090919063ffffffff16565b600160008673ffffffffffffffffffffffffffffffffffffffff1673ffffffffffffffffffffffffffffffffffffffff16815260200190815260200160002060003373ffffffffffffffffffffffffffffffffffffffff1673ffffffffffffffffffffffffffffffffffffffff168152602001908152602001600020819055506109e2848484611180565b3373ffffffffffffffffffffffffffffffffffffffff168473ffffffffffffffffffffffffffffffffffffffff167f8c5be1e5ebec7d5bd14f71427d1e84f3dd0314c0f7b2291e5b200ac8c7c3b925600160008873ffffffffffffffffffffffffffffffffffffffff1673ffffffffffffffffffffffffffffffffffffffff16815260200190815260200160002060003373ffffffffffffffffffffffffffffffffffffffff1673ffffffffffffffffffffffffffffffffffffffff168152602001908152602001600020546040518082815260200191505060405180910390a3600190509392505050565b6000600560009054906101000a900460ff16905090565b60008073ffffffffffffffffffffffffffffffffffffffff168373ffffffffffffffffffffffffffffffffffffffff161415610b2057600080fd5b610baf82600160003373ffffffffffffffffffffffffffffffffffffffff1673ffffffffffffffffffffffffffffffffffffffff16815260200190815260200160002060008673ffffffffffffffffffffffffffffffffffffffff1673ffffffffffffffffffffffffffffffffffffffff1681526020019081526020016000205461134a90919063ffffffff16565b600160003373ffffffffffffffffffffffffffffffffffffffff1673ffffffffffffffffffffffffffffffffffffffff16815260200190815260200160002060008573ffffffffffffffffffffffffffffffffffffffff1673ffffffffffffffffffffffffffffffffffffffff168152602001908152602001600020819055508273ffffffffffffffffffffffffffffffffffffffff163373ffffffffffffffffffffffffffffffffffffffff167f8c5be1e5ebec7d5bd14f71427d1e84f3dd0314c0f7b2291e5b200ac8c7c3b925600160003373ffffffffffffffffffffffffffffffffffffffff1673ffffffffffffffffffffffffffffffffffffffff16815260200190815260200160002060008773ffffffffffffffffffffffffffffffffffffffff1673ffffffffffffffffffffffffffffffffffffffff168152602001908152602001600020546040518082815260200191505060405180910390a36001905092915050565b6000610d25336110bc565b610d2e57600080fd5b610d388383611369565b6001905092915050565b610d4c33826114bb565b50565b60008060008373ffffffffffffffffffffffffffffffffffffffff1673ffffffffffffffffffffffffffffffffffffffff168152602001908152602001600020549050919050565b610da1828261160d565b5050565b606060048054600181600116156101000203166002900480601f016020809104026020016040519081016040528092919081815260200182805460018160011615610100020316600290048015610e3d5780601f10610e1257610100808354040283529160200191610e3d565b820191906000526020600020905b815481529060010190602001808311610e2057829003601f168201915b5050505050905090565b610e50336110bc565b610e5957600080fd5b610e628161180b565b50565b610e6e33611865565b565b60008073ffffffffffffffffffffffffffffffffffffffff168373ffffffffffffffffffffffffffffffffffffffff161415610eab57600080fd5b610f3a82600160003373ffffffffffffffffffffffffffffffffffffffff1673ffffffffffffffffffffffffffffffffffffffff16815260200190815260200160002060008673ffffffffffffffffffffffffffffffffffffffff1673ffffffffffffffffffffffffffffffffffffffff1681526020019081526020016000205461116090919063ffffffff16565b600160003373ffffffffffffffffffffffffffffffffffffffff1673ffffffffffffffffffffffffffffffffffffffff16815260200190815260200160002060008573ffffffffffffffffffffffffffffffffffffffff1673ffffffffffffffffffffffffffffffffffffffff168152602001908152602001600020819055508273ffffffffffffffffffffffffffffffffffffffff163373ffffffffffffffffffffffffffffffffffffffff167f8c5be1e5ebec7d5bd14f71427d1e84f3dd0314c0f7b2291e5b200ac8c7c3b925600160003373ffffffffffffffffffffffffffffffffffffffff1673ffffffffffffffffffffffffffffffffffffffff16815260200190815260200160002060008773ffffffffffffffffffffffffffffffffffffffff1673ffffffffffffffffffffffffffffffffffffffff168152602001908152602001600020546040518082815260200191505060405180910390a36001905092915050565b60006110b2338484611180565b6001905092915050565b60006110d28260066118bf90919063ffffffff16565b9050919050565b6000600160008473ffffffffffffffffffffffffffffffffffffffff1673ffffffffffffffffffffffffffffffffffffffff16815260200190815260200160002060008373ffffffffffffffffffffffffffffffffffffffff1673ffffffffffffffffffffffffffffffffffffffff16815260200190815260200160002054905092915050565b60008282111561116f57600080fd5b600082840390508091505092915050565b600073ffffffffffffffffffffffffffffffffffffffff168273ffffffffffffffffffffffffffffffffffffffff1614156111ba57600080fd5b61120b816000808673ffffffffffffffffffffffffffffffffffffffff1673ffffffffffffffffffffffffffffffffffffffff1681526020019081526020016000205461116090919063ffffffff16565b6000808573ffffffffffffffffffffffffffffffffffffffff1673ffffffffffffffffffffffffffffffffffffffff1681526020019081526020016000208190555061129e816000808573ffffffffffffffffffffffffffffffffffffffff1673ffffffffffffffffffffffffffffffffffffffff1681526020019081526020016000205461134a90919063ffffffff16565b6000808473ffffffffffffffffffffffffffffffffffffffff1673ffffffffffffffffffffffffffffffffffffffff168152602001908152602001600020819055508173ffffffffffffffffffffffffffffffffffffffff168373ffffffffffffffffffffffffffffffffffffffff167fddf252ad1be2c89b69c2b068fc378daa952ba7f163c4a11628f55a4df523b3ef836040518082815260200191505060405180910390a3505050565b60008082840190508381101561135f57600080fd5b8091505092915050565b600073ffffffffffffffffffffffffffffffffffffffff168273ffffffffffffffffffffffffffffffffffffffff1614156113a357600080fd5b6113b88160025461134a90919063ffffffff16565b60028190555061140f816000808573ffffffffffffffffffffffffffffffffffffffff1673ffffffffffffffffffffffffffffffffffffffff1681526020019081526020016000205461134a90919063ffffffff16565b6000808473ffffffffffffffffffffffffffffffffffffffff1673ffffffffffffffffffffffffffffffffffffffff168152602001908152602001600020819055508173ffffffffffffffffffffffffffffffffffffffff16600073ffffffffffffffffffffffffffffffffffffffff167fddf252ad1be2c89b69c2b068fc378daa952ba7f163c4a11628f55a4df523b3ef836040518082815260200191505060405180910390a35050565b600073ffffffffffffffffffffffffffffffffffffffff168273ffffffffffffffffffffffffffffffffffffffff1614156114f557600080fd5b61150a8160025461116090919063ffffffff16565b600281905550611561816000808573ffffffffffffffffffffffffffffffffffffffff1673ffffffffffffffffffffffffffffffffffffffff1681526020019081526020016000205461116090919063ffffffff16565b6000808473ffffffffffffffffffffffffffffffffffffffff1673ffffffffffffffffffffffffffffffffffffffff16815260200190815260200160002081905550600073ffffffffffffffffffffffffffffffffffffffff168273ffffffffffffffffffffffffffffffffffffffff167fddf252ad1be2c89b69c2b068fc378daa952ba7f163c4a11628f55a4df523b3ef836040518082815260200191505060405180910390a35050565b61169c81600160008573ffffffffffffffffffffffffffffffffffffffff1673ffffffffffffffffffffffffffffffffffffffff16815260200190815260200160002060003373ffffffffffffffffffffffffffffffffffffffff1673ffffffffffffffffffffffffffffffffffffffff1681526020019081526020016000205461116090919063ffffffff16565b600160008473ffffffffffffffffffffffffffffffffffffffff1673ffffffffffffffffffffffffffffffffffffffff16815260200190815260200160002060003373ffffffffffffffffffffffffffffffffffffffff1673ffffffffffffffffffffffffffffffffffffffff1681526020019081526020016000208190555061172682826114bb565b3373ffffffffffffffffffffffffffffffffffffffff168273ffffffffffffffffffffffffffffffffffffffff167f8c5be1e5ebec7d5bd14f71427d1e84f3dd0314c0f7b2291e5b200ac8c7c3b925600160008673ffffffffffffffffffffffffffffffffffffffff1673ffffffffffffffffffffffffffffffffffffffff16815260200190815260200160002060003373ffffffffffffffffffffffffffffffffffffffff1673ffffffffffffffffffffffffffffffffffffffff168152602001908152602001600020546040518082815260200191505060405180910390a35050565b61181f81600661195190919063ffffffff16565b8073ffffffffffffffffffffffffffffffffffffffff167f6ae172837ea30b801fbfcdd4108aa1d5bf8ff775444fd70256b44e6bf3dfc3f660405160405180910390a250565b6118798160066119fd90919063ffffffff16565b8073ffffffffffffffffffffffffffffffffffffffff167fe94479a9f7e1952cc78f2d6baab678adc1b772d936c6583def489e524cb6669260405160405180910390a250565b60008073ffffffffffffffffffffffffffffffffffffffff168273ffffffffffffffffffffffffffffffffffffffff1614156118fa57600080fd5b8260000160008373ffffffffffffffffffffffffffffffffffffffff1673ffffffffffffffffffffffffffffffffffffffff16815260200190815260200160002060009054906101000a900460ff16905092915050565b600073ffffffffffffffffffffffffffffffffffffffff168173ffffffffffffffffffffffffffffffffffffffff16141561198b57600080fd5b61199582826118bf565b1561199f57600080fd5b60018260000160008373ffffffffffffffffffffffffffffffffffffffff1673ffffffffffffffffffffffffffffffffffffffff16815260200190815260200160002060006101000a81548160ff0219169083151502179055505050565b600073ffffffffffffffffffffffffffffffffffffffff168173ffffffffffffffffffffffffffffffffffffffff161415611a3757600080fd5b611a4182826118bf565b611a4a57600080fd5b60008260000160008373ffffffffffffffffffffffffffffffffffffffff1673ffffffffffffffffffffffffffffffffffffffff16815260200190815260200160002060006101000a81548160ff021916908315150217905550505056fea165627a7a723058209b2ed694adb397a8add815755f18776192fe0f0f7b7097aac9b4c648e1207260002960806040523480156200001157600080fd5b5060405160c08062001f3c833981018060405260c08110156200003357600080fd5b8101908080519060200190929190805190602001909291908051906020019092919080519060200190929190805190602001909291908051906020019092919050505085858383868a8a8a6200009833620005aa640100000000026401000000009004565b60016002819055506000831162000117576040517f08c379a00000000000000000000000000000000000000000000000000000000081526004018080602001828103825260018152602001807f310000000000000000000000000000000000000000000000000000000000000081525060200191505060405180910390fd5b600073ffffffffffffffffffffffffffffffffffffffff168273ffffffffffffffffffffffffffffffffffffffff161415620001bb576040517f08c379a00000000000000000000000000000000000000000000000000000000081526004018080602001828103825260018152602001807f320000000000000000000000000000000000000000000000000000000000000081525060200191505060405180910390fd5b600073ffffffffffffffffffffffffffffffffffffffff168173ffffffffffffffffffffffffffffffffffffffff1614156200025f576040517f08c379a00000000000000000000000000000000000000000000000000000000081526004018080602001828103825260018152602001807f330000000000000000000000000000000000000000000000000000000000000081525060200191505060405180910390fd5b8260058190555081600460006101000a81548173ffffffffffffffffffffffffffffffffffffffff021916908373ffffffffffffffffffffffffffffffffffffffff16021790555080600360006101000a81548173ffffffffffffffffffffffffffffffffffffffff021916908373ffffffffffffffffffffffffffffffffffffffff1602179055505050506000811162000362576040517f08c379a00000000000000000000000000000000000000000000000000000000081526004018080602001828103825260018152602001807f360000000000000000000000000000000000000000000000000000000000000081525060200191505060405180910390fd5b806007819055505042821015620003e1576040517f08c379a00000000000000000000000000000000000000000000000000000000081526004018080602001828103825260018152602001807f390000000000000000000000000000000000000000000000000000000000000081525060200191505060405180910390fd5b81811162000457576040517f08c379a00000000000000000000000000000000000000000000000000000000081526004018080602001828103825260028152602001807f313000000000000000000000000000000000000000000000000000000000000081525060200191505060405180910390fd5b8160088190555080600981905550505033600a60006101000a81548173ffffffffffffffffffffffffffffffffffffffff021916908373ffffffffffffffffffffffffffffffffffffffff160217905550600a60009054906101000a900473ffffffffffffffffffffffffffffffffffffffff1673ffffffffffffffffffffffffffffffffffffffff16600073ffffffffffffffffffffffffffffffffffffffff167f8be0079c531659141344cd1fd0a4f28419497f9722a3daafe3b4186f6b6457e060405160405180910390a3600082116200053357600080fd5b81600b81905550620005548162000614640100000000026401000000009004565b5050620005708562000654640100000000026401000000009004565b6200059e73cbbc3d3d381f3a9a48cbae9ca701ac3c92e0aea562000654640100000000026401000000009004565b50505050505062000967565b620005ce8160006200069564010000000002620012d4179091906401000000009004565b8073ffffffffffffffffffffffffffffffffffffffff167f22380c05984257a1cb900161c713dd71d39e74820f1aea43bd3f1bdd2096129960405160405180910390a250565b6200062d62000754640100000000026401000000009004565b6200063757600080fd5b6200065181620007ac640100000000026401000000009004565b50565b6200066e33620008a7640100000000026401000000009004565b6200067857600080fd5b6200069281620005aa640100000000026401000000009004565b50565b600073ffffffffffffffffffffffffffffffffffffffff168173ffffffffffffffffffffffffffffffffffffffff161415620006d057600080fd5b620006eb8282620008d4640100000000026401000000009004565b15620006f657600080fd5b60018260000160008373ffffffffffffffffffffffffffffffffffffffff1673ffffffffffffffffffffffffffffffffffffffff16815260200190815260200160002060006101000a81548160ff0219169083151502179055505050565b6000600a60009054906101000a900473ffffffffffffffffffffffffffffffffffffffff1673ffffffffffffffffffffffffffffffffffffffff163373ffffffffffffffffffffffffffffffffffffffff1614905090565b600073ffffffffffffffffffffffffffffffffffffffff168173ffffffffffffffffffffffffffffffffffffffff161415620007e757600080fd5b8073ffffffffffffffffffffffffffffffffffffffff16600a60009054906101000a900473ffffffffffffffffffffffffffffffffffffffff1673ffffffffffffffffffffffffffffffffffffffff167f8be0079c531659141344cd1fd0a4f28419497f9722a3daafe3b4186f6b6457e060405160405180910390a380600a60006101000a81548173ffffffffffffffffffffffffffffffffffffffff021916908373ffffffffffffffffffffffffffffffffffffffff16021790555050565b6000620008cd826000620008d46401000000000262000fa9179091906401000000009004565b9050919050565b60008073ffffffffffffffffffffffffffffffffffffffff168273ffffffffffffffffffffffffffffffffffffffff1614156200091057600080fd5b8260000160008373ffffffffffffffffffffffffffffffffffffffff1673ffffffffffffffffffffffffffffffffffffffff16815260200190815260200160002060009054906101000a900460ff16905092915050565b6115c580620009776000396000f3fe6080604052600436106101df576000357c010000000000000000000000000000000000000000000000000000000090048063715018a611610114578063bb5f747b116100b2578063ec8ac4d811610081578063ec8ac4d8146107fb578063f2fde38b1461083f578063f7fb07b014610890578063fc0c546a146108bb576101df565b8063bb5f747b14610715578063c404c7211461077e578063d1c6f448146107a9578063d6cd9473146107e4576101df565b80638f32d59b116100ee5780638f32d59b146106655780639e51051f14610694578063a02d8563146106bf578063b7a8807c146106ea576101df565b8063715018a6146105a65780637362d9c8146105bd5780638da5cb5b1461060e576101df565b80633af32abf116101815780634b6753bc1161015b5780634b6753bc146104de5780634c5a628c146105095780634f93594514610520578063521eb2731461054f576101df565b80633af32abf1461041b5780634042b66f1461048457806347535d7b146104af576101df565b80632a4bc321116101bd5780632a4bc321146102bb5780632aa3ae9c146103805780632c4e722e146103c5578063355274ea146103f0576101df565b806310154bad146101ea5780631515bc2b1461023b578063291d95491461026a575b6101e833610912565b005b3480156101f657600080fd5b506102396004803603602081101561020d57600080fd5b81019080803573ffffffffffffffffffffffffffffffffffffffff169060200190929190505050610a08565b005b34801561024757600080fd5b50610250610a26565b604051808215151515815260200191505060405180910390f35b34801561027657600080fd5b506102b96004803603602081101561028d57600080fd5b81019080803573ffffffffffffffffffffffffffffffffffffffff169060200190929190505050610a32565b005b3480156102c757600080fd5b5061037e600480360360208110156102de57600080fd5b81019080803590602001906401000000008111156102fb57600080fd5b82018360208201111561030d57600080fd5b8035906020019184602083028401116401000000008311171561032f57600080fd5b919080806020026020016040519081016040528093929190818152602001838360200280828437600081840152601f19601f820116905080830192505050505050509192919290505050610a50565b005b34801561038c57600080fd5b506103c3600480360360408110156103a357600080fd5b810190808035906020019092919080359060200190929190505050610a9e565b005b3480156103d157600080fd5b506103da610abd565b6040518082815260200191505060405180910390f35b3480156103fc57600080fd5b50610405610ac4565b6040518082815260200191505060405180910390f35b34801561042757600080fd5b5061046a6004803603602081101561043e57600080fd5b81019080803573ffffffffffffffffffffffffffffffffffffffff169060200190929190505050610ace565b604051808215151515815260200191505060405180910390f35b34801561049057600080fd5b50610499610aeb565b6040518082815260200191505060405180910390f35b3480156104bb57600080fd5b506104c4610af5565b604051808215151515815260200191505060405180910390f35b3480156104ea57600080fd5b506104f3610b10565b6040518082815260200191505060405180910390f35b34801561051557600080fd5b5061051e610b1a565b005b34801561052c57600080fd5b50610535610b25565b604051808215151515815260200191505060405180910390f35b34801561055b57600080fd5b50610564610b39565b604051808273ffffffffffffffffffffffffffffffffffffffff1673ffffffffffffffffffffffffffffffffffffffff16815260200191505060405180910390f35b3480156105b257600080fd5b506105bb610b63565b005b3480156105c957600080fd5b5061060c600480360360208110156105e057600080fd5b81019080803573ffffffffffffffffffffffffffffffffffffffff169060200190929190505050610c35565b005b34801561061a57600080fd5b50610623610c53565b604051808273ffffffffffffffffffffffffffffffffffffffff1673ffffffffffffffffffffffffffffffffffffffff16815260200191505060405180910390f35b34801561067157600080fd5b5061067a610c7d565b604051808215151515815260200191505060405180910390f35b3480156106a057600080fd5b506106a9610cd5565b6040518082815260200191505060405180910390f35b3480156106cb57600080fd5b506106d4610cdf565b6040518082815260200191505060405180910390f35b3480156106f657600080fd5b506106ff610ce9565b6040518082815260200191505060405180910390f35b34801561072157600080fd5b506107646004803603602081101561073857600080fd5b81019080803573ffffffffffffffffffffffffffffffffffffffff169060200190929190505050610cf3565b604051808215151515815260200191505060405180910390f35b34801561078a57600080fd5b50610793610d10565b6040518082815260200191505060405180910390f35b3480156107b557600080fd5b506107e2600480360360208110156107cc57600080fd5b8101908080359060200190929190505050610d1a565b005b3480156107f057600080fd5b506107f9610d37565b005b61083d6004803603602081101561081157600080fd5b81019080803573ffffffffffffffffffffffffffffffffffffffff169060200190929190505050610912565b005b34801561084b57600080fd5b5061088e6004803603602081101561086257600080fd5b81019080803573ffffffffffffffffffffffffffffffffffffffff169060200190929190505050610d42565b005b34801561089c57600080fd5b506108a5610d5f565b6040518082815260200191505060405180910390f35b3480156108c757600080fd5b506108d0610d92565b604051808273ffffffffffffffffffffffffffffffffffffffff1673ffffffffffffffffffffffffffffffffffffffff16815260200191505060405180910390f35b60016002600082825401925050819055506000600254905060003490506109398382610dbc565b600061094482610ddc565b905061095b82600654610e0490919063ffffffff16565b60068190555061096b8482610e23565b8373ffffffffffffffffffffffffffffffffffffffff163373ffffffffffffffffffffffffffffffffffffffff167f6faf93231a456e552dbc9961f58d9713ee4f2e69d15f1975b050ef0911053a7b8484604051808381526020018281526020019250505060405180910390a36109e28483610e31565b6109ea610e35565b6109f48483610ea0565b50506002548114610a0457600080fd5b5050565b610a1133610cf3565b610a1a57600080fd5b610a2381610ea4565b50565b60006009544211905090565b610a3b33610cf3565b610a4457600080fd5b610a4d81610efe565b50565b610a5933610cf3565b610a6257600080fd5b60008090505b8151811015610a9a57610a8d828281518110610a8057fe5b6020026020010151610ea4565b8080600101915050610a68565b5050565b610aa6610c7d565b610aaf57600080fd5b610ab98282610f58565b5050565b6000806000fd5b6000600754905090565b6000610ae4826001610fa990919063ffffffff16565b9050919050565b6000600654905090565b60006008544210158015610b0b57506009544211155b905090565b6000600954905090565b610b233361103b565b565b6000600754610b32610aeb565b1015905090565b6000600460009054906101000a900473ffffffffffffffffffffffffffffffffffffffff16905090565b610b6b610c7d565b610b7457600080fd5b600073ffffffffffffffffffffffffffffffffffffffff16600a60009054906101000a900473ffffffffffffffffffffffffffffffffffffffff1673ffffffffffffffffffffffffffffffffffffffff167f8be0079c531659141344cd1fd0a4f28419497f9722a3daafe3b4186f6b6457e060405160405180910390a36000600a60006101000a81548173ffffffffffffffffffffffffffffffffffffffff021916908373ffffffffffffffffffffffffffffffffffffffff160217905550565b610c3e33610cf3565b610c4757600080fd5b610c5081611095565b50565b6000600a60009054906101000a900473ffffffffffffffffffffffffffffffffffffffff16905090565b6000600a60009054906101000a900473ffffffffffffffffffffffffffffffffffffffff1673ffffffffffffffffffffffffffffffffffffffff163373ffffffffffffffffffffffffffffffffffffffff1614905090565b6000600b54905090565b6000600c54905090565b6000600854905090565b6000610d09826000610fa990919063ffffffff16565b9050919050565b6000600d54905090565b610d22610c7d565b610d2b57600080fd5b610d34816110ef565b50565b610d4033610efe565b565b610d4a610c7d565b610d5357600080fd5b610d5c81611130565b50565b6000610d69610af5565b610d765760009050610d8f565b600c544210610d8957600d549050610d8f565b600b5490505b90565b6000600360009054906101000a900473ffffffffffffffffffffffffffffffffffffffff16905090565b610dc582610ace565b610dce57600080fd5b610dd8828261122a565b5050565b600080610de7610d5f565b9050610dfc838261124990919063ffffffff16565b915050919050565b600080828401905083811015610e1957600080fd5b8091505092915050565b610e2d8282611283565b5050565b5050565b600460009054906101000a900473ffffffffffffffffffffffffffffffffffffffff1673ffffffffffffffffffffffffffffffffffffffff166108fc349081150290604051600060405180830381858888f19350505050158015610e9d573d6000803e3d6000fd5b50565b5050565b610eb88160016112d490919063ffffffff16565b8073ffffffffffffffffffffffffffffffffffffffff167fee1504a83b6d4a361f4c1dc78ab59bfa30d6a3b6612c403e86bb01ef2984295f60405160405180910390a250565b610f1281600161138090919063ffffffff16565b8073ffffffffffffffffffffffffffffffffffffffff167f270d9b30cf5b0793bbfd54c9d5b94aeb49462b8148399000265144a8722da6b660405160405180910390a250565b81600c8190555080600d819055507f4e7e6d92843fbe2fd0f27456b98f02069ee4d44de6a198b7db55f5bfd76fe9248282604051808381526020018281526020019250505060405180910390a15050565b60008073ffffffffffffffffffffffffffffffffffffffff168273ffffffffffffffffffffffffffffffffffffffff161415610fe457600080fd5b8260000160008373ffffffffffffffffffffffffffffffffffffffff1673ffffffffffffffffffffffffffffffffffffffff16815260200190815260200160002060009054906101000a900460ff16905092915050565b61104f81600061138090919063ffffffff16565b8073ffffffffffffffffffffffffffffffffffffffff167f0a8eb35e5ca14b3d6f28e4abf2f128dbab231a58b56e89beb5d636115001e16560405160405180910390a250565b6110a98160006112d490919063ffffffff16565b8073ffffffffffffffffffffffffffffffffffffffff167f22380c05984257a1cb900161c713dd71d39e74820f1aea43bd3f1bdd2096129960405160405180910390a250565b80600b819055507f2d5f5ea15ed32044e5f601470ede06bf73cf3c8983ebcfd001fc563fcec0fc9d816040518082815260200191505060405180910390a150565b600073ffffffffffffffffffffffffffffffffffffffff168173ffffffffffffffffffffffffffffffffffffffff16141561116a57600080fd5b8073ffffffffffffffffffffffffffffffffffffffff16600a60009054906101000a900473ffffffffffffffffffffffffffffffffffffffff1673ffffffffffffffffffffffffffffffffffffffff167f8be0079c531659141344cd1fd0a4f28419497f9722a3daafe3b4186f6b6457e060405160405180910390a380600a60006101000a81548173ffffffffffffffffffffffffffffffffffffffff021916908373ffffffffffffffffffffffffffffffffffffffff16021790555050565b611232610af5565b61123b57600080fd5b611245828261142b565b5050565b60008083141561125c576000905061127d565b600082840290508284828161126d57fe5b041461127857600080fd5b809150505b92915050565b6112d08282600360009054906101000a900473ffffffffffffffffffffffffffffffffffffffff1673ffffffffffffffffffffffffffffffffffffffff166114619092919063ffffffff16565b5050565b600073ffffffffffffffffffffffffffffffffffffffff168173ffffffffffffffffffffffffffffffffffffffff16141561130e57600080fd5b6113188282610fa9565b1561132257600080fd5b60018260000160008373ffffffffffffffffffffffffffffffffffffffff1673ffffffffffffffffffffffffffffffffffffffff16815260200190815260200160002060006101000a81548160ff0219169083151502179055505050565b600073ffffffffffffffffffffffffffffffffffffffff168173ffffffffffffffffffffffffffffffffffffffff1614156113ba57600080fd5b6113c48282610fa9565b6113cd57600080fd5b60008260000160008373ffffffffffffffffffffffffffffffffffffffff1673ffffffffffffffffffffffffffffffffffffffff16815260200190815260200160002060006101000a81548160ff0219169083151502179055505050565b611435828261154d565b60075461145282611444610aeb565b610e0490919063ffffffff16565b111561145d57600080fd5b5050565b8273ffffffffffffffffffffffffffffffffffffffff1663a9059cbb83836040518363ffffffff167c0100000000000000000000000000000000000000000000000000000000028152600401808373ffffffffffffffffffffffffffffffffffffffff1673ffffffffffffffffffffffffffffffffffffffff16815260200182815260200192505050602060405180830381600087803b15801561150457600080fd5b505af1158015611518573d6000803e3d6000fd5b505050506040513d602081101561152e57600080fd5b810190808051906020019092919050505061154857600080fd5b505050565b600073ffffffffffffffffffffffffffffffffffffffff168273ffffffffffffffffffffffffffffffffffffffff16141561158757600080fd5b600081141561159557600080fd5b505056fea165627a7a72305820647710f777fd903966580aa1c0780366644292fc8269c4ed93dc84f65e1f3fdb0029",
  "source": "pragma solidity ^0.5.0;\n\nimport \"./AsureToken.sol\";\nimport \"./AsureCrowdsale.sol\";\nimport \"openzeppelin-solidity/contracts/drafts/TokenVesting.sol\";\n\n\n\n\ncontract AsureCrowdsaleDeployer {\n  AsureToken public token;\n  AsureCrowdsale public presale;\n  AsureCrowdsale public mainsale;\n\n  constructor(\n    address payable owner,\n    uint256 preSaleOpeningTime, // opening time in unix epoch seconds\n    uint256 preSaleClosingTime, // closing time in unix epoch seconds\n    uint256 mainSaleOpeningTime, // mainSale start\n    uint256 mainSaleClosingTime,   // mainSale end\n    address[] memory teamAddr,\n    uint256[] memory teamAmounts,\n    address[] memory advisorAddr,\n    uint256[] memory advisorAmounts\n  )\n  public\n  {\n    require(teamAddr.length == teamAmounts.length);\n    require(advisorAddr.length == advisorAmounts.length);\n\n    token = new AsureToken(\"AsureToken\", \"ASR\", 18);\n\n    presale = new AsureCrowdsale(\n      1000, // rate, in AsureTokens - 1 ETH == 1000 RUHR\n      owner, // wallet to send Ether\n      token, // the token\n      10 * 10 ** 24, // total cap, in wei - 20 Millionen\n      preSaleOpeningTime, // opening time in unix epoch seconds\n      preSaleClosingTime  // closing time in unix epoch seconds\n    );\n\n\n    token.mint(address(presale), 10 * 10 ** 24);\n\n    token.mint(0xcbBc3D3d381f3A9a48CbAE9Ca701aC3c92e0aEA5, 5 * 10 ** 24);\n    //bounty\n    token.mint(0xcbBc3D3d381f3A9a48CbAE9Ca701aC3c92e0aEA5, 5 * 10 ** 24);\n    //family & friends\n\n    mainsale = new AsureCrowdsale(\n      1000, // rate, in AsureTokens - 1 ETH == 1000\n      owner, // wallet to send Ether\n      token, // the token\n      35 * 10 ** 24, // total cap, in wei - 40 Millionen\n      mainSaleOpeningTime, // opening time in unix epoch seconds\n      mainSaleClosingTime  // closing time in unix epoch seconds\n    );\n\n    token.mint(address(mainsale), 35 * 10 ** 24);\n    //foundation\n    token.mint(0xcbBc3D3d381f3A9a48CbAE9Ca701aC3c92e0aEA5, 35 * 10 ** 24);\n\n\n    for (uint i = 0; i < teamAddr.length; i++) {\n        token.mint(teamAddr[i], teamAmounts[i]);\n    }\n\n    for (uint i = 0; i < advisorAddr.length; i++) {\n      token.mint(advisorAddr[i], advisorAmounts[i]);\n    }\n\n  }\n}\n\n\n",
  "sourcePath": "C:/git/crowdsale/packages/crowdsale/contracts/AsureCrowdsaleDeployer.sol",
  "compiler": {
    "name": "solc",
    "version": "0.5.6+commit.b259423e.Emscripten.clang"
  },
  "schemaVersion": "3.0.2",
  "updatedAt": "2019-03-16T14:24:16.800Z",
  "devdoc": {
    "methods": {}
  },
  "userdoc": {
    "methods": {}
  }
}