{
  "contractName": "AsureCrowdsaleDeployer",
  "abi": [
    {
      "constant": false,
      "inputs": [],
      "name": "renounceOwnership",
      "outputs": [],
      "payable": false,
      "stateMutability": "nonpayable",
      "type": "function"
    },
    {
      "constant": true,
      "inputs": [],
      "name": "owner",
      "outputs": [
        {
          "name": "",
          "type": "address"
        }
      ],
      "payable": false,
      "stateMutability": "view",
      "type": "function"
    },
    {
      "constant": true,
      "inputs": [],
      "name": "isOwner",
      "outputs": [
        {
          "name": "",
          "type": "bool"
        }
      ],
      "payable": false,
      "stateMutability": "view",
      "type": "function"
    },
    {
      "constant": false,
      "inputs": [
        {
          "name": "newOwner",
          "type": "address"
        }
      ],
      "name": "transferOwnership",
      "outputs": [],
      "payable": false,
      "stateMutability": "nonpayable",
      "type": "function"
    },
    {
      "constant": true,
      "inputs": [],
      "name": "mainsale",
      "outputs": [
        {
          "name": "",
          "type": "address"
        }
      ],
      "payable": false,
      "stateMutability": "view",
      "type": "function"
    },
    {
      "constant": true,
      "inputs": [],
      "name": "token",
      "outputs": [
        {
          "name": "",
          "type": "address"
        }
      ],
      "payable": false,
      "stateMutability": "view",
      "type": "function"
    },
    {
      "constant": true,
      "inputs": [],
      "name": "presale",
      "outputs": [
        {
          "name": "",
          "type": "address"
        }
      ],
      "payable": false,
      "stateMutability": "view",
      "type": "function"
    },
    {
      "inputs": [
        {
          "name": "owner",
          "type": "address"
        }
      ],
      "payable": false,
      "stateMutability": "nonpayable",
      "type": "constructor"
    },
    {
      "anonymous": false,
      "inputs": [
        {
          "indexed": true,
          "name": "previousOwner",
          "type": "address"
        },
        {
          "indexed": true,
          "name": "newOwner",
          "type": "address"
        }
      ],
      "name": "OwnershipTransferred",
      "type": "event"
    },
    {
      "constant": false,
      "inputs": [
        {
          "name": "foundationWallet",
          "type": "address"
        },
        {
          "name": "bountyWallet",
          "type": "address"
        },
        {
          "name": "familyFriendsWallet",
          "type": "address"
        },
        {
          "name": "teamAddr",
          "type": "address[]"
        },
        {
          "name": "teamAmounts",
          "type": "uint256[]"
        },
        {
          "name": "advisorAddr",
          "type": "address[]"
        },
        {
          "name": "advisorAmounts",
          "type": "uint256[]"
        }
      ],
      "name": "mint",
      "outputs": [
        {
          "name": "",
          "type": "bool"
        }
      ],
      "payable": false,
      "stateMutability": "nonpayable",
      "type": "function"
    },
    {
      "constant": false,
      "inputs": [
        {
          "name": "bonusRate",
          "type": "uint256"
        },
        {
          "name": "bonusTime",
          "type": "uint256"
        },
        {
          "name": "defaultRate",
          "type": "uint256"
        },
        {
          "name": "owner",
          "type": "address"
        },
        {
          "name": "wallet",
          "type": "address"
        },
        {
          "name": "openingTime",
          "type": "uint256"
        },
        {
          "name": "closingTime",
          "type": "uint256"
        }
      ],
      "name": "createPreSale",
      "outputs": [
        {
          "name": "",
          "type": "bool"
        }
      ],
      "payable": false,
      "stateMutability": "nonpayable",
      "type": "function"
    },
    {
      "constant": false,
      "inputs": [
        {
          "name": "bonusRate",
          "type": "uint256"
        },
        {
          "name": "bonusTime",
          "type": "uint256"
        },
        {
          "name": "defaultRate",
          "type": "uint256"
        },
        {
          "name": "owner",
          "type": "address"
        },
        {
          "name": "wallet",
          "type": "address"
        },
        {
          "name": "openingTime",
          "type": "uint256"
        },
        {
          "name": "closingTime",
          "type": "uint256"
        }
      ],
      "name": "createMainSale",
      "outputs": [
        {
          "name": "",
          "type": "bool"
        }
      ],
      "payable": false,
      "stateMutability": "nonpayable",
      "type": "function"
    }
  ],
  "bytecode": "0x60806040523480156200001157600080fd5b50604051620065c1380380620065c1833981810160405260208110156200003757600080fd5b8101908080519060200190929190505050336000806101000a81548173ffffffffffffffffffffffffffffffffffffffff021916908373ffffffffffffffffffffffffffffffffffffffff1602179055506000809054906101000a900473ffffffffffffffffffffffffffffffffffffffff1673ffffffffffffffffffffffffffffffffffffffff16600073ffffffffffffffffffffffffffffffffffffffff167f8be0079c531659141344cd1fd0a4f28419497f9722a3daafe3b4186f6b6457e060405160405180910390a36200011581620001bf60201b60201c565b8060405162000124906200033d565b808273ffffffffffffffffffffffffffffffffffffffff1673ffffffffffffffffffffffffffffffffffffffff168152602001915050604051809103906000f08015801562000177573d6000803e3d6000fd5b50600160006101000a81548173ffffffffffffffffffffffffffffffffffffffff021916908373ffffffffffffffffffffffffffffffffffffffff160217905550506200034b565b620001cf620001ed60201b60201c565b620001d957600080fd5b620001ea816200024460201b60201c565b50565b60008060009054906101000a900473ffffffffffffffffffffffffffffffffffffffff1673ffffffffffffffffffffffffffffffffffffffff163373ffffffffffffffffffffffffffffffffffffffff1614905090565b600073ffffffffffffffffffffffffffffffffffffffff168173ffffffffffffffffffffffffffffffffffffffff1614156200027f57600080fd5b8073ffffffffffffffffffffffffffffffffffffffff166000809054906101000a900473ffffffffffffffffffffffffffffffffffffffff1673ffffffffffffffffffffffffffffffffffffffff167f8be0079c531659141344cd1fd0a4f28419497f9722a3daafe3b4186f6b6457e060405160405180910390a3806000806101000a81548173ffffffffffffffffffffffffffffffffffffffff021916908373ffffffffffffffffffffffffffffffffffffffff16021790555050565b6127148062003ead83390190565b613b52806200035b6000396000f3fe60806040523480156200001157600080fd5b5060043610620000ac5760003560e01c8063cc3e20df116200006f578063cc3e20df146200028f578063f2fde38b146200058a578063f6fc96ad14620005d1578063fc0c546a146200061d578063fdea8e0b146200066957620000ac565b80635ec028c314620000b1578063715018a6146200016257806372bd7327146200016e5780638da5cb5b146200021f5780638f32d59b146200026b575b600080fd5b62000148600480360360e0811015620000c957600080fd5b81019080803590602001909291908035906020019092919080359060200190929190803573ffffffffffffffffffffffffffffffffffffffff169060200190929190803573ffffffffffffffffffffffffffffffffffffffff1690602001909291908035906020019092919080359060200190929190505050620006b5565b604051808215151515815260200191505060405180910390f35b6200016c62000a0a565b005b62000205600480360360e08110156200018657600080fd5b81019080803590602001909291908035906020019092919080359060200190929190803573ffffffffffffffffffffffffffffffffffffffff169060200190929190803573ffffffffffffffffffffffffffffffffffffffff169060200190929190803590602001909291908035906020019092919050505062000add565b604051808215151515815260200191505060405180910390f35b6200022962000e33565b604051808273ffffffffffffffffffffffffffffffffffffffff1673ffffffffffffffffffffffffffffffffffffffff16815260200191505060405180910390f35b6200027562000e5c565b604051808215151515815260200191505060405180910390f35b62000570600480360360e0811015620002a757600080fd5b81019080803573ffffffffffffffffffffffffffffffffffffffff169060200190929190803573ffffffffffffffffffffffffffffffffffffffff169060200190929190803573ffffffffffffffffffffffffffffffffffffffff169060200190929190803590602001906401000000008111156200032557600080fd5b8201836020820111156200033857600080fd5b803590602001918460208302840111640100000000831117156200035b57600080fd5b919080806020026020016040519081016040528093929190818152602001838360200280828437600081840152601f19601f82011690508083019250505050505050919291929080359060200190640100000000811115620003bc57600080fd5b820183602082011115620003cf57600080fd5b80359060200191846020830284011164010000000083111715620003f257600080fd5b919080806020026020016040519081016040528093929190818152602001838360200280828437600081840152601f19601f820116905080830192505050505050509192919290803590602001906401000000008111156200045357600080fd5b8201836020820111156200046657600080fd5b803590602001918460208302840111640100000000831117156200048957600080fd5b919080806020026020016040519081016040528093929190818152602001838360200280828437600081840152601f19601f82011690508083019250505050505050919291929080359060200190640100000000811115620004ea57600080fd5b820183602082011115620004fd57600080fd5b803590602001918460208302840111640100000000831117156200052057600080fd5b919080806020026020016040519081016040528093929190818152602001838360200280828437600081840152601f19601f82011690508083019250505050505050919291929050505062000eb3565b604051808215151515815260200191505060405180910390f35b620005cf60048036036020811015620005a257600080fd5b81019080803573ffffffffffffffffffffffffffffffffffffffff16906020019092919050505062001a5e565b005b620005db62001a80565b604051808273ffffffffffffffffffffffffffffffffffffffff1673ffffffffffffffffffffffffffffffffffffffff16815260200191505060405180910390f35b6200062762001aa6565b604051808273ffffffffffffffffffffffffffffffffffffffff1673ffffffffffffffffffffffffffffffffffffffff16815260200191505060405180910390f35b6200067362001acc565b604051808273ffffffffffffffffffffffffffffffffffffffff1673ffffffffffffffffffffffffffffffffffffffff16815260200191505060405180910390f35b6000620006c162000e5c565b620006cb57600080fd5b600073ffffffffffffffffffffffffffffffffffffffff16600260009054906101000a900473ffffffffffffffffffffffffffffffffffffffff1673ffffffffffffffffffffffffffffffffffffffff161462000790576040517f08c379a00000000000000000000000000000000000000000000000000000000081526004018080602001828103825260138152602001807f414c52454144595f494e495449414c495a45440000000000000000000000000081525060200191505060405180910390fd5b8787878787600160009054906101000a900473ffffffffffffffffffffffffffffffffffffffff168888604051620007c89062001c4a565b808981526020018881526020018781526020018673ffffffffffffffffffffffffffffffffffffffff1673ffffffffffffffffffffffffffffffffffffffff1681526020018573ffffffffffffffffffffffffffffffffffffffff1673ffffffffffffffffffffffffffffffffffffffff1681526020018473ffffffffffffffffffffffffffffffffffffffff1673ffffffffffffffffffffffffffffffffffffffff16815260200183815260200182815260200198505050505050505050604051809103906000f080158015620008a4573d6000803e3d6000fd5b50600260006101000a81548173ffffffffffffffffffffffffffffffffffffffff021916908373ffffffffffffffffffffffffffffffffffffffff160217905550600160009054906101000a900473ffffffffffffffffffffffffffffffffffffffff1673ffffffffffffffffffffffffffffffffffffffff166340c10f19600260009054906101000a900473ffffffffffffffffffffffffffffffffffffffff16601260ff16600a0a62989680026040518363ffffffff1660e01b8152600401808373ffffffffffffffffffffffffffffffffffffffff1673ffffffffffffffffffffffffffffffffffffffff16815260200182815260200192505050602060405180830381600087803b158015620009bd57600080fd5b505af1158015620009d2573d6000803e3d6000fd5b505050506040513d6020811015620009e957600080fd5b81019080805190602001909291905050505060019050979650505050505050565b62000a1462000e5c565b62000a1e57600080fd5b600073ffffffffffffffffffffffffffffffffffffffff166000809054906101000a900473ffffffffffffffffffffffffffffffffffffffff1673ffffffffffffffffffffffffffffffffffffffff167f8be0079c531659141344cd1fd0a4f28419497f9722a3daafe3b4186f6b6457e060405160405180910390a360008060006101000a81548173ffffffffffffffffffffffffffffffffffffffff021916908373ffffffffffffffffffffffffffffffffffffffff160217905550565b600062000ae962000e5c565b62000af357600080fd5b600073ffffffffffffffffffffffffffffffffffffffff16600360009054906101000a900473ffffffffffffffffffffffffffffffffffffffff1673ffffffffffffffffffffffffffffffffffffffff161462000bb8576040517f08c379a00000000000000000000000000000000000000000000000000000000081526004018080602001828103825260138152602001807f414c52454144595f494e495449414c495a45440000000000000000000000000081525060200191505060405180910390fd5b8787878787600160009054906101000a900473ffffffffffffffffffffffffffffffffffffffff16888860405162000bf09062001c4a565b808981526020018881526020018781526020018673ffffffffffffffffffffffffffffffffffffffff1673ffffffffffffffffffffffffffffffffffffffff1681526020018573ffffffffffffffffffffffffffffffffffffffff1673ffffffffffffffffffffffffffffffffffffffff1681526020018473ffffffffffffffffffffffffffffffffffffffff1673ffffffffffffffffffffffffffffffffffffffff16815260200183815260200182815260200198505050505050505050604051809103906000f08015801562000ccc573d6000803e3d6000fd5b50600360006101000a81548173ffffffffffffffffffffffffffffffffffffffff021916908373ffffffffffffffffffffffffffffffffffffffff160217905550600160009054906101000a900473ffffffffffffffffffffffffffffffffffffffff1673ffffffffffffffffffffffffffffffffffffffff166340c10f19600360009054906101000a900473ffffffffffffffffffffffffffffffffffffffff16601260ff16600a0a6302160ec0026040518363ffffffff1660e01b8152600401808373ffffffffffffffffffffffffffffffffffffffff1673ffffffffffffffffffffffffffffffffffffffff16815260200182815260200192505050602060405180830381600087803b15801562000de657600080fd5b505af115801562000dfb573d6000803e3d6000fd5b505050506040513d602081101562000e1257600080fd5b81019080805190602001909291905050505060019050979650505050505050565b60008060009054906101000a900473ffffffffffffffffffffffffffffffffffffffff16905090565b60008060009054906101000a900473ffffffffffffffffffffffffffffffffffffffff1673ffffffffffffffffffffffffffffffffffffffff163373ffffffffffffffffffffffffffffffffffffffff1614905090565b600062000ebf62000e5c565b62000ec957600080fd5b835185511462000ed857600080fd5b815183511462000ee757600080fd5b600160009054906101000a900473ffffffffffffffffffffffffffffffffffffffff1673ffffffffffffffffffffffffffffffffffffffff166340c10f1989601260ff16600a0a6302160ec0026040518363ffffffff1660e01b8152600401808373ffffffffffffffffffffffffffffffffffffffff1673ffffffffffffffffffffffffffffffffffffffff16815260200182815260200192505050602060405180830381600087803b15801562000f9e57600080fd5b505af115801562000fb3573d6000803e3d6000fd5b505050506040513d602081101562000fca57600080fd5b810190808051906020019092919050505050600160009054906101000a900473ffffffffffffffffffffffffffffffffffffffff1673ffffffffffffffffffffffffffffffffffffffff166340c10f1988601260ff16600a0a624c4b40026040518363ffffffff1660e01b8152600401808373ffffffffffffffffffffffffffffffffffffffff1673ffffffffffffffffffffffffffffffffffffffff16815260200182815260200192505050602060405180830381600087803b1580156200109257600080fd5b505af1158015620010a7573d6000803e3d6000fd5b505050506040513d6020811015620010be57600080fd5b810190808051906020019092919050505050600160009054906101000a900473ffffffffffffffffffffffffffffffffffffffff1673ffffffffffffffffffffffffffffffffffffffff166340c10f1987601260ff16600a0a624c4b40026040518363ffffffff1660e01b8152600401808373ffffffffffffffffffffffffffffffffffffffff1673ffffffffffffffffffffffffffffffffffffffff16815260200182815260200192505050602060405180830381600087803b1580156200118657600080fd5b505af11580156200119b573d6000803e3d6000fd5b505050506040513d6020811015620011b257600080fd5b81019080805190602001909291905050505062001253601260ff16600a0a627a12000262001244601260ff16600a0a621e84800262001235601260ff16600a0a629896800262001226601260ff16600a0a6302160ec002601260ff16600a0a6305f5e1000262001af290919063ffffffff16565b62001af290919063ffffffff16565b62001af290919063ffffffff16565b62001af290919063ffffffff16565b600160009054906101000a900473ffffffffffffffffffffffffffffffffffffffff1673ffffffffffffffffffffffffffffffffffffffff166318160ddd6040518163ffffffff1660e01b815260040160206040518083038186803b158015620012bc57600080fd5b505afa158015620012d1573d6000803e3d6000fd5b505050506040513d6020811015620012e857600080fd5b8101908080519060200190929190505050146200136d576040517f08c379a000000000000000000000000000000000000000000000000000000000815260040180806020018281038252601e8152602001807f415641494c41424c455f46414d494c59465249454e44535f535550504c59000081525060200191505060405180910390fd5b60008090505b8551811015620015645760008682815181106200138c57fe5b602002602001015190506303c267008173ffffffffffffffffffffffffffffffffffffffff16630fb5a6b46040518163ffffffff1660e01b815260040160206040518083038186803b158015620013e257600080fd5b505afa158015620013f7573d6000803e3d6000fd5b505050506040513d60208110156200140e57600080fd5b8101908080519060200190929190505050146200142a57600080fd5b600160009054906101000a900473ffffffffffffffffffffffffffffffffffffffff1673ffffffffffffffffffffffffffffffffffffffff166340c10f198884815181106200147557fe5b6020026020010151620014ad601260ff16600a0a8a87815181106200149657fe5b602002602001015162001b1390919063ffffffff16565b6040518363ffffffff1660e01b8152600401808373ffffffffffffffffffffffffffffffffffffffff1673ffffffffffffffffffffffffffffffffffffffff16815260200182815260200192505050602060405180830381600087803b1580156200151757600080fd5b505af11580156200152c573d6000803e3d6000fd5b505050506040513d60208110156200154357600080fd5b81019080805190602001909291905050505050808060010191505062001373565b50620015d4601260ff16600a0a621e848002620015c5601260ff16600a0a6298968002620015b6601260ff16600a0a6302160ec002601260ff16600a0a6305f5e1000262001af290919063ffffffff16565b62001af290919063ffffffff16565b62001af290919063ffffffff16565b600160009054906101000a900473ffffffffffffffffffffffffffffffffffffffff1673ffffffffffffffffffffffffffffffffffffffff166318160ddd6040518163ffffffff1660e01b815260040160206040518083038186803b1580156200163d57600080fd5b505afa15801562001652573d6000803e3d6000fd5b505050506040513d60208110156200166957600080fd5b810190808051906020019092919050505014620016ee576040517f08c379a00000000000000000000000000000000000000000000000000000000081526004018080602001828103825260158152602001807f415641494c41424c455f5445414d5f535550504c59000000000000000000000081525060200191505060405180910390fd5b60008090505b8351811015620018e55760008482815181106200170d57fe5b602002602001015190506303c267008173ffffffffffffffffffffffffffffffffffffffff16630fb5a6b46040518163ffffffff1660e01b815260040160206040518083038186803b1580156200176357600080fd5b505afa15801562001778573d6000803e3d6000fd5b505050506040513d60208110156200178f57600080fd5b810190808051906020019092919050505014620017ab57600080fd5b600160009054906101000a900473ffffffffffffffffffffffffffffffffffffffff1673ffffffffffffffffffffffffffffffffffffffff166340c10f19868481518110620017f657fe5b60200260200101516200182e601260ff16600a0a8887815181106200181757fe5b602002602001015162001b1390919063ffffffff16565b6040518363ffffffff1660e01b8152600401808373ffffffffffffffffffffffffffffffffffffffff1673ffffffffffffffffffffffffffffffffffffffff16815260200182815260200192505050602060405180830381600087803b1580156200189857600080fd5b505af1158015620018ad573d6000803e3d6000fd5b505050506040513d6020811015620018c457600080fd5b810190808051906020019092919050505050508080600101915050620016f4565b5062001935601260ff16600a0a629896800262001926601260ff16600a0a6302160ec002601260ff16600a0a6305f5e1000262001af290919063ffffffff16565b62001af290919063ffffffff16565b600160009054906101000a900473ffffffffffffffffffffffffffffffffffffffff1673ffffffffffffffffffffffffffffffffffffffff166318160ddd6040518163ffffffff1660e01b815260040160206040518083038186803b1580156200199e57600080fd5b505afa158015620019b3573d6000803e3d6000fd5b505050506040513d6020811015620019ca57600080fd5b81019080805190602001909291905050501462001a4f576040517f08c379a00000000000000000000000000000000000000000000000000000000081526004018080602001828103825260188152602001807f415641494c41424c455f41445649534f525f535550504c59000000000000000081525060200191505060405180910390fd5b60019050979650505050505050565b62001a6862000e5c565b62001a7257600080fd5b62001a7d8162001b51565b50565b600360009054906101000a900473ffffffffffffffffffffffffffffffffffffffff1681565b600160009054906101000a900473ffffffffffffffffffffffffffffffffffffffff1681565b600260009054906101000a900473ffffffffffffffffffffffffffffffffffffffff1681565b60008282111562001b0257600080fd5b600082840390508091505092915050565b60008083141562001b28576000905062001b4b565b600082840290508284828162001b3a57fe5b041462001b4657600080fd5b809150505b92915050565b600073ffffffffffffffffffffffffffffffffffffffff168173ffffffffffffffffffffffffffffffffffffffff16141562001b8c57600080fd5b8073ffffffffffffffffffffffffffffffffffffffff166000809054906101000a900473ffffffffffffffffffffffffffffffffffffffff1673ffffffffffffffffffffffffffffffffffffffff167f8be0079c531659141344cd1fd0a4f28419497f9722a3daafe3b4186f6b6457e060405160405180910390a3806000806101000a81548173ffffffffffffffffffffffffffffffffffffffff021916908373ffffffffffffffffffffffffffffffffffffffff16021790555050565b611ec58062001c598339019056fe60806040523480156200001157600080fd5b5060405162001ec538038062001ec583398181016040526101008110156200003857600080fd5b81019080805190602001909291908051906020019092919080519060200190929190805190602001909291908051906020019092919080519060200190929190805190602001909291908051906020019092919050505087878787858560018a8a620000aa336200030960201b60201c565b600160028190555060008311620000c057600080fd5b600073ffffffffffffffffffffffffffffffffffffffff168273ffffffffffffffffffffffffffffffffffffffff161415620000fb57600080fd5b600073ffffffffffffffffffffffffffffffffffffffff168173ffffffffffffffffffffffffffffffffffffffff1614156200013657600080fd5b8260058190555081600460006101000a81548173ffffffffffffffffffffffffffffffffffffffff021916908373ffffffffffffffffffffffffffffffffffffffff16021790555080600360006101000a81548173ffffffffffffffffffffffffffffffffffffffff021916908373ffffffffffffffffffffffffffffffffffffffff16021790555050505042821015620001d057600080fd5b818111620001dd57600080fd5b8160078190555080600881905550505033600960006101000a81548173ffffffffffffffffffffffffffffffffffffffff021916908373ffffffffffffffffffffffffffffffffffffffff160217905550600960009054906101000a900473ffffffffffffffffffffffffffffffffffffffff1673ffffffffffffffffffffffffffffffffffffffff16600073ffffffffffffffffffffffffffffffffffffffff167f8be0079c531659141344cd1fd0a4f28419497f9722a3daafe3b4186f6b6457e060405160405180910390a3620002be8484846200036a60201b60201c565b620002cf816200047460201b60201c565b50505050620002e485620004a260201b60201c565b620002fb57620002fa85620004c660201b60201c565b5b5050505050505050620007cd565b62000324816000620004f560201b620014f11790919060201c565b8073ffffffffffffffffffffffffffffffffffffffff167f22380c05984257a1cb900161c713dd71d39e74820f1aea43bd3f1bdd2096129960405160405180910390a250565b6200037a620005ab60201b60201c565b6200038457600080fd5b620003946200060360201b60201c565b158015620003af5750620003ad6200061f60201b60201c565b155b620003b957600080fd5b60008311620003c757600080fd5b620003d76200062b60201b60201c565b8210158015620003f55750620003f26200063560201b60201c565b82105b620003ff57600080fd5b600081116200040d57600080fd5b82600a8190555081600b8190555080600c819055507f023010bc68e7f4c0be9887f513c570c7a0f5f511b9716abccd42bf3b8943532b600a54600b54600c5460405180848152602001838152602001828152602001935050505060405180910390a1505050565b62000484620005ab60201b60201c565b6200048e57600080fd5b6200049f816200063f60201b60201c565b50565b6000620004bf8260006200073a60201b620011361790919060201c565b9050919050565b620004d733620004a260201b60201c565b620004e157600080fd5b620004f2816200030960201b60201c565b50565b600073ffffffffffffffffffffffffffffffffffffffff168173ffffffffffffffffffffffffffffffffffffffff1614156200053057600080fd5b6200054282826200073a60201b60201c565b156200054d57600080fd5b60018260000160008373ffffffffffffffffffffffffffffffffffffffff1673ffffffffffffffffffffffffffffffffffffffff16815260200190815260200160002060006101000a81548160ff0219169083151502179055505050565b6000600960009054906101000a900473ffffffffffffffffffffffffffffffffffffffff1673ffffffffffffffffffffffffffffffffffffffff163373ffffffffffffffffffffffffffffffffffffffff1614905090565b600060075442101580156200061a57506008544211155b905090565b60006008544211905090565b6000600754905090565b6000600854905090565b600073ffffffffffffffffffffffffffffffffffffffff168173ffffffffffffffffffffffffffffffffffffffff1614156200067a57600080fd5b8073ffffffffffffffffffffffffffffffffffffffff16600960009054906101000a900473ffffffffffffffffffffffffffffffffffffffff1673ffffffffffffffffffffffffffffffffffffffff167f8be0079c531659141344cd1fd0a4f28419497f9722a3daafe3b4186f6b6457e060405160405180910390a380600960006101000a81548173ffffffffffffffffffffffffffffffffffffffff021916908373ffffffffffffffffffffffffffffffffffffffff16021790555050565b60008073ffffffffffffffffffffffffffffffffffffffff168273ffffffffffffffffffffffffffffffffffffffff1614156200077657600080fd5b8260000160008373ffffffffffffffffffffffffffffffffffffffff1673ffffffffffffffffffffffffffffffffffffffff16815260200190815260200160002060009054906101000a900460ff16905092915050565b6116e880620007dd6000396000f3fe6080604052600436106101b75760003560e01c8063715018a6116100ec578063bb5f747b1161008a578063ec8ac4d811610064578063ec8ac4d8146107ba578063f2fde38b146107fe578063f7fb07b01461084f578063fc0c546a1461087a576101b7565b8063bb5f747b146106eb578063c0f3622c14610754578063d6cd9473146107a3576101b7565b80638f32d59b116100c65780638f32d59b1461060b578063b7a8807c1461063a578063b82a0ce814610665578063b8d9141614610690576101b7565b8063715018a61461054c5780637362d9c8146105635780638da5cb5b146105b4576101b7565b80634042b66f116101595780634b6753bc116101335780634b6753bc146104885780634c5a628c146104b3578063521eb273146104ca5780635af123f414610521576101b7565b80634042b66f1461041757806344df8e701461044257806347535d7b14610459576101b7565b8063291d954911610195578063291d95491461026d5780632a4bc321146102be5780632c4e722e146103835780633af32abf146103ae576101b7565b806310154bad146101c25780631515bc2b146102135780632616501d14610242575b6101c0336108d1565b005b3480156101ce57600080fd5b50610211600480360360208110156101e557600080fd5b81019080803573ffffffffffffffffffffffffffffffffffffffff1690602001909291905050506109c7565b005b34801561021f57600080fd5b506102286109e5565b604051808215151515815260200191505060405180910390f35b34801561024e57600080fd5b506102576109f1565b6040518082815260200191505060405180910390f35b34801561027957600080fd5b506102bc6004803603602081101561029057600080fd5b81019080803573ffffffffffffffffffffffffffffffffffffffff1690602001909291905050506109fb565b005b3480156102ca57600080fd5b50610381600480360360208110156102e157600080fd5b81019080803590602001906401000000008111156102fe57600080fd5b82018360208201111561031057600080fd5b8035906020019184602083028401116401000000008311171561033257600080fd5b919080806020026020016040519081016040528093929190818152602001838360200280828437600081840152601f19601f820116905080830192505050505050509192919290505050610a19565b005b34801561038f57600080fd5b50610398610a67565b6040518082815260200191505060405180910390f35b3480156103ba57600080fd5b506103fd600480360360208110156103d157600080fd5b81019080803573ffffffffffffffffffffffffffffffffffffffff169060200190929190505050610a6e565b604051808215151515815260200191505060405180910390f35b34801561042357600080fd5b5061042c610a8b565b6040518082815260200191505060405180910390f35b34801561044e57600080fd5b50610457610a95565b005b34801561046557600080fd5b5061046e610bd7565b604051808215151515815260200191505060405180910390f35b34801561049457600080fd5b5061049d610bf2565b6040518082815260200191505060405180910390f35b3480156104bf57600080fd5b506104c8610bfc565b005b3480156104d657600080fd5b506104df610c07565b604051808273ffffffffffffffffffffffffffffffffffffffff1673ffffffffffffffffffffffffffffffffffffffff16815260200191505060405180910390f35b34801561052d57600080fd5b50610536610c31565b6040518082815260200191505060405180910390f35b34801561055857600080fd5b50610561610c3b565b005b34801561056f57600080fd5b506105b26004803603602081101561058657600080fd5b81019080803573ffffffffffffffffffffffffffffffffffffffff169060200190929190505050610d0d565b005b3480156105c057600080fd5b506105c9610d2b565b604051808273ffffffffffffffffffffffffffffffffffffffff1673ffffffffffffffffffffffffffffffffffffffff16815260200191505060405180910390f35b34801561061757600080fd5b50610620610d55565b604051808215151515815260200191505060405180910390f35b34801561064657600080fd5b5061064f610dad565b6040518082815260200191505060405180910390f35b34801561067157600080fd5b5061067a610db7565b6040518082815260200191505060405180910390f35b34801561069c57600080fd5b506106e9600480360360408110156106b357600080fd5b81019080803573ffffffffffffffffffffffffffffffffffffffff16906020019092919080359060200190929190505050610dc1565b005b3480156106f757600080fd5b5061073a6004803603602081101561070e57600080fd5b81019080803573ffffffffffffffffffffffffffffffffffffffff169060200190929190505050610e1a565b604051808215151515815260200191505060405180910390f35b34801561076057600080fd5b506107a16004803603606081101561077757600080fd5b81019080803590602001909291908035906020019092919080359060200190929190505050610e37565b005b3480156107af57600080fd5b506107b8610f12565b005b6107fc600480360360208110156107d057600080fd5b81019080803573ffffffffffffffffffffffffffffffffffffffff1690602001909291905050506108d1565b005b34801561080a57600080fd5b5061084d6004803603602081101561082157600080fd5b81019080803573ffffffffffffffffffffffffffffffffffffffff169060200190929190505050610f1d565b005b34801561085b57600080fd5b50610864610f3a565b6040518082815260200191505060405180910390f35b34801561088657600080fd5b5061088f610f6d565b604051808273ffffffffffffffffffffffffffffffffffffffff1673ffffffffffffffffffffffffffffffffffffffff16815260200191505060405180910390f35b60016002600082825401925050819055506000600254905060003490506108f88382610f97565b600061090382610fba565b905061091a82600654610fe290919063ffffffff16565b60068190555061092a8482611001565b8373ffffffffffffffffffffffffffffffffffffffff163373ffffffffffffffffffffffffffffffffffffffff167f6faf93231a456e552dbc9961f58d9713ee4f2e69d15f1975b050ef0911053a7b8484604051808381526020018281526020019250505060405180910390a36109a1848361100f565b6109a9611013565b6109b3848361107e565b505060025481146109c357600080fd5b5050565b6109d033610e1a565b6109d957600080fd5b6109e281611082565b50565b60006008544211905090565b6000600c54905090565b610a0433610e1a565b610a0d57600080fd5b610a16816110dc565b50565b610a2233610e1a565b610a2b57600080fd5b60008090505b8151811015610a6357610a56828281518110610a4957fe5b6020026020010151611082565b8080600101915050610a31565b5050565b6000806000fd5b6000610a8482600161113690919063ffffffff16565b9050919050565b6000600654905090565b610a9d6109e5565b610aa657600080fd5b6000610ab0610f6d565b90508073ffffffffffffffffffffffffffffffffffffffff166342966c688273ffffffffffffffffffffffffffffffffffffffff166370a08231306040518263ffffffff1660e01b8152600401808273ffffffffffffffffffffffffffffffffffffffff1673ffffffffffffffffffffffffffffffffffffffff16815260200191505060206040518083038186803b158015610b4b57600080fd5b505afa158015610b5f573d6000803e3d6000fd5b505050506040513d6020811015610b7557600080fd5b81019080805190602001909291905050506040518263ffffffff1660e01b815260040180828152602001915050600060405180830381600087803b158015610bbc57600080fd5b505af1158015610bd0573d6000803e3d6000fd5b5050505050565b60006007544210158015610bed57506008544211155b905090565b6000600854905090565b610c05336111c8565b565b6000600460009054906101000a900473ffffffffffffffffffffffffffffffffffffffff16905090565b6000600a54905090565b610c43610d55565b610c4c57600080fd5b600073ffffffffffffffffffffffffffffffffffffffff16600960009054906101000a900473ffffffffffffffffffffffffffffffffffffffff1673ffffffffffffffffffffffffffffffffffffffff167f8be0079c531659141344cd1fd0a4f28419497f9722a3daafe3b4186f6b6457e060405160405180910390a36000600960006101000a81548173ffffffffffffffffffffffffffffffffffffffff021916908373ffffffffffffffffffffffffffffffffffffffff160217905550565b610d1633610e1a565b610d1f57600080fd5b610d2881611222565b50565b6000600960009054906101000a900473ffffffffffffffffffffffffffffffffffffffff16905090565b6000600960009054906101000a900473ffffffffffffffffffffffffffffffffffffffff1673ffffffffffffffffffffffffffffffffffffffff163373ffffffffffffffffffffffffffffffffffffffff1614905090565b6000600754905090565b6000600b54905090565b610dc9610d55565b610dd257600080fd5b610dda6109e5565b15610de457600080fd5b610e168282610df1610f6d565b73ffffffffffffffffffffffffffffffffffffffff1661127c9092919063ffffffff16565b5050565b6000610e3082600061113690919063ffffffff16565b9050919050565b610e3f610d55565b610e4857600080fd5b610e50610bd7565b158015610e625750610e606109e5565b155b610e6b57600080fd5b60008311610e7857600080fd5b610e80610dad565b8210158015610e955750610e92610bf2565b82105b610e9e57600080fd5b60008111610eab57600080fd5b82600a8190555081600b8190555080600c819055507f023010bc68e7f4c0be9887f513c570c7a0f5f511b9716abccd42bf3b8943532b600a54600b54600c5460405180848152602001838152602001828152602001935050505060405180910390a1505050565b610f1b336110dc565b565b610f25610d55565b610f2e57600080fd5b610f378161134c565b50565b6000610f44610bd7565b610f515760009050610f6a565b600b544211610f6457600a549050610f6a565b600c5490505b90565b6000600360009054906101000a900473ffffffffffffffffffffffffffffffffffffffff16905090565b6706f05b59d3b20000811015610fac57600080fd5b610fb68282611446565b5050565b600080610fc5610f3a565b9050610fda838261146690919063ffffffff16565b915050919050565b600080828401905083811015610ff757600080fd5b8091505092915050565b61100b82826114a0565b5050565b5050565b600460009054906101000a900473ffffffffffffffffffffffffffffffffffffffff1673ffffffffffffffffffffffffffffffffffffffff166108fc349081150290604051600060405180830381858888f1935050505015801561107b573d6000803e3d6000fd5b50565b5050565b6110968160016114f190919063ffffffff16565b8073ffffffffffffffffffffffffffffffffffffffff167fee1504a83b6d4a361f4c1dc78ab59bfa30d6a3b6612c403e86bb01ef2984295f60405160405180910390a250565b6110f081600161159d90919063ffffffff16565b8073ffffffffffffffffffffffffffffffffffffffff167f270d9b30cf5b0793bbfd54c9d5b94aeb49462b8148399000265144a8722da6b660405160405180910390a250565b60008073ffffffffffffffffffffffffffffffffffffffff168273ffffffffffffffffffffffffffffffffffffffff16141561117157600080fd5b8260000160008373ffffffffffffffffffffffffffffffffffffffff1673ffffffffffffffffffffffffffffffffffffffff16815260200190815260200160002060009054906101000a900460ff16905092915050565b6111dc81600061159d90919063ffffffff16565b8073ffffffffffffffffffffffffffffffffffffffff167f0a8eb35e5ca14b3d6f28e4abf2f128dbab231a58b56e89beb5d636115001e16560405160405180910390a250565b6112368160006114f190919063ffffffff16565b8073ffffffffffffffffffffffffffffffffffffffff167f22380c05984257a1cb900161c713dd71d39e74820f1aea43bd3f1bdd2096129960405160405180910390a250565b8273ffffffffffffffffffffffffffffffffffffffff1663a9059cbb83836040518363ffffffff1660e01b8152600401808373ffffffffffffffffffffffffffffffffffffffff1673ffffffffffffffffffffffffffffffffffffffff16815260200182815260200192505050602060405180830381600087803b15801561130357600080fd5b505af1158015611317573d6000803e3d6000fd5b505050506040513d602081101561132d57600080fd5b810190808051906020019092919050505061134757600080fd5b505050565b600073ffffffffffffffffffffffffffffffffffffffff168173ffffffffffffffffffffffffffffffffffffffff16141561138657600080fd5b8073ffffffffffffffffffffffffffffffffffffffff16600960009054906101000a900473ffffffffffffffffffffffffffffffffffffffff1673ffffffffffffffffffffffffffffffffffffffff167f8be0079c531659141344cd1fd0a4f28419497f9722a3daafe3b4186f6b6457e060405160405180910390a380600960006101000a81548173ffffffffffffffffffffffffffffffffffffffff021916908373ffffffffffffffffffffffffffffffffffffffff16021790555050565b61144f82610a6e565b61145857600080fd5b6114628282611648565b5050565b600080831415611479576000905061149a565b600082840290508284828161148a57fe5b041461149557600080fd5b809150505b92915050565b6114ed8282600360009054906101000a900473ffffffffffffffffffffffffffffffffffffffff1673ffffffffffffffffffffffffffffffffffffffff1661127c9092919063ffffffff16565b5050565b600073ffffffffffffffffffffffffffffffffffffffff168173ffffffffffffffffffffffffffffffffffffffff16141561152b57600080fd5b6115358282611136565b1561153f57600080fd5b60018260000160008373ffffffffffffffffffffffffffffffffffffffff1673ffffffffffffffffffffffffffffffffffffffff16815260200190815260200160002060006101000a81548160ff0219169083151502179055505050565b600073ffffffffffffffffffffffffffffffffffffffff168173ffffffffffffffffffffffffffffffffffffffff1614156115d757600080fd5b6115e18282611136565b6115ea57600080fd5b60008260000160008373ffffffffffffffffffffffffffffffffffffffff1673ffffffffffffffffffffffffffffffffffffffff16815260200190815260200160002060006101000a81548160ff0219169083151502179055505050565b611650610bd7565b61165957600080fd5b6116638282611667565b5050565b600073ffffffffffffffffffffffffffffffffffffffff168273ffffffffffffffffffffffffffffffffffffffff1614156116a157600080fd5b60008114156116af57600080fd5b505056fea265627a7a72305820e145afcd98bdc57d77227fd4188facc5bb6fe87280b4fb59a566178262e85fbf64736f6c634300050a0032a265627a7a723058208dbe3c3943402a6aee2bc874a578e6d3d833f374729f9a87fd742659fa8a78bd64736f6c634300050a003260806040523480156200001157600080fd5b506040516200271438038062002714833981810160405260208110156200003757600080fd5b81019080805190602001909291905050506a52b7d2dcc80cd2e40000006040518060400160405280600581526020017f41737572650000000000000000000000000000000000000000000000000000008152506040518060400160405280600381526020017f415352000000000000000000000000000000000000000000000000000000000081525060128260039080519060200190620000da9291906200053a565b508160049080519060200190620000f39291906200053a565b5080600560006101000a81548160ff021916908360ff16021790555050505062000123336200020f60201b60201c565b600081116200013157600080fd5b806007819055505033600860006101000a81548173ffffffffffffffffffffffffffffffffffffffff021916908373ffffffffffffffffffffffffffffffffffffffff160217905550600860009054906101000a900473ffffffffffffffffffffffffffffffffffffffff1673ffffffffffffffffffffffffffffffffffffffff16600073ffffffffffffffffffffffffffffffffffffffff167f8be0079c531659141344cd1fd0a4f28419497f9722a3daafe3b4186f6b6457e060405160405180910390a362000208816200027060201b60201c565b50620005e9565b6200022a8160066200029e60201b62001f8f1790919060201c565b8073ffffffffffffffffffffffffffffffffffffffff167f6ae172837ea30b801fbfcdd4108aa1d5bf8ff775444fd70256b44e6bf3dfc3f660405160405180910390a250565b620002806200035460201b60201c565b6200028a57600080fd5b6200029b81620003ac60201b60201c565b50565b600073ffffffffffffffffffffffffffffffffffffffff168173ffffffffffffffffffffffffffffffffffffffff161415620002d957600080fd5b620002eb8282620004a760201b60201c565b15620002f657600080fd5b60018260000160008373ffffffffffffffffffffffffffffffffffffffff1673ffffffffffffffffffffffffffffffffffffffff16815260200190815260200160002060006101000a81548160ff0219169083151502179055505050565b6000600860009054906101000a900473ffffffffffffffffffffffffffffffffffffffff1673ffffffffffffffffffffffffffffffffffffffff163373ffffffffffffffffffffffffffffffffffffffff1614905090565b600073ffffffffffffffffffffffffffffffffffffffff168173ffffffffffffffffffffffffffffffffffffffff161415620003e757600080fd5b8073ffffffffffffffffffffffffffffffffffffffff16600860009054906101000a900473ffffffffffffffffffffffffffffffffffffffff1673ffffffffffffffffffffffffffffffffffffffff167f8be0079c531659141344cd1fd0a4f28419497f9722a3daafe3b4186f6b6457e060405160405180910390a380600860006101000a81548173ffffffffffffffffffffffffffffffffffffffff021916908373ffffffffffffffffffffffffffffffffffffffff16021790555050565b60008073ffffffffffffffffffffffffffffffffffffffff168273ffffffffffffffffffffffffffffffffffffffff161415620004e357600080fd5b8260000160008373ffffffffffffffffffffffffffffffffffffffff1673ffffffffffffffffffffffffffffffffffffffff16815260200190815260200160002060009054906101000a900460ff16905092915050565b828054600181600116156101000203166002900490600052602060002090601f016020900481019282601f106200057d57805160ff1916838001178555620005ae565b82800160010185558215620005ae579182015b82811115620005ad57825182559160200191906001019062000590565b5b509050620005bd9190620005c1565b5090565b620005e691905b80821115620005e2576000816000905550600101620005c8565b5090565b90565b61211b80620005f96000396000f3fe608060405234801561001057600080fd5b506004361061014d5760003560e01c8063715018a6116100c3578063986502751161007c5780639865027514610642578063a457c2d71461064c578063a9059cbb146106b2578063aa271e1a14610718578063dd62ed3e14610774578063f2fde38b146107ec5761014d565b8063715018a6146104b757806379cc6790146104c15780638da5cb5b1461050f5780638f32d59b1461055957806395d89b411461057b578063983b2d56146105fe5761014d565b8063355274ea11610115578063355274ea14610303578063395093511461032157806340c10f191461038757806342966c68146103ed5780636883c5a91461041b57806370a082311461045f5761014d565b806306fdde0314610152578063095ea7b3146101d557806318160ddd1461023b57806323b872dd14610259578063313ce567146102df575b600080fd5b61015a610830565b6040518080602001828103825283818151815260200191508051906020019080838360005b8381101561019a57808201518184015260208101905061017f565b50505050905090810190601f1680156101c75780820380516001836020036101000a031916815260200191505b509250505060405180910390f35b610221600480360360408110156101eb57600080fd5b81019080803573ffffffffffffffffffffffffffffffffffffffff169060200190929190803590602001909291905050506108d2565b604051808215151515815260200191505060405180910390f35b6102436109fd565b6040518082815260200191505060405180910390f35b6102c56004803603606081101561026f57600080fd5b81019080803573ffffffffffffffffffffffffffffffffffffffff169060200190929190803573ffffffffffffffffffffffffffffffffffffffff16906020019092919080359060200190929190505050610a07565b604051808215151515815260200191505060405180910390f35b6102e7610c0f565b604051808260ff1660ff16815260200191505060405180910390f35b61030b610c26565b6040518082815260200191505060405180910390f35b61036d6004803603604081101561033757600080fd5b81019080803573ffffffffffffffffffffffffffffffffffffffff16906020019092919080359060200190929190505050610c30565b604051808215151515815260200191505060405180910390f35b6103d36004803603604081101561039d57600080fd5b81019080803573ffffffffffffffffffffffffffffffffffffffff16906020019092919080359060200190929190505050610e65565b604051808215151515815260200191505060405180910390f35b6104196004803603602081101561040357600080fd5b8101908080359060200190929190505050610ec6565b005b61045d6004803603602081101561043157600080fd5b81019080803573ffffffffffffffffffffffffffffffffffffffff169060200190929190505050610ed3565b005b6104a16004803603602081101561047557600080fd5b81019080803573ffffffffffffffffffffffffffffffffffffffff169060200190929190505050610fe3565b6040518082815260200191505060405180910390f35b6104bf61102b565b005b61050d600480360360408110156104d757600080fd5b81019080803573ffffffffffffffffffffffffffffffffffffffff169060200190929190803590602001909291905050506110fd565b005b61051761110b565b604051808273ffffffffffffffffffffffffffffffffffffffff1673ffffffffffffffffffffffffffffffffffffffff16815260200191505060405180910390f35b610561611135565b604051808215151515815260200191505060405180910390f35b61058361118d565b6040518080602001828103825283818151815260200191508051906020019080838360005b838110156105c35780820151818401526020810190506105a8565b50505050905090810190601f1680156105f05780820380516001836020036101000a031916815260200191505b509250505060405180910390f35b6106406004803603602081101561061457600080fd5b81019080803573ffffffffffffffffffffffffffffffffffffffff16906020019092919050505061122f565b005b61064a61124d565b005b6106986004803603604081101561066257600080fd5b81019080803573ffffffffffffffffffffffffffffffffffffffff16906020019092919080359060200190929190505050611258565b604051808215151515815260200191505060405180910390f35b6106fe600480360360408110156106c857600080fd5b81019080803573ffffffffffffffffffffffffffffffffffffffff1690602001909291908035906020019092919050505061148d565b604051808215151515815260200191505060405180910390f35b61075a6004803603602081101561072e57600080fd5b81019080803573ffffffffffffffffffffffffffffffffffffffff1690602001909291905050506114dd565b604051808215151515815260200191505060405180910390f35b6107d66004803603604081101561078a57600080fd5b81019080803573ffffffffffffffffffffffffffffffffffffffff169060200190929190803573ffffffffffffffffffffffffffffffffffffffff1690602001909291905050506114fa565b6040518082815260200191505060405180910390f35b61082e6004803603602081101561080257600080fd5b81019080803573ffffffffffffffffffffffffffffffffffffffff169060200190929190505050611581565b005b606060038054600181600116156101000203166002900480601f0160208091040260200160405190810160405280929190818152602001828054600181600116156101000203166002900480156108c85780601f1061089d576101008083540402835291602001916108c8565b820191906000526020600020905b8154815290600101906020018083116108ab57829003601f168201915b5050505050905090565b60008073ffffffffffffffffffffffffffffffffffffffff168373ffffffffffffffffffffffffffffffffffffffff16141561090d57600080fd5b81600160003373ffffffffffffffffffffffffffffffffffffffff1673ffffffffffffffffffffffffffffffffffffffff16815260200190815260200160002060008573ffffffffffffffffffffffffffffffffffffffff1673ffffffffffffffffffffffffffffffffffffffff168152602001908152602001600020819055508273ffffffffffffffffffffffffffffffffffffffff163373ffffffffffffffffffffffffffffffffffffffff167f8c5be1e5ebec7d5bd14f71427d1e84f3dd0314c0f7b2291e5b200ac8c7c3b925846040518082815260200191505060405180910390a36001905092915050565b6000600254905090565b6000610a9882600160008773ffffffffffffffffffffffffffffffffffffffff1673ffffffffffffffffffffffffffffffffffffffff16815260200190815260200160002060003373ffffffffffffffffffffffffffffffffffffffff1673ffffffffffffffffffffffffffffffffffffffff1681526020019081526020016000205461159e90919063ffffffff16565b600160008673ffffffffffffffffffffffffffffffffffffffff1673ffffffffffffffffffffffffffffffffffffffff16815260200190815260200160002060003373ffffffffffffffffffffffffffffffffffffffff1673ffffffffffffffffffffffffffffffffffffffff16815260200190815260200160002081905550610b238484846115be565b3373ffffffffffffffffffffffffffffffffffffffff168473ffffffffffffffffffffffffffffffffffffffff167f8c5be1e5ebec7d5bd14f71427d1e84f3dd0314c0f7b2291e5b200ac8c7c3b925600160008873ffffffffffffffffffffffffffffffffffffffff1673ffffffffffffffffffffffffffffffffffffffff16815260200190815260200160002060003373ffffffffffffffffffffffffffffffffffffffff1673ffffffffffffffffffffffffffffffffffffffff168152602001908152602001600020546040518082815260200191505060405180910390a3600190509392505050565b6000600560009054906101000a900460ff16905090565b6000600754905090565b60008073ffffffffffffffffffffffffffffffffffffffff168373ffffffffffffffffffffffffffffffffffffffff161415610c6b57600080fd5b610cfa82600160003373ffffffffffffffffffffffffffffffffffffffff1673ffffffffffffffffffffffffffffffffffffffff16815260200190815260200160002060008673ffffffffffffffffffffffffffffffffffffffff1673ffffffffffffffffffffffffffffffffffffffff1681526020019081526020016000205461178890919063ffffffff16565b600160003373ffffffffffffffffffffffffffffffffffffffff1673ffffffffffffffffffffffffffffffffffffffff16815260200190815260200160002060008573ffffffffffffffffffffffffffffffffffffffff1673ffffffffffffffffffffffffffffffffffffffff168152602001908152602001600020819055508273ffffffffffffffffffffffffffffffffffffffff163373ffffffffffffffffffffffffffffffffffffffff167f8c5be1e5ebec7d5bd14f71427d1e84f3dd0314c0f7b2291e5b200ac8c7c3b925600160003373ffffffffffffffffffffffffffffffffffffffff1673ffffffffffffffffffffffffffffffffffffffff16815260200190815260200160002060008773ffffffffffffffffffffffffffffffffffffffff1673ffffffffffffffffffffffffffffffffffffffff168152602001908152602001600020546040518082815260200191505060405180910390a36001905092915050565b6000610e70336114dd565b610e7957600080fd5b3073ffffffffffffffffffffffffffffffffffffffff168373ffffffffffffffffffffffffffffffffffffffff161415610eb257600080fd5b610ebc83836117a7565b6001905092915050565b610ed033826117dd565b50565b610edb611135565b610ee457600080fd5b600081905060008173ffffffffffffffffffffffffffffffffffffffff166370a08231306040518263ffffffff1660e01b8152600401808273ffffffffffffffffffffffffffffffffffffffff1673ffffffffffffffffffffffffffffffffffffffff16815260200191505060206040518083038186803b158015610f6857600080fd5b505afa158015610f7c573d6000803e3d6000fd5b505050506040513d6020811015610f9257600080fd5b810190808051906020019092919050505090506000811415610fb357600080fd5b610fde33828473ffffffffffffffffffffffffffffffffffffffff1661192f9092919063ffffffff16565b505050565b60008060008373ffffffffffffffffffffffffffffffffffffffff1673ffffffffffffffffffffffffffffffffffffffff168152602001908152602001600020549050919050565b611033611135565b61103c57600080fd5b600073ffffffffffffffffffffffffffffffffffffffff16600860009054906101000a900473ffffffffffffffffffffffffffffffffffffffff1673ffffffffffffffffffffffffffffffffffffffff167f8be0079c531659141344cd1fd0a4f28419497f9722a3daafe3b4186f6b6457e060405160405180910390a36000600860006101000a81548173ffffffffffffffffffffffffffffffffffffffff021916908373ffffffffffffffffffffffffffffffffffffffff160217905550565b61110782826119ff565b5050565b6000600860009054906101000a900473ffffffffffffffffffffffffffffffffffffffff16905090565b6000600860009054906101000a900473ffffffffffffffffffffffffffffffffffffffff1673ffffffffffffffffffffffffffffffffffffffff163373ffffffffffffffffffffffffffffffffffffffff1614905090565b606060048054600181600116156101000203166002900480601f0160208091040260200160405190810160405280929190818152602001828054600181600116156101000203166002900480156112255780601f106111fa57610100808354040283529160200191611225565b820191906000526020600020905b81548152906001019060200180831161120857829003601f168201915b5050505050905090565b611238336114dd565b61124157600080fd5b61124a81611bfd565b50565b61125633611c57565b565b60008073ffffffffffffffffffffffffffffffffffffffff168373ffffffffffffffffffffffffffffffffffffffff16141561129357600080fd5b61132282600160003373ffffffffffffffffffffffffffffffffffffffff1673ffffffffffffffffffffffffffffffffffffffff16815260200190815260200160002060008673ffffffffffffffffffffffffffffffffffffffff1673ffffffffffffffffffffffffffffffffffffffff1681526020019081526020016000205461159e90919063ffffffff16565b600160003373ffffffffffffffffffffffffffffffffffffffff1673ffffffffffffffffffffffffffffffffffffffff16815260200190815260200160002060008573ffffffffffffffffffffffffffffffffffffffff1673ffffffffffffffffffffffffffffffffffffffff168152602001908152602001600020819055508273ffffffffffffffffffffffffffffffffffffffff163373ffffffffffffffffffffffffffffffffffffffff167f8c5be1e5ebec7d5bd14f71427d1e84f3dd0314c0f7b2291e5b200ac8c7c3b925600160003373ffffffffffffffffffffffffffffffffffffffff1673ffffffffffffffffffffffffffffffffffffffff16815260200190815260200160002060008773ffffffffffffffffffffffffffffffffffffffff1673ffffffffffffffffffffffffffffffffffffffff168152602001908152602001600020546040518082815260200191505060405180910390a36001905092915050565b60003073ffffffffffffffffffffffffffffffffffffffff168373ffffffffffffffffffffffffffffffffffffffff1614156114c857600080fd5b6114d33384846115be565b6001905092915050565b60006114f3826006611cb190919063ffffffff16565b9050919050565b6000600160008473ffffffffffffffffffffffffffffffffffffffff1673ffffffffffffffffffffffffffffffffffffffff16815260200190815260200160002060008373ffffffffffffffffffffffffffffffffffffffff1673ffffffffffffffffffffffffffffffffffffffff16815260200190815260200160002054905092915050565b611589611135565b61159257600080fd5b61159b81611d43565b50565b6000828211156115ad57600080fd5b600082840390508091505092915050565b600073ffffffffffffffffffffffffffffffffffffffff168273ffffffffffffffffffffffffffffffffffffffff1614156115f857600080fd5b611649816000808673ffffffffffffffffffffffffffffffffffffffff1673ffffffffffffffffffffffffffffffffffffffff1681526020019081526020016000205461159e90919063ffffffff16565b6000808573ffffffffffffffffffffffffffffffffffffffff1673ffffffffffffffffffffffffffffffffffffffff168152602001908152602001600020819055506116dc816000808573ffffffffffffffffffffffffffffffffffffffff1673ffffffffffffffffffffffffffffffffffffffff1681526020019081526020016000205461178890919063ffffffff16565b6000808473ffffffffffffffffffffffffffffffffffffffff1673ffffffffffffffffffffffffffffffffffffffff168152602001908152602001600020819055508173ffffffffffffffffffffffffffffffffffffffff168373ffffffffffffffffffffffffffffffffffffffff167fddf252ad1be2c89b69c2b068fc378daa952ba7f163c4a11628f55a4df523b3ef836040518082815260200191505060405180910390a3505050565b60008082840190508381101561179d57600080fd5b8091505092915050565b6007546117c4826117b66109fd565b61178890919063ffffffff16565b11156117cf57600080fd5b6117d98282611e3d565b5050565b600073ffffffffffffffffffffffffffffffffffffffff168273ffffffffffffffffffffffffffffffffffffffff16141561181757600080fd5b61182c8160025461159e90919063ffffffff16565b600281905550611883816000808573ffffffffffffffffffffffffffffffffffffffff1673ffffffffffffffffffffffffffffffffffffffff1681526020019081526020016000205461159e90919063ffffffff16565b6000808473ffffffffffffffffffffffffffffffffffffffff1673ffffffffffffffffffffffffffffffffffffffff16815260200190815260200160002081905550600073ffffffffffffffffffffffffffffffffffffffff168273ffffffffffffffffffffffffffffffffffffffff167fddf252ad1be2c89b69c2b068fc378daa952ba7f163c4a11628f55a4df523b3ef836040518082815260200191505060405180910390a35050565b8273ffffffffffffffffffffffffffffffffffffffff1663a9059cbb83836040518363ffffffff1660e01b8152600401808373ffffffffffffffffffffffffffffffffffffffff1673ffffffffffffffffffffffffffffffffffffffff16815260200182815260200192505050602060405180830381600087803b1580156119b657600080fd5b505af11580156119ca573d6000803e3d6000fd5b505050506040513d60208110156119e057600080fd5b81019080805190602001909291905050506119fa57600080fd5b505050565b611a8e81600160008573ffffffffffffffffffffffffffffffffffffffff1673ffffffffffffffffffffffffffffffffffffffff16815260200190815260200160002060003373ffffffffffffffffffffffffffffffffffffffff1673ffffffffffffffffffffffffffffffffffffffff1681526020019081526020016000205461159e90919063ffffffff16565b600160008473ffffffffffffffffffffffffffffffffffffffff1673ffffffffffffffffffffffffffffffffffffffff16815260200190815260200160002060003373ffffffffffffffffffffffffffffffffffffffff1673ffffffffffffffffffffffffffffffffffffffff16815260200190815260200160002081905550611b1882826117dd565b3373ffffffffffffffffffffffffffffffffffffffff168273ffffffffffffffffffffffffffffffffffffffff167f8c5be1e5ebec7d5bd14f71427d1e84f3dd0314c0f7b2291e5b200ac8c7c3b925600160008673ffffffffffffffffffffffffffffffffffffffff1673ffffffffffffffffffffffffffffffffffffffff16815260200190815260200160002060003373ffffffffffffffffffffffffffffffffffffffff1673ffffffffffffffffffffffffffffffffffffffff168152602001908152602001600020546040518082815260200191505060405180910390a35050565b611c11816006611f8f90919063ffffffff16565b8073ffffffffffffffffffffffffffffffffffffffff167f6ae172837ea30b801fbfcdd4108aa1d5bf8ff775444fd70256b44e6bf3dfc3f660405160405180910390a250565b611c6b81600661203b90919063ffffffff16565b8073ffffffffffffffffffffffffffffffffffffffff167fe94479a9f7e1952cc78f2d6baab678adc1b772d936c6583def489e524cb6669260405160405180910390a250565b60008073ffffffffffffffffffffffffffffffffffffffff168273ffffffffffffffffffffffffffffffffffffffff161415611cec57600080fd5b8260000160008373ffffffffffffffffffffffffffffffffffffffff1673ffffffffffffffffffffffffffffffffffffffff16815260200190815260200160002060009054906101000a900460ff16905092915050565b600073ffffffffffffffffffffffffffffffffffffffff168173ffffffffffffffffffffffffffffffffffffffff161415611d7d57600080fd5b8073ffffffffffffffffffffffffffffffffffffffff16600860009054906101000a900473ffffffffffffffffffffffffffffffffffffffff1673ffffffffffffffffffffffffffffffffffffffff167f8be0079c531659141344cd1fd0a4f28419497f9722a3daafe3b4186f6b6457e060405160405180910390a380600860006101000a81548173ffffffffffffffffffffffffffffffffffffffff021916908373ffffffffffffffffffffffffffffffffffffffff16021790555050565b600073ffffffffffffffffffffffffffffffffffffffff168273ffffffffffffffffffffffffffffffffffffffff161415611e7757600080fd5b611e8c8160025461178890919063ffffffff16565b600281905550611ee3816000808573ffffffffffffffffffffffffffffffffffffffff1673ffffffffffffffffffffffffffffffffffffffff1681526020019081526020016000205461178890919063ffffffff16565b6000808473ffffffffffffffffffffffffffffffffffffffff1673ffffffffffffffffffffffffffffffffffffffff168152602001908152602001600020819055508173ffffffffffffffffffffffffffffffffffffffff16600073ffffffffffffffffffffffffffffffffffffffff167fddf252ad1be2c89b69c2b068fc378daa952ba7f163c4a11628f55a4df523b3ef836040518082815260200191505060405180910390a35050565b600073ffffffffffffffffffffffffffffffffffffffff168173ffffffffffffffffffffffffffffffffffffffff161415611fc957600080fd5b611fd38282611cb1565b15611fdd57600080fd5b60018260000160008373ffffffffffffffffffffffffffffffffffffffff1673ffffffffffffffffffffffffffffffffffffffff16815260200190815260200160002060006101000a81548160ff0219169083151502179055505050565b600073ffffffffffffffffffffffffffffffffffffffff168173ffffffffffffffffffffffffffffffffffffffff16141561207557600080fd5b61207f8282611cb1565b61208857600080fd5b60008260000160008373ffffffffffffffffffffffffffffffffffffffff1673ffffffffffffffffffffffffffffffffffffffff16815260200190815260200160002060006101000a81548160ff021916908315150217905550505056fea265627a7a72305820ddace3fedf1b983dcb74550aa0b5b2fe529362e3ba1c079d1feb411c6fff465c64736f6c634300050a0032",
  "source": "pragma solidity ^0.5.0;\n\nimport \"./AsureToken.sol\";\nimport \"./AsureCrowdsale.sol\";\nimport \"openzeppelin-solidity/contracts/math/SafeMath.sol\";\nimport \"openzeppelin-solidity/contracts/drafts/TokenVesting.sol\";\n\ncontract AsureCrowdsaleDeployer is Ownable {\n  using SafeMath for uint256;\n\n  AsureToken public token;\n  AsureCrowdsale public presale;\n  AsureCrowdsale public mainsale;\n\n  uint8 private constant decimals = 18;\n  uint256 private constant decimalFactor = 10 ** uint256(decimals);\n  uint256 private constant AVAILABLE_TOTAL_SUPPLY = 100000000 * decimalFactor;\n  uint256 private constant AVAILABLE_PRESALE_SUPPLY = 10000000 * decimalFactor;       // 10% Released at Token Distribution (TD)\n  uint256 private constant AVAILABLE_MAINSALE_SUPPLY = 35000000 * decimalFactor;      // 35% Released at Token Distribution (TD)\n  uint256 private constant AVAILABLE_FOUNDATION_SUPPLY = 35000000 * decimalFactor;    // 35% Released at Token Distribution (TD)\n  uint256 private constant AVAILABLE_BOUNTY_SUPPLY = 5000000 * decimalFactor;         // 5% Released at TD\n  uint256 private constant AVAILABLE_FAMILYFRIENDS_SUPPLY = 5000000 * decimalFactor;  // 5% Released at TD\n  uint256 private constant AVAILABLE_TEAM_SUPPLY = 8000000 * decimalFactor;           // 8% Released at TD +2 years\n  uint256 private constant AVAILABLE_ADVISOR_SUPPLY = 2000000 * decimalFactor;        // 2% Released at TD +2 years\n  uint256 private constant TOKEN_VESTING_DURATION_SECONDS = 63072000;                 // 2 years as seconds\n\n  constructor(address owner) public {\n    transferOwnership(owner);\n    token = new AsureToken(owner);\n  }\n\n  function mint(\n    address payable foundationWallet,\n    address payable bountyWallet,\n    address payable familyFriendsWallet,\n    address[] memory teamAddr,\n    uint256[] memory teamAmounts,\n    address[] memory advisorAddr,\n    uint256[] memory advisorAmounts\n  ) onlyOwner public returns (bool) {\n    require(teamAddr.length == teamAmounts.length);\n    require(advisorAddr.length == advisorAmounts.length);\n\n    token.mint(foundationWallet, AVAILABLE_FOUNDATION_SUPPLY);\n    token.mint(bountyWallet, AVAILABLE_BOUNTY_SUPPLY);\n    token.mint(familyFriendsWallet, AVAILABLE_FAMILYFRIENDS_SUPPLY);\n    require(\n      token.totalSupply() == AVAILABLE_TOTAL_SUPPLY.sub(AVAILABLE_MAINSALE_SUPPLY).sub(AVAILABLE_PRESALE_SUPPLY).sub(AVAILABLE_ADVISOR_SUPPLY).sub(AVAILABLE_TEAM_SUPPLY),\n      \"AVAILABLE_FAMILYFRIENDS_SUPPLY\"\n    );\n\n\n    for (uint i = 0; i < teamAddr.length; i++) {\n      TokenVesting vesting = TokenVesting(teamAddr[i]);\n      require(vesting.duration() == TOKEN_VESTING_DURATION_SECONDS);\n      token.mint(teamAddr[i], teamAmounts[i].mul(decimalFactor));\n    }\n    require(\n      token.totalSupply() == AVAILABLE_TOTAL_SUPPLY.sub(AVAILABLE_MAINSALE_SUPPLY).sub(AVAILABLE_PRESALE_SUPPLY).sub(AVAILABLE_ADVISOR_SUPPLY),\n      \"AVAILABLE_TEAM_SUPPLY\"\n    );\n\n\n    for (uint i = 0; i < advisorAddr.length; i++) {\n      TokenVesting vesting = TokenVesting(advisorAddr[i]);\n      require(vesting.duration() == TOKEN_VESTING_DURATION_SECONDS);\n      token.mint(advisorAddr[i], advisorAmounts[i].mul(decimalFactor));\n    }\n    require(\n      token.totalSupply() == AVAILABLE_TOTAL_SUPPLY.sub(AVAILABLE_MAINSALE_SUPPLY).sub(AVAILABLE_PRESALE_SUPPLY),\n      \"AVAILABLE_ADVISOR_SUPPLY\"\n    );\n\n    return true;\n  }\n\n  function createPreSale(\n    uint256 bonusRate,\n    uint256 bonusTime,\n    uint256 defaultRate,\n    address owner,\n    address payable wallet,\n    uint256 openingTime,\n    uint256 closingTime\n  ) onlyOwner public returns (bool) {\n    require(address(presale) == address(0), \"ALREADY_INITIALIZED\");\n\n    presale = new AsureCrowdsale(\n      bonusRate,\n      bonusTime,\n      defaultRate,\n      owner,\n      wallet,\n      token,\n      openingTime,\n      closingTime\n    );\n    token.mint(address(presale), AVAILABLE_PRESALE_SUPPLY);\n\n    return true;\n  }\n\n  function createMainSale(\n    uint256 bonusRate,\n    uint256 bonusTime,\n    uint256 defaultRate,\n    address owner,\n    address payable wallet,\n    uint256 openingTime,\n    uint256 closingTime\n  ) onlyOwner public returns (bool) {\n    require(address(mainsale) == address(0), \"ALREADY_INITIALIZED\");\n\n    mainsale = new AsureCrowdsale(\n      bonusRate,\n      bonusTime,\n      defaultRate,\n      owner,\n      wallet,\n      token,\n      openingTime,\n      closingTime\n    );\n    token.mint(address(mainsale), AVAILABLE_MAINSALE_SUPPLY);\n\n    return true;\n  }\n}\n\n\n",
  "sourcePath": "/home/mischi/p/asurenetwork/crowdsale/packages/crowdsale/contracts/AsureCrowdsaleDeployer.sol",
  "compiler": {
    "name": "solc",
    "version": "0.5.10+commit.5a6ea5b1.Emscripten.clang"
  },
  "schemaVersion": "3.0.11",
  "updatedAt": "2019-07-24T13:50:35.253Z",
  "devdoc": {
    "methods": {
      "isOwner()": {
        "return": "true if `msg.sender` is the owner of the contract."
      },
      "owner()": {
        "return": "the address of the owner."
      },
      "renounceOwnership()": {
        "details": "Allows the current owner to relinquish control of the contract."
      },
      "transferOwnership(address)": {
        "details": "Allows the current owner to transfer control of the contract to a newOwner.",
        "params": {
          "newOwner": "The address to transfer ownership to."
        }
      }
    }
  },
  "userdoc": {
    "methods": {
      "renounceOwnership()": {
        "notice": "Renouncing to ownership will leave the contract without an owner. It will not be possible to call the functions with the `onlyOwner` modifier anymore."
      }
    }
  }
}