{
  "contractName": "AsureCrowdsale",
  "abi": [
    {
      "constant": false,
      "inputs": [
        {
          "name": "account",
          "type": "address"
        }
      ],
      "name": "addWhitelisted",
      "outputs": [],
      "payable": false,
      "stateMutability": "nonpayable",
      "type": "function"
    },
    {
      "constant": true,
      "inputs": [],
      "name": "hasClosed",
      "outputs": [
        {
          "name": "",
          "type": "bool"
        }
      ],
      "payable": false,
      "stateMutability": "view",
      "type": "function"
    },
    {
      "constant": true,
      "inputs": [],
      "name": "defaultRate",
      "outputs": [
        {
          "name": "",
          "type": "uint256"
        }
      ],
      "payable": false,
      "stateMutability": "view",
      "type": "function"
    },
    {
      "constant": false,
      "inputs": [
        {
          "name": "account",
          "type": "address"
        }
      ],
      "name": "removeWhitelisted",
      "outputs": [],
      "payable": false,
      "stateMutability": "nonpayable",
      "type": "function"
    },
    {
      "constant": true,
      "inputs": [],
      "name": "rate",
      "outputs": [
        {
          "name": "",
          "type": "uint256"
        }
      ],
      "payable": false,
      "stateMutability": "view",
      "type": "function"
    },
    {
      "constant": true,
      "inputs": [
        {
          "name": "account",
          "type": "address"
        }
      ],
      "name": "isWhitelisted",
      "outputs": [
        {
          "name": "",
          "type": "bool"
        }
      ],
      "payable": false,
      "stateMutability": "view",
      "type": "function"
    },
    {
      "constant": true,
      "inputs": [],
      "name": "weiRaised",
      "outputs": [
        {
          "name": "",
          "type": "uint256"
        }
      ],
      "payable": false,
      "stateMutability": "view",
      "type": "function"
    },
    {
      "constant": true,
      "inputs": [],
      "name": "isOpen",
      "outputs": [
        {
          "name": "",
          "type": "bool"
        }
      ],
      "payable": false,
      "stateMutability": "view",
      "type": "function"
    },
    {
      "constant": true,
      "inputs": [],
      "name": "closingTime",
      "outputs": [
        {
          "name": "",
          "type": "uint256"
        }
      ],
      "payable": false,
      "stateMutability": "view",
      "type": "function"
    },
    {
      "constant": false,
      "inputs": [],
      "name": "renounceWhitelistAdmin",
      "outputs": [],
      "payable": false,
      "stateMutability": "nonpayable",
      "type": "function"
    },
    {
      "constant": true,
      "inputs": [],
      "name": "wallet",
      "outputs": [
        {
          "name": "",
          "type": "address"
        }
      ],
      "payable": false,
      "stateMutability": "view",
      "type": "function"
    },
    {
      "constant": true,
      "inputs": [],
      "name": "bonusRate",
      "outputs": [
        {
          "name": "",
          "type": "uint256"
        }
      ],
      "payable": false,
      "stateMutability": "view",
      "type": "function"
    },
    {
      "constant": false,
      "inputs": [],
      "name": "renounceOwnership",
      "outputs": [],
      "payable": false,
      "stateMutability": "nonpayable",
      "type": "function"
    },
    {
      "constant": false,
      "inputs": [
        {
          "name": "account",
          "type": "address"
        }
      ],
      "name": "addWhitelistAdmin",
      "outputs": [],
      "payable": false,
      "stateMutability": "nonpayable",
      "type": "function"
    },
    {
      "constant": true,
      "inputs": [],
      "name": "owner",
      "outputs": [
        {
          "name": "",
          "type": "address"
        }
      ],
      "payable": false,
      "stateMutability": "view",
      "type": "function"
    },
    {
      "constant": true,
      "inputs": [],
      "name": "isOwner",
      "outputs": [
        {
          "name": "",
          "type": "bool"
        }
      ],
      "payable": false,
      "stateMutability": "view",
      "type": "function"
    },
    {
      "constant": true,
      "inputs": [],
      "name": "openingTime",
      "outputs": [
        {
          "name": "",
          "type": "uint256"
        }
      ],
      "payable": false,
      "stateMutability": "view",
      "type": "function"
    },
    {
      "constant": true,
      "inputs": [],
      "name": "bonusTime",
      "outputs": [
        {
          "name": "",
          "type": "uint256"
        }
      ],
      "payable": false,
      "stateMutability": "view",
      "type": "function"
    },
    {
      "constant": true,
      "inputs": [
        {
          "name": "account",
          "type": "address"
        }
      ],
      "name": "isWhitelistAdmin",
      "outputs": [
        {
          "name": "",
          "type": "bool"
        }
      ],
      "payable": false,
      "stateMutability": "view",
      "type": "function"
    },
    {
      "constant": false,
      "inputs": [
        {
          "name": "newBonusRate",
          "type": "uint256"
        },
        {
          "name": "newBonusTime",
          "type": "uint256"
        },
        {
          "name": "newDefaultRate",
          "type": "uint256"
        }
      ],
      "name": "updateRates",
      "outputs": [],
      "payable": false,
      "stateMutability": "nonpayable",
      "type": "function"
    },
    {
      "constant": false,
      "inputs": [],
      "name": "renounceWhitelisted",
      "outputs": [],
      "payable": false,
      "stateMutability": "nonpayable",
      "type": "function"
    },
    {
      "constant": false,
      "inputs": [
        {
          "name": "beneficiary",
          "type": "address"
        }
      ],
      "name": "buyTokens",
      "outputs": [],
      "payable": true,
      "stateMutability": "payable",
      "type": "function"
    },
    {
      "constant": false,
      "inputs": [
        {
          "name": "newOwner",
          "type": "address"
        }
      ],
      "name": "transferOwnership",
      "outputs": [],
      "payable": false,
      "stateMutability": "nonpayable",
      "type": "function"
    },
    {
      "constant": true,
      "inputs": [],
      "name": "getCurrentRate",
      "outputs": [
        {
          "name": "",
          "type": "uint256"
        }
      ],
      "payable": false,
      "stateMutability": "view",
      "type": "function"
    },
    {
      "constant": true,
      "inputs": [],
      "name": "token",
      "outputs": [
        {
          "name": "",
          "type": "address"
        }
      ],
      "payable": false,
      "stateMutability": "view",
      "type": "function"
    },
    {
      "inputs": [
        {
          "name": "bonusRate",
          "type": "uint256"
        },
        {
          "name": "bonusTime",
          "type": "uint256"
        },
        {
          "name": "defaultRate",
          "type": "uint256"
        },
        {
          "name": "owner",
          "type": "address"
        },
        {
          "name": "wallet",
          "type": "address"
        },
        {
          "name": "token",
          "type": "address"
        },
        {
          "name": "openingTime",
          "type": "uint256"
        },
        {
          "name": "closingTime",
          "type": "uint256"
        }
      ],
      "payable": false,
      "stateMutability": "nonpayable",
      "type": "constructor"
    },
    {
      "payable": true,
      "stateMutability": "payable",
      "type": "fallback"
    },
    {
      "anonymous": false,
      "inputs": [
        {
          "indexed": false,
          "name": "bonusRate",
          "type": "uint256"
        },
        {
          "indexed": false,
          "name": "bonusTime",
          "type": "uint256"
        },
        {
          "indexed": false,
          "name": "defaultRate",
          "type": "uint256"
        }
      ],
      "name": "RatesUpdated",
      "type": "event"
    },
    {
      "anonymous": false,
      "inputs": [
        {
          "indexed": true,
          "name": "previousOwner",
          "type": "address"
        },
        {
          "indexed": true,
          "name": "newOwner",
          "type": "address"
        }
      ],
      "name": "OwnershipTransferred",
      "type": "event"
    },
    {
      "anonymous": false,
      "inputs": [
        {
          "indexed": true,
          "name": "purchaser",
          "type": "address"
        },
        {
          "indexed": true,
          "name": "beneficiary",
          "type": "address"
        },
        {
          "indexed": false,
          "name": "value",
          "type": "uint256"
        },
        {
          "indexed": false,
          "name": "amount",
          "type": "uint256"
        }
      ],
      "name": "TokensPurchased",
      "type": "event"
    },
    {
      "anonymous": false,
      "inputs": [
        {
          "indexed": true,
          "name": "account",
          "type": "address"
        }
      ],
      "name": "WhitelistedAdded",
      "type": "event"
    },
    {
      "anonymous": false,
      "inputs": [
        {
          "indexed": true,
          "name": "account",
          "type": "address"
        }
      ],
      "name": "WhitelistedRemoved",
      "type": "event"
    },
    {
      "anonymous": false,
      "inputs": [
        {
          "indexed": true,
          "name": "account",
          "type": "address"
        }
      ],
      "name": "WhitelistAdminAdded",
      "type": "event"
    },
    {
      "anonymous": false,
      "inputs": [
        {
          "indexed": true,
          "name": "account",
          "type": "address"
        }
      ],
      "name": "WhitelistAdminRemoved",
      "type": "event"
    },
    {
      "constant": false,
      "inputs": [
        {
          "name": "accounts",
          "type": "address[]"
        }
      ],
      "name": "addWhitelistedAccounts",
      "outputs": [],
      "payable": false,
      "stateMutability": "nonpayable",
      "type": "function"
    },
    {
      "constant": false,
      "inputs": [],
      "name": "burn",
      "outputs": [],
      "payable": false,
      "stateMutability": "nonpayable",
      "type": "function"
    },
    {
      "constant": false,
      "inputs": [
        {
          "name": "to",
          "type": "address"
        },
        {
          "name": "value",
          "type": "uint256"
        }
      ],
      "name": "transferToIEO",
      "outputs": [],
      "payable": false,
      "stateMutability": "nonpayable",
      "type": "function"
    }
  ],
  "bytecode": "0x60806040523480156200001157600080fd5b5060405162001ec538038062001ec583398181016040526101008110156200003857600080fd5b81019080805190602001909291908051906020019092919080519060200190929190805190602001909291908051906020019092919080519060200190929190805190602001909291908051906020019092919050505087878787858560018a8a620000aa336200030960201b60201c565b600160028190555060008311620000c057600080fd5b600073ffffffffffffffffffffffffffffffffffffffff168273ffffffffffffffffffffffffffffffffffffffff161415620000fb57600080fd5b600073ffffffffffffffffffffffffffffffffffffffff168173ffffffffffffffffffffffffffffffffffffffff1614156200013657600080fd5b8260058190555081600460006101000a81548173ffffffffffffffffffffffffffffffffffffffff021916908373ffffffffffffffffffffffffffffffffffffffff16021790555080600360006101000a81548173ffffffffffffffffffffffffffffffffffffffff021916908373ffffffffffffffffffffffffffffffffffffffff16021790555050505042821015620001d057600080fd5b818111620001dd57600080fd5b8160078190555080600881905550505033600960006101000a81548173ffffffffffffffffffffffffffffffffffffffff021916908373ffffffffffffffffffffffffffffffffffffffff160217905550600960009054906101000a900473ffffffffffffffffffffffffffffffffffffffff1673ffffffffffffffffffffffffffffffffffffffff16600073ffffffffffffffffffffffffffffffffffffffff167f8be0079c531659141344cd1fd0a4f28419497f9722a3daafe3b4186f6b6457e060405160405180910390a3620002be8484846200036a60201b60201c565b620002cf816200047460201b60201c565b50505050620002e485620004a260201b60201c565b620002fb57620002fa85620004c660201b60201c565b5b5050505050505050620007cd565b62000324816000620004f560201b620014f11790919060201c565b8073ffffffffffffffffffffffffffffffffffffffff167f22380c05984257a1cb900161c713dd71d39e74820f1aea43bd3f1bdd2096129960405160405180910390a250565b6200037a620005ab60201b60201c565b6200038457600080fd5b620003946200060360201b60201c565b158015620003af5750620003ad6200061f60201b60201c565b155b620003b957600080fd5b60008311620003c757600080fd5b620003d76200062b60201b60201c565b8210158015620003f55750620003f26200063560201b60201c565b82105b620003ff57600080fd5b600081116200040d57600080fd5b82600a8190555081600b8190555080600c819055507f023010bc68e7f4c0be9887f513c570c7a0f5f511b9716abccd42bf3b8943532b600a54600b54600c5460405180848152602001838152602001828152602001935050505060405180910390a1505050565b62000484620005ab60201b60201c565b6200048e57600080fd5b6200049f816200063f60201b60201c565b50565b6000620004bf8260006200073a60201b620011361790919060201c565b9050919050565b620004d733620004a260201b60201c565b620004e157600080fd5b620004f2816200030960201b60201c565b50565b600073ffffffffffffffffffffffffffffffffffffffff168173ffffffffffffffffffffffffffffffffffffffff1614156200053057600080fd5b6200054282826200073a60201b60201c565b156200054d57600080fd5b60018260000160008373ffffffffffffffffffffffffffffffffffffffff1673ffffffffffffffffffffffffffffffffffffffff16815260200190815260200160002060006101000a81548160ff0219169083151502179055505050565b6000600960009054906101000a900473ffffffffffffffffffffffffffffffffffffffff1673ffffffffffffffffffffffffffffffffffffffff163373ffffffffffffffffffffffffffffffffffffffff1614905090565b600060075442101580156200061a57506008544211155b905090565b60006008544211905090565b6000600754905090565b6000600854905090565b600073ffffffffffffffffffffffffffffffffffffffff168173ffffffffffffffffffffffffffffffffffffffff1614156200067a57600080fd5b8073ffffffffffffffffffffffffffffffffffffffff16600960009054906101000a900473ffffffffffffffffffffffffffffffffffffffff1673ffffffffffffffffffffffffffffffffffffffff167f8be0079c531659141344cd1fd0a4f28419497f9722a3daafe3b4186f6b6457e060405160405180910390a380600960006101000a81548173ffffffffffffffffffffffffffffffffffffffff021916908373ffffffffffffffffffffffffffffffffffffffff16021790555050565b60008073ffffffffffffffffffffffffffffffffffffffff168273ffffffffffffffffffffffffffffffffffffffff1614156200077657600080fd5b8260000160008373ffffffffffffffffffffffffffffffffffffffff1673ffffffffffffffffffffffffffffffffffffffff16815260200190815260200160002060009054906101000a900460ff16905092915050565b6116e880620007dd6000396000f3fe6080604052600436106101b75760003560e01c8063715018a6116100ec578063bb5f747b1161008a578063ec8ac4d811610064578063ec8ac4d8146107ba578063f2fde38b146107fe578063f7fb07b01461084f578063fc0c546a1461087a576101b7565b8063bb5f747b146106eb578063c0f3622c14610754578063d6cd9473146107a3576101b7565b80638f32d59b116100c65780638f32d59b1461060b578063b7a8807c1461063a578063b82a0ce814610665578063b8d9141614610690576101b7565b8063715018a61461054c5780637362d9c8146105635780638da5cb5b146105b4576101b7565b80634042b66f116101595780634b6753bc116101335780634b6753bc146104885780634c5a628c146104b3578063521eb273146104ca5780635af123f414610521576101b7565b80634042b66f1461041757806344df8e701461044257806347535d7b14610459576101b7565b8063291d954911610195578063291d95491461026d5780632a4bc321146102be5780632c4e722e146103835780633af32abf146103ae576101b7565b806310154bad146101c25780631515bc2b146102135780632616501d14610242575b6101c0336108d1565b005b3480156101ce57600080fd5b50610211600480360360208110156101e557600080fd5b81019080803573ffffffffffffffffffffffffffffffffffffffff1690602001909291905050506109c7565b005b34801561021f57600080fd5b506102286109e5565b604051808215151515815260200191505060405180910390f35b34801561024e57600080fd5b506102576109f1565b6040518082815260200191505060405180910390f35b34801561027957600080fd5b506102bc6004803603602081101561029057600080fd5b81019080803573ffffffffffffffffffffffffffffffffffffffff1690602001909291905050506109fb565b005b3480156102ca57600080fd5b50610381600480360360208110156102e157600080fd5b81019080803590602001906401000000008111156102fe57600080fd5b82018360208201111561031057600080fd5b8035906020019184602083028401116401000000008311171561033257600080fd5b919080806020026020016040519081016040528093929190818152602001838360200280828437600081840152601f19601f820116905080830192505050505050509192919290505050610a19565b005b34801561038f57600080fd5b50610398610a67565b6040518082815260200191505060405180910390f35b3480156103ba57600080fd5b506103fd600480360360208110156103d157600080fd5b81019080803573ffffffffffffffffffffffffffffffffffffffff169060200190929190505050610a6e565b604051808215151515815260200191505060405180910390f35b34801561042357600080fd5b5061042c610a8b565b6040518082815260200191505060405180910390f35b34801561044e57600080fd5b50610457610a95565b005b34801561046557600080fd5b5061046e610bd7565b604051808215151515815260200191505060405180910390f35b34801561049457600080fd5b5061049d610bf2565b6040518082815260200191505060405180910390f35b3480156104bf57600080fd5b506104c8610bfc565b005b3480156104d657600080fd5b506104df610c07565b604051808273ffffffffffffffffffffffffffffffffffffffff1673ffffffffffffffffffffffffffffffffffffffff16815260200191505060405180910390f35b34801561052d57600080fd5b50610536610c31565b6040518082815260200191505060405180910390f35b34801561055857600080fd5b50610561610c3b565b005b34801561056f57600080fd5b506105b26004803603602081101561058657600080fd5b81019080803573ffffffffffffffffffffffffffffffffffffffff169060200190929190505050610d0d565b005b3480156105c057600080fd5b506105c9610d2b565b604051808273ffffffffffffffffffffffffffffffffffffffff1673ffffffffffffffffffffffffffffffffffffffff16815260200191505060405180910390f35b34801561061757600080fd5b50610620610d55565b604051808215151515815260200191505060405180910390f35b34801561064657600080fd5b5061064f610dad565b6040518082815260200191505060405180910390f35b34801561067157600080fd5b5061067a610db7565b6040518082815260200191505060405180910390f35b34801561069c57600080fd5b506106e9600480360360408110156106b357600080fd5b81019080803573ffffffffffffffffffffffffffffffffffffffff16906020019092919080359060200190929190505050610dc1565b005b3480156106f757600080fd5b5061073a6004803603602081101561070e57600080fd5b81019080803573ffffffffffffffffffffffffffffffffffffffff169060200190929190505050610e1a565b604051808215151515815260200191505060405180910390f35b34801561076057600080fd5b506107a16004803603606081101561077757600080fd5b81019080803590602001909291908035906020019092919080359060200190929190505050610e37565b005b3480156107af57600080fd5b506107b8610f12565b005b6107fc600480360360208110156107d057600080fd5b81019080803573ffffffffffffffffffffffffffffffffffffffff1690602001909291905050506108d1565b005b34801561080a57600080fd5b5061084d6004803603602081101561082157600080fd5b81019080803573ffffffffffffffffffffffffffffffffffffffff169060200190929190505050610f1d565b005b34801561085b57600080fd5b50610864610f3a565b6040518082815260200191505060405180910390f35b34801561088657600080fd5b5061088f610f6d565b604051808273ffffffffffffffffffffffffffffffffffffffff1673ffffffffffffffffffffffffffffffffffffffff16815260200191505060405180910390f35b60016002600082825401925050819055506000600254905060003490506108f88382610f97565b600061090382610fba565b905061091a82600654610fe290919063ffffffff16565b60068190555061092a8482611001565b8373ffffffffffffffffffffffffffffffffffffffff163373ffffffffffffffffffffffffffffffffffffffff167f6faf93231a456e552dbc9961f58d9713ee4f2e69d15f1975b050ef0911053a7b8484604051808381526020018281526020019250505060405180910390a36109a1848361100f565b6109a9611013565b6109b3848361107e565b505060025481146109c357600080fd5b5050565b6109d033610e1a565b6109d957600080fd5b6109e281611082565b50565b60006008544211905090565b6000600c54905090565b610a0433610e1a565b610a0d57600080fd5b610a16816110dc565b50565b610a2233610e1a565b610a2b57600080fd5b60008090505b8151811015610a6357610a56828281518110610a4957fe5b6020026020010151611082565b8080600101915050610a31565b5050565b6000806000fd5b6000610a8482600161113690919063ffffffff16565b9050919050565b6000600654905090565b610a9d6109e5565b610aa657600080fd5b6000610ab0610f6d565b90508073ffffffffffffffffffffffffffffffffffffffff166342966c688273ffffffffffffffffffffffffffffffffffffffff166370a08231306040518263ffffffff1660e01b8152600401808273ffffffffffffffffffffffffffffffffffffffff1673ffffffffffffffffffffffffffffffffffffffff16815260200191505060206040518083038186803b158015610b4b57600080fd5b505afa158015610b5f573d6000803e3d6000fd5b505050506040513d6020811015610b7557600080fd5b81019080805190602001909291905050506040518263ffffffff1660e01b815260040180828152602001915050600060405180830381600087803b158015610bbc57600080fd5b505af1158015610bd0573d6000803e3d6000fd5b5050505050565b60006007544210158015610bed57506008544211155b905090565b6000600854905090565b610c05336111c8565b565b6000600460009054906101000a900473ffffffffffffffffffffffffffffffffffffffff16905090565b6000600a54905090565b610c43610d55565b610c4c57600080fd5b600073ffffffffffffffffffffffffffffffffffffffff16600960009054906101000a900473ffffffffffffffffffffffffffffffffffffffff1673ffffffffffffffffffffffffffffffffffffffff167f8be0079c531659141344cd1fd0a4f28419497f9722a3daafe3b4186f6b6457e060405160405180910390a36000600960006101000a81548173ffffffffffffffffffffffffffffffffffffffff021916908373ffffffffffffffffffffffffffffffffffffffff160217905550565b610d1633610e1a565b610d1f57600080fd5b610d2881611222565b50565b6000600960009054906101000a900473ffffffffffffffffffffffffffffffffffffffff16905090565b6000600960009054906101000a900473ffffffffffffffffffffffffffffffffffffffff1673ffffffffffffffffffffffffffffffffffffffff163373ffffffffffffffffffffffffffffffffffffffff1614905090565b6000600754905090565b6000600b54905090565b610dc9610d55565b610dd257600080fd5b610dda6109e5565b15610de457600080fd5b610e168282610df1610f6d565b73ffffffffffffffffffffffffffffffffffffffff1661127c9092919063ffffffff16565b5050565b6000610e3082600061113690919063ffffffff16565b9050919050565b610e3f610d55565b610e4857600080fd5b610e50610bd7565b158015610e625750610e606109e5565b155b610e6b57600080fd5b60008311610e7857600080fd5b610e80610dad565b8210158015610e955750610e92610bf2565b82105b610e9e57600080fd5b60008111610eab57600080fd5b82600a8190555081600b8190555080600c819055507f023010bc68e7f4c0be9887f513c570c7a0f5f511b9716abccd42bf3b8943532b600a54600b54600c5460405180848152602001838152602001828152602001935050505060405180910390a1505050565b610f1b336110dc565b565b610f25610d55565b610f2e57600080fd5b610f378161134c565b50565b6000610f44610bd7565b610f515760009050610f6a565b600b544211610f6457600a549050610f6a565b600c5490505b90565b6000600360009054906101000a900473ffffffffffffffffffffffffffffffffffffffff16905090565b6706f05b59d3b20000811015610fac57600080fd5b610fb68282611446565b5050565b600080610fc5610f3a565b9050610fda838261146690919063ffffffff16565b915050919050565b600080828401905083811015610ff757600080fd5b8091505092915050565b61100b82826114a0565b5050565b5050565b600460009054906101000a900473ffffffffffffffffffffffffffffffffffffffff1673ffffffffffffffffffffffffffffffffffffffff166108fc349081150290604051600060405180830381858888f1935050505015801561107b573d6000803e3d6000fd5b50565b5050565b6110968160016114f190919063ffffffff16565b8073ffffffffffffffffffffffffffffffffffffffff167fee1504a83b6d4a361f4c1dc78ab59bfa30d6a3b6612c403e86bb01ef2984295f60405160405180910390a250565b6110f081600161159d90919063ffffffff16565b8073ffffffffffffffffffffffffffffffffffffffff167f270d9b30cf5b0793bbfd54c9d5b94aeb49462b8148399000265144a8722da6b660405160405180910390a250565b60008073ffffffffffffffffffffffffffffffffffffffff168273ffffffffffffffffffffffffffffffffffffffff16141561117157600080fd5b8260000160008373ffffffffffffffffffffffffffffffffffffffff1673ffffffffffffffffffffffffffffffffffffffff16815260200190815260200160002060009054906101000a900460ff16905092915050565b6111dc81600061159d90919063ffffffff16565b8073ffffffffffffffffffffffffffffffffffffffff167f0a8eb35e5ca14b3d6f28e4abf2f128dbab231a58b56e89beb5d636115001e16560405160405180910390a250565b6112368160006114f190919063ffffffff16565b8073ffffffffffffffffffffffffffffffffffffffff167f22380c05984257a1cb900161c713dd71d39e74820f1aea43bd3f1bdd2096129960405160405180910390a250565b8273ffffffffffffffffffffffffffffffffffffffff1663a9059cbb83836040518363ffffffff1660e01b8152600401808373ffffffffffffffffffffffffffffffffffffffff1673ffffffffffffffffffffffffffffffffffffffff16815260200182815260200192505050602060405180830381600087803b15801561130357600080fd5b505af1158015611317573d6000803e3d6000fd5b505050506040513d602081101561132d57600080fd5b810190808051906020019092919050505061134757600080fd5b505050565b600073ffffffffffffffffffffffffffffffffffffffff168173ffffffffffffffffffffffffffffffffffffffff16141561138657600080fd5b8073ffffffffffffffffffffffffffffffffffffffff16600960009054906101000a900473ffffffffffffffffffffffffffffffffffffffff1673ffffffffffffffffffffffffffffffffffffffff167f8be0079c531659141344cd1fd0a4f28419497f9722a3daafe3b4186f6b6457e060405160405180910390a380600960006101000a81548173ffffffffffffffffffffffffffffffffffffffff021916908373ffffffffffffffffffffffffffffffffffffffff16021790555050565b61144f82610a6e565b61145857600080fd5b6114628282611648565b5050565b600080831415611479576000905061149a565b600082840290508284828161148a57fe5b041461149557600080fd5b809150505b92915050565b6114ed8282600360009054906101000a900473ffffffffffffffffffffffffffffffffffffffff1673ffffffffffffffffffffffffffffffffffffffff1661127c9092919063ffffffff16565b5050565b600073ffffffffffffffffffffffffffffffffffffffff168173ffffffffffffffffffffffffffffffffffffffff16141561152b57600080fd5b6115358282611136565b1561153f57600080fd5b60018260000160008373ffffffffffffffffffffffffffffffffffffffff1673ffffffffffffffffffffffffffffffffffffffff16815260200190815260200160002060006101000a81548160ff0219169083151502179055505050565b600073ffffffffffffffffffffffffffffffffffffffff168173ffffffffffffffffffffffffffffffffffffffff1614156115d757600080fd5b6115e18282611136565b6115ea57600080fd5b60008260000160008373ffffffffffffffffffffffffffffffffffffffff1673ffffffffffffffffffffffffffffffffffffffff16815260200190815260200160002060006101000a81548160ff0219169083151502179055505050565b611650610bd7565b61165957600080fd5b6116638282611667565b5050565b600073ffffffffffffffffffffffffffffffffffffffff168273ffffffffffffffffffffffffffffffffffffffff1614156116a157600080fd5b60008114156116af57600080fd5b505056fea265627a7a72305820e145afcd98bdc57d77227fd4188facc5bb6fe87280b4fb59a566178262e85fbf64736f6c634300050a0032",
  "source": "pragma solidity ^0.5.0;\n\nimport \"openzeppelin-solidity/contracts/token/ERC20/ERC20.sol\";\nimport \"openzeppelin-solidity/contracts/token/ERC20/IERC20.sol\";\nimport \"openzeppelin-solidity/contracts/token/ERC20/ERC20Burnable.sol\";\nimport \"openzeppelin-solidity/contracts/token/ERC20/SafeERC20.sol\";\nimport \"openzeppelin-solidity/contracts/crowdsale/validation/TimedCrowdsale.sol\";\nimport \"openzeppelin-solidity/contracts/crowdsale/validation/WhitelistCrowdsale.sol\";\nimport \"openzeppelin-solidity/contracts/crowdsale/Crowdsale.sol\";\nimport \"./AsureBonusesCrowdsale.sol\";\n\ncontract AsureCrowdsale is Crowdsale, TimedCrowdsale, WhitelistCrowdsale, AsureBonusesCrowdsale {\n  using SafeERC20 for ERC20;\n\n  uint256 private constant PURCHASE_MINIMUM_AMOUNT_WEI = 5 * 10 ** 17;  // 0.5 ETH\n\n  constructor(\n    uint256 bonusRate,\n    uint256 bonusTime,\n    uint256 defaultRate,\n    address owner,\n    address payable wallet,\n    IERC20 token,\n    uint256 openingTime,\n    uint256 closingTime\n  )\n  public\n  Crowdsale(1, wallet, token)\n  TimedCrowdsale(openingTime, closingTime)\n  AsureBonusesCrowdsale(bonusRate, bonusTime, defaultRate, owner)\n  {\n    if (!isWhitelistAdmin(owner)) {\n      addWhitelistAdmin(owner);\n    }\n  }\n\n  function addWhitelistedAccounts(address[] memory accounts) public onlyWhitelistAdmin {\n    for (uint i = 0; i < accounts.length; i++) {\n      _addWhitelisted(accounts[i]);\n    }\n  }\n\n  function burn() public {\n    require(hasClosed());\n    ERC20Burnable burnableToken = ERC20Burnable(address(token()));\n    burnableToken.burn(burnableToken.balanceOf(address(this)));\n  }\n\n  /**\n    * @dev Transfer tokens originally intended to be sold as part of this crowdsale to an IEO.\n    * @param to Token beneficiary\n    * @param value Amount of wei to transfer\n    */\n  function transferToIEO(address to, uint256 value) onlyOwner public {\n    require(!hasClosed());\n    token().safeTransfer(to, value);\n  }\n\n  /**\n    * @dev Extend parent behavior requiring a minimum contribution of 0.5 ETH.\n    * @param _beneficiary Token beneficiary\n    * @param _weiAmount Amount of wei contributed\n    */\n  function _preValidatePurchase(address _beneficiary, uint256 _weiAmount) internal view {\n    require(_weiAmount >= PURCHASE_MINIMUM_AMOUNT_WEI);\n    super._preValidatePurchase(_beneficiary, _weiAmount);\n  }\n}\n",
  "sourcePath": "/home/mischi/p/asurenetwork/crowdsale/packages/crowdsale/contracts/AsureCrowdsale.sol",
  "compiler": {
    "name": "solc",
    "version": "0.5.10+commit.5a6ea5b1.Emscripten.clang"
  },
  "schemaVersion": "3.0.11",
  "updatedAt": "2019-07-24T14:19:10.897Z",
  "devdoc": {
    "methods": {
      "bonusRate()": {
        "return": "the number of token units a buyer gets per wei before the bonus time."
      },
      "bonusTime()": {
        "return": "the crowdsale bonus time in unix epoch seconds."
      },
      "buyTokens(address)": {
        "details": "low level token purchase ***DO NOT OVERRIDE*** This function has a non-reentrancy guard, so it shouldn't be called by another `nonReentrant` function.",
        "params": {
          "beneficiary": "Recipient of the token purchase"
        }
      },
      "closingTime()": {
        "return": "the crowdsale closing time."
      },
      "defaultRate()": {
        "return": "the number of token units a buyer gets per wei after the bonus time."
      },
      "getCurrentRate()": {
        "details": "Returns the rate of tokens per wei at the present time. Note that, rate can be changed by the owner until the crowdsale is open.",
        "return": "The number of tokens a buyer gets per wei at a given time"
      },
      "hasClosed()": {
        "details": "Checks whether the period in which the crowdsale is open has already elapsed.",
        "return": "Whether crowdsale period has elapsed"
      },
      "isOpen()": {
        "return": "true if the crowdsale is open, false otherwise."
      },
      "isOwner()": {
        "return": "true if `msg.sender` is the owner of the contract."
      },
      "openingTime()": {
        "return": "the crowdsale opening time."
      },
      "owner()": {
        "return": "the address of the owner."
      },
      "renounceOwnership()": {
        "details": "Allows the current owner to relinquish control of the contract."
      },
      "token()": {
        "return": "the token being sold."
      },
      "transferOwnership(address)": {
        "details": "Allows the current owner to transfer control of the contract to a newOwner.",
        "params": {
          "newOwner": "The address to transfer ownership to."
        }
      },
      "transferToIEO(address,uint256)": {
        "details": "Transfer tokens originally intended to be sold as part of this crowdsale to an IEO.",
        "params": {
          "to": "Token beneficiary",
          "value": "Amount of wei to transfer"
        }
      },
      "updateRates(uint256,uint256,uint256)": {
        "details": "Owner can update bonus rate, bonus time, and default rate before crowdsale opened.",
        "params": {
          "newBonusRate": "Number of token units a buyer gets per wei before bonus time",
          "newBonusTime": "The crowdsale bonus time in unix epoch seconds",
          "newDefaultRate": "Number of token units a buyer gets per wei after the bonus time"
        }
      },
      "wallet()": {
        "return": "the address where funds are collected."
      },
      "weiRaised()": {
        "return": "the amount of wei raised."
      }
    }
  },
  "userdoc": {
    "methods": {
      "rate()": {
        "notice": "The base rate function is overridden to revert, since this crowdsale doesn't use it, and all calls to it are a mistake."
      },
      "renounceOwnership()": {
        "notice": "Renouncing to ownership will leave the contract without an owner. It will not be possible to call the functions with the `onlyOwner` modifier anymore."
      }
    }
  }
}