{
  "contractName": "AsureCrowdsale",
  "abi": [
    {
      "constant": false,
      "inputs": [
        {
          "name": "account",
          "type": "address"
        }
      ],
      "name": "addWhitelisted",
      "outputs": [],
      "payable": false,
      "stateMutability": "nonpayable",
      "type": "function"
    },
    {
      "constant": true,
      "inputs": [],
      "name": "hasClosed",
      "outputs": [
        {
          "name": "",
          "type": "bool"
        }
      ],
      "payable": false,
      "stateMutability": "view",
      "type": "function"
    },
    {
      "constant": false,
      "inputs": [
        {
          "name": "account",
          "type": "address"
        }
      ],
      "name": "removeWhitelisted",
      "outputs": [],
      "payable": false,
      "stateMutability": "nonpayable",
      "type": "function"
    },
    {
      "constant": false,
      "inputs": [
        {
          "name": "bonusTimeslot",
          "type": "uint256"
        },
        {
          "name": "bonusRate",
          "type": "uint256"
        }
      ],
      "name": "updateBonusTimeslotRate",
      "outputs": [],
      "payable": false,
      "stateMutability": "nonpayable",
      "type": "function"
    },
    {
      "constant": true,
      "inputs": [],
      "name": "rate",
      "outputs": [
        {
          "name": "",
          "type": "uint256"
        }
      ],
      "payable": false,
      "stateMutability": "view",
      "type": "function"
    },
    {
      "constant": true,
      "inputs": [
        {
          "name": "account",
          "type": "address"
        }
      ],
      "name": "isWhitelisted",
      "outputs": [
        {
          "name": "",
          "type": "bool"
        }
      ],
      "payable": false,
      "stateMutability": "view",
      "type": "function"
    },
    {
      "constant": true,
      "inputs": [],
      "name": "weiRaised",
      "outputs": [
        {
          "name": "",
          "type": "uint256"
        }
      ],
      "payable": false,
      "stateMutability": "view",
      "type": "function"
    },
    {
      "constant": true,
      "inputs": [],
      "name": "isOpen",
      "outputs": [
        {
          "name": "",
          "type": "bool"
        }
      ],
      "payable": false,
      "stateMutability": "view",
      "type": "function"
    },
    {
      "constant": true,
      "inputs": [],
      "name": "closingTime",
      "outputs": [
        {
          "name": "",
          "type": "uint256"
        }
      ],
      "payable": false,
      "stateMutability": "view",
      "type": "function"
    },
    {
      "constant": false,
      "inputs": [],
      "name": "renounceWhitelistAdmin",
      "outputs": [],
      "payable": false,
      "stateMutability": "nonpayable",
      "type": "function"
    },
    {
      "constant": true,
      "inputs": [],
      "name": "wallet",
      "outputs": [
        {
          "name": "",
          "type": "address"
        }
      ],
      "payable": false,
      "stateMutability": "view",
      "type": "function"
    },
    {
      "constant": false,
      "inputs": [],
      "name": "renounceOwnership",
      "outputs": [],
      "payable": false,
      "stateMutability": "nonpayable",
      "type": "function"
    },
    {
      "constant": false,
      "inputs": [
        {
          "name": "account",
          "type": "address"
        }
      ],
      "name": "addWhitelistAdmin",
      "outputs": [],
      "payable": false,
      "stateMutability": "nonpayable",
      "type": "function"
    },
    {
      "constant": true,
      "inputs": [],
      "name": "owner",
      "outputs": [
        {
          "name": "",
          "type": "address"
        }
      ],
      "payable": false,
      "stateMutability": "view",
      "type": "function"
    },
    {
      "constant": true,
      "inputs": [],
      "name": "isOwner",
      "outputs": [
        {
          "name": "",
          "type": "bool"
        }
      ],
      "payable": false,
      "stateMutability": "view",
      "type": "function"
    },
    {
      "constant": true,
      "inputs": [],
      "name": "initialRate",
      "outputs": [
        {
          "name": "",
          "type": "uint256"
        }
      ],
      "payable": false,
      "stateMutability": "view",
      "type": "function"
    },
    {
      "constant": true,
      "inputs": [],
      "name": "nextBonusTimeslot",
      "outputs": [
        {
          "name": "",
          "type": "uint256"
        }
      ],
      "payable": false,
      "stateMutability": "view",
      "type": "function"
    },
    {
      "constant": true,
      "inputs": [],
      "name": "openingTime",
      "outputs": [
        {
          "name": "",
          "type": "uint256"
        }
      ],
      "payable": false,
      "stateMutability": "view",
      "type": "function"
    },
    {
      "constant": true,
      "inputs": [
        {
          "name": "account",
          "type": "address"
        }
      ],
      "name": "isWhitelistAdmin",
      "outputs": [
        {
          "name": "",
          "type": "bool"
        }
      ],
      "payable": false,
      "stateMutability": "view",
      "type": "function"
    },
    {
      "constant": true,
      "inputs": [],
      "name": "nextBonusRate",
      "outputs": [
        {
          "name": "",
          "type": "uint256"
        }
      ],
      "payable": false,
      "stateMutability": "view",
      "type": "function"
    },
    {
      "constant": false,
      "inputs": [
        {
          "name": "newInitialRate",
          "type": "uint256"
        }
      ],
      "name": "updateInitialRate",
      "outputs": [],
      "payable": false,
      "stateMutability": "nonpayable",
      "type": "function"
    },
    {
      "constant": false,
      "inputs": [],
      "name": "renounceWhitelisted",
      "outputs": [],
      "payable": false,
      "stateMutability": "nonpayable",
      "type": "function"
    },
    {
      "constant": false,
      "inputs": [
        {
          "name": "beneficiary",
          "type": "address"
        }
      ],
      "name": "buyTokens",
      "outputs": [],
      "payable": true,
      "stateMutability": "payable",
      "type": "function"
    },
    {
      "constant": false,
      "inputs": [
        {
          "name": "newOwner",
          "type": "address"
        }
      ],
      "name": "transferOwnership",
      "outputs": [],
      "payable": false,
      "stateMutability": "nonpayable",
      "type": "function"
    },
    {
      "constant": true,
      "inputs": [],
      "name": "getCurrentRate",
      "outputs": [
        {
          "name": "",
          "type": "uint256"
        }
      ],
      "payable": false,
      "stateMutability": "view",
      "type": "function"
    },
    {
      "constant": true,
      "inputs": [],
      "name": "token",
      "outputs": [
        {
          "name": "",
          "type": "address"
        }
      ],
      "payable": false,
      "stateMutability": "view",
      "type": "function"
    },
    {
      "inputs": [
        {
          "name": "rate",
          "type": "uint256"
        },
        {
          "name": "owner",
          "type": "address"
        },
        {
          "name": "crowdsaleWallet",
          "type": "address"
        },
        {
          "name": "token",
          "type": "address"
        },
        {
          "name": "openingTime",
          "type": "uint256"
        },
        {
          "name": "closingTime",
          "type": "uint256"
        }
      ],
      "payable": false,
      "stateMutability": "nonpayable",
      "type": "constructor"
    },
    {
      "payable": true,
      "stateMutability": "payable",
      "type": "fallback"
    },
    {
      "anonymous": false,
      "inputs": [
        {
          "indexed": false,
          "name": "nextBonusTimeslot",
          "type": "uint256"
        },
        {
          "indexed": false,
          "name": "nextBonusRate",
          "type": "uint256"
        }
      ],
      "name": "BonusTimeslotRateUpdated",
      "type": "event"
    },
    {
      "anonymous": false,
      "inputs": [
        {
          "indexed": false,
          "name": "initialRate",
          "type": "uint256"
        }
      ],
      "name": "InitialRateUpdated",
      "type": "event"
    },
    {
      "anonymous": false,
      "inputs": [
        {
          "indexed": true,
          "name": "previousOwner",
          "type": "address"
        },
        {
          "indexed": true,
          "name": "newOwner",
          "type": "address"
        }
      ],
      "name": "OwnershipTransferred",
      "type": "event"
    },
    {
      "anonymous": false,
      "inputs": [
        {
          "indexed": true,
          "name": "purchaser",
          "type": "address"
        },
        {
          "indexed": true,
          "name": "beneficiary",
          "type": "address"
        },
        {
          "indexed": false,
          "name": "value",
          "type": "uint256"
        },
        {
          "indexed": false,
          "name": "amount",
          "type": "uint256"
        }
      ],
      "name": "TokensPurchased",
      "type": "event"
    },
    {
      "anonymous": false,
      "inputs": [
        {
          "indexed": true,
          "name": "account",
          "type": "address"
        }
      ],
      "name": "WhitelistedAdded",
      "type": "event"
    },
    {
      "anonymous": false,
      "inputs": [
        {
          "indexed": true,
          "name": "account",
          "type": "address"
        }
      ],
      "name": "WhitelistedRemoved",
      "type": "event"
    },
    {
      "anonymous": false,
      "inputs": [
        {
          "indexed": true,
          "name": "account",
          "type": "address"
        }
      ],
      "name": "WhitelistAdminAdded",
      "type": "event"
    },
    {
      "anonymous": false,
      "inputs": [
        {
          "indexed": true,
          "name": "account",
          "type": "address"
        }
      ],
      "name": "WhitelistAdminRemoved",
      "type": "event"
    },
    {
      "constant": false,
      "inputs": [
        {
          "name": "accounts",
          "type": "address[]"
        }
      ],
      "name": "addWhitelistedAccounts",
      "outputs": [],
      "payable": false,
      "stateMutability": "nonpayable",
      "type": "function"
    },
    {
      "constant": false,
      "inputs": [],
      "name": "burn",
      "outputs": [],
      "payable": false,
      "stateMutability": "nonpayable",
      "type": "function"
    }
  ],
  "bytecode": "0x60806040523480156200001157600080fd5b5060405160c08062001da6833981018060405260c08110156200003357600080fd5b81019080805190602001909291908051906020019092919080519060200190929190805190602001909291908051906020019092919080519060200190929190505050858583838988886200009733620002f6640100000000026401000000009004565b600160028190555060008311620000ad57600080fd5b600073ffffffffffffffffffffffffffffffffffffffff168273ffffffffffffffffffffffffffffffffffffffff161415620000e857600080fd5b600073ffffffffffffffffffffffffffffffffffffffff168173ffffffffffffffffffffffffffffffffffffffff1614156200012357600080fd5b8260058190555081600460006101000a81548173ffffffffffffffffffffffffffffffffffffffff021916908373ffffffffffffffffffffffffffffffffffffffff16021790555080600360006101000a81548173ffffffffffffffffffffffffffffffffffffffff021916908373ffffffffffffffffffffffffffffffffffffffff16021790555050505042821015620001bd57600080fd5b818111620001ca57600080fd5b8160078190555080600881905550505033600960006101000a81548173ffffffffffffffffffffffffffffffffffffffff021916908373ffffffffffffffffffffffffffffffffffffffff160217905550600960009054906101000a900473ffffffffffffffffffffffffffffffffffffffff1673ffffffffffffffffffffffffffffffffffffffff16600073ffffffffffffffffffffffffffffffffffffffff167f8be0079c531659141344cd1fd0a4f28419497f9722a3daafe3b4186f6b6457e060405160405180910390a360008211620002a657600080fd5b81600a8190555081600c81905550620002ce8162000360640100000000026401000000009004565b5050620002ea85620003a0640100000000026401000000009004565b505050505050620006b3565b6200031a816000620003e16401000000000262001428179091906401000000009004565b8073ffffffffffffffffffffffffffffffffffffffff167f22380c05984257a1cb900161c713dd71d39e74820f1aea43bd3f1bdd2096129960405160405180910390a250565b62000379620004a0640100000000026401000000009004565b6200038357600080fd5b6200039d81620004f8640100000000026401000000009004565b50565b620003ba33620005f3640100000000026401000000009004565b620003c457600080fd5b620003de81620002f6640100000000026401000000009004565b50565b600073ffffffffffffffffffffffffffffffffffffffff168173ffffffffffffffffffffffffffffffffffffffff1614156200041c57600080fd5b62000437828262000620640100000000026401000000009004565b156200044257600080fd5b60018260000160008373ffffffffffffffffffffffffffffffffffffffff1673ffffffffffffffffffffffffffffffffffffffff16815260200190815260200160002060006101000a81548160ff0219169083151502179055505050565b6000600960009054906101000a900473ffffffffffffffffffffffffffffffffffffffff1673ffffffffffffffffffffffffffffffffffffffff163373ffffffffffffffffffffffffffffffffffffffff1614905090565b600073ffffffffffffffffffffffffffffffffffffffff168173ffffffffffffffffffffffffffffffffffffffff1614156200053357600080fd5b8073ffffffffffffffffffffffffffffffffffffffff16600960009054906101000a900473ffffffffffffffffffffffffffffffffffffffff1673ffffffffffffffffffffffffffffffffffffffff167f8be0079c531659141344cd1fd0a4f28419497f9722a3daafe3b4186f6b6457e060405160405180910390a380600960006101000a81548173ffffffffffffffffffffffffffffffffffffffff021916908373ffffffffffffffffffffffffffffffffffffffff16021790555050565b6000620006198260006200062064010000000002620010fd179091906401000000009004565b9050919050565b60008073ffffffffffffffffffffffffffffffffffffffff168273ffffffffffffffffffffffffffffffffffffffff1614156200065c57600080fd5b8260000160008373ffffffffffffffffffffffffffffffffffffffff1673ffffffffffffffffffffffffffffffffffffffff16815260200190815260200160002060009054906101000a900460ff16905092915050565b6116e380620006c36000396000f3fe6080604052600436106101d4576000357c0100000000000000000000000000000000000000000000000000000000900480637362d9c811610109578063c404c721116100a7578063ec8ac4d811610081578063ec8ac4d8146107ad578063f2fde38b146107f1578063f7fb07b014610842578063fc0c546a1461086d576101d4565b8063c404c72114610730578063d1c6f4481461075b578063d6cd947314610796576101d4565b80639e51051f116100e35780639e51051f14610646578063a02d856314610671578063b7a8807c1461069c578063bb5f747b146106c7576101d4565b80637362d9c81461056f5780638da5cb5b146105c05780638f32d59b14610617576101d4565b80634042b66f116101765780634b6753bc116101505780634b6753bc146104bf5780634c5a628c146104ea578063521eb27314610501578063715018a614610558576101d4565b80634042b66f1461044e57806344df8e701461047957806347535d7b14610490576101d4565b80632a4bc321116101b25780632a4bc321146102b05780632aa3ae9c146103755780632c4e722e146103ba5780633af32abf146103e5576101d4565b806310154bad146101df5780631515bc2b14610230578063291d95491461025f575b6101dd336108c4565b005b3480156101eb57600080fd5b5061022e6004803603602081101561020257600080fd5b81019080803573ffffffffffffffffffffffffffffffffffffffff1690602001909291905050506109ba565b005b34801561023c57600080fd5b506102456109d8565b604051808215151515815260200191505060405180910390f35b34801561026b57600080fd5b506102ae6004803603602081101561028257600080fd5b81019080803573ffffffffffffffffffffffffffffffffffffffff1690602001909291905050506109e4565b005b3480156102bc57600080fd5b50610373600480360360208110156102d357600080fd5b81019080803590602001906401000000008111156102f057600080fd5b82018360208201111561030257600080fd5b8035906020019184602083028401116401000000008311171561032457600080fd5b919080806020026020016040519081016040528093929190818152602001838360200280828437600081840152601f19601f820116905080830192505050505050509192919290505050610a02565b005b34801561038157600080fd5b506103b86004803603604081101561039857600080fd5b810190808035906020019092919080359060200190929190505050610a50565b005b3480156103c657600080fd5b506103cf610a92565b6040518082815260200191505060405180910390f35b3480156103f157600080fd5b506104346004803603602081101561040857600080fd5b81019080803573ffffffffffffffffffffffffffffffffffffffff169060200190929190505050610a99565b604051808215151515815260200191505060405180910390f35b34801561045a57600080fd5b50610463610ab6565b6040518082815260200191505060405180910390f35b34801561048557600080fd5b5061048e610ac0565b005b34801561049c57600080fd5b506104a5610c3a565b604051808215151515815260200191505060405180910390f35b3480156104cb57600080fd5b506104d4610c55565b6040518082815260200191505060405180910390f35b3480156104f657600080fd5b506104ff610c5f565b005b34801561050d57600080fd5b50610516610c6a565b604051808273ffffffffffffffffffffffffffffffffffffffff1673ffffffffffffffffffffffffffffffffffffffff16815260200191505060405180910390f35b34801561056457600080fd5b5061056d610c94565b005b34801561057b57600080fd5b506105be6004803603602081101561059257600080fd5b81019080803573ffffffffffffffffffffffffffffffffffffffff169060200190929190505050610d66565b005b3480156105cc57600080fd5b506105d5610d84565b604051808273ffffffffffffffffffffffffffffffffffffffff1673ffffffffffffffffffffffffffffffffffffffff16815260200191505060405180910390f35b34801561062357600080fd5b5061062c610dae565b604051808215151515815260200191505060405180910390f35b34801561065257600080fd5b5061065b610e06565b6040518082815260200191505060405180910390f35b34801561067d57600080fd5b50610686610e10565b6040518082815260200191505060405180910390f35b3480156106a857600080fd5b506106b1610e1a565b6040518082815260200191505060405180910390f35b3480156106d357600080fd5b50610716600480360360208110156106ea57600080fd5b81019080803573ffffffffffffffffffffffffffffffffffffffff169060200190929190505050610e24565b604051808215151515815260200191505060405180910390f35b34801561073c57600080fd5b50610745610e41565b6040518082815260200191505060405180910390f35b34801561076757600080fd5b506107946004803603602081101561077e57600080fd5b8101908080359060200190929190505050610e4b565b005b3480156107a257600080fd5b506107ab610e8b565b005b6107ef600480360360208110156107c357600080fd5b81019080803573ffffffffffffffffffffffffffffffffffffffff1690602001909291905050506108c4565b005b3480156107fd57600080fd5b506108406004803603602081101561081457600080fd5b81019080803573ffffffffffffffffffffffffffffffffffffffff169060200190929190505050610e96565b005b34801561084e57600080fd5b50610857610eb3565b6040518082815260200191505060405180910390f35b34801561087957600080fd5b50610882610ee6565b604051808273ffffffffffffffffffffffffffffffffffffffff1673ffffffffffffffffffffffffffffffffffffffff16815260200191505060405180910390f35b60016002600082825401925050819055506000600254905060003490506108eb8382610f10565b60006108f682610f30565b905061090d82600654610f5890919063ffffffff16565b60068190555061091d8482610f77565b8373ffffffffffffffffffffffffffffffffffffffff163373ffffffffffffffffffffffffffffffffffffffff167f6faf93231a456e552dbc9961f58d9713ee4f2e69d15f1975b050ef0911053a7b8484604051808381526020018281526020019250505060405180910390a36109948483610f85565b61099c610f89565b6109a68483610ff4565b505060025481146109b657600080fd5b5050565b6109c333610e24565b6109cc57600080fd5b6109d581610ff8565b50565b60006008544211905090565b6109ed33610e24565b6109f657600080fd5b6109ff81611052565b50565b610a0b33610e24565b610a1457600080fd5b60008090505b8151811015610a4c57610a3f828281518110610a3257fe5b6020026020010151610ff8565b8080600101915050610a1a565b5050565b610a58610dae565b610a6157600080fd5b610a69610c3a565b158015610a7b5750610a796109d8565b155b610a8457600080fd5b610a8e82826110ac565b5050565b6000806000fd5b6000610aaf8260016110fd90919063ffffffff16565b9050919050565b6000600654905090565b610ac86109d8565b610ad157600080fd5b6000610adb610ee6565b90508073ffffffffffffffffffffffffffffffffffffffff166342966c688273ffffffffffffffffffffffffffffffffffffffff166370a08231306040518263ffffffff167c0100000000000000000000000000000000000000000000000000000000028152600401808273ffffffffffffffffffffffffffffffffffffffff1673ffffffffffffffffffffffffffffffffffffffff16815260200191505060206040518083038186803b158015610b9257600080fd5b505afa158015610ba6573d6000803e3d6000fd5b505050506040513d6020811015610bbc57600080fd5b81019080805190602001909291905050506040518263ffffffff167c010000000000000000000000000000000000000000000000000000000002815260040180828152602001915050600060405180830381600087803b158015610c1f57600080fd5b505af1158015610c33573d6000803e3d6000fd5b5050505050565b60006007544210158015610c5057506008544211155b905090565b6000600854905090565b610c683361118f565b565b6000600460009054906101000a900473ffffffffffffffffffffffffffffffffffffffff16905090565b610c9c610dae565b610ca557600080fd5b600073ffffffffffffffffffffffffffffffffffffffff16600960009054906101000a900473ffffffffffffffffffffffffffffffffffffffff1673ffffffffffffffffffffffffffffffffffffffff167f8be0079c531659141344cd1fd0a4f28419497f9722a3daafe3b4186f6b6457e060405160405180910390a36000600960006101000a81548173ffffffffffffffffffffffffffffffffffffffff021916908373ffffffffffffffffffffffffffffffffffffffff160217905550565b610d6f33610e24565b610d7857600080fd5b610d81816111e9565b50565b6000600960009054906101000a900473ffffffffffffffffffffffffffffffffffffffff16905090565b6000600960009054906101000a900473ffffffffffffffffffffffffffffffffffffffff1673ffffffffffffffffffffffffffffffffffffffff163373ffffffffffffffffffffffffffffffffffffffff1614905090565b6000600a54905090565b6000600b54905090565b6000600754905090565b6000610e3a8260006110fd90919063ffffffff16565b9050919050565b6000600c54905090565b610e53610dae565b610e5c57600080fd5b610e64610c3a565b158015610e765750610e746109d8565b155b610e7f57600080fd5b610e8881611243565b50565b610e9433611052565b565b610e9e610dae565b610ea757600080fd5b610eb081611284565b50565b6000610ebd610c3a565b610eca5760009050610ee3565b600b544210610edd57600c549050610ee3565b600a5490505b90565b6000600360009054906101000a900473ffffffffffffffffffffffffffffffffffffffff16905090565b610f1982610a99565b610f2257600080fd5b610f2c828261137e565b5050565b600080610f3b610eb3565b9050610f50838261139d90919063ffffffff16565b915050919050565b600080828401905083811015610f6d57600080fd5b8091505092915050565b610f8182826113d7565b5050565b5050565b600460009054906101000a900473ffffffffffffffffffffffffffffffffffffffff1673ffffffffffffffffffffffffffffffffffffffff166108fc349081150290604051600060405180830381858888f19350505050158015610ff1573d6000803e3d6000fd5b50565b5050565b61100c81600161142890919063ffffffff16565b8073ffffffffffffffffffffffffffffffffffffffff167fee1504a83b6d4a361f4c1dc78ab59bfa30d6a3b6612c403e86bb01ef2984295f60405160405180910390a250565b6110668160016114d490919063ffffffff16565b8073ffffffffffffffffffffffffffffffffffffffff167f270d9b30cf5b0793bbfd54c9d5b94aeb49462b8148399000265144a8722da6b660405160405180910390a250565b81600b8190555080600c819055507f4e7e6d92843fbe2fd0f27456b98f02069ee4d44de6a198b7db55f5bfd76fe9248282604051808381526020018281526020019250505060405180910390a15050565b60008073ffffffffffffffffffffffffffffffffffffffff168273ffffffffffffffffffffffffffffffffffffffff16141561113857600080fd5b8260000160008373ffffffffffffffffffffffffffffffffffffffff1673ffffffffffffffffffffffffffffffffffffffff16815260200190815260200160002060009054906101000a900460ff16905092915050565b6111a38160006114d490919063ffffffff16565b8073ffffffffffffffffffffffffffffffffffffffff167f0a8eb35e5ca14b3d6f28e4abf2f128dbab231a58b56e89beb5d636115001e16560405160405180910390a250565b6111fd81600061142890919063ffffffff16565b8073ffffffffffffffffffffffffffffffffffffffff167f22380c05984257a1cb900161c713dd71d39e74820f1aea43bd3f1bdd2096129960405160405180910390a250565b80600a819055507f2d5f5ea15ed32044e5f601470ede06bf73cf3c8983ebcfd001fc563fcec0fc9d816040518082815260200191505060405180910390a150565b600073ffffffffffffffffffffffffffffffffffffffff168173ffffffffffffffffffffffffffffffffffffffff1614156112be57600080fd5b8073ffffffffffffffffffffffffffffffffffffffff16600960009054906101000a900473ffffffffffffffffffffffffffffffffffffffff1673ffffffffffffffffffffffffffffffffffffffff167f8be0079c531659141344cd1fd0a4f28419497f9722a3daafe3b4186f6b6457e060405160405180910390a380600960006101000a81548173ffffffffffffffffffffffffffffffffffffffff021916908373ffffffffffffffffffffffffffffffffffffffff16021790555050565b611386610c3a565b61138f57600080fd5b611399828261157f565b5050565b6000808314156113b057600090506113d1565b60008284029050828482816113c157fe5b04146113cc57600080fd5b809150505b92915050565b6114248282600360009054906101000a900473ffffffffffffffffffffffffffffffffffffffff1673ffffffffffffffffffffffffffffffffffffffff166115cb9092919063ffffffff16565b5050565b600073ffffffffffffffffffffffffffffffffffffffff168173ffffffffffffffffffffffffffffffffffffffff16141561146257600080fd5b61146c82826110fd565b1561147657600080fd5b60018260000160008373ffffffffffffffffffffffffffffffffffffffff1673ffffffffffffffffffffffffffffffffffffffff16815260200190815260200160002060006101000a81548160ff0219169083151502179055505050565b600073ffffffffffffffffffffffffffffffffffffffff168173ffffffffffffffffffffffffffffffffffffffff16141561150e57600080fd5b61151882826110fd565b61152157600080fd5b60008260000160008373ffffffffffffffffffffffffffffffffffffffff1673ffffffffffffffffffffffffffffffffffffffff16815260200190815260200160002060006101000a81548160ff0219169083151502179055505050565b600073ffffffffffffffffffffffffffffffffffffffff168273ffffffffffffffffffffffffffffffffffffffff1614156115b957600080fd5b60008114156115c757600080fd5b5050565b8273ffffffffffffffffffffffffffffffffffffffff1663a9059cbb83836040518363ffffffff167c0100000000000000000000000000000000000000000000000000000000028152600401808373ffffffffffffffffffffffffffffffffffffffff1673ffffffffffffffffffffffffffffffffffffffff16815260200182815260200192505050602060405180830381600087803b15801561166e57600080fd5b505af1158015611682573d6000803e3d6000fd5b505050506040513d602081101561169857600080fd5b81019080805190602001909291905050506116b257600080fd5b50505056fea165627a7a72305820d06eaaf7bc512b4e119b8ee557e061464c7bcf605a1b883cb8dd6f35548b60050029",
  "source": "pragma solidity ^0.5.0;\n\nimport \"openzeppelin-solidity/contracts/token/ERC20/ERC20.sol\";\nimport \"openzeppelin-solidity/contracts/token/ERC20/IERC20.sol\";\nimport \"openzeppelin-solidity/contracts/token/ERC20/ERC20Burnable.sol\";\nimport \"openzeppelin-solidity/contracts/crowdsale/validation/TimedCrowdsale.sol\";\nimport \"openzeppelin-solidity/contracts/crowdsale/validation/WhitelistCrowdsale.sol\";\nimport \"openzeppelin-solidity/contracts/crowdsale/Crowdsale.sol\";\nimport \"./AsureBonusesCrowdsale.sol\";\n\ncontract AsureCrowdsale is Crowdsale, TimedCrowdsale, WhitelistCrowdsale, AsureBonusesCrowdsale {\n  constructor(\n    uint256 rate,                     // rate, in Asure Tokens\n    address payable owner,            // owner\n    address payable crowdsaleWallet,  // wallet to send Ether\n    IERC20 token,                     // the token\n    uint256 openingTime,              // opening time in unix epoch seconds\n    uint256 closingTime               // closing time in unix epoch seconds\n  )\n  public\n  Crowdsale(rate, crowdsaleWallet, token)\n  TimedCrowdsale(openingTime, closingTime)\n  AsureBonusesCrowdsale(rate, owner)\n  {\n    addWhitelistAdmin(owner);\n  }\n\n  function addWhitelistedAccounts(address[] memory accounts) public onlyWhitelistAdmin {\n    for (uint i = 0; i < accounts.length; i++) {\n      _addWhitelisted(accounts[i]);\n    }\n  }\n\n  function burn() public {\n    require(hasClosed());\n    ERC20Burnable burnableToken = ERC20Burnable(address(token()));\n    burnableToken.burn(burnableToken.balanceOf(address(this)));\n  }\n}\n",
  "sourcePath": "/home/mischi/p/asurenetwork/crowdsale/packages/crowdsale/contracts/AsureCrowdsale.sol",
  "compiler": {
    "name": "solc",
    "version": "0.5.6+commit.b259423e.Emscripten.clang"
  },
  "schemaVersion": "3.0.3",
  "updatedAt": "2019-03-20T20:57:56.350Z",
  "devdoc": {
    "methods": {
      "buyTokens(address)": {
        "details": "low level token purchase ***DO NOT OVERRIDE*** This function has a non-reentrancy guard, so it shouldn't be called by another `nonReentrant` function.",
        "params": {
          "beneficiary": "Recipient of the token purchase"
        }
      },
      "closingTime()": {
        "return": "the crowdsale closing time."
      },
      "getCurrentRate()": {
        "details": "Returns the rate of tokens per wei at the present time. Note that, rate can be changed by the owner",
        "return": "The number of tokens a buyer gets per wei at a given time"
      },
      "hasClosed()": {
        "details": "Checks whether the period in which the crowdsale is open has already elapsed.",
        "return": "Whether crowdsale period has elapsed"
      },
      "initialRate()": {
        "return": "the initial rate of the crowdsale."
      },
      "isOpen()": {
        "return": "true if the crowdsale is open, false otherwise."
      },
      "isOwner()": {
        "return": "true if `msg.sender` is the owner of the contract."
      },
      "nextBonusRate()": {
        "return": "the next Rate of the crowdsale."
      },
      "nextBonusTimeslot()": {
        "return": "the next Timeslot of the crowdsale."
      },
      "openingTime()": {
        "return": "the crowdsale opening time."
      },
      "owner()": {
        "return": "the address of the owner."
      },
      "renounceOwnership()": {
        "details": "Allows the current owner to relinquish control of the contract."
      },
      "token()": {
        "return": "the token being sold."
      },
      "transferOwnership(address)": {
        "details": "Allows the current owner to transfer control of the contract to a newOwner.",
        "params": {
          "newOwner": "The address to transfer ownership to."
        }
      },
      "updateBonusTimeslotRate(uint256,uint256)": {
        "details": "Update timeslot and rate for the next Timeslot",
        "params": {
          "bonusRate": "rate for the timeslot",
          "bonusTimeslot": "next time slot"
        }
      },
      "updateInitialRate(uint256)": {
        "details": "Update initial Rate",
        "params": {
          "newInitialRate": "set new initial Rate"
        }
      },
      "wallet()": {
        "return": "the address where funds are collected."
      },
      "weiRaised()": {
        "return": "the amount of wei raised."
      }
    }
  },
  "userdoc": {
    "methods": {
      "rate()": {
        "notice": "The base rate function is overridden to revert, since this crowdsale doens't use it, and all calls to it are a mistake."
      },
      "renounceOwnership()": {
        "notice": "Renouncing to ownership will leave the contract without an owner. It will not be possible to call the functions with the `onlyOwner` modifier anymore."
      }
    }
  }
}