{
  "contractName": "AsureCrowdsaleDeployer",
  "abi": [
    {
      "constant": false,
      "inputs": [],
      "name": "renounceOwnership",
      "outputs": [],
      "payable": false,
      "stateMutability": "nonpayable",
      "type": "function",
      "signature": "0x715018a6"
    },
    {
      "constant": true,
      "inputs": [],
      "name": "owner",
      "outputs": [
        {
          "name": "",
          "type": "address"
        }
      ],
      "payable": false,
      "stateMutability": "view",
      "type": "function",
      "signature": "0x8da5cb5b"
    },
    {
      "constant": true,
      "inputs": [],
      "name": "isOwner",
      "outputs": [
        {
          "name": "",
          "type": "bool"
        }
      ],
      "payable": false,
      "stateMutability": "view",
      "type": "function",
      "signature": "0x8f32d59b"
    },
    {
      "constant": false,
      "inputs": [
        {
          "name": "newOwner",
          "type": "address"
        }
      ],
      "name": "transferOwnership",
      "outputs": [],
      "payable": false,
      "stateMutability": "nonpayable",
      "type": "function",
      "signature": "0xf2fde38b"
    },
    {
      "constant": true,
      "inputs": [],
      "name": "mainsale",
      "outputs": [
        {
          "name": "",
          "type": "address"
        }
      ],
      "payable": false,
      "stateMutability": "view",
      "type": "function",
      "signature": "0xf6fc96ad"
    },
    {
      "constant": true,
      "inputs": [],
      "name": "token",
      "outputs": [
        {
          "name": "",
          "type": "address"
        }
      ],
      "payable": false,
      "stateMutability": "view",
      "type": "function",
      "signature": "0xfc0c546a"
    },
    {
      "constant": true,
      "inputs": [],
      "name": "presale",
      "outputs": [
        {
          "name": "",
          "type": "address"
        }
      ],
      "payable": false,
      "stateMutability": "view",
      "type": "function",
      "signature": "0xfdea8e0b"
    },
    {
      "inputs": [
        {
          "name": "owner",
          "type": "address"
        }
      ],
      "payable": false,
      "stateMutability": "nonpayable",
      "type": "constructor",
      "signature": "constructor"
    },
    {
      "anonymous": false,
      "inputs": [
        {
          "indexed": true,
          "name": "previousOwner",
          "type": "address"
        },
        {
          "indexed": true,
          "name": "newOwner",
          "type": "address"
        }
      ],
      "name": "OwnershipTransferred",
      "type": "event",
      "signature": "0x8be0079c531659141344cd1fd0a4f28419497f9722a3daafe3b4186f6b6457e0"
    },
    {
      "constant": false,
      "inputs": [
        {
          "name": "foundationWallet",
          "type": "address"
        },
        {
          "name": "bountyWallet",
          "type": "address"
        },
        {
          "name": "familyFriendsWallet",
          "type": "address"
        },
        {
          "name": "teamAddr",
          "type": "address[]"
        },
        {
          "name": "teamAmounts",
          "type": "uint256[]"
        },
        {
          "name": "advisorAddr",
          "type": "address[]"
        },
        {
          "name": "advisorAmounts",
          "type": "uint256[]"
        }
      ],
      "name": "mint",
      "outputs": [
        {
          "name": "",
          "type": "bool"
        }
      ],
      "payable": false,
      "stateMutability": "nonpayable",
      "type": "function",
      "signature": "0xcc3e20df"
    },
    {
      "constant": false,
      "inputs": [
        {
          "name": "rate",
          "type": "uint256"
        },
        {
          "name": "owner",
          "type": "address"
        },
        {
          "name": "crowdsaleWallet",
          "type": "address"
        },
        {
          "name": "preSaleOpeningTime",
          "type": "uint256"
        },
        {
          "name": "preSaleClosingTime",
          "type": "uint256"
        }
      ],
      "name": "createPreSale",
      "outputs": [
        {
          "name": "",
          "type": "bool"
        }
      ],
      "payable": false,
      "stateMutability": "nonpayable",
      "type": "function",
      "signature": "0x86e0c2b9"
    },
    {
      "constant": false,
      "inputs": [
        {
          "name": "rate",
          "type": "uint256"
        },
        {
          "name": "owner",
          "type": "address"
        },
        {
          "name": "crowdsaleWallet",
          "type": "address"
        },
        {
          "name": "mainSaleOpeningTime",
          "type": "uint256"
        },
        {
          "name": "mainSaleClosingTime",
          "type": "uint256"
        }
      ],
      "name": "createMainSale",
      "outputs": [
        {
          "name": "",
          "type": "bool"
        }
      ],
      "payable": false,
      "stateMutability": "nonpayable",
      "type": "function",
      "signature": "0xbc618324"
    }
  ],
  "bytecode": "0x60806040523480156200001157600080fd5b50604051602080620064f4833981018060405260208110156200003357600080fd5b8101908080519060200190929190505050336000806101000a81548173ffffffffffffffffffffffffffffffffffffffff021916908373ffffffffffffffffffffffffffffffffffffffff1602179055506000809054906101000a900473ffffffffffffffffffffffffffffffffffffffff1673ffffffffffffffffffffffffffffffffffffffff16600073ffffffffffffffffffffffffffffffffffffffff167f8be0079c531659141344cd1fd0a4f28419497f9722a3daafe3b4186f6b6457e060405160405180910390a36200011a8162000253640100000000026401000000009004565b80601280600a0a6305f5e100026040516200013590620003e3565b808473ffffffffffffffffffffffffffffffffffffffff1673ffffffffffffffffffffffffffffffffffffffff16815260200180602001806020018560ff1681526020018481526020018381038352600a8152602001807f4173757265546f6b656e00000000000000000000000000000000000000000000815250602001838103825260038152602001807f415352000000000000000000000000000000000000000000000000000000000081525060200195505050505050604051809103906000f0801580156200020b573d6000803e3d6000fd5b50600160006101000a81548173ffffffffffffffffffffffffffffffffffffffff021916908373ffffffffffffffffffffffffffffffffffffffff16021790555050620003f1565b6200026c62000293640100000000026401000000009004565b6200027657600080fd5b6200029081620002ea640100000000026401000000009004565b50565b60008060009054906101000a900473ffffffffffffffffffffffffffffffffffffffff1673ffffffffffffffffffffffffffffffffffffffff163373ffffffffffffffffffffffffffffffffffffffff1614905090565b600073ffffffffffffffffffffffffffffffffffffffff168173ffffffffffffffffffffffffffffffffffffffff1614156200032557600080fd5b8073ffffffffffffffffffffffffffffffffffffffff166000809054906101000a900473ffffffffffffffffffffffffffffffffffffffff1673ffffffffffffffffffffffffffffffffffffffff167f8be0079c531659141344cd1fd0a4f28419497f9722a3daafe3b4186f6b6457e060405160405180910390a3806000806101000a81548173ffffffffffffffffffffffffffffffffffffffff021916908373ffffffffffffffffffffffffffffffffffffffff16021790555050565b61273b8062003db983390190565b6139b880620004016000396000f3fe60806040523480156200001157600080fd5b5060043610620000c9576000357c010000000000000000000000000000000000000000000000000000000090048063cc3e20df116200008c578063cc3e20df1462000284578063f2fde38b146200057f578063f6fc96ad14620005c6578063fc0c546a1462000612578063fdea8e0b146200065e57620000c9565b8063715018a614620000ce57806386e0c2b914620000da5780638da5cb5b14620001775780638f32d59b14620001c3578063bc61832414620001e7575b600080fd5b620000d8620006aa565b005b6200015d600480360360a0811015620000f257600080fd5b8101908080359060200190929190803573ffffffffffffffffffffffffffffffffffffffff169060200190929190803573ffffffffffffffffffffffffffffffffffffffff16906020019092919080359060200190929190803590602001909291905050506200077d565b604051808215151515815260200191505060405180910390f35b6200018162000c26565b604051808273ffffffffffffffffffffffffffffffffffffffff1673ffffffffffffffffffffffffffffffffffffffff16815260200191505060405180910390f35b620001cd62000c4f565b604051808215151515815260200191505060405180910390f35b6200026a600480360360a0811015620001ff57600080fd5b8101908080359060200190929190803573ffffffffffffffffffffffffffffffffffffffff169060200190929190803573ffffffffffffffffffffffffffffffffffffffff169060200190929190803590602001909291908035906020019092919050505062000ca6565b604051808215151515815260200191505060405180910390f35b62000565600480360360e08110156200029c57600080fd5b81019080803573ffffffffffffffffffffffffffffffffffffffff169060200190929190803573ffffffffffffffffffffffffffffffffffffffff169060200190929190803573ffffffffffffffffffffffffffffffffffffffff169060200190929190803590602001906401000000008111156200031a57600080fd5b8201836020820111156200032d57600080fd5b803590602001918460208302840111640100000000831117156200035057600080fd5b919080806020026020016040519081016040528093929190818152602001838360200280828437600081840152601f19601f82011690508083019250505050505050919291929080359060200190640100000000811115620003b157600080fd5b820183602082011115620003c457600080fd5b80359060200191846020830284011164010000000083111715620003e757600080fd5b919080806020026020016040519081016040528093929190818152602001838360200280828437600081840152601f19601f820116905080830192505050505050509192919290803590602001906401000000008111156200044857600080fd5b8201836020820111156200045b57600080fd5b803590602001918460208302840111640100000000831117156200047e57600080fd5b919080806020026020016040519081016040528093929190818152602001838360200280828437600081840152601f19601f82011690508083019250505050505050919291929080359060200190640100000000811115620004df57600080fd5b820183602082011115620004f257600080fd5b803590602001918460208302840111640100000000831117156200051557600080fd5b919080806020026020016040519081016040528093929190818152602001838360200280828437600081840152601f19601f82011690508083019250505050505050919291929050505062001144565b604051808215151515815260200191505060405180910390f35b620005c4600480360360208110156200059757600080fd5b81019080803573ffffffffffffffffffffffffffffffffffffffff1690602001909291905050506200188b565b005b620005d0620018ad565b604051808273ffffffffffffffffffffffffffffffffffffffff1673ffffffffffffffffffffffffffffffffffffffff16815260200191505060405180910390f35b6200061c620018d3565b604051808273ffffffffffffffffffffffffffffffffffffffff1673ffffffffffffffffffffffffffffffffffffffff16815260200191505060405180910390f35b62000668620018f9565b604051808273ffffffffffffffffffffffffffffffffffffffff1673ffffffffffffffffffffffffffffffffffffffff16815260200191505060405180910390f35b620006b462000c4f565b620006be57600080fd5b600073ffffffffffffffffffffffffffffffffffffffff166000809054906101000a900473ffffffffffffffffffffffffffffffffffffffff1673ffffffffffffffffffffffffffffffffffffffff167f8be0079c531659141344cd1fd0a4f28419497f9722a3daafe3b4186f6b6457e060405160405180910390a360008060006101000a81548173ffffffffffffffffffffffffffffffffffffffff021916908373ffffffffffffffffffffffffffffffffffffffff160217905550565b60006200078962000c4f565b6200079357600080fd5b600073ffffffffffffffffffffffffffffffffffffffff16600260009054906101000a900473ffffffffffffffffffffffffffffffffffffffff1673ffffffffffffffffffffffffffffffffffffffff161462000858576040517f08c379a000000000000000000000000000000000000000000000000000000000815260040180806020018281038252601c8152602001807f6d61696e73616c6520616c726561647920696e697469616c697a65640000000081525060200191505060405180910390fd5b858585600160009054906101000a900473ffffffffffffffffffffffffffffffffffffffff1686866040516200088e9062001a18565b808781526020018673ffffffffffffffffffffffffffffffffffffffff1673ffffffffffffffffffffffffffffffffffffffff1681526020018573ffffffffffffffffffffffffffffffffffffffff1673ffffffffffffffffffffffffffffffffffffffff1681526020018473ffffffffffffffffffffffffffffffffffffffff1673ffffffffffffffffffffffffffffffffffffffff1681526020018381526020018281526020019650505050505050604051809103906000f0801580156200095c573d6000803e3d6000fd5b50600260006101000a81548173ffffffffffffffffffffffffffffffffffffffff021916908373ffffffffffffffffffffffffffffffffffffffff160217905550600160009054906101000a900473ffffffffffffffffffffffffffffffffffffffff1673ffffffffffffffffffffffffffffffffffffffff166340c10f19600260009054906101000a900473ffffffffffffffffffffffffffffffffffffffff166012600a0a62989680026040518363ffffffff167c0100000000000000000000000000000000000000000000000000000000028152600401808373ffffffffffffffffffffffffffffffffffffffff1673ffffffffffffffffffffffffffffffffffffffff16815260200182815260200192505050602060405180830381600087803b15801562000a8e57600080fd5b505af115801562000aa3573d6000803e3d6000fd5b505050506040513d602081101562000aba57600080fd5b8101908080519060200190929190505050506012600a0a6302160ec0026012600a0a6305f5e1000203600160009054906101000a900473ffffffffffffffffffffffffffffffffffffffff1673ffffffffffffffffffffffffffffffffffffffff166318160ddd6040518163ffffffff167c010000000000000000000000000000000000000000000000000000000002815260040160206040518083038186803b15801562000b6857600080fd5b505afa15801562000b7d573d6000803e3d6000fd5b505050506040513d602081101562000b9457600080fd5b81019080805190602001909291905050501462000c19576040517f08c379a00000000000000000000000000000000000000000000000000000000081526004018080602001828103825260168152602001807f415641494c41424c455f544f54414c5f535550504c590000000000000000000081525060200191505060405180910390fd5b6001905095945050505050565b60008060009054906101000a900473ffffffffffffffffffffffffffffffffffffffff16905090565b60008060009054906101000a900473ffffffffffffffffffffffffffffffffffffffff1673ffffffffffffffffffffffffffffffffffffffff163373ffffffffffffffffffffffffffffffffffffffff1614905090565b600062000cb262000c4f565b62000cbc57600080fd5b600073ffffffffffffffffffffffffffffffffffffffff16600360009054906101000a900473ffffffffffffffffffffffffffffffffffffffff1673ffffffffffffffffffffffffffffffffffffffff161462000d81576040517f08c379a000000000000000000000000000000000000000000000000000000000815260040180806020018281038252601c8152602001807f6d61696e73616c6520616c726561647920696e697469616c697a65640000000081525060200191505060405180910390fd5b858585600160009054906101000a900473ffffffffffffffffffffffffffffffffffffffff16868660405162000db79062001a18565b808781526020018673ffffffffffffffffffffffffffffffffffffffff1673ffffffffffffffffffffffffffffffffffffffff1681526020018573ffffffffffffffffffffffffffffffffffffffff1673ffffffffffffffffffffffffffffffffffffffff1681526020018473ffffffffffffffffffffffffffffffffffffffff1673ffffffffffffffffffffffffffffffffffffffff1681526020018381526020018281526020019650505050505050604051809103906000f08015801562000e85573d6000803e3d6000fd5b50600360006101000a81548173ffffffffffffffffffffffffffffffffffffffff021916908373ffffffffffffffffffffffffffffffffffffffff160217905550600160009054906101000a900473ffffffffffffffffffffffffffffffffffffffff1673ffffffffffffffffffffffffffffffffffffffff166340c10f19600360009054906101000a900473ffffffffffffffffffffffffffffffffffffffff166012600a0a6302160ec0026040518363ffffffff167c0100000000000000000000000000000000000000000000000000000000028152600401808373ffffffffffffffffffffffffffffffffffffffff1673ffffffffffffffffffffffffffffffffffffffff16815260200182815260200192505050602060405180830381600087803b15801562000fb857600080fd5b505af115801562000fcd573d6000803e3d6000fd5b505050506040513d602081101562000fe457600080fd5b8101908080519060200190929190505050506012600a0a6305f5e10002600160009054906101000a900473ffffffffffffffffffffffffffffffffffffffff1673ffffffffffffffffffffffffffffffffffffffff166318160ddd6040518163ffffffff167c010000000000000000000000000000000000000000000000000000000002815260040160206040518083038186803b1580156200108657600080fd5b505afa1580156200109b573d6000803e3d6000fd5b505050506040513d6020811015620010b257600080fd5b81019080805190602001909291905050501462001137576040517f08c379a00000000000000000000000000000000000000000000000000000000081526004018080602001828103825260168152602001807f415641494c41424c455f544f54414c5f535550504c590000000000000000000081525060200191505060405180910390fd5b6001905095945050505050565b60006200115062000c4f565b6200115a57600080fd5b600160009054906101000a900473ffffffffffffffffffffffffffffffffffffffff1673ffffffffffffffffffffffffffffffffffffffff166340c10f19896012600a0a6302160ec0026040518363ffffffff167c0100000000000000000000000000000000000000000000000000000000028152600401808373ffffffffffffffffffffffffffffffffffffffff1673ffffffffffffffffffffffffffffffffffffffff16815260200182815260200192505050602060405180830381600087803b1580156200122a57600080fd5b505af11580156200123f573d6000803e3d6000fd5b505050506040513d60208110156200125657600080fd5b810190808051906020019092919050505050600160009054906101000a900473ffffffffffffffffffffffffffffffffffffffff1673ffffffffffffffffffffffffffffffffffffffff166340c10f19886012600a0a624c4b40026040518363ffffffff167c0100000000000000000000000000000000000000000000000000000000028152600401808373ffffffffffffffffffffffffffffffffffffffff1673ffffffffffffffffffffffffffffffffffffffff16815260200182815260200192505050602060405180830381600087803b1580156200133757600080fd5b505af11580156200134c573d6000803e3d6000fd5b505050506040513d60208110156200136357600080fd5b810190808051906020019092919050505050600160009054906101000a900473ffffffffffffffffffffffffffffffffffffffff1673ffffffffffffffffffffffffffffffffffffffff166340c10f19876012600a0a624c4b40026040518363ffffffff167c0100000000000000000000000000000000000000000000000000000000028152600401808373ffffffffffffffffffffffffffffffffffffffff1673ffffffffffffffffffffffffffffffffffffffff16815260200182815260200192505050602060405180830381600087803b1580156200144457600080fd5b505af115801562001459573d6000803e3d6000fd5b505050506040513d60208110156200147057600080fd5b81019080805190602001909291905050505060008090505b8551811015620015d257600160009054906101000a900473ffffffffffffffffffffffffffffffffffffffff1673ffffffffffffffffffffffffffffffffffffffff166340c10f19878381518110620014dd57fe5b60200260200101516012600a0a888581518110620014f757fe5b6020026020010151026040518363ffffffff167c0100000000000000000000000000000000000000000000000000000000028152600401808373ffffffffffffffffffffffffffffffffffffffff1673ffffffffffffffffffffffffffffffffffffffff16815260200182815260200192505050602060405180830381600087803b1580156200158657600080fd5b505af11580156200159b573d6000803e3d6000fd5b505050506040513d6020811015620015b257600080fd5b810190808051906020019092919050505050808060010191505062001488565b5060008090505b83518110156200172357600160009054906101000a900473ffffffffffffffffffffffffffffffffffffffff1673ffffffffffffffffffffffffffffffffffffffff166340c10f198583815181106200162e57fe5b60200260200101516012600a0a8685815181106200164857fe5b6020026020010151026040518363ffffffff167c0100000000000000000000000000000000000000000000000000000000028152600401808373ffffffffffffffffffffffffffffffffffffffff1673ffffffffffffffffffffffffffffffffffffffff16815260200182815260200192505050602060405180830381600087803b158015620016d757600080fd5b505af1158015620016ec573d6000803e3d6000fd5b505050506040513d60208110156200170357600080fd5b8101908080519060200190929190505050508080600101915050620015d9565b506012600a0a6302160ec0026012600a0a62989680026012600a0a6305f5e100020303600160009054906101000a900473ffffffffffffffffffffffffffffffffffffffff1673ffffffffffffffffffffffffffffffffffffffff166318160ddd6040518163ffffffff167c010000000000000000000000000000000000000000000000000000000002815260040160206040518083038186803b158015620017cb57600080fd5b505afa158015620017e0573d6000803e3d6000fd5b505050506040513d6020811015620017f757600080fd5b8101908080519060200190929190505050146200187c576040517f08c379a00000000000000000000000000000000000000000000000000000000081526004018080602001828103825260168152602001807f415641494c41424c455f544f54414c5f535550504c590000000000000000000081525060200191505060405180910390fd5b60019050979650505050505050565b6200189562000c4f565b6200189f57600080fd5b620018aa816200191f565b50565b600360009054906101000a900473ffffffffffffffffffffffffffffffffffffffff1681565b600160009054906101000a900473ffffffffffffffffffffffffffffffffffffffff1681565b600260009054906101000a900473ffffffffffffffffffffffffffffffffffffffff1681565b600073ffffffffffffffffffffffffffffffffffffffff168173ffffffffffffffffffffffffffffffffffffffff1614156200195a57600080fd5b8073ffffffffffffffffffffffffffffffffffffffff166000809054906101000a900473ffffffffffffffffffffffffffffffffffffffff1673ffffffffffffffffffffffffffffffffffffffff167f8be0079c531659141344cd1fd0a4f28419497f9722a3daafe3b4186f6b6457e060405160405180910390a3806000806101000a81548173ffffffffffffffffffffffffffffffffffffffff021916908373ffffffffffffffffffffffffffffffffffffffff16021790555050565b611f668062001a278339019056fe60806040523480156200001157600080fd5b5060405160c08062001f66833981018060405260c08110156200003357600080fd5b81019080805190602001909291908051906020019092919080519060200190929190805190602001909291908051906020019092919080519060200190929190505050858583838988886200009733620004fc640100000000026401000000009004565b60016002819055506000831162000116576040517f08c379a00000000000000000000000000000000000000000000000000000000081526004018080602001828103825260018152602001807f310000000000000000000000000000000000000000000000000000000000000081525060200191505060405180910390fd5b600073ffffffffffffffffffffffffffffffffffffffff168273ffffffffffffffffffffffffffffffffffffffff161415620001ba576040517f08c379a00000000000000000000000000000000000000000000000000000000081526004018080602001828103825260018152602001807f320000000000000000000000000000000000000000000000000000000000000081525060200191505060405180910390fd5b600073ffffffffffffffffffffffffffffffffffffffff168173ffffffffffffffffffffffffffffffffffffffff1614156200025e576040517f08c379a00000000000000000000000000000000000000000000000000000000081526004018080602001828103825260018152602001807f330000000000000000000000000000000000000000000000000000000000000081525060200191505060405180910390fd5b8260058190555081600460006101000a81548173ffffffffffffffffffffffffffffffffffffffff021916908373ffffffffffffffffffffffffffffffffffffffff16021790555080600360006101000a81548173ffffffffffffffffffffffffffffffffffffffff021916908373ffffffffffffffffffffffffffffffffffffffff1602179055505050504282101562000361576040517f08c379a00000000000000000000000000000000000000000000000000000000081526004018080602001828103825260018152602001807f390000000000000000000000000000000000000000000000000000000000000081525060200191505060405180910390fd5b818111620003d7576040517f08c379a00000000000000000000000000000000000000000000000000000000081526004018080602001828103825260028152602001807f313000000000000000000000000000000000000000000000000000000000000081525060200191505060405180910390fd5b8160078190555080600881905550505033600960006101000a81548173ffffffffffffffffffffffffffffffffffffffff021916908373ffffffffffffffffffffffffffffffffffffffff160217905550600960009054906101000a900473ffffffffffffffffffffffffffffffffffffffff1673ffffffffffffffffffffffffffffffffffffffff16600073ffffffffffffffffffffffffffffffffffffffff167f8be0079c531659141344cd1fd0a4f28419497f9722a3daafe3b4186f6b6457e060405160405180910390a360008211620004b357600080fd5b81600a81905550620004d48162000566640100000000026401000000009004565b5050620004f085620005a6640100000000026401000000009004565b505050505050620008b9565b62000520816000620005e764010000000002620013e2179091906401000000009004565b8073ffffffffffffffffffffffffffffffffffffffff167f22380c05984257a1cb900161c713dd71d39e74820f1aea43bd3f1bdd2096129960405160405180910390a250565b6200057f620006a6640100000000026401000000009004565b6200058957600080fd5b620005a381620006fe640100000000026401000000009004565b50565b620005c033620007f9640100000000026401000000009004565b620005ca57600080fd5b620005e481620004fc640100000000026401000000009004565b50565b600073ffffffffffffffffffffffffffffffffffffffff168173ffffffffffffffffffffffffffffffffffffffff1614156200062257600080fd5b6200063d828262000826640100000000026401000000009004565b156200064857600080fd5b60018260000160008373ffffffffffffffffffffffffffffffffffffffff1673ffffffffffffffffffffffffffffffffffffffff16815260200190815260200160002060006101000a81548160ff0219169083151502179055505050565b6000600960009054906101000a900473ffffffffffffffffffffffffffffffffffffffff1673ffffffffffffffffffffffffffffffffffffffff163373ffffffffffffffffffffffffffffffffffffffff1614905090565b600073ffffffffffffffffffffffffffffffffffffffff168173ffffffffffffffffffffffffffffffffffffffff1614156200073957600080fd5b8073ffffffffffffffffffffffffffffffffffffffff16600960009054906101000a900473ffffffffffffffffffffffffffffffffffffffff1673ffffffffffffffffffffffffffffffffffffffff167f8be0079c531659141344cd1fd0a4f28419497f9722a3daafe3b4186f6b6457e060405160405180910390a380600960006101000a81548173ffffffffffffffffffffffffffffffffffffffff021916908373ffffffffffffffffffffffffffffffffffffffff16021790555050565b60006200081f8260006200082664010000000002620010b7179091906401000000009004565b9050919050565b60008073ffffffffffffffffffffffffffffffffffffffff168273ffffffffffffffffffffffffffffffffffffffff1614156200086257600080fd5b8260000160008373ffffffffffffffffffffffffffffffffffffffff1673ffffffffffffffffffffffffffffffffffffffff16815260200190815260200160002060009054906101000a900460ff16905092915050565b61169d80620008c96000396000f3fe6080604052600436106101d4576000357c0100000000000000000000000000000000000000000000000000000000900480637362d9c811610109578063c404c721116100a7578063ec8ac4d811610081578063ec8ac4d8146107ad578063f2fde38b146107f1578063f7fb07b014610842578063fc0c546a1461086d576101d4565b8063c404c72114610730578063d1c6f4481461075b578063d6cd947314610796576101d4565b80639e51051f116100e35780639e51051f14610646578063a02d856314610671578063b7a8807c1461069c578063bb5f747b146106c7576101d4565b80637362d9c81461056f5780638da5cb5b146105c05780638f32d59b14610617576101d4565b80634042b66f116101765780634b6753bc116101505780634b6753bc146104bf5780634c5a628c146104ea578063521eb27314610501578063715018a614610558576101d4565b80634042b66f1461044e57806344df8e701461047957806347535d7b14610490576101d4565b80632a4bc321116101b25780632a4bc321146102b05780632aa3ae9c146103755780632c4e722e146103ba5780633af32abf146103e5576101d4565b806310154bad146101df5780631515bc2b14610230578063291d95491461025f575b6101dd336108c4565b005b3480156101eb57600080fd5b5061022e6004803603602081101561020257600080fd5b81019080803573ffffffffffffffffffffffffffffffffffffffff1690602001909291905050506109ba565b005b34801561023c57600080fd5b506102456109d8565b604051808215151515815260200191505060405180910390f35b34801561026b57600080fd5b506102ae6004803603602081101561028257600080fd5b81019080803573ffffffffffffffffffffffffffffffffffffffff1690602001909291905050506109e4565b005b3480156102bc57600080fd5b50610373600480360360208110156102d357600080fd5b81019080803590602001906401000000008111156102f057600080fd5b82018360208201111561030257600080fd5b8035906020019184602083028401116401000000008311171561032457600080fd5b919080806020026020016040519081016040528093929190818152602001838360200280828437600081840152601f19601f820116905080830192505050505050509192919290505050610a02565b005b34801561038157600080fd5b506103b86004803603604081101561039857600080fd5b810190808035906020019092919080359060200190929190505050610a50565b005b3480156103c657600080fd5b506103cf610a6f565b6040518082815260200191505060405180910390f35b3480156103f157600080fd5b506104346004803603602081101561040857600080fd5b81019080803573ffffffffffffffffffffffffffffffffffffffff169060200190929190505050610a76565b604051808215151515815260200191505060405180910390f35b34801561045a57600080fd5b50610463610a93565b6040518082815260200191505060405180910390f35b34801561048557600080fd5b5061048e610a9d565b005b34801561049c57600080fd5b506104a5610c17565b604051808215151515815260200191505060405180910390f35b3480156104cb57600080fd5b506104d4610c32565b6040518082815260200191505060405180910390f35b3480156104f657600080fd5b506104ff610c3c565b005b34801561050d57600080fd5b50610516610c47565b604051808273ffffffffffffffffffffffffffffffffffffffff1673ffffffffffffffffffffffffffffffffffffffff16815260200191505060405180910390f35b34801561056457600080fd5b5061056d610c71565b005b34801561057b57600080fd5b506105be6004803603602081101561059257600080fd5b81019080803573ffffffffffffffffffffffffffffffffffffffff169060200190929190505050610d43565b005b3480156105cc57600080fd5b506105d5610d61565b604051808273ffffffffffffffffffffffffffffffffffffffff1673ffffffffffffffffffffffffffffffffffffffff16815260200191505060405180910390f35b34801561062357600080fd5b5061062c610d8b565b604051808215151515815260200191505060405180910390f35b34801561065257600080fd5b5061065b610de3565b6040518082815260200191505060405180910390f35b34801561067d57600080fd5b50610686610ded565b6040518082815260200191505060405180910390f35b3480156106a857600080fd5b506106b1610df7565b6040518082815260200191505060405180910390f35b3480156106d357600080fd5b50610716600480360360208110156106ea57600080fd5b81019080803573ffffffffffffffffffffffffffffffffffffffff169060200190929190505050610e01565b604051808215151515815260200191505060405180910390f35b34801561073c57600080fd5b50610745610e1e565b6040518082815260200191505060405180910390f35b34801561076757600080fd5b506107946004803603602081101561077e57600080fd5b8101908080359060200190929190505050610e28565b005b3480156107a257600080fd5b506107ab610e45565b005b6107ef600480360360208110156107c357600080fd5b81019080803573ffffffffffffffffffffffffffffffffffffffff1690602001909291905050506108c4565b005b3480156107fd57600080fd5b506108406004803603602081101561081457600080fd5b81019080803573ffffffffffffffffffffffffffffffffffffffff169060200190929190505050610e50565b005b34801561084e57600080fd5b50610857610e6d565b6040518082815260200191505060405180910390f35b34801561087957600080fd5b50610882610ea0565b604051808273ffffffffffffffffffffffffffffffffffffffff1673ffffffffffffffffffffffffffffffffffffffff16815260200191505060405180910390f35b60016002600082825401925050819055506000600254905060003490506108eb8382610eca565b60006108f682610eea565b905061090d82600654610f1290919063ffffffff16565b60068190555061091d8482610f31565b8373ffffffffffffffffffffffffffffffffffffffff163373ffffffffffffffffffffffffffffffffffffffff167f6faf93231a456e552dbc9961f58d9713ee4f2e69d15f1975b050ef0911053a7b8484604051808381526020018281526020019250505060405180910390a36109948483610f3f565b61099c610f43565b6109a68483610fae565b505060025481146109b657600080fd5b5050565b6109c333610e01565b6109cc57600080fd5b6109d581610fb2565b50565b60006008544211905090565b6109ed33610e01565b6109f657600080fd5b6109ff8161100c565b50565b610a0b33610e01565b610a1457600080fd5b60008090505b8151811015610a4c57610a3f828281518110610a3257fe5b6020026020010151610fb2565b8080600101915050610a1a565b5050565b610a58610d8b565b610a6157600080fd5b610a6b8282611066565b5050565b6000806000fd5b6000610a8c8260016110b790919063ffffffff16565b9050919050565b6000600654905090565b610aa56109d8565b610aae57600080fd5b6000610ab8610ea0565b90508073ffffffffffffffffffffffffffffffffffffffff166342966c688273ffffffffffffffffffffffffffffffffffffffff166370a08231306040518263ffffffff167c0100000000000000000000000000000000000000000000000000000000028152600401808273ffffffffffffffffffffffffffffffffffffffff1673ffffffffffffffffffffffffffffffffffffffff16815260200191505060206040518083038186803b158015610b6f57600080fd5b505afa158015610b83573d6000803e3d6000fd5b505050506040513d6020811015610b9957600080fd5b81019080805190602001909291905050506040518263ffffffff167c010000000000000000000000000000000000000000000000000000000002815260040180828152602001915050600060405180830381600087803b158015610bfc57600080fd5b505af1158015610c10573d6000803e3d6000fd5b5050505050565b60006007544210158015610c2d57506008544211155b905090565b6000600854905090565b610c4533611149565b565b6000600460009054906101000a900473ffffffffffffffffffffffffffffffffffffffff16905090565b610c79610d8b565b610c8257600080fd5b600073ffffffffffffffffffffffffffffffffffffffff16600960009054906101000a900473ffffffffffffffffffffffffffffffffffffffff1673ffffffffffffffffffffffffffffffffffffffff167f8be0079c531659141344cd1fd0a4f28419497f9722a3daafe3b4186f6b6457e060405160405180910390a36000600960006101000a81548173ffffffffffffffffffffffffffffffffffffffff021916908373ffffffffffffffffffffffffffffffffffffffff160217905550565b610d4c33610e01565b610d5557600080fd5b610d5e816111a3565b50565b6000600960009054906101000a900473ffffffffffffffffffffffffffffffffffffffff16905090565b6000600960009054906101000a900473ffffffffffffffffffffffffffffffffffffffff1673ffffffffffffffffffffffffffffffffffffffff163373ffffffffffffffffffffffffffffffffffffffff1614905090565b6000600a54905090565b6000600b54905090565b6000600754905090565b6000610e178260006110b790919063ffffffff16565b9050919050565b6000600c54905090565b610e30610d8b565b610e3957600080fd5b610e42816111fd565b50565b610e4e3361100c565b565b610e58610d8b565b610e6157600080fd5b610e6a8161123e565b50565b6000610e77610c17565b610e845760009050610e9d565b600b544210610e9757600c549050610e9d565b600a5490505b90565b6000600360009054906101000a900473ffffffffffffffffffffffffffffffffffffffff16905090565b610ed382610a76565b610edc57600080fd5b610ee68282611338565b5050565b600080610ef5610e6d565b9050610f0a838261135790919063ffffffff16565b915050919050565b600080828401905083811015610f2757600080fd5b8091505092915050565b610f3b8282611391565b5050565b5050565b600460009054906101000a900473ffffffffffffffffffffffffffffffffffffffff1673ffffffffffffffffffffffffffffffffffffffff166108fc349081150290604051600060405180830381858888f19350505050158015610fab573d6000803e3d6000fd5b50565b5050565b610fc68160016113e290919063ffffffff16565b8073ffffffffffffffffffffffffffffffffffffffff167fee1504a83b6d4a361f4c1dc78ab59bfa30d6a3b6612c403e86bb01ef2984295f60405160405180910390a250565b61102081600161148e90919063ffffffff16565b8073ffffffffffffffffffffffffffffffffffffffff167f270d9b30cf5b0793bbfd54c9d5b94aeb49462b8148399000265144a8722da6b660405160405180910390a250565b81600b8190555080600c819055507f4e7e6d92843fbe2fd0f27456b98f02069ee4d44de6a198b7db55f5bfd76fe9248282604051808381526020018281526020019250505060405180910390a15050565b60008073ffffffffffffffffffffffffffffffffffffffff168273ffffffffffffffffffffffffffffffffffffffff1614156110f257600080fd5b8260000160008373ffffffffffffffffffffffffffffffffffffffff1673ffffffffffffffffffffffffffffffffffffffff16815260200190815260200160002060009054906101000a900460ff16905092915050565b61115d81600061148e90919063ffffffff16565b8073ffffffffffffffffffffffffffffffffffffffff167f0a8eb35e5ca14b3d6f28e4abf2f128dbab231a58b56e89beb5d636115001e16560405160405180910390a250565b6111b78160006113e290919063ffffffff16565b8073ffffffffffffffffffffffffffffffffffffffff167f22380c05984257a1cb900161c713dd71d39e74820f1aea43bd3f1bdd2096129960405160405180910390a250565b80600a819055507f2d5f5ea15ed32044e5f601470ede06bf73cf3c8983ebcfd001fc563fcec0fc9d816040518082815260200191505060405180910390a150565b600073ffffffffffffffffffffffffffffffffffffffff168173ffffffffffffffffffffffffffffffffffffffff16141561127857600080fd5b8073ffffffffffffffffffffffffffffffffffffffff16600960009054906101000a900473ffffffffffffffffffffffffffffffffffffffff1673ffffffffffffffffffffffffffffffffffffffff167f8be0079c531659141344cd1fd0a4f28419497f9722a3daafe3b4186f6b6457e060405160405180910390a380600960006101000a81548173ffffffffffffffffffffffffffffffffffffffff021916908373ffffffffffffffffffffffffffffffffffffffff16021790555050565b611340610c17565b61134957600080fd5b6113538282611539565b5050565b60008083141561136a576000905061138b565b600082840290508284828161137b57fe5b041461138657600080fd5b809150505b92915050565b6113de8282600360009054906101000a900473ffffffffffffffffffffffffffffffffffffffff1673ffffffffffffffffffffffffffffffffffffffff166115859092919063ffffffff16565b5050565b600073ffffffffffffffffffffffffffffffffffffffff168173ffffffffffffffffffffffffffffffffffffffff16141561141c57600080fd5b61142682826110b7565b1561143057600080fd5b60018260000160008373ffffffffffffffffffffffffffffffffffffffff1673ffffffffffffffffffffffffffffffffffffffff16815260200190815260200160002060006101000a81548160ff0219169083151502179055505050565b600073ffffffffffffffffffffffffffffffffffffffff168173ffffffffffffffffffffffffffffffffffffffff1614156114c857600080fd5b6114d282826110b7565b6114db57600080fd5b60008260000160008373ffffffffffffffffffffffffffffffffffffffff1673ffffffffffffffffffffffffffffffffffffffff16815260200190815260200160002060006101000a81548160ff0219169083151502179055505050565b600073ffffffffffffffffffffffffffffffffffffffff168273ffffffffffffffffffffffffffffffffffffffff16141561157357600080fd5b600081141561158157600080fd5b5050565b8273ffffffffffffffffffffffffffffffffffffffff1663a9059cbb83836040518363ffffffff167c0100000000000000000000000000000000000000000000000000000000028152600401808373ffffffffffffffffffffffffffffffffffffffff1673ffffffffffffffffffffffffffffffffffffffff16815260200182815260200192505050602060405180830381600087803b15801561162857600080fd5b505af115801561163c573d6000803e3d6000fd5b505050506040513d602081101561165257600080fd5b810190808051906020019092919050505061166c57600080fd5b50505056fea165627a7a723058206fec84f09f314780182034bc002bf32cb23074bd087e8e3a514b7dbb40555d900029a165627a7a72305820cc45969b7685d051881f7cf2f8a2e5019313484fae0b5fc1161c299af4944464002960806040523480156200001157600080fd5b506040516200273b3803806200273b833981018060405260a08110156200003757600080fd5b810190808051906020019092919080516401000000008111156200005a57600080fd5b828101905060208101848111156200007157600080fd5b81518560018202830111640100000000821117156200008f57600080fd5b50509291906020018051640100000000811115620000ac57600080fd5b82810190506020810184811115620000c357600080fd5b8151856001820283011164010000000082111715620000e157600080fd5b505092919060200180519060200190929190805190602001909291905050508084848482600390805190602001906200011c929190620005b6565b50816004908051906020019062000135929190620005b6565b5080600560006101000a81548160ff021916908360ff1602179055505050506200016e3362000267640100000000026401000000009004565b600081116200017c57600080fd5b806007819055505033600860006101000a81548173ffffffffffffffffffffffffffffffffffffffff021916908373ffffffffffffffffffffffffffffffffffffffff160217905550600860009054906101000a900473ffffffffffffffffffffffffffffffffffffffff1673ffffffffffffffffffffffffffffffffffffffff16600073ffffffffffffffffffffffffffffffffffffffff167f8be0079c531659141344cd1fd0a4f28419497f9722a3daafe3b4186f6b6457e060405160405180910390a36200025c85620002d1640100000000026401000000009004565b505050505062000665565b6200028b816006620003116401000000000262001f43179091906401000000009004565b8073ffffffffffffffffffffffffffffffffffffffff167f6ae172837ea30b801fbfcdd4108aa1d5bf8ff775444fd70256b44e6bf3dfc3f660405160405180910390a250565b620002ea620003d0640100000000026401000000009004565b620002f457600080fd5b6200030e8162000428640100000000026401000000009004565b50565b600073ffffffffffffffffffffffffffffffffffffffff168173ffffffffffffffffffffffffffffffffffffffff1614156200034c57600080fd5b62000367828262000523640100000000026401000000009004565b156200037257600080fd5b60018260000160008373ffffffffffffffffffffffffffffffffffffffff1673ffffffffffffffffffffffffffffffffffffffff16815260200190815260200160002060006101000a81548160ff0219169083151502179055505050565b6000600860009054906101000a900473ffffffffffffffffffffffffffffffffffffffff1673ffffffffffffffffffffffffffffffffffffffff163373ffffffffffffffffffffffffffffffffffffffff1614905090565b600073ffffffffffffffffffffffffffffffffffffffff168173ffffffffffffffffffffffffffffffffffffffff1614156200046357600080fd5b8073ffffffffffffffffffffffffffffffffffffffff16600860009054906101000a900473ffffffffffffffffffffffffffffffffffffffff1673ffffffffffffffffffffffffffffffffffffffff167f8be0079c531659141344cd1fd0a4f28419497f9722a3daafe3b4186f6b6457e060405160405180910390a380600860006101000a81548173ffffffffffffffffffffffffffffffffffffffff021916908373ffffffffffffffffffffffffffffffffffffffff16021790555050565b60008073ffffffffffffffffffffffffffffffffffffffff168273ffffffffffffffffffffffffffffffffffffffff1614156200055f57600080fd5b8260000160008373ffffffffffffffffffffffffffffffffffffffff1673ffffffffffffffffffffffffffffffffffffffff16815260200190815260200160002060009054906101000a900460ff16905092915050565b828054600181600116156101000203166002900490600052602060002090601f016020900481019282601f10620005f957805160ff19168380011785556200062a565b828001600101855582156200062a579182015b82811115620006295782518255916020019190600101906200060c565b5b5090506200063991906200063d565b5090565b6200066291905b808211156200065e57600081600090555060010162000644565b5090565b90565b6120c680620006756000396000f3fe608060405234801561001057600080fd5b506004361061016a576000357c010000000000000000000000000000000000000000000000000000000090048063715018a6116100e057806398650275116100995780639865027514610677578063a457c2d714610681578063a9059cbb146106e7578063aa271e1a1461074d578063dd62ed3e146107a9578063f2fde38b146108215761016a565b8063715018a6146104ec57806379cc6790146104f65780638da5cb5b146105445780638f32d59b1461058e57806395d89b41146105b0578063983b2d56146106335761016a565b8063355274ea11610132578063355274ea14610320578063395093511461033e57806340c10f19146103a457806342966c681461040a5780636883c5a91461043857806370a08231146104945761016a565b806306fdde031461016f578063095ea7b3146101f257806318160ddd1461025857806323b872dd14610276578063313ce567146102fc575b600080fd5b610177610865565b6040518080602001828103825283818151815260200191508051906020019080838360005b838110156101b757808201518184015260208101905061019c565b50505050905090810190601f1680156101e45780820380516001836020036101000a031916815260200191505b509250505060405180910390f35b61023e6004803603604081101561020857600080fd5b81019080803573ffffffffffffffffffffffffffffffffffffffff16906020019092919080359060200190929190505050610907565b604051808215151515815260200191505060405180910390f35b610260610a32565b6040518082815260200191505060405180910390f35b6102e26004803603606081101561028c57600080fd5b81019080803573ffffffffffffffffffffffffffffffffffffffff169060200190929190803573ffffffffffffffffffffffffffffffffffffffff16906020019092919080359060200190929190505050610a3c565b604051808215151515815260200191505060405180910390f35b610304610c44565b604051808260ff1660ff16815260200191505060405180910390f35b610328610c5b565b6040518082815260200191505060405180910390f35b61038a6004803603604081101561035457600080fd5b81019080803573ffffffffffffffffffffffffffffffffffffffff16906020019092919080359060200190929190505050610c65565b604051808215151515815260200191505060405180910390f35b6103f0600480360360408110156103ba57600080fd5b81019080803573ffffffffffffffffffffffffffffffffffffffff16906020019092919080359060200190929190505050610e9a565b604051808215151515815260200191505060405180910390f35b6104366004803603602081101561042057600080fd5b8101908080359060200190929190505050610ec2565b005b61047a6004803603602081101561044e57600080fd5b81019080803573ffffffffffffffffffffffffffffffffffffffff169060200190929190505050610ecf565b604051808215151515815260200191505060405180910390f35b6104d6600480360360208110156104aa57600080fd5b81019080803573ffffffffffffffffffffffffffffffffffffffff1690602001909291905050506110a0565b6040518082815260200191505060405180910390f35b6104f46110e8565b005b6105426004803603604081101561050c57600080fd5b81019080803573ffffffffffffffffffffffffffffffffffffffff169060200190929190803590602001909291905050506111ba565b005b61054c6111c8565b604051808273ffffffffffffffffffffffffffffffffffffffff1673ffffffffffffffffffffffffffffffffffffffff16815260200191505060405180910390f35b6105966111f2565b604051808215151515815260200191505060405180910390f35b6105b861124a565b6040518080602001828103825283818151815260200191508051906020019080838360005b838110156105f85780820151818401526020810190506105dd565b50505050905090810190601f1680156106255780820380516001836020036101000a031916815260200191505b509250505060405180910390f35b6106756004803603602081101561064957600080fd5b81019080803573ffffffffffffffffffffffffffffffffffffffff1690602001909291905050506112ec565b005b61067f61130a565b005b6106cd6004803603604081101561069757600080fd5b81019080803573ffffffffffffffffffffffffffffffffffffffff16906020019092919080359060200190929190505050611315565b604051808215151515815260200191505060405180910390f35b610733600480360360408110156106fd57600080fd5b81019080803573ffffffffffffffffffffffffffffffffffffffff1690602001909291908035906020019092919050505061154a565b604051808215151515815260200191505060405180910390f35b61078f6004803603602081101561076357600080fd5b81019080803573ffffffffffffffffffffffffffffffffffffffff169060200190929190505050611561565b604051808215151515815260200191505060405180910390f35b61080b600480360360408110156107bf57600080fd5b81019080803573ffffffffffffffffffffffffffffffffffffffff169060200190929190803573ffffffffffffffffffffffffffffffffffffffff16906020019092919050505061157e565b6040518082815260200191505060405180910390f35b6108636004803603602081101561083757600080fd5b81019080803573ffffffffffffffffffffffffffffffffffffffff169060200190929190505050611605565b005b606060038054600181600116156101000203166002900480601f0160208091040260200160405190810160405280929190818152602001828054600181600116156101000203166002900480156108fd5780601f106108d2576101008083540402835291602001916108fd565b820191906000526020600020905b8154815290600101906020018083116108e057829003601f168201915b5050505050905090565b60008073ffffffffffffffffffffffffffffffffffffffff168373ffffffffffffffffffffffffffffffffffffffff16141561094257600080fd5b81600160003373ffffffffffffffffffffffffffffffffffffffff1673ffffffffffffffffffffffffffffffffffffffff16815260200190815260200160002060008573ffffffffffffffffffffffffffffffffffffffff1673ffffffffffffffffffffffffffffffffffffffff168152602001908152602001600020819055508273ffffffffffffffffffffffffffffffffffffffff163373ffffffffffffffffffffffffffffffffffffffff167f8c5be1e5ebec7d5bd14f71427d1e84f3dd0314c0f7b2291e5b200ac8c7c3b925846040518082815260200191505060405180910390a36001905092915050565b6000600254905090565b6000610acd82600160008773ffffffffffffffffffffffffffffffffffffffff1673ffffffffffffffffffffffffffffffffffffffff16815260200190815260200160002060003373ffffffffffffffffffffffffffffffffffffffff1673ffffffffffffffffffffffffffffffffffffffff1681526020019081526020016000205461162290919063ffffffff16565b600160008673ffffffffffffffffffffffffffffffffffffffff1673ffffffffffffffffffffffffffffffffffffffff16815260200190815260200160002060003373ffffffffffffffffffffffffffffffffffffffff1673ffffffffffffffffffffffffffffffffffffffff16815260200190815260200160002081905550610b58848484611642565b3373ffffffffffffffffffffffffffffffffffffffff168473ffffffffffffffffffffffffffffffffffffffff167f8c5be1e5ebec7d5bd14f71427d1e84f3dd0314c0f7b2291e5b200ac8c7c3b925600160008873ffffffffffffffffffffffffffffffffffffffff1673ffffffffffffffffffffffffffffffffffffffff16815260200190815260200160002060003373ffffffffffffffffffffffffffffffffffffffff1673ffffffffffffffffffffffffffffffffffffffff168152602001908152602001600020546040518082815260200191505060405180910390a3600190509392505050565b6000600560009054906101000a900460ff16905090565b6000600754905090565b60008073ffffffffffffffffffffffffffffffffffffffff168373ffffffffffffffffffffffffffffffffffffffff161415610ca057600080fd5b610d2f82600160003373ffffffffffffffffffffffffffffffffffffffff1673ffffffffffffffffffffffffffffffffffffffff16815260200190815260200160002060008673ffffffffffffffffffffffffffffffffffffffff1673ffffffffffffffffffffffffffffffffffffffff1681526020019081526020016000205461180c90919063ffffffff16565b600160003373ffffffffffffffffffffffffffffffffffffffff1673ffffffffffffffffffffffffffffffffffffffff16815260200190815260200160002060008573ffffffffffffffffffffffffffffffffffffffff1673ffffffffffffffffffffffffffffffffffffffff168152602001908152602001600020819055508273ffffffffffffffffffffffffffffffffffffffff163373ffffffffffffffffffffffffffffffffffffffff167f8c5be1e5ebec7d5bd14f71427d1e84f3dd0314c0f7b2291e5b200ac8c7c3b925600160003373ffffffffffffffffffffffffffffffffffffffff1673ffffffffffffffffffffffffffffffffffffffff16815260200190815260200160002060008773ffffffffffffffffffffffffffffffffffffffff1673ffffffffffffffffffffffffffffffffffffffff168152602001908152602001600020546040518082815260200191505060405180910390a36001905092915050565b6000610ea533611561565b610eae57600080fd5b610eb8838361182b565b6001905092915050565b610ecc3382611861565b50565b6000610ed96111f2565b610ee257600080fd5b60008290508073ffffffffffffffffffffffffffffffffffffffff1663a9059cbb338373ffffffffffffffffffffffffffffffffffffffff166370a08231306040518263ffffffff167c0100000000000000000000000000000000000000000000000000000000028152600401808273ffffffffffffffffffffffffffffffffffffffff1673ffffffffffffffffffffffffffffffffffffffff16815260200191505060206040518083038186803b158015610f9d57600080fd5b505afa158015610fb1573d6000803e3d6000fd5b505050506040513d6020811015610fc757600080fd5b81019080805190602001909291905050506040518363ffffffff167c0100000000000000000000000000000000000000000000000000000000028152600401808373ffffffffffffffffffffffffffffffffffffffff1673ffffffffffffffffffffffffffffffffffffffff16815260200182815260200192505050602060405180830381600087803b15801561105d57600080fd5b505af1158015611071573d6000803e3d6000fd5b505050506040513d602081101561108757600080fd5b8101908080519060200190929190505050915050919050565b60008060008373ffffffffffffffffffffffffffffffffffffffff1673ffffffffffffffffffffffffffffffffffffffff168152602001908152602001600020549050919050565b6110f06111f2565b6110f957600080fd5b600073ffffffffffffffffffffffffffffffffffffffff16600860009054906101000a900473ffffffffffffffffffffffffffffffffffffffff1673ffffffffffffffffffffffffffffffffffffffff167f8be0079c531659141344cd1fd0a4f28419497f9722a3daafe3b4186f6b6457e060405160405180910390a36000600860006101000a81548173ffffffffffffffffffffffffffffffffffffffff021916908373ffffffffffffffffffffffffffffffffffffffff160217905550565b6111c482826119b3565b5050565b6000600860009054906101000a900473ffffffffffffffffffffffffffffffffffffffff16905090565b6000600860009054906101000a900473ffffffffffffffffffffffffffffffffffffffff1673ffffffffffffffffffffffffffffffffffffffff163373ffffffffffffffffffffffffffffffffffffffff1614905090565b606060048054600181600116156101000203166002900480601f0160208091040260200160405190810160405280929190818152602001828054600181600116156101000203166002900480156112e25780601f106112b7576101008083540402835291602001916112e2565b820191906000526020600020905b8154815290600101906020018083116112c557829003601f168201915b5050505050905090565b6112f533611561565b6112fe57600080fd5b61130781611bb1565b50565b61131333611c0b565b565b60008073ffffffffffffffffffffffffffffffffffffffff168373ffffffffffffffffffffffffffffffffffffffff16141561135057600080fd5b6113df82600160003373ffffffffffffffffffffffffffffffffffffffff1673ffffffffffffffffffffffffffffffffffffffff16815260200190815260200160002060008673ffffffffffffffffffffffffffffffffffffffff1673ffffffffffffffffffffffffffffffffffffffff1681526020019081526020016000205461162290919063ffffffff16565b600160003373ffffffffffffffffffffffffffffffffffffffff1673ffffffffffffffffffffffffffffffffffffffff16815260200190815260200160002060008573ffffffffffffffffffffffffffffffffffffffff1673ffffffffffffffffffffffffffffffffffffffff168152602001908152602001600020819055508273ffffffffffffffffffffffffffffffffffffffff163373ffffffffffffffffffffffffffffffffffffffff167f8c5be1e5ebec7d5bd14f71427d1e84f3dd0314c0f7b2291e5b200ac8c7c3b925600160003373ffffffffffffffffffffffffffffffffffffffff1673ffffffffffffffffffffffffffffffffffffffff16815260200190815260200160002060008773ffffffffffffffffffffffffffffffffffffffff1673ffffffffffffffffffffffffffffffffffffffff168152602001908152602001600020546040518082815260200191505060405180910390a36001905092915050565b6000611557338484611642565b6001905092915050565b6000611577826006611c6590919063ffffffff16565b9050919050565b6000600160008473ffffffffffffffffffffffffffffffffffffffff1673ffffffffffffffffffffffffffffffffffffffff16815260200190815260200160002060008373ffffffffffffffffffffffffffffffffffffffff1673ffffffffffffffffffffffffffffffffffffffff16815260200190815260200160002054905092915050565b61160d6111f2565b61161657600080fd5b61161f81611cf7565b50565b60008282111561163157600080fd5b600082840390508091505092915050565b600073ffffffffffffffffffffffffffffffffffffffff168273ffffffffffffffffffffffffffffffffffffffff16141561167c57600080fd5b6116cd816000808673ffffffffffffffffffffffffffffffffffffffff1673ffffffffffffffffffffffffffffffffffffffff1681526020019081526020016000205461162290919063ffffffff16565b6000808573ffffffffffffffffffffffffffffffffffffffff1673ffffffffffffffffffffffffffffffffffffffff16815260200190815260200160002081905550611760816000808573ffffffffffffffffffffffffffffffffffffffff1673ffffffffffffffffffffffffffffffffffffffff1681526020019081526020016000205461180c90919063ffffffff16565b6000808473ffffffffffffffffffffffffffffffffffffffff1673ffffffffffffffffffffffffffffffffffffffff168152602001908152602001600020819055508173ffffffffffffffffffffffffffffffffffffffff168373ffffffffffffffffffffffffffffffffffffffff167fddf252ad1be2c89b69c2b068fc378daa952ba7f163c4a11628f55a4df523b3ef836040518082815260200191505060405180910390a3505050565b60008082840190508381101561182157600080fd5b8091505092915050565b6007546118488261183a610a32565b61180c90919063ffffffff16565b111561185357600080fd5b61185d8282611df1565b5050565b600073ffffffffffffffffffffffffffffffffffffffff168273ffffffffffffffffffffffffffffffffffffffff16141561189b57600080fd5b6118b08160025461162290919063ffffffff16565b600281905550611907816000808573ffffffffffffffffffffffffffffffffffffffff1673ffffffffffffffffffffffffffffffffffffffff1681526020019081526020016000205461162290919063ffffffff16565b6000808473ffffffffffffffffffffffffffffffffffffffff1673ffffffffffffffffffffffffffffffffffffffff16815260200190815260200160002081905550600073ffffffffffffffffffffffffffffffffffffffff168273ffffffffffffffffffffffffffffffffffffffff167fddf252ad1be2c89b69c2b068fc378daa952ba7f163c4a11628f55a4df523b3ef836040518082815260200191505060405180910390a35050565b611a4281600160008573ffffffffffffffffffffffffffffffffffffffff1673ffffffffffffffffffffffffffffffffffffffff16815260200190815260200160002060003373ffffffffffffffffffffffffffffffffffffffff1673ffffffffffffffffffffffffffffffffffffffff1681526020019081526020016000205461162290919063ffffffff16565b600160008473ffffffffffffffffffffffffffffffffffffffff1673ffffffffffffffffffffffffffffffffffffffff16815260200190815260200160002060003373ffffffffffffffffffffffffffffffffffffffff1673ffffffffffffffffffffffffffffffffffffffff16815260200190815260200160002081905550611acc8282611861565b3373ffffffffffffffffffffffffffffffffffffffff168273ffffffffffffffffffffffffffffffffffffffff167f8c5be1e5ebec7d5bd14f71427d1e84f3dd0314c0f7b2291e5b200ac8c7c3b925600160008673ffffffffffffffffffffffffffffffffffffffff1673ffffffffffffffffffffffffffffffffffffffff16815260200190815260200160002060003373ffffffffffffffffffffffffffffffffffffffff1673ffffffffffffffffffffffffffffffffffffffff168152602001908152602001600020546040518082815260200191505060405180910390a35050565b611bc5816006611f4390919063ffffffff16565b8073ffffffffffffffffffffffffffffffffffffffff167f6ae172837ea30b801fbfcdd4108aa1d5bf8ff775444fd70256b44e6bf3dfc3f660405160405180910390a250565b611c1f816006611fef90919063ffffffff16565b8073ffffffffffffffffffffffffffffffffffffffff167fe94479a9f7e1952cc78f2d6baab678adc1b772d936c6583def489e524cb6669260405160405180910390a250565b60008073ffffffffffffffffffffffffffffffffffffffff168273ffffffffffffffffffffffffffffffffffffffff161415611ca057600080fd5b8260000160008373ffffffffffffffffffffffffffffffffffffffff1673ffffffffffffffffffffffffffffffffffffffff16815260200190815260200160002060009054906101000a900460ff16905092915050565b600073ffffffffffffffffffffffffffffffffffffffff168173ffffffffffffffffffffffffffffffffffffffff161415611d3157600080fd5b8073ffffffffffffffffffffffffffffffffffffffff16600860009054906101000a900473ffffffffffffffffffffffffffffffffffffffff1673ffffffffffffffffffffffffffffffffffffffff167f8be0079c531659141344cd1fd0a4f28419497f9722a3daafe3b4186f6b6457e060405160405180910390a380600860006101000a81548173ffffffffffffffffffffffffffffffffffffffff021916908373ffffffffffffffffffffffffffffffffffffffff16021790555050565b600073ffffffffffffffffffffffffffffffffffffffff168273ffffffffffffffffffffffffffffffffffffffff161415611e2b57600080fd5b611e408160025461180c90919063ffffffff16565b600281905550611e97816000808573ffffffffffffffffffffffffffffffffffffffff1673ffffffffffffffffffffffffffffffffffffffff1681526020019081526020016000205461180c90919063ffffffff16565b6000808473ffffffffffffffffffffffffffffffffffffffff1673ffffffffffffffffffffffffffffffffffffffff168152602001908152602001600020819055508173ffffffffffffffffffffffffffffffffffffffff16600073ffffffffffffffffffffffffffffffffffffffff167fddf252ad1be2c89b69c2b068fc378daa952ba7f163c4a11628f55a4df523b3ef836040518082815260200191505060405180910390a35050565b600073ffffffffffffffffffffffffffffffffffffffff168173ffffffffffffffffffffffffffffffffffffffff161415611f7d57600080fd5b611f878282611c65565b15611f9157600080fd5b60018260000160008373ffffffffffffffffffffffffffffffffffffffff1673ffffffffffffffffffffffffffffffffffffffff16815260200190815260200160002060006101000a81548160ff0219169083151502179055505050565b600073ffffffffffffffffffffffffffffffffffffffff168173ffffffffffffffffffffffffffffffffffffffff16141561202957600080fd5b6120338282611c65565b61203c57600080fd5b60008260000160008373ffffffffffffffffffffffffffffffffffffffff1673ffffffffffffffffffffffffffffffffffffffff16815260200190815260200160002060006101000a81548160ff021916908315150217905550505056fea165627a7a72305820c9a0ed8efac2a48d7deaee8adbac1d064b62a04ca9f7cfe549967e37487313fd0029",
  "source": "pragma solidity ^0.5.0;\n\nimport \"./AsureToken.sol\";\nimport \"./AsureCrowdsale.sol\";\nimport \"openzeppelin-solidity/contracts/drafts/TokenVesting.sol\";\n\ncontract AsureCrowdsaleDeployer is Ownable {\n  AsureToken public token;\n  AsureCrowdsale public presale;\n  AsureCrowdsale public mainsale;\n\n  uint256 private constant decimalFactor = 10 ** uint256(18);\n  uint256 private constant AVAILABLE_TOTAL_SUPPLY = 100000000 * decimalFactor;\n  uint256 private constant AVAILABLE_PRESALE_SUPPLY = 10000000 * decimalFactor; // 10% Released at Token Distribution (TD)\n  uint256 private constant AVAILABLE_MAINSALE_SUPPLY = 35000000 * decimalFactor; // 35% Released at Token Distribution (TD)\n  uint256 private constant AVAILABLE_FOUNDATION_SUPPLY = 35000000 * decimalFactor; // 35% Released at Token Distribution (TD)\n  uint256 private constant AVAILABLE_BOUNTY_SUPPLY = 5000000 * decimalFactor; // 5% Released at TD\n  uint256 private constant AVAILABLE_FAMILYFRIENDS_SUPPLY = 5000000 * decimalFactor; // 5% Released at TD\n  uint256 private constant AVAILABLE_TEAM_SUPPLY = 8000000 * decimalFactor; // 8% Released at TD +2 years\n  uint256 private constant AVAILABLE_ADVISOR_SUPPLY = 2000000 * decimalFactor; // 2% Released at TD +2 years\n\n  constructor(address payable owner)\n  public\n  {\n    transferOwnership(owner);\n    token = new AsureToken(owner, \"AsureToken\", \"ASR\", 18, AVAILABLE_TOTAL_SUPPLY);\n  }\n\n  function mint(\n    address payable foundationWallet,\n    address payable bountyWallet,\n    address payable familyFriendsWallet,\n    address[] memory teamAddr,\n    uint256[] memory teamAmounts,\n    address[] memory advisorAddr,\n    uint256[] memory advisorAmounts\n  ) onlyOwner public returns (bool) {\n    token.mint(foundationWallet, AVAILABLE_FOUNDATION_SUPPLY);\n    token.mint(bountyWallet, AVAILABLE_BOUNTY_SUPPLY);\n    token.mint(familyFriendsWallet, AVAILABLE_FAMILYFRIENDS_SUPPLY);\n    for (uint i = 0; i < teamAddr.length; i++) {\n      token.mint(teamAddr[i], teamAmounts[i] * decimalFactor);\n    }\n    for (uint i = 0; i < advisorAddr.length; i++) {\n      token.mint(advisorAddr[i], advisorAmounts[i] * decimalFactor);\n    }\n\n    require(token.totalSupply() == AVAILABLE_TOTAL_SUPPLY - AVAILABLE_PRESALE_SUPPLY - AVAILABLE_MAINSALE_SUPPLY, \"AVAILABLE_TOTAL_SUPPLY\");\n    return true;\n  }\n\n  function createPreSale(\n    uint256 rate,\n    address payable owner,\n    address payable crowdsaleWallet,\n    uint256 preSaleOpeningTime, // preSale opening time in unix epoch seconds\n    uint256 preSaleClosingTime // preSale closing time in unix epoch seconds\n  ) onlyOwner public returns (bool) {\n    require(address(presale) == address(0), \"mainsale already initialized\");\n\n    presale = new AsureCrowdsale(\n      rate, // rate, in AsureTokens - 1 ETH == 1000 RUHR\n      owner, // owner\n      crowdsaleWallet, // wallet to send Ether\n      token, // the token\n      preSaleOpeningTime, // opening time in unix epoch seconds\n      preSaleClosingTime  // closing time in unix epoch seconds\n    );\n    token.mint(address(presale), AVAILABLE_PRESALE_SUPPLY);\n\n    require(token.totalSupply() == AVAILABLE_TOTAL_SUPPLY - AVAILABLE_MAINSALE_SUPPLY, \"AVAILABLE_TOTAL_SUPPLY\");\n    return true;\n  }\n\n  function createMainSale(\n    uint256 rate,\n    address payable owner,\n    address payable crowdsaleWallet,\n    uint256 mainSaleOpeningTime, // mainSale opening time in unix epoch seconds\n    uint256 mainSaleClosingTime // mainSale closing time in unix epoch seconds\n  ) onlyOwner public returns (bool) {\n    require(address(mainsale) == address(0), \"mainsale already initialized\");\n\n    mainsale = new AsureCrowdsale(\n      rate, // rate, in AsureTokens - 1 ETH == 1000\n      owner, // owner\n      crowdsaleWallet, // wallet to send Ether\n      token, // the token\n      mainSaleOpeningTime, // opening time in unix epoch seconds\n      mainSaleClosingTime  // closing time in unix epoch seconds\n    );\n    token.mint(address(mainsale), AVAILABLE_MAINSALE_SUPPLY);\n\n    require(token.totalSupply() == AVAILABLE_TOTAL_SUPPLY, \"AVAILABLE_TOTAL_SUPPLY\");\n    return true;\n  }\n}\n\n\n",
  "sourcePath": "C:/git/crowdsale/packages/crowdsale/contracts/AsureCrowdsaleDeployer.sol",
  "compiler": {
    "name": "solc",
    "version": "0.5.6+commit.b259423e.Emscripten.clang"
  },
  "schemaVersion": "3.0.2",
  "updatedAt": "2019-03-19T19:48:37.708Z",
  "devdoc": {
    "methods": {
      "isOwner()": {
        "return": "true if `msg.sender` is the owner of the contract."
      },
      "owner()": {
        "return": "the address of the owner."
      },
      "renounceOwnership()": {
        "details": "Allows the current owner to relinquish control of the contract."
      },
      "transferOwnership(address)": {
        "details": "Allows the current owner to transfer control of the contract to a newOwner.",
        "params": {
          "newOwner": "The address to transfer ownership to."
        }
      }
    }
  },
  "userdoc": {
    "methods": {
      "renounceOwnership()": {
        "notice": "Renouncing to ownership will leave the contract without an owner. It will not be possible to call the functions with the `onlyOwner` modifier anymore."
      }
    }
  }
}