{
  "contractName": "AsureTokenVesting",
  "abi": [
    {
      "constant": false,
      "inputs": [],
      "name": "renounceOwnership",
      "outputs": [],
      "payable": false,
      "stateMutability": "nonpayable",
      "type": "function"
    },
    {
      "constant": true,
      "inputs": [
        {
          "name": "",
          "type": "uint256"
        }
      ],
      "name": "vestings",
      "outputs": [
        {
          "name": "releaseTime",
          "type": "uint256"
        },
        {
          "name": "amount",
          "type": "uint256"
        },
        {
          "name": "beneficiary",
          "type": "address"
        },
        {
          "name": "released",
          "type": "bool"
        }
      ],
      "payable": false,
      "stateMutability": "view",
      "type": "function"
    },
    {
      "constant": true,
      "inputs": [],
      "name": "owner",
      "outputs": [
        {
          "name": "",
          "type": "address"
        }
      ],
      "payable": false,
      "stateMutability": "view",
      "type": "function"
    },
    {
      "constant": true,
      "inputs": [],
      "name": "isOwner",
      "outputs": [
        {
          "name": "",
          "type": "bool"
        }
      ],
      "payable": false,
      "stateMutability": "view",
      "type": "function"
    },
    {
      "constant": false,
      "inputs": [
        {
          "name": "newOwner",
          "type": "address"
        }
      ],
      "name": "transferOwnership",
      "outputs": [],
      "payable": false,
      "stateMutability": "nonpayable",
      "type": "function"
    },
    {
      "inputs": [
        {
          "name": "token",
          "type": "address"
        }
      ],
      "payable": false,
      "stateMutability": "nonpayable",
      "type": "constructor"
    },
    {
      "anonymous": false,
      "inputs": [
        {
          "indexed": true,
          "name": "beneficiary",
          "type": "address"
        },
        {
          "indexed": true,
          "name": "_vestingId",
          "type": "uint256"
        },
        {
          "indexed": false,
          "name": "amount",
          "type": "uint256"
        }
      ],
      "name": "TokensReleased",
      "type": "event"
    },
    {
      "anonymous": false,
      "inputs": [
        {
          "indexed": true,
          "name": "beneficiary",
          "type": "address"
        },
        {
          "indexed": true,
          "name": "_vestingId",
          "type": "uint256"
        },
        {
          "indexed": false,
          "name": "amount",
          "type": "uint256"
        }
      ],
      "name": "TokensVesting",
      "type": "event"
    },
    {
      "anonymous": false,
      "inputs": [
        {
          "indexed": true,
          "name": "previousOwner",
          "type": "address"
        },
        {
          "indexed": true,
          "name": "newOwner",
          "type": "address"
        }
      ],
      "name": "OwnershipTransferred",
      "type": "event"
    },
    {
      "constant": true,
      "inputs": [],
      "name": "token",
      "outputs": [
        {
          "name": "",
          "type": "address"
        }
      ],
      "payable": false,
      "stateMutability": "view",
      "type": "function"
    },
    {
      "constant": true,
      "inputs": [
        {
          "name": "_vestingId",
          "type": "uint256"
        }
      ],
      "name": "beneficiary",
      "outputs": [
        {
          "name": "",
          "type": "address"
        }
      ],
      "payable": false,
      "stateMutability": "view",
      "type": "function"
    },
    {
      "constant": true,
      "inputs": [
        {
          "name": "_vestingId",
          "type": "uint256"
        }
      ],
      "name": "releaseTime",
      "outputs": [
        {
          "name": "",
          "type": "uint256"
        }
      ],
      "payable": false,
      "stateMutability": "view",
      "type": "function"
    },
    {
      "constant": true,
      "inputs": [
        {
          "name": "_vestingId",
          "type": "uint256"
        }
      ],
      "name": "vestingAmount",
      "outputs": [
        {
          "name": "",
          "type": "uint256"
        }
      ],
      "payable": false,
      "stateMutability": "view",
      "type": "function"
    },
    {
      "constant": false,
      "inputs": [
        {
          "name": "_beneficiary",
          "type": "address"
        },
        {
          "name": "_releaseTime",
          "type": "uint256"
        },
        {
          "name": "_amount",
          "type": "uint256"
        }
      ],
      "name": "addVesting",
      "outputs": [],
      "payable": false,
      "stateMutability": "nonpayable",
      "type": "function"
    },
    {
      "constant": false,
      "inputs": [
        {
          "name": "_vestingId",
          "type": "uint256"
        }
      ],
      "name": "release",
      "outputs": [],
      "payable": false,
      "stateMutability": "nonpayable",
      "type": "function"
    }
  ],
  "bytecode": "0x6080604052600060025534801561001557600080fd5b50604051610e19380380610e198339818101604052602081101561003857600080fd5b8101908080519060200190929190505050336000806101000a81548173ffffffffffffffffffffffffffffffffffffffff021916908373ffffffffffffffffffffffffffffffffffffffff1602179055506000809054906101000a900473ffffffffffffffffffffffffffffffffffffffff1673ffffffffffffffffffffffffffffffffffffffff16600073ffffffffffffffffffffffffffffffffffffffff167f8be0079c531659141344cd1fd0a4f28419497f9722a3daafe3b4186f6b6457e060405160405180910390a380600160006101000a81548173ffffffffffffffffffffffffffffffffffffffff021916908373ffffffffffffffffffffffffffffffffffffffff16021790555050610cc3806101566000396000f3fe608060405234801561001057600080fd5b50600436106100c6576000357c010000000000000000000000000000000000000000000000000000000090048063715018a61161008e578063715018a614610243578063821bee731461024d5780638da5cb5b146102d45780638f32d59b1461031e578063f2fde38b14610340578063fc0c546a14610384576100c6565b806307ad23ef146100cb57806309c4bb2b1461010d57806337bdc99b1461014f5780634691a9981461017d5780635daa3160146101d5575b600080fd5b6100f7600480360360208110156100e157600080fd5b81019080803590602001909291905050506103ce565b6040518082815260200191505060405180910390f35b6101396004803603602081101561012357600080fd5b81019080803590602001909291905050506103ee565b6040518082815260200191505060405180910390f35b61017b6004803603602081101561016557600080fd5b810190808035906020019092919050505061040e565b005b6101d36004803603606081101561019357600080fd5b81019080803573ffffffffffffffffffffffffffffffffffffffff1690602001909291908035906020019092919080359060200190929190505050610736565b005b610201600480360360208110156101eb57600080fd5b8101908080359060200190929190505050610876565b604051808273ffffffffffffffffffffffffffffffffffffffff1673ffffffffffffffffffffffffffffffffffffffff16815260200191505060405180910390f35b61024b6108b6565b005b6102796004803603602081101561026357600080fd5b8101908080359060200190929190505050610986565b604051808581526020018481526020018373ffffffffffffffffffffffffffffffffffffffff1673ffffffffffffffffffffffffffffffffffffffff1681526020018215151515815260200194505050505060405180910390f35b6102dc6109e3565b604051808273ffffffffffffffffffffffffffffffffffffffff1673ffffffffffffffffffffffffffffffffffffffff16815260200191505060405180910390f35b610326610a0c565b604051808215151515815260200191505060405180910390f35b6103826004803603602081101561035657600080fd5b81019080803573ffffffffffffffffffffffffffffffffffffffff169060200190929190505050610a63565b005b61038c610a80565b604051808273ffffffffffffffffffffffffffffffffffffffff1673ffffffffffffffffffffffffffffffffffffffff16815260200191505060405180910390f35b600060036000838152602001908152602001600020600101549050919050565b600060036000838152602001908152602001600020600001549050919050565b600073ffffffffffffffffffffffffffffffffffffffff166003600083815260200190815260200160002060020160009054906101000a900473ffffffffffffffffffffffffffffffffffffffff1673ffffffffffffffffffffffffffffffffffffffff16141580156104a257506003600082815260200190815260200160002060020160149054906101000a900460ff16155b6104ab57600080fd5b60036000828152602001908152602001600020600001544210156104ce57600080fd5b6000600160009054906101000a900473ffffffffffffffffffffffffffffffffffffffff1673ffffffffffffffffffffffffffffffffffffffff166370a08231306040518263ffffffff167c0100000000000000000000000000000000000000000000000000000000028152600401808273ffffffffffffffffffffffffffffffffffffffff1673ffffffffffffffffffffffffffffffffffffffff16815260200191505060206040518083038186803b15801561058b57600080fd5b505afa15801561059f573d6000803e3d6000fd5b505050506040513d60208110156105b557600080fd5b8101908080519060200190929190505050116105d057600080fd5b60016003600083815260200190815260200160002060020160146101000a81548160ff0219169083151502179055506106986003600083815260200190815260200160002060020160009054906101000a900473ffffffffffffffffffffffffffffffffffffffff166003600084815260200190815260200160002060010154600160009054906101000a900473ffffffffffffffffffffffffffffffffffffffff1673ffffffffffffffffffffffffffffffffffffffff16610aaa9092919063ffffffff16565b806003600083815260200190815260200160002060020160009054906101000a900473ffffffffffffffffffffffffffffffffffffffff1673ffffffffffffffffffffffffffffffffffffffff167fc5c52c2a9175470464d5ea4429889e7df2ea88630a3d32f4d0d3d2d44865621060036000858152602001908152602001600020600101546040518082815260200191505060405180910390a350565b61073e610a0c565b61074757600080fd5b60016002540160028190555060405180608001604052808381526020018281526020018473ffffffffffffffffffffffffffffffffffffffff16815260200160001515815250600360006002548152602001908152602001600020600082015181600001556020820151816001015560408201518160020160006101000a81548173ffffffffffffffffffffffffffffffffffffffff021916908373ffffffffffffffffffffffffffffffffffffffff16021790555060608201518160020160146101000a81548160ff0219169083151502179055509050506002548373ffffffffffffffffffffffffffffffffffffffff167f05fbb6d3965dbf10ec77a853b726ddddf987d3f05620490c5910c1c48d9de743836040518082815260200191505060405180910390a3505050565b60006003600083815260200190815260200160002060020160009054906101000a900473ffffffffffffffffffffffffffffffffffffffff169050919050565b6108be610a0c565b6108c757600080fd5b600073ffffffffffffffffffffffffffffffffffffffff166000809054906101000a900473ffffffffffffffffffffffffffffffffffffffff1673ffffffffffffffffffffffffffffffffffffffff167f8be0079c531659141344cd1fd0a4f28419497f9722a3daafe3b4186f6b6457e060405160405180910390a360008060006101000a81548173ffffffffffffffffffffffffffffffffffffffff021916908373ffffffffffffffffffffffffffffffffffffffff160217905550565b60036020528060005260406000206000915090508060000154908060010154908060020160009054906101000a900473ffffffffffffffffffffffffffffffffffffffff16908060020160149054906101000a900460ff16905084565b60008060009054906101000a900473ffffffffffffffffffffffffffffffffffffffff16905090565b60008060009054906101000a900473ffffffffffffffffffffffffffffffffffffffff1673ffffffffffffffffffffffffffffffffffffffff163373ffffffffffffffffffffffffffffffffffffffff1614905090565b610a6b610a0c565b610a7457600080fd5b610a7d81610b96565b50565b6000600160009054906101000a900473ffffffffffffffffffffffffffffffffffffffff16905090565b8273ffffffffffffffffffffffffffffffffffffffff1663a9059cbb83836040518363ffffffff167c0100000000000000000000000000000000000000000000000000000000028152600401808373ffffffffffffffffffffffffffffffffffffffff1673ffffffffffffffffffffffffffffffffffffffff16815260200182815260200192505050602060405180830381600087803b158015610b4d57600080fd5b505af1158015610b61573d6000803e3d6000fd5b505050506040513d6020811015610b7757600080fd5b8101908080519060200190929190505050610b9157600080fd5b505050565b600073ffffffffffffffffffffffffffffffffffffffff168173ffffffffffffffffffffffffffffffffffffffff161415610bd057600080fd5b8073ffffffffffffffffffffffffffffffffffffffff166000809054906101000a900473ffffffffffffffffffffffffffffffffffffffff1673ffffffffffffffffffffffffffffffffffffffff167f8be0079c531659141344cd1fd0a4f28419497f9722a3daafe3b4186f6b6457e060405160405180910390a3806000806101000a81548173ffffffffffffffffffffffffffffffffffffffff021916908373ffffffffffffffffffffffffffffffffffffffff1602179055505056fea265627a7a723058204468d42314d6d4848386251aed14b70551eeb63c2e14658abaa1d044727bbfb564736f6c634300050a0032",
  "source": "pragma solidity ^0.5.0;\r\n\r\nimport \"openzeppelin-solidity/contracts/token/ERC20/IERC20.sol\";\r\nimport \"openzeppelin-solidity/contracts/token/ERC20/ERC20.sol\";\r\nimport \"openzeppelin-solidity/contracts/token/ERC20/SafeERC20.sol\";\r\nimport \"openzeppelin-solidity/contracts/ownership/Ownable.sol\";\r\nimport \"openzeppelin-solidity/contracts/math/SafeMath.sol\";\r\n\r\n\r\n/**\r\n * @title AsureTokenVesting\r\n * @dev A token holder contract that can release its token balance gradually like a\r\n * typical vesting scheme, with vesting period.\r\n */\r\ncontract AsureTokenVesting is Ownable {\r\n  using SafeMath for uint256;\r\n  using SafeERC20 for IERC20;\r\n\r\n  IERC20 private _token;\r\n  uint256 internal vestingId = 0;\r\n\r\n  struct vesting {\r\n    uint256 releaseTime;\r\n    uint256 amount;\r\n    address beneficiary;\r\n    bool released;\r\n  }\r\n  mapping(uint256 => vesting) public vestings;\r\n\r\n  event TokensReleased(address indexed beneficiary, uint256 indexed _vestingId, uint256 amount);\r\n  event TokensVesting(address indexed beneficiary, uint256 indexed _vestingId, uint256 amount);\r\n\r\n  constructor (IERC20 token) public {\r\n    _token = token;\r\n  }\r\n\r\n  function token() public view returns (IERC20) {\r\n    return _token;\r\n  }\r\n\r\n  function beneficiary(uint256 _vestingId) public view returns (address) {\r\n    return vestings[_vestingId].beneficiary;\r\n  }\r\n\r\n  function releaseTime(uint256 _vestingId) public view returns (uint256) {\r\n    return vestings[_vestingId].releaseTime;\r\n  }\r\n\r\n  function vestingAmount(uint256 _vestingId) public view returns (uint256) {\r\n    return vestings[_vestingId].amount;\r\n  }\r\n\r\n  function addVesting(address _beneficiary, uint256 _releaseTime, uint256 _amount) public onlyOwner {\r\n    vestingId = vestingId + 1;\r\n    vestings[vestingId] = vesting({\r\n      beneficiary: _beneficiary,\r\n      releaseTime: _releaseTime,\r\n      amount: _amount,\r\n      released: false\r\n      });\r\n    emit TokensVesting(_beneficiary, vestingId, _amount);\r\n  }\r\n\r\n  function release(uint256 _vestingId) public {\r\n    // solhint-disable-next-line not-rely-on-time\r\n    require(vestings[_vestingId].beneficiary != address(0x0) && !vestings[_vestingId].released);\r\n    require(block.timestamp >= vestings[_vestingId].releaseTime);\r\n\r\n    require(_token.balanceOf(address(this)) > 0);\r\n    vestings[_vestingId].released = true;\r\n    _token.safeTransfer(vestings[_vestingId].beneficiary, vestings[_vestingId].amount);\r\n    emit TokensReleased(vestings[_vestingId].beneficiary,_vestingId, vestings[_vestingId].amount);\r\n  }\r\n}\r\n",
  "sourcePath": "C:/git/crowdsale/packages/crowdsale/contracts/AsureTokenVesting.sol",
  "compiler": {
    "name": "solc",
    "version": "0.5.10+commit.5a6ea5b1.Emscripten.clang"
  },
  "schemaVersion": "3.0.3",
  "updatedAt": "2019-07-23T10:33:35.604Z",
  "devdoc": {
    "details": "A token holder contract that can release its token balance gradually like a\r typical vesting scheme, with vesting period.\r",
    "methods": {
      "isOwner()": {
        "return": "true if `msg.sender` is the owner of the contract."
      },
      "owner()": {
        "return": "the address of the owner."
      },
      "renounceOwnership()": {
        "details": "Allows the current owner to relinquish control of the contract."
      },
      "transferOwnership(address)": {
        "details": "Allows the current owner to transfer control of the contract to a newOwner.",
        "params": {
          "newOwner": "The address to transfer ownership to."
        }
      }
    },
    "title": "AsureTokenVesting\r"
  },
  "userdoc": {
    "methods": {
      "renounceOwnership()": {
        "notice": "Renouncing to ownership will leave the contract without an owner. It will not be possible to call the functions with the `onlyOwner` modifier anymore."
      }
    }
  }
}