{
  "contractName": "AsureCrowdsale",
  "abi": [
    {
      "constant": false,
      "inputs": [
        {
          "name": "account",
          "type": "address"
        }
      ],
      "name": "addWhitelisted",
      "outputs": [],
      "payable": false,
      "stateMutability": "nonpayable",
      "type": "function"
    },
    {
      "constant": true,
      "inputs": [],
      "name": "hasClosed",
      "outputs": [
        {
          "name": "",
          "type": "bool"
        }
      ],
      "payable": false,
      "stateMutability": "view",
      "type": "function"
    },
    {
      "constant": true,
      "inputs": [],
      "name": "defaultRate",
      "outputs": [
        {
          "name": "",
          "type": "uint256"
        }
      ],
      "payable": false,
      "stateMutability": "view",
      "type": "function"
    },
    {
      "constant": false,
      "inputs": [
        {
          "name": "account",
          "type": "address"
        }
      ],
      "name": "removeWhitelisted",
      "outputs": [],
      "payable": false,
      "stateMutability": "nonpayable",
      "type": "function"
    },
    {
      "constant": true,
      "inputs": [],
      "name": "rate",
      "outputs": [
        {
          "name": "",
          "type": "uint256"
        }
      ],
      "payable": false,
      "stateMutability": "view",
      "type": "function"
    },
    {
      "constant": true,
      "inputs": [
        {
          "name": "account",
          "type": "address"
        }
      ],
      "name": "isWhitelisted",
      "outputs": [
        {
          "name": "",
          "type": "bool"
        }
      ],
      "payable": false,
      "stateMutability": "view",
      "type": "function"
    },
    {
      "constant": true,
      "inputs": [],
      "name": "weiRaised",
      "outputs": [
        {
          "name": "",
          "type": "uint256"
        }
      ],
      "payable": false,
      "stateMutability": "view",
      "type": "function"
    },
    {
      "constant": true,
      "inputs": [],
      "name": "isOpen",
      "outputs": [
        {
          "name": "",
          "type": "bool"
        }
      ],
      "payable": false,
      "stateMutability": "view",
      "type": "function"
    },
    {
      "constant": true,
      "inputs": [],
      "name": "closingTime",
      "outputs": [
        {
          "name": "",
          "type": "uint256"
        }
      ],
      "payable": false,
      "stateMutability": "view",
      "type": "function"
    },
    {
      "constant": false,
      "inputs": [],
      "name": "renounceWhitelistAdmin",
      "outputs": [],
      "payable": false,
      "stateMutability": "nonpayable",
      "type": "function"
    },
    {
      "constant": true,
      "inputs": [],
      "name": "wallet",
      "outputs": [
        {
          "name": "",
          "type": "address"
        }
      ],
      "payable": false,
      "stateMutability": "view",
      "type": "function"
    },
    {
      "constant": true,
      "inputs": [],
      "name": "bonusRate",
      "outputs": [
        {
          "name": "",
          "type": "uint256"
        }
      ],
      "payable": false,
      "stateMutability": "view",
      "type": "function"
    },
    {
      "constant": false,
      "inputs": [],
      "name": "renounceOwnership",
      "outputs": [],
      "payable": false,
      "stateMutability": "nonpayable",
      "type": "function"
    },
    {
      "constant": false,
      "inputs": [
        {
          "name": "account",
          "type": "address"
        }
      ],
      "name": "addWhitelistAdmin",
      "outputs": [],
      "payable": false,
      "stateMutability": "nonpayable",
      "type": "function"
    },
    {
      "constant": true,
      "inputs": [],
      "name": "owner",
      "outputs": [
        {
          "name": "",
          "type": "address"
        }
      ],
      "payable": false,
      "stateMutability": "view",
      "type": "function"
    },
    {
      "constant": true,
      "inputs": [],
      "name": "isOwner",
      "outputs": [
        {
          "name": "",
          "type": "bool"
        }
      ],
      "payable": false,
      "stateMutability": "view",
      "type": "function"
    },
    {
      "constant": true,
      "inputs": [],
      "name": "openingTime",
      "outputs": [
        {
          "name": "",
          "type": "uint256"
        }
      ],
      "payable": false,
      "stateMutability": "view",
      "type": "function"
    },
    {
      "constant": true,
      "inputs": [],
      "name": "bonusTime",
      "outputs": [
        {
          "name": "",
          "type": "uint256"
        }
      ],
      "payable": false,
      "stateMutability": "view",
      "type": "function"
    },
    {
      "constant": true,
      "inputs": [
        {
          "name": "account",
          "type": "address"
        }
      ],
      "name": "isWhitelistAdmin",
      "outputs": [
        {
          "name": "",
          "type": "bool"
        }
      ],
      "payable": false,
      "stateMutability": "view",
      "type": "function"
    },
    {
      "constant": false,
      "inputs": [
        {
          "name": "newBonusRate",
          "type": "uint256"
        },
        {
          "name": "newBonusTime",
          "type": "uint256"
        },
        {
          "name": "newDefaultRate",
          "type": "uint256"
        }
      ],
      "name": "updateRates",
      "outputs": [],
      "payable": false,
      "stateMutability": "nonpayable",
      "type": "function"
    },
    {
      "constant": false,
      "inputs": [],
      "name": "renounceWhitelisted",
      "outputs": [],
      "payable": false,
      "stateMutability": "nonpayable",
      "type": "function"
    },
    {
      "constant": false,
      "inputs": [
        {
          "name": "beneficiary",
          "type": "address"
        }
      ],
      "name": "buyTokens",
      "outputs": [],
      "payable": true,
      "stateMutability": "payable",
      "type": "function"
    },
    {
      "constant": false,
      "inputs": [
        {
          "name": "newOwner",
          "type": "address"
        }
      ],
      "name": "transferOwnership",
      "outputs": [],
      "payable": false,
      "stateMutability": "nonpayable",
      "type": "function"
    },
    {
      "constant": true,
      "inputs": [],
      "name": "getCurrentRate",
      "outputs": [
        {
          "name": "",
          "type": "uint256"
        }
      ],
      "payable": false,
      "stateMutability": "view",
      "type": "function"
    },
    {
      "constant": true,
      "inputs": [],
      "name": "token",
      "outputs": [
        {
          "name": "",
          "type": "address"
        }
      ],
      "payable": false,
      "stateMutability": "view",
      "type": "function"
    },
    {
      "inputs": [
        {
          "name": "bonusRate",
          "type": "uint256"
        },
        {
          "name": "bonusTime",
          "type": "uint256"
        },
        {
          "name": "defaultRate",
          "type": "uint256"
        },
        {
          "name": "owner",
          "type": "address"
        },
        {
          "name": "wallet",
          "type": "address"
        },
        {
          "name": "token",
          "type": "address"
        },
        {
          "name": "openingTime",
          "type": "uint256"
        },
        {
          "name": "closingTime",
          "type": "uint256"
        }
      ],
      "payable": false,
      "stateMutability": "nonpayable",
      "type": "constructor"
    },
    {
      "payable": true,
      "stateMutability": "payable",
      "type": "fallback"
    },
    {
      "anonymous": false,
      "inputs": [
        {
          "indexed": false,
          "name": "bonusRate",
          "type": "uint256"
        },
        {
          "indexed": false,
          "name": "bonusTime",
          "type": "uint256"
        },
        {
          "indexed": false,
          "name": "defaultRate",
          "type": "uint256"
        }
      ],
      "name": "RatesUpdated",
      "type": "event"
    },
    {
      "anonymous": false,
      "inputs": [
        {
          "indexed": true,
          "name": "previousOwner",
          "type": "address"
        },
        {
          "indexed": true,
          "name": "newOwner",
          "type": "address"
        }
      ],
      "name": "OwnershipTransferred",
      "type": "event"
    },
    {
      "anonymous": false,
      "inputs": [
        {
          "indexed": true,
          "name": "purchaser",
          "type": "address"
        },
        {
          "indexed": true,
          "name": "beneficiary",
          "type": "address"
        },
        {
          "indexed": false,
          "name": "value",
          "type": "uint256"
        },
        {
          "indexed": false,
          "name": "amount",
          "type": "uint256"
        }
      ],
      "name": "TokensPurchased",
      "type": "event"
    },
    {
      "anonymous": false,
      "inputs": [
        {
          "indexed": true,
          "name": "account",
          "type": "address"
        }
      ],
      "name": "WhitelistedAdded",
      "type": "event"
    },
    {
      "anonymous": false,
      "inputs": [
        {
          "indexed": true,
          "name": "account",
          "type": "address"
        }
      ],
      "name": "WhitelistedRemoved",
      "type": "event"
    },
    {
      "anonymous": false,
      "inputs": [
        {
          "indexed": true,
          "name": "account",
          "type": "address"
        }
      ],
      "name": "WhitelistAdminAdded",
      "type": "event"
    },
    {
      "anonymous": false,
      "inputs": [
        {
          "indexed": true,
          "name": "account",
          "type": "address"
        }
      ],
      "name": "WhitelistAdminRemoved",
      "type": "event"
    },
    {
      "constant": false,
      "inputs": [
        {
          "name": "accounts",
          "type": "address[]"
        }
      ],
      "name": "addWhitelistedAccounts",
      "outputs": [],
      "payable": false,
      "stateMutability": "nonpayable",
      "type": "function"
    },
    {
      "constant": false,
      "inputs": [],
      "name": "burn",
      "outputs": [],
      "payable": false,
      "stateMutability": "nonpayable",
      "type": "function"
    }
  ],
  "bytecode": "0x60806040523480156200001157600080fd5b506040516101008062001ed183398101806040526101008110156200003557600080fd5b81019080805190602001909291908051906020019092919080519060200190929190805190602001909291908051906020019092919080519060200190929190805190602001909291908051906020019092919050505087878787858560018a8a620000b03362000333640100000000026401000000009004565b600160028190555060008311620000c657600080fd5b600073ffffffffffffffffffffffffffffffffffffffff168273ffffffffffffffffffffffffffffffffffffffff1614156200010157600080fd5b600073ffffffffffffffffffffffffffffffffffffffff168173ffffffffffffffffffffffffffffffffffffffff1614156200013c57600080fd5b8260058190555081600460006101000a81548173ffffffffffffffffffffffffffffffffffffffff021916908373ffffffffffffffffffffffffffffffffffffffff16021790555080600360006101000a81548173ffffffffffffffffffffffffffffffffffffffff021916908373ffffffffffffffffffffffffffffffffffffffff16021790555050505042821015620001d657600080fd5b818111620001e357600080fd5b8160078190555080600881905550505033600960006101000a81548173ffffffffffffffffffffffffffffffffffffffff021916908373ffffffffffffffffffffffffffffffffffffffff160217905550600960009054906101000a900473ffffffffffffffffffffffffffffffffffffffff1673ffffffffffffffffffffffffffffffffffffffff16600073ffffffffffffffffffffffffffffffffffffffff167f8be0079c531659141344cd1fd0a4f28419497f9722a3daafe3b4186f6b6457e060405160405180910390a3620002cd8484846200039d640100000000026401000000009004565b620002e781620004d4640100000000026401000000009004565b50505050620003058562000514640100000000026401000000009004565b6200032557620003248562000541640100000000026401000000009004565b5b505050505050505062000863565b620003578160006200058264010000000002620013a3179091906401000000009004565b8073ffffffffffffffffffffffffffffffffffffffff167f22380c05984257a1cb900161c713dd71d39e74820f1aea43bd3f1bdd2096129960405160405180910390a250565b620003b662000641640100000000026401000000009004565b620003c057600080fd5b620003d962000699640100000000026401000000009004565b158015620003fd5750620003fb620006b5640100000000026401000000009004565b155b6200040757600080fd5b600083116200041557600080fd5b6200042e620006c1640100000000026401000000009004565b821015801562000455575062000452620006cb640100000000026401000000009004565b82105b6200045f57600080fd5b600081116200046d57600080fd5b82600a8190555081600b8190555080600c819055507f023010bc68e7f4c0be9887f513c570c7a0f5f511b9716abccd42bf3b8943532b600a54600b54600c5460405180848152602001838152602001828152602001935050505060405180910390a1505050565b620004ed62000641640100000000026401000000009004565b620004f757600080fd5b6200051181620006d5640100000000026401000000009004565b50565b60006200053a826000620007d064010000000002620010b9179091906401000000009004565b9050919050565b6200055b3362000514640100000000026401000000009004565b6200056557600080fd5b6200057f8162000333640100000000026401000000009004565b50565b600073ffffffffffffffffffffffffffffffffffffffff168173ffffffffffffffffffffffffffffffffffffffff161415620005bd57600080fd5b620005d88282620007d0640100000000026401000000009004565b15620005e357600080fd5b60018260000160008373ffffffffffffffffffffffffffffffffffffffff1673ffffffffffffffffffffffffffffffffffffffff16815260200190815260200160002060006101000a81548160ff0219169083151502179055505050565b6000600960009054906101000a900473ffffffffffffffffffffffffffffffffffffffff1673ffffffffffffffffffffffffffffffffffffffff163373ffffffffffffffffffffffffffffffffffffffff1614905090565b60006007544210158015620006b057506008544211155b905090565b60006008544211905090565b6000600754905090565b6000600854905090565b600073ffffffffffffffffffffffffffffffffffffffff168173ffffffffffffffffffffffffffffffffffffffff1614156200071057600080fd5b8073ffffffffffffffffffffffffffffffffffffffff16600960009054906101000a900473ffffffffffffffffffffffffffffffffffffffff1673ffffffffffffffffffffffffffffffffffffffff167f8be0079c531659141344cd1fd0a4f28419497f9722a3daafe3b4186f6b6457e060405160405180910390a380600960006101000a81548173ffffffffffffffffffffffffffffffffffffffff021916908373ffffffffffffffffffffffffffffffffffffffff16021790555050565b60008073ffffffffffffffffffffffffffffffffffffffff168273ffffffffffffffffffffffffffffffffffffffff1614156200080c57600080fd5b8260000160008373ffffffffffffffffffffffffffffffffffffffff1673ffffffffffffffffffffffffffffffffffffffff16815260200190815260200160002060009054906101000a900460ff16905092915050565b61165e80620008736000396000f3fe6080604052600436106101b9576000357c0100000000000000000000000000000000000000000000000000000000900480635af123f411610109578063bb5f747b116100a7578063ec8ac4d811610081578063ec8ac4d814610761578063f2fde38b146107a5578063f7fb07b0146107f6578063fc0c546a14610821576101b9565b8063bb5f747b14610692578063c0f3622c146106fb578063d6cd94731461074a576101b9565b80638da5cb5b116100e35780638da5cb5b146105b65780638f32d59b1461060d578063b7a8807c1461063c578063b82a0ce814610667576101b9565b80635af123f414610523578063715018a61461054e5780637362d9c814610565576101b9565b80633af32abf1161017657806347535d7b1161015057806347535d7b1461045b5780634b6753bc1461048a5780634c5a628c146104b5578063521eb273146104cc576101b9565b80633af32abf146103b05780634042b66f1461041957806344df8e7014610444576101b9565b806310154bad146101c45780631515bc2b146102155780632616501d14610244578063291d95491461026f5780632a4bc321146102c05780632c4e722e14610385575b6101c233610878565b005b3480156101d057600080fd5b50610213600480360360208110156101e757600080fd5b81019080803573ffffffffffffffffffffffffffffffffffffffff16906020019092919050505061096e565b005b34801561022157600080fd5b5061022a61098c565b604051808215151515815260200191505060405180910390f35b34801561025057600080fd5b50610259610998565b6040518082815260200191505060405180910390f35b34801561027b57600080fd5b506102be6004803603602081101561029257600080fd5b81019080803573ffffffffffffffffffffffffffffffffffffffff1690602001909291905050506109a2565b005b3480156102cc57600080fd5b50610383600480360360208110156102e357600080fd5b810190808035906020019064010000000081111561030057600080fd5b82018360208201111561031257600080fd5b8035906020019184602083028401116401000000008311171561033457600080fd5b919080806020026020016040519081016040528093929190818152602001838360200280828437600081840152601f19601f8201169050808301925050505050505091929192905050506109c0565b005b34801561039157600080fd5b5061039a610a0e565b6040518082815260200191505060405180910390f35b3480156103bc57600080fd5b506103ff600480360360208110156103d357600080fd5b81019080803573ffffffffffffffffffffffffffffffffffffffff169060200190929190505050610a15565b604051808215151515815260200191505060405180910390f35b34801561042557600080fd5b5061042e610a32565b6040518082815260200191505060405180910390f35b34801561045057600080fd5b50610459610a3c565b005b34801561046757600080fd5b50610470610bb6565b604051808215151515815260200191505060405180910390f35b34801561049657600080fd5b5061049f610bd1565b6040518082815260200191505060405180910390f35b3480156104c157600080fd5b506104ca610bdb565b005b3480156104d857600080fd5b506104e1610be6565b604051808273ffffffffffffffffffffffffffffffffffffffff1673ffffffffffffffffffffffffffffffffffffffff16815260200191505060405180910390f35b34801561052f57600080fd5b50610538610c10565b6040518082815260200191505060405180910390f35b34801561055a57600080fd5b50610563610c1a565b005b34801561057157600080fd5b506105b46004803603602081101561058857600080fd5b81019080803573ffffffffffffffffffffffffffffffffffffffff169060200190929190505050610cec565b005b3480156105c257600080fd5b506105cb610d0a565b604051808273ffffffffffffffffffffffffffffffffffffffff1673ffffffffffffffffffffffffffffffffffffffff16815260200191505060405180910390f35b34801561061957600080fd5b50610622610d34565b604051808215151515815260200191505060405180910390f35b34801561064857600080fd5b50610651610d8c565b6040518082815260200191505060405180910390f35b34801561067357600080fd5b5061067c610d96565b6040518082815260200191505060405180910390f35b34801561069e57600080fd5b506106e1600480360360208110156106b557600080fd5b81019080803573ffffffffffffffffffffffffffffffffffffffff169060200190929190505050610da0565b604051808215151515815260200191505060405180910390f35b34801561070757600080fd5b506107486004803603606081101561071e57600080fd5b81019080803590602001909291908035906020019092919080359060200190929190505050610dbd565b005b34801561075657600080fd5b5061075f610e98565b005b6107a36004803603602081101561077757600080fd5b81019080803573ffffffffffffffffffffffffffffffffffffffff169060200190929190505050610878565b005b3480156107b157600080fd5b506107f4600480360360208110156107c857600080fd5b81019080803573ffffffffffffffffffffffffffffffffffffffff169060200190929190505050610ea3565b005b34801561080257600080fd5b5061080b610ec0565b6040518082815260200191505060405180910390f35b34801561082d57600080fd5b50610836610ef3565b604051808273ffffffffffffffffffffffffffffffffffffffff1673ffffffffffffffffffffffffffffffffffffffff16815260200191505060405180910390f35b600160026000828254019250508190555060006002549050600034905061089f8382610f1d565b60006108aa82610f3d565b90506108c182600654610f6590919063ffffffff16565b6006819055506108d18482610f84565b8373ffffffffffffffffffffffffffffffffffffffff163373ffffffffffffffffffffffffffffffffffffffff167f6faf93231a456e552dbc9961f58d9713ee4f2e69d15f1975b050ef0911053a7b8484604051808381526020018281526020019250505060405180910390a36109488483610f92565b610950610f96565b61095a8483611001565b5050600254811461096a57600080fd5b5050565b61097733610da0565b61098057600080fd5b61098981611005565b50565b60006008544211905090565b6000600c54905090565b6109ab33610da0565b6109b457600080fd5b6109bd8161105f565b50565b6109c933610da0565b6109d257600080fd5b60008090505b8151811015610a0a576109fd8282815181106109f057fe5b6020026020010151611005565b80806001019150506109d8565b5050565b6000806000fd5b6000610a2b8260016110b990919063ffffffff16565b9050919050565b6000600654905090565b610a4461098c565b610a4d57600080fd5b6000610a57610ef3565b90508073ffffffffffffffffffffffffffffffffffffffff166342966c688273ffffffffffffffffffffffffffffffffffffffff166370a08231306040518263ffffffff167c0100000000000000000000000000000000000000000000000000000000028152600401808273ffffffffffffffffffffffffffffffffffffffff1673ffffffffffffffffffffffffffffffffffffffff16815260200191505060206040518083038186803b158015610b0e57600080fd5b505afa158015610b22573d6000803e3d6000fd5b505050506040513d6020811015610b3857600080fd5b81019080805190602001909291905050506040518263ffffffff167c010000000000000000000000000000000000000000000000000000000002815260040180828152602001915050600060405180830381600087803b158015610b9b57600080fd5b505af1158015610baf573d6000803e3d6000fd5b5050505050565b60006007544210158015610bcc57506008544211155b905090565b6000600854905090565b610be43361114b565b565b6000600460009054906101000a900473ffffffffffffffffffffffffffffffffffffffff16905090565b6000600a54905090565b610c22610d34565b610c2b57600080fd5b600073ffffffffffffffffffffffffffffffffffffffff16600960009054906101000a900473ffffffffffffffffffffffffffffffffffffffff1673ffffffffffffffffffffffffffffffffffffffff167f8be0079c531659141344cd1fd0a4f28419497f9722a3daafe3b4186f6b6457e060405160405180910390a36000600960006101000a81548173ffffffffffffffffffffffffffffffffffffffff021916908373ffffffffffffffffffffffffffffffffffffffff160217905550565b610cf533610da0565b610cfe57600080fd5b610d07816111a5565b50565b6000600960009054906101000a900473ffffffffffffffffffffffffffffffffffffffff16905090565b6000600960009054906101000a900473ffffffffffffffffffffffffffffffffffffffff1673ffffffffffffffffffffffffffffffffffffffff163373ffffffffffffffffffffffffffffffffffffffff1614905090565b6000600754905090565b6000600b54905090565b6000610db68260006110b990919063ffffffff16565b9050919050565b610dc5610d34565b610dce57600080fd5b610dd6610bb6565b158015610de85750610de661098c565b155b610df157600080fd5b60008311610dfe57600080fd5b610e06610d8c565b8210158015610e1b5750610e18610bd1565b82105b610e2457600080fd5b60008111610e3157600080fd5b82600a8190555081600b8190555080600c819055507f023010bc68e7f4c0be9887f513c570c7a0f5f511b9716abccd42bf3b8943532b600a54600b54600c5460405180848152602001838152602001828152602001935050505060405180910390a1505050565b610ea13361105f565b565b610eab610d34565b610eb457600080fd5b610ebd816111ff565b50565b6000610eca610bb6565b610ed75760009050610ef0565b600b544211610eea57600a549050610ef0565b600c5490505b90565b6000600360009054906101000a900473ffffffffffffffffffffffffffffffffffffffff16905090565b610f2682610a15565b610f2f57600080fd5b610f3982826112f9565b5050565b600080610f48610ec0565b9050610f5d838261131890919063ffffffff16565b915050919050565b600080828401905083811015610f7a57600080fd5b8091505092915050565b610f8e8282611352565b5050565b5050565b600460009054906101000a900473ffffffffffffffffffffffffffffffffffffffff1673ffffffffffffffffffffffffffffffffffffffff166108fc349081150290604051600060405180830381858888f19350505050158015610ffe573d6000803e3d6000fd5b50565b5050565b6110198160016113a390919063ffffffff16565b8073ffffffffffffffffffffffffffffffffffffffff167fee1504a83b6d4a361f4c1dc78ab59bfa30d6a3b6612c403e86bb01ef2984295f60405160405180910390a250565b61107381600161144f90919063ffffffff16565b8073ffffffffffffffffffffffffffffffffffffffff167f270d9b30cf5b0793bbfd54c9d5b94aeb49462b8148399000265144a8722da6b660405160405180910390a250565b60008073ffffffffffffffffffffffffffffffffffffffff168273ffffffffffffffffffffffffffffffffffffffff1614156110f457600080fd5b8260000160008373ffffffffffffffffffffffffffffffffffffffff1673ffffffffffffffffffffffffffffffffffffffff16815260200190815260200160002060009054906101000a900460ff16905092915050565b61115f81600061144f90919063ffffffff16565b8073ffffffffffffffffffffffffffffffffffffffff167f0a8eb35e5ca14b3d6f28e4abf2f128dbab231a58b56e89beb5d636115001e16560405160405180910390a250565b6111b98160006113a390919063ffffffff16565b8073ffffffffffffffffffffffffffffffffffffffff167f22380c05984257a1cb900161c713dd71d39e74820f1aea43bd3f1bdd2096129960405160405180910390a250565b600073ffffffffffffffffffffffffffffffffffffffff168173ffffffffffffffffffffffffffffffffffffffff16141561123957600080fd5b8073ffffffffffffffffffffffffffffffffffffffff16600960009054906101000a900473ffffffffffffffffffffffffffffffffffffffff1673ffffffffffffffffffffffffffffffffffffffff167f8be0079c531659141344cd1fd0a4f28419497f9722a3daafe3b4186f6b6457e060405160405180910390a380600960006101000a81548173ffffffffffffffffffffffffffffffffffffffff021916908373ffffffffffffffffffffffffffffffffffffffff16021790555050565b611301610bb6565b61130a57600080fd5b61131482826114fa565b5050565b60008083141561132b576000905061134c565b600082840290508284828161133c57fe5b041461134757600080fd5b809150505b92915050565b61139f8282600360009054906101000a900473ffffffffffffffffffffffffffffffffffffffff1673ffffffffffffffffffffffffffffffffffffffff166115469092919063ffffffff16565b5050565b600073ffffffffffffffffffffffffffffffffffffffff168173ffffffffffffffffffffffffffffffffffffffff1614156113dd57600080fd5b6113e782826110b9565b156113f157600080fd5b60018260000160008373ffffffffffffffffffffffffffffffffffffffff1673ffffffffffffffffffffffffffffffffffffffff16815260200190815260200160002060006101000a81548160ff0219169083151502179055505050565b600073ffffffffffffffffffffffffffffffffffffffff168173ffffffffffffffffffffffffffffffffffffffff16141561148957600080fd5b61149382826110b9565b61149c57600080fd5b60008260000160008373ffffffffffffffffffffffffffffffffffffffff1673ffffffffffffffffffffffffffffffffffffffff16815260200190815260200160002060006101000a81548160ff0219169083151502179055505050565b600073ffffffffffffffffffffffffffffffffffffffff168273ffffffffffffffffffffffffffffffffffffffff16141561153457600080fd5b600081141561154257600080fd5b5050565b8273ffffffffffffffffffffffffffffffffffffffff1663a9059cbb83836040518363ffffffff167c0100000000000000000000000000000000000000000000000000000000028152600401808373ffffffffffffffffffffffffffffffffffffffff1673ffffffffffffffffffffffffffffffffffffffff16815260200182815260200192505050602060405180830381600087803b1580156115e957600080fd5b505af11580156115fd573d6000803e3d6000fd5b505050506040513d602081101561161357600080fd5b810190808051906020019092919050505061162d57600080fd5b50505056fea165627a7a7230582019afc741c9ac6ce17192f1aa1f94aca8865870b6bd0b3ed907692edc65925afe0029",
  "source": "pragma solidity ^0.5.0;\n\nimport \"openzeppelin-solidity/contracts/token/ERC20/ERC20.sol\";\nimport \"openzeppelin-solidity/contracts/token/ERC20/IERC20.sol\";\nimport \"openzeppelin-solidity/contracts/token/ERC20/ERC20Burnable.sol\";\nimport \"openzeppelin-solidity/contracts/crowdsale/validation/TimedCrowdsale.sol\";\nimport \"openzeppelin-solidity/contracts/crowdsale/validation/WhitelistCrowdsale.sol\";\nimport \"openzeppelin-solidity/contracts/crowdsale/Crowdsale.sol\";\nimport \"./AsureBonusesCrowdsale.sol\";\n\ncontract AsureCrowdsale is Crowdsale, TimedCrowdsale, WhitelistCrowdsale, AsureBonusesCrowdsale {\n\n  constructor(\n    uint256 bonusRate,\n    uint256 bonusTime,\n    uint256 defaultRate,\n    address owner,\n    address payable wallet,\n    IERC20 token,\n    uint256 openingTime,\n    uint256 closingTime\n  )\n  public\n  Crowdsale(1, wallet, token)\n  TimedCrowdsale(openingTime, closingTime)\n  AsureBonusesCrowdsale(bonusRate, bonusTime, defaultRate, owner)\n  {\n    if (!isWhitelistAdmin(owner)) {\n      addWhitelistAdmin(owner);\n    }\n  }\n\n  function addWhitelistedAccounts(address[] memory accounts) public onlyWhitelistAdmin {\n    for (uint i = 0; i < accounts.length; i++) {\n      _addWhitelisted(accounts[i]);\n    }\n  }\n\n  function burn() public {\n    require(hasClosed());\n    ERC20Burnable burnableToken = ERC20Burnable(address(token()));\n    burnableToken.burn(burnableToken.balanceOf(address(this)));\n  }\n}\n",
  "sourcePath": "C:\\git\\crowdsale\\packages\\crowdsale\\contracts\\AsureCrowdsale.sol",
  "compiler": {
    "name": "solc",
    "version": "0.5.6+commit.b259423e.Emscripten.clang"
  },
  "schemaVersion": "3.0.3",
  "updatedAt": "2019-03-25T13:47:19.812Z",
  "devdoc": {
    "methods": {
      "bonusRate()": {
        "return": "the number of token units a buyer gets per wei before the bonus time.\r"
      },
      "bonusTime()": {
        "return": "the crowdsale bonus time in unix epoch seconds.\r"
      },
      "buyTokens(address)": {
        "details": "low level token purchase ***DO NOT OVERRIDE*** This function has a non-reentrancy guard, so it shouldn't be called by another `nonReentrant` function.",
        "params": {
          "beneficiary": "Recipient of the token purchase"
        }
      },
      "closingTime()": {
        "return": "the crowdsale closing time."
      },
      "defaultRate()": {
        "return": "the number of token units a buyer gets per wei after the bonus time.\r"
      },
      "getCurrentRate()": {
        "details": "Returns the rate of tokens per wei at the present time.\r Note that, rate can be changed by the owner until the crowdsale is open.\r",
        "return": "The number of tokens a buyer gets per wei at a given time\r"
      },
      "hasClosed()": {
        "details": "Checks whether the period in which the crowdsale is open has already elapsed.",
        "return": "Whether crowdsale period has elapsed"
      },
      "isOpen()": {
        "return": "true if the crowdsale is open, false otherwise."
      },
      "isOwner()": {
        "return": "true if `msg.sender` is the owner of the contract."
      },
      "openingTime()": {
        "return": "the crowdsale opening time."
      },
      "owner()": {
        "return": "the address of the owner."
      },
      "renounceOwnership()": {
        "details": "Allows the current owner to relinquish control of the contract."
      },
      "token()": {
        "return": "the token being sold."
      },
      "transferOwnership(address)": {
        "details": "Allows the current owner to transfer control of the contract to a newOwner.",
        "params": {
          "newOwner": "The address to transfer ownership to."
        }
      },
      "updateRates(uint256,uint256,uint256)": {
        "details": "Owner can update bonus rate, bonus time, and default rate before crowdsale opened.\r",
        "params": {
          "newBonusRate": "Number of token units a buyer gets per wei before bonus time\r",
          "newBonusTime": "The crowdsale bonus time in unix epoch seconds\r",
          "newDefaultRate": "Number of token units a buyer gets per wei after the bonus time\r"
        }
      },
      "wallet()": {
        "return": "the address where funds are collected."
      },
      "weiRaised()": {
        "return": "the amount of wei raised."
      }
    }
  },
  "userdoc": {
    "methods": {
      "rate()": {
        "notice": "The base rate function is overridden to revert, since this crowdsale doesn't use it, and\r all calls to it are a mistake.\r"
      },
      "renounceOwnership()": {
        "notice": "Renouncing to ownership will leave the contract without an owner. It will not be possible to call the functions with the `onlyOwner` modifier anymore."
      }
    }
  }
}