{
  "contractName": "RuhrCrowdsale",
  "abi": [
    {
      "constant": true,
      "inputs": [],
      "name": "hasClosed",
      "outputs": [
        {
          "name": "",
          "type": "bool"
        }
      ],
      "payable": false,
      "stateMutability": "view",
      "type": "function"
    },
    {
      "constant": true,
      "inputs": [],
      "name": "rate",
      "outputs": [
        {
          "name": "",
          "type": "uint256"
        }
      ],
      "payable": false,
      "stateMutability": "view",
      "type": "function"
    },
    {
      "constant": true,
      "inputs": [],
      "name": "cap",
      "outputs": [
        {
          "name": "",
          "type": "uint256"
        }
      ],
      "payable": false,
      "stateMutability": "view",
      "type": "function"
    },
    {
      "constant": true,
      "inputs": [],
      "name": "weiRaised",
      "outputs": [
        {
          "name": "",
          "type": "uint256"
        }
      ],
      "payable": false,
      "stateMutability": "view",
      "type": "function"
    },
    {
      "constant": true,
      "inputs": [],
      "name": "isOpen",
      "outputs": [
        {
          "name": "",
          "type": "bool"
        }
      ],
      "payable": false,
      "stateMutability": "view",
      "type": "function"
    },
    {
      "constant": true,
      "inputs": [],
      "name": "closingTime",
      "outputs": [
        {
          "name": "",
          "type": "uint256"
        }
      ],
      "payable": false,
      "stateMutability": "view",
      "type": "function"
    },
    {
      "constant": true,
      "inputs": [],
      "name": "capReached",
      "outputs": [
        {
          "name": "",
          "type": "bool"
        }
      ],
      "payable": false,
      "stateMutability": "view",
      "type": "function"
    },
    {
      "constant": true,
      "inputs": [],
      "name": "wallet",
      "outputs": [
        {
          "name": "",
          "type": "address"
        }
      ],
      "payable": false,
      "stateMutability": "view",
      "type": "function"
    },
    {
      "constant": true,
      "inputs": [],
      "name": "openingTime",
      "outputs": [
        {
          "name": "",
          "type": "uint256"
        }
      ],
      "payable": false,
      "stateMutability": "view",
      "type": "function"
    },
    {
      "constant": false,
      "inputs": [
        {
          "name": "beneficiary",
          "type": "address"
        }
      ],
      "name": "buyTokens",
      "outputs": [],
      "payable": true,
      "stateMutability": "payable",
      "type": "function"
    },
    {
      "constant": true,
      "inputs": [],
      "name": "token",
      "outputs": [
        {
          "name": "",
          "type": "address"
        }
      ],
      "payable": false,
      "stateMutability": "view",
      "type": "function"
    },
    {
      "inputs": [
        {
          "name": "rate",
          "type": "uint256"
        },
        {
          "name": "wallet",
          "type": "address"
        },
        {
          "name": "token",
          "type": "address"
        },
        {
          "name": "cap",
          "type": "uint256"
        },
        {
          "name": "openingTime",
          "type": "uint256"
        },
        {
          "name": "closingTime",
          "type": "uint256"
        }
      ],
      "payable": false,
      "stateMutability": "nonpayable",
      "type": "constructor"
    },
    {
      "payable": true,
      "stateMutability": "payable",
      "type": "fallback"
    },
    {
      "anonymous": false,
      "inputs": [
        {
          "indexed": true,
          "name": "purchaser",
          "type": "address"
        },
        {
          "indexed": true,
          "name": "beneficiary",
          "type": "address"
        },
        {
          "indexed": false,
          "name": "value",
          "type": "uint256"
        },
        {
          "indexed": false,
          "name": "amount",
          "type": "uint256"
        }
      ],
      "name": "TokensPurchased",
      "type": "event"
    }
  ],
  "bytecode": "0x608060405234801561001057600080fd5b5060405160c0806109d0833981018060405260c081101561003057600080fd5b81019080805190602001909291908051906020019092919080519060200190929190805190602001909291908051906020019092919080519060200190929190505050818184888888600160008190555060008311151561009057600080fd5b600073ffffffffffffffffffffffffffffffffffffffff168273ffffffffffffffffffffffffffffffffffffffff16141515156100cc57600080fd5b600073ffffffffffffffffffffffffffffffffffffffff168173ffffffffffffffffffffffffffffffffffffffff161415151561010857600080fd5b8260038190555081600260006101000a81548173ffffffffffffffffffffffffffffffffffffffff021916908373ffffffffffffffffffffffffffffffffffffffff16021790555080600160006101000a81548173ffffffffffffffffffffffffffffffffffffffff021916908373ffffffffffffffffffffffffffffffffffffffff1602179055505050506000811115156101a357600080fd5b80600581905550504282101515156101ba57600080fd5b81811115156101c857600080fd5b816006819055508060078190555050505050505050506107e3806101ed6000396000f3fe6080604052600436106100b9576000357c0100000000000000000000000000000000000000000000000000000000900480634b6753bc116100815780634b6753bc146101a35780634f935945146101ce578063521eb273146101fd578063b7a8807c14610254578063ec8ac4d81461027f578063fc0c546a146102c3576100b9565b80631515bc2b146100c45780632c4e722e146100f3578063355274ea1461011e5780634042b66f1461014957806347535d7b14610174575b6100c23361031a565b005b3480156100d057600080fd5b506100d9610410565b604051808215151515815260200191505060405180910390f35b3480156100ff57600080fd5b5061010861041c565b6040518082815260200191505060405180910390f35b34801561012a57600080fd5b50610133610426565b6040518082815260200191505060405180910390f35b34801561015557600080fd5b5061015e610430565b6040518082815260200191505060405180910390f35b34801561018057600080fd5b5061018961043a565b604051808215151515815260200191505060405180910390f35b3480156101af57600080fd5b506101b8610455565b6040518082815260200191505060405180910390f35b3480156101da57600080fd5b506101e361045f565b604051808215151515815260200191505060405180910390f35b34801561020957600080fd5b50610212610473565b604051808273ffffffffffffffffffffffffffffffffffffffff1673ffffffffffffffffffffffffffffffffffffffff16815260200191505060405180910390f35b34801561026057600080fd5b5061026961049d565b6040518082815260200191505060405180910390f35b6102c16004803603602081101561029557600080fd5b81019080803573ffffffffffffffffffffffffffffffffffffffff16906020019092919050505061031a565b005b3480156102cf57600080fd5b506102d86104a7565b604051808273ffffffffffffffffffffffffffffffffffffffff1673ffffffffffffffffffffffffffffffffffffffff16815260200191505060405180910390f35b60016000808282540192505081905550600080549050600034905061033f83826104d1565b600061034a826104f2565b90506103618260045461051090919063ffffffff16565b6004819055506103718482610531565b8373ffffffffffffffffffffffffffffffffffffffff163373ffffffffffffffffffffffffffffffffffffffff167f6faf93231a456e552dbc9961f58d9713ee4f2e69d15f1975b050ef0911053a7b8484604051808381526020018281526020019250505060405180910390a36103e8848361053f565b6103f0610543565b6103fa84836105ae565b50506000548114151561040c57600080fd5b5050565b60006007544211905090565b6000600354905090565b6000600554905090565b6000600454905090565b6000600654421015801561045057506007544211155b905090565b6000600754905090565b600060055461046c610430565b1015905090565b6000600260009054906101000a900473ffffffffffffffffffffffffffffffffffffffff16905090565b6000600654905090565b6000600160009054906101000a900473ffffffffffffffffffffffffffffffffffffffff16905090565b6104d961043a565b15156104e457600080fd5b6104ee82826105b2565b5050565b6000610509600354836105ea90919063ffffffff16565b9050919050565b600080828401905083811015151561052757600080fd5b8091505092915050565b61053b8282610628565b5050565b5050565b600260009054906101000a900473ffffffffffffffffffffffffffffffffffffffff1673ffffffffffffffffffffffffffffffffffffffff166108fc349081150290604051600060405180830381858888f193505050501580156105ab573d6000803e3d6000fd5b50565b5050565b6105bc8282610679565b6005546105d9826105cb610430565b61051090919063ffffffff16565b111515156105e657600080fd5b5050565b6000808314156105fd5760009050610622565b6000828402905082848281151561061057fe5b0414151561061d57600080fd5b809150505b92915050565b6106758282600160009054906101000a900473ffffffffffffffffffffffffffffffffffffffff1673ffffffffffffffffffffffffffffffffffffffff166106c99092919063ffffffff16565b5050565b600073ffffffffffffffffffffffffffffffffffffffff168273ffffffffffffffffffffffffffffffffffffffff16141515156106b557600080fd5b600081141515156106c557600080fd5b5050565b8273ffffffffffffffffffffffffffffffffffffffff1663a9059cbb83836040518363ffffffff167c0100000000000000000000000000000000000000000000000000000000028152600401808373ffffffffffffffffffffffffffffffffffffffff1673ffffffffffffffffffffffffffffffffffffffff16815260200182815260200192505050602060405180830381600087803b15801561076c57600080fd5b505af1158015610780573d6000803e3d6000fd5b505050506040513d602081101561079657600080fd5b810190808051906020019092919050505015156107b257600080fd5b50505056fea165627a7a7230582097b0695468a40c642d423eec35ecf8271cf620393d70d0af5dd4b3f39eba95090029",
  "source": "pragma solidity ^0.5.0;\n\nimport \"openzeppelin-solidity/contracts/token/ERC20/ERC20.sol\";\nimport \"openzeppelin-solidity/contracts/crowdsale/validation/CappedCrowdsale.sol\";\nimport \"openzeppelin-solidity/contracts/crowdsale/validation/TimedCrowdsale.sol\";\nimport \"openzeppelin-solidity/contracts/crowdsale/Crowdsale.sol\";\n\n\n\ncontract RuhrCrowdsale is Crowdsale, CappedCrowdsale, TimedCrowdsale {\n\n    constructor(\n        uint256 rate,         // rate, in RUHRbits\n        address payable wallet,       // wallet to send Ether\n        ERC20 token,          // the token\n        uint256 cap,          // total cap, in wei\n        uint256 openingTime,  // opening time in unix epoch seconds\n        uint256 closingTime   // closing time in unix epoch seconds\n    )\n    CappedCrowdsale(cap)\n    TimedCrowdsale(openingTime, closingTime)\n    Crowdsale(rate, wallet, token)\n    public\n    {\n        // nice, we just created a crowdsale that's only open\n        // for a certain amount of time\n        // and stops accepting contributions once it reaches `cap`\n    }\n}\n",
  "sourcePath": "C:\\git\\crowdsale\\packages\\crowdsale\\contracts\\AsureCrowdsale.sol",
  "compiler": {
    "name": "solc",
    "version": "0.5.4+commit.9549d8ff.Emscripten.clang"
  },
  "schemaVersion": "3.0.2",
  "updatedAt": "2019-02-27T08:31:56.127Z",
  "devdoc": {
    "methods": {
      "buyTokens(address)": {
        "details": "low level token purchase ***DO NOT OVERRIDE*** This function has a non-reentrancy guard, so it shouldn't be called by another `nonReentrant` function.",
        "params": {
          "beneficiary": "Recipient of the token purchase"
        }
      },
      "cap()": {
        "return": "the cap of the crowdsale."
      },
      "capReached()": {
        "details": "Checks whether the cap has been reached.",
        "return": "Whether the cap was reached"
      },
      "closingTime()": {
        "return": "the crowdsale closing time."
      },
      "hasClosed()": {
        "details": "Checks whether the period in which the crowdsale is open has already elapsed.",
        "return": "Whether crowdsale period has elapsed"
      },
      "isOpen()": {
        "return": "true if the crowdsale is open, false otherwise."
      },
      "openingTime()": {
        "return": "the crowdsale opening time."
      },
      "rate()": {
        "return": "the number of token units a buyer gets per wei."
      },
      "token()": {
        "return": "the token being sold."
      },
      "wallet()": {
        "return": "the address where funds are collected."
      },
      "weiRaised()": {
        "return": "the amount of wei raised."
      }
    }
  },
  "userdoc": {
    "methods": {}
  }
}