{
  "contractName": "TestAsureBonusesCrowdsale",
  "abi": [
    {
      "constant": true,
      "inputs": [],
      "name": "hasClosed",
      "outputs": [
        {
          "name": "",
          "type": "bool"
        }
      ],
      "payable": false,
      "stateMutability": "view",
      "type": "function"
    },
    {
      "constant": true,
      "inputs": [],
      "name": "rate",
      "outputs": [
        {
          "name": "",
          "type": "uint256"
        }
      ],
      "payable": false,
      "stateMutability": "view",
      "type": "function"
    },
    {
      "constant": true,
      "inputs": [],
      "name": "weiRaised",
      "outputs": [
        {
          "name": "",
          "type": "uint256"
        }
      ],
      "payable": false,
      "stateMutability": "view",
      "type": "function"
    },
    {
      "constant": true,
      "inputs": [],
      "name": "isOpen",
      "outputs": [
        {
          "name": "",
          "type": "bool"
        }
      ],
      "payable": false,
      "stateMutability": "view",
      "type": "function"
    },
    {
      "constant": true,
      "inputs": [],
      "name": "closingTime",
      "outputs": [
        {
          "name": "",
          "type": "uint256"
        }
      ],
      "payable": false,
      "stateMutability": "view",
      "type": "function"
    },
    {
      "constant": true,
      "inputs": [],
      "name": "wallet",
      "outputs": [
        {
          "name": "",
          "type": "address"
        }
      ],
      "payable": false,
      "stateMutability": "view",
      "type": "function"
    },
    {
      "constant": true,
      "inputs": [],
      "name": "bonusRate",
      "outputs": [
        {
          "name": "",
          "type": "uint256"
        }
      ],
      "payable": false,
      "stateMutability": "view",
      "type": "function"
    },
    {
      "constant": false,
      "inputs": [],
      "name": "renounceOwnership",
      "outputs": [],
      "payable": false,
      "stateMutability": "nonpayable",
      "type": "function"
    },
    {
      "constant": true,
      "inputs": [],
      "name": "owner",
      "outputs": [
        {
          "name": "",
          "type": "address"
        }
      ],
      "payable": false,
      "stateMutability": "view",
      "type": "function"
    },
    {
      "constant": true,
      "inputs": [],
      "name": "isOwner",
      "outputs": [
        {
          "name": "",
          "type": "bool"
        }
      ],
      "payable": false,
      "stateMutability": "view",
      "type": "function"
    },
    {
      "constant": true,
      "inputs": [],
      "name": "initialRate",
      "outputs": [
        {
          "name": "",
          "type": "uint256"
        }
      ],
      "payable": false,
      "stateMutability": "view",
      "type": "function"
    },
    {
      "constant": true,
      "inputs": [],
      "name": "openingTime",
      "outputs": [
        {
          "name": "",
          "type": "uint256"
        }
      ],
      "payable": false,
      "stateMutability": "view",
      "type": "function"
    },
    {
      "constant": true,
      "inputs": [],
      "name": "bonusTime",
      "outputs": [
        {
          "name": "",
          "type": "uint256"
        }
      ],
      "payable": false,
      "stateMutability": "view",
      "type": "function"
    },
    {
      "constant": false,
      "inputs": [
        {
          "name": "newInitialRate",
          "type": "uint256"
        },
        {
          "name": "newBonusRate",
          "type": "uint256"
        },
        {
          "name": "newBonusTime",
          "type": "uint256"
        }
      ],
      "name": "updateRates",
      "outputs": [],
      "payable": false,
      "stateMutability": "nonpayable",
      "type": "function"
    },
    {
      "constant": false,
      "inputs": [
        {
          "name": "beneficiary",
          "type": "address"
        }
      ],
      "name": "buyTokens",
      "outputs": [],
      "payable": true,
      "stateMutability": "payable",
      "type": "function"
    },
    {
      "constant": false,
      "inputs": [
        {
          "name": "newOwner",
          "type": "address"
        }
      ],
      "name": "transferOwnership",
      "outputs": [],
      "payable": false,
      "stateMutability": "nonpayable",
      "type": "function"
    },
    {
      "constant": true,
      "inputs": [],
      "name": "getCurrentRate",
      "outputs": [
        {
          "name": "",
          "type": "uint256"
        }
      ],
      "payable": false,
      "stateMutability": "view",
      "type": "function"
    },
    {
      "constant": true,
      "inputs": [],
      "name": "token",
      "outputs": [
        {
          "name": "",
          "type": "address"
        }
      ],
      "payable": false,
      "stateMutability": "view",
      "type": "function"
    },
    {
      "inputs": [
        {
          "name": "rate",
          "type": "uint256"
        },
        {
          "name": "bonusRate",
          "type": "uint256"
        },
        {
          "name": "bonusTime",
          "type": "uint256"
        },
        {
          "name": "owner",
          "type": "address"
        },
        {
          "name": "crowdsaleWallet",
          "type": "address"
        },
        {
          "name": "token",
          "type": "address"
        },
        {
          "name": "openingTime",
          "type": "uint256"
        },
        {
          "name": "closingTime",
          "type": "uint256"
        }
      ],
      "payable": false,
      "stateMutability": "nonpayable",
      "type": "constructor"
    },
    {
      "payable": true,
      "stateMutability": "payable",
      "type": "fallback"
    },
    {
      "anonymous": false,
      "inputs": [
        {
          "indexed": false,
          "name": "initialRate",
          "type": "uint256"
        },
        {
          "indexed": false,
          "name": "bonusRate",
          "type": "uint256"
        },
        {
          "indexed": false,
          "name": "bonusTime",
          "type": "uint256"
        }
      ],
      "name": "RatesUpdated",
      "type": "event"
    },
    {
      "anonymous": false,
      "inputs": [
        {
          "indexed": true,
          "name": "previousOwner",
          "type": "address"
        },
        {
          "indexed": true,
          "name": "newOwner",
          "type": "address"
        }
      ],
      "name": "OwnershipTransferred",
      "type": "event"
    },
    {
      "anonymous": false,
      "inputs": [
        {
          "indexed": true,
          "name": "purchaser",
          "type": "address"
        },
        {
          "indexed": true,
          "name": "beneficiary",
          "type": "address"
        },
        {
          "indexed": false,
          "name": "value",
          "type": "uint256"
        },
        {
          "indexed": false,
          "name": "amount",
          "type": "uint256"
        }
      ],
      "name": "TokensPurchased",
      "type": "event"
    }
  ],
  "bytecode": "0x60806040523480156200001157600080fd5b5060405161010080620013dd83398101806040526101008110156200003557600080fd5b8101908080519060200190929190805190602001909291908051906020019092919080519060200190929190805190602001909291908051906020019092919080519060200190929190805190602001909291905050508787878785858d8a8a600160008190555060008311620000ab57600080fd5b600073ffffffffffffffffffffffffffffffffffffffff168273ffffffffffffffffffffffffffffffffffffffff161415620000e657600080fd5b600073ffffffffffffffffffffffffffffffffffffffff168173ffffffffffffffffffffffffffffffffffffffff1614156200012157600080fd5b8260038190555081600260006101000a81548173ffffffffffffffffffffffffffffffffffffffff021916908373ffffffffffffffffffffffffffffffffffffffff16021790555080600160006101000a81548173ffffffffffffffffffffffffffffffffffffffff021916908373ffffffffffffffffffffffffffffffffffffffff16021790555050505042821015620001bb57600080fd5b818111620001c857600080fd5b8160058190555080600681905550505033600760006101000a81548173ffffffffffffffffffffffffffffffffffffffff021916908373ffffffffffffffffffffffffffffffffffffffff160217905550600760009054906101000a900473ffffffffffffffffffffffffffffffffffffffff1673ffffffffffffffffffffffffffffffffffffffff16600073ffffffffffffffffffffffffffffffffffffffff167f8be0079c531659141344cd1fd0a4f28419497f9722a3daafe3b4186f6b6457e060405160405180910390a3620002b2848484620002de640100000000026401000000009004565b620002cc8162000415640100000000026401000000009004565b505050505050505050505050620005e4565b620002f762000455640100000000026401000000009004565b6200030157600080fd5b6200031a620004ad640100000000026401000000009004565b1580156200033e57506200033c620004c9640100000000026401000000009004565b155b6200034857600080fd5b600083116200035657600080fd5b600082116200036457600080fd5b6200037d620004d5640100000000026401000000009004565b8110158015620003a45750620003a1620004df640100000000026401000000009004565b81105b620003ae57600080fd5b826008819055508160098190555080600a819055507f023010bc68e7f4c0be9887f513c570c7a0f5f511b9716abccd42bf3b8943532b600854600954600a5460405180848152602001838152602001828152602001935050505060405180910390a1505050565b6200042e62000455640100000000026401000000009004565b6200043857600080fd5b6200045281620004e9640100000000026401000000009004565b50565b6000600760009054906101000a900473ffffffffffffffffffffffffffffffffffffffff1673ffffffffffffffffffffffffffffffffffffffff163373ffffffffffffffffffffffffffffffffffffffff1614905090565b60006005544210158015620004c457506006544211155b905090565b60006006544211905090565b6000600554905090565b6000600654905090565b600073ffffffffffffffffffffffffffffffffffffffff168173ffffffffffffffffffffffffffffffffffffffff1614156200052457600080fd5b8073ffffffffffffffffffffffffffffffffffffffff16600760009054906101000a900473ffffffffffffffffffffffffffffffffffffffff1673ffffffffffffffffffffffffffffffffffffffff167f8be0079c531659141344cd1fd0a4f28419497f9722a3daafe3b4186f6b6457e060405160405180910390a380600760006101000a81548173ffffffffffffffffffffffffffffffffffffffff021916908373ffffffffffffffffffffffffffffffffffffffff16021790555050565b610de980620005f46000396000f3fe608060405260043610610126576000357c0100000000000000000000000000000000000000000000000000000000900480638f32d59b116100b2578063c0f3622c11610081578063c0f3622c146103b0578063ec8ac4d8146103ff578063f2fde38b14610443578063f7fb07b014610494578063fc0c546a146104bf57610126565b80638f32d59b146103005780639e51051f1461032f578063b7a8807c1461035a578063b82a0ce81461038557610126565b80634b6753bc116100f95780634b6753bc146101e5578063521eb273146102105780635af123f414610267578063715018a6146102925780638da5cb5b146102a957610126565b80631515bc2b146101315780632c4e722e146101605780634042b66f1461018b57806347535d7b146101b6575b61012f33610516565b005b34801561013d57600080fd5b5061014661060a565b604051808215151515815260200191505060405180910390f35b34801561016c57600080fd5b50610175610616565b6040518082815260200191505060405180910390f35b34801561019757600080fd5b506101a061061d565b6040518082815260200191505060405180910390f35b3480156101c257600080fd5b506101cb610627565b604051808215151515815260200191505060405180910390f35b3480156101f157600080fd5b506101fa610642565b6040518082815260200191505060405180910390f35b34801561021c57600080fd5b5061022561064c565b604051808273ffffffffffffffffffffffffffffffffffffffff1673ffffffffffffffffffffffffffffffffffffffff16815260200191505060405180910390f35b34801561027357600080fd5b5061027c610676565b6040518082815260200191505060405180910390f35b34801561029e57600080fd5b506102a7610680565b005b3480156102b557600080fd5b506102be610752565b604051808273ffffffffffffffffffffffffffffffffffffffff1673ffffffffffffffffffffffffffffffffffffffff16815260200191505060405180910390f35b34801561030c57600080fd5b5061031561077c565b604051808215151515815260200191505060405180910390f35b34801561033b57600080fd5b506103446107d4565b6040518082815260200191505060405180910390f35b34801561036657600080fd5b5061036f6107de565b6040518082815260200191505060405180910390f35b34801561039157600080fd5b5061039a6107e8565b6040518082815260200191505060405180910390f35b3480156103bc57600080fd5b506103fd600480360360608110156103d357600080fd5b810190808035906020019092919080359060200190929190803590602001909291905050506107f2565b005b6104416004803603602081101561041557600080fd5b81019080803573ffffffffffffffffffffffffffffffffffffffff169060200190929190505050610516565b005b34801561044f57600080fd5b506104926004803603602081101561046657600080fd5b81019080803573ffffffffffffffffffffffffffffffffffffffff1690602001909291905050506108cd565b005b3480156104a057600080fd5b506104a96108ea565b6040518082815260200191505060405180910390f35b3480156104cb57600080fd5b506104d461091d565b604051808273ffffffffffffffffffffffffffffffffffffffff1673ffffffffffffffffffffffffffffffffffffffff16815260200191505060405180910390f35b60016000808282540192505081905550600080549050600034905061053b8382610947565b600061054682610966565b905061055d8260045461098e90919063ffffffff16565b60048190555061056d84826109ad565b8373ffffffffffffffffffffffffffffffffffffffff163373ffffffffffffffffffffffffffffffffffffffff167f6faf93231a456e552dbc9961f58d9713ee4f2e69d15f1975b050ef0911053a7b8484604051808381526020018281526020019250505060405180910390a36105e484836109bb565b6105ec6109bf565b6105f68483610a2a565b5050600054811461060657600080fd5b5050565b60006006544211905090565b6000806000fd5b6000600454905090565b6000600554421015801561063d57506006544211155b905090565b6000600654905090565b6000600260009054906101000a900473ffffffffffffffffffffffffffffffffffffffff16905090565b6000600954905090565b61068861077c565b61069157600080fd5b600073ffffffffffffffffffffffffffffffffffffffff16600760009054906101000a900473ffffffffffffffffffffffffffffffffffffffff1673ffffffffffffffffffffffffffffffffffffffff167f8be0079c531659141344cd1fd0a4f28419497f9722a3daafe3b4186f6b6457e060405160405180910390a36000600760006101000a81548173ffffffffffffffffffffffffffffffffffffffff021916908373ffffffffffffffffffffffffffffffffffffffff160217905550565b6000600760009054906101000a900473ffffffffffffffffffffffffffffffffffffffff16905090565b6000600760009054906101000a900473ffffffffffffffffffffffffffffffffffffffff1673ffffffffffffffffffffffffffffffffffffffff163373ffffffffffffffffffffffffffffffffffffffff1614905090565b6000600854905090565b6000600554905090565b6000600a54905090565b6107fa61077c565b61080357600080fd5b61080b610627565b15801561081d575061081b61060a565b155b61082657600080fd5b6000831161083357600080fd5b6000821161084057600080fd5b6108486107de565b811015801561085d575061085a610642565b81105b61086657600080fd5b826008819055508160098190555080600a819055507f023010bc68e7f4c0be9887f513c570c7a0f5f511b9716abccd42bf3b8943532b600854600954600a5460405180848152602001838152602001828152602001935050505060405180910390a1505050565b6108d561077c565b6108de57600080fd5b6108e781610a2e565b50565b60006108f4610627565b610901576000905061091a565b600a54421061091457600954905061091a565b60085490505b90565b6000600160009054906101000a900473ffffffffffffffffffffffffffffffffffffffff16905090565b61094f610627565b61095857600080fd5b6109628282610b28565b5050565b6000806109716108ea565b90506109868382610c4690919063ffffffff16565b915050919050565b6000808284019050838110156109a357600080fd5b8091505092915050565b6109b78282610c80565b5050565b5050565b600260009054906101000a900473ffffffffffffffffffffffffffffffffffffffff1673ffffffffffffffffffffffffffffffffffffffff166108fc349081150290604051600060405180830381858888f19350505050158015610a27573d6000803e3d6000fd5b50565b5050565b600073ffffffffffffffffffffffffffffffffffffffff168173ffffffffffffffffffffffffffffffffffffffff161415610a6857600080fd5b8073ffffffffffffffffffffffffffffffffffffffff16600760009054906101000a900473ffffffffffffffffffffffffffffffffffffffff1673ffffffffffffffffffffffffffffffffffffffff167f8be0079c531659141344cd1fd0a4f28419497f9722a3daafe3b4186f6b6457e060405160405180910390a380600760006101000a81548173ffffffffffffffffffffffffffffffffffffffff021916908373ffffffffffffffffffffffffffffffffffffffff16021790555050565b600073ffffffffffffffffffffffffffffffffffffffff168273ffffffffffffffffffffffffffffffffffffffff161415610bcb576040517f08c379a00000000000000000000000000000000000000000000000000000000081526004018080602001828103825260018152602001807f310000000000000000000000000000000000000000000000000000000000000081525060200191505060405180910390fd5b6000811415610c42576040517f08c379a00000000000000000000000000000000000000000000000000000000081526004018080602001828103825260018152602001807f320000000000000000000000000000000000000000000000000000000000000081525060200191505060405180910390fd5b5050565b600080831415610c595760009050610c7a565b6000828402905082848281610c6a57fe5b0414610c7557600080fd5b809150505b92915050565b610ccd8282600160009054906101000a900473ffffffffffffffffffffffffffffffffffffffff1673ffffffffffffffffffffffffffffffffffffffff16610cd19092919063ffffffff16565b5050565b8273ffffffffffffffffffffffffffffffffffffffff1663a9059cbb83836040518363ffffffff167c0100000000000000000000000000000000000000000000000000000000028152600401808373ffffffffffffffffffffffffffffffffffffffff1673ffffffffffffffffffffffffffffffffffffffff16815260200182815260200192505050602060405180830381600087803b158015610d7457600080fd5b505af1158015610d88573d6000803e3d6000fd5b505050506040513d6020811015610d9e57600080fd5b8101908080519060200190929190505050610db857600080fd5b50505056fea165627a7a72305820524b1bcc95c9a72756dc51ea31d0274ed6ccb59f0bebab2c65d7e227021ed09b0029",
  "source": "pragma solidity ^0.5.0;\n\nimport \"openzeppelin-solidity/contracts/token/ERC20/IERC20.sol\";\nimport \"openzeppelin-solidity/contracts/crowdsale/Crowdsale.sol\";\nimport \"openzeppelin-solidity/contracts/crowdsale/validation/TimedCrowdsale.sol\";\nimport \"../AsureBonusesCrowdsale.sol\";\n\ncontract TestAsureBonusesCrowdsale is Crowdsale, TimedCrowdsale, AsureBonusesCrowdsale {\n  constructor(\n    uint256 rate,\n    uint256 bonusRate,\n    uint256 bonusTime,\n    address payable owner,\n    address payable crowdsaleWallet,\n    IERC20 token,\n    uint256 openingTime,\n    uint256 closingTime\n  )\n  public\n  Crowdsale(rate, crowdsaleWallet, token)\n  TimedCrowdsale(openingTime, closingTime)\n  AsureBonusesCrowdsale(rate, bonusRate, bonusTime, owner)\n  {}\n}\n",
  "sourcePath": "/home/mischi/p/asurenetwork/crowdsale/packages/crowdsale/contracts/test/TestAsureBonusesCrowdsale.sol",
  "compiler": {
    "name": "solc",
    "version": "0.5.6+commit.b259423e.Emscripten.clang"
  },
  "schemaVersion": "3.0.3",
  "updatedAt": "2019-03-21T17:13:29.855Z",
  "devdoc": {
    "methods": {
      "bonusRate()": {
        "return": "the next Rate of the crowdsale."
      },
      "bonusTime()": {
        "return": "the next Timeslot of the crowdsale."
      },
      "buyTokens(address)": {
        "details": "low level token purchase ***DO NOT OVERRIDE*** This function has a non-reentrancy guard, so it shouldn't be called by another `nonReentrant` function.",
        "params": {
          "beneficiary": "Recipient of the token purchase"
        }
      },
      "closingTime()": {
        "return": "the crowdsale closing time."
      },
      "getCurrentRate()": {
        "details": "Returns the rate of tokens per wei at the present time. Note that, rate can be changed by the ownerw",
        "return": "The number of tokens a buyer gets per wei at a given time"
      },
      "hasClosed()": {
        "details": "Checks whether the period in which the crowdsale is open has already elapsed.",
        "return": "Whether crowdsale period has elapsed"
      },
      "initialRate()": {
        "return": "the initial rate of the crowdsale."
      },
      "isOpen()": {
        "return": "true if the crowdsale is open, false otherwise."
      },
      "isOwner()": {
        "return": "true if `msg.sender` is the owner of the contract."
      },
      "openingTime()": {
        "return": "the crowdsale opening time."
      },
      "owner()": {
        "return": "the address of the owner."
      },
      "renounceOwnership()": {
        "details": "Allows the current owner to relinquish control of the contract."
      },
      "token()": {
        "return": "the token being sold."
      },
      "transferOwnership(address)": {
        "details": "Allows the current owner to transfer control of the contract to a newOwner.",
        "params": {
          "newOwner": "The address to transfer ownership to."
        }
      },
      "wallet()": {
        "return": "the address where funds are collected."
      },
      "weiRaised()": {
        "return": "the amount of wei raised."
      }
    }
  },
  "userdoc": {
    "methods": {
      "rate()": {
        "notice": "The base rate function is overridden to revert, since this crowdsale doens't use it, and all calls to it are a mistake."
      },
      "renounceOwnership()": {
        "notice": "Renouncing to ownership will leave the contract without an owner. It will not be possible to call the functions with the `onlyOwner` modifier anymore."
      }
    }
  }
}