{
  "contractName": "VestingUser",
  "abi": [
    {
      "constant": true,
      "inputs": [],
      "name": "_tokenVestingAddr",
      "outputs": [
        {
          "name": "",
          "type": "address"
        }
      ],
      "payable": false,
      "stateMutability": "view",
      "type": "function"
    },
    {
      "constant": true,
      "inputs": [],
      "name": "_addr",
      "outputs": [
        {
          "name": "",
          "type": "address"
        }
      ],
      "payable": false,
      "stateMutability": "view",
      "type": "function"
    },
    {
      "constant": true,
      "inputs": [],
      "name": "_amount",
      "outputs": [
        {
          "name": "",
          "type": "uint256"
        }
      ],
      "payable": false,
      "stateMutability": "view",
      "type": "function"
    },
    {
      "constant": true,
      "inputs": [],
      "name": "addr",
      "outputs": [
        {
          "name": "",
          "type": "address"
        }
      ],
      "payable": false,
      "stateMutability": "view",
      "type": "function"
    },
    {
      "constant": true,
      "inputs": [],
      "name": "amount",
      "outputs": [
        {
          "name": "",
          "type": "uint256"
        }
      ],
      "payable": false,
      "stateMutability": "view",
      "type": "function"
    },
    {
      "constant": true,
      "inputs": [],
      "name": "tokenVestingAddr",
      "outputs": [
        {
          "name": "",
          "type": "address"
        }
      ],
      "payable": false,
      "stateMutability": "view",
      "type": "function"
    }
  ],
  "bytecode": "0x608060405234801561001057600080fd5b506102c2806100206000396000f3fe608060405234801561001057600080fd5b506004361061007f576000357c0100000000000000000000000000000000000000000000000000000000900480635e14b3cb1461008457806362ab1a77146100ce578063767800de146101185780639887f18014610162578063aa8c217c14610180578063f789fd0a1461019e575b600080fd5b61008c6101e8565b604051808273ffffffffffffffffffffffffffffffffffffffff1673ffffffffffffffffffffffffffffffffffffffff16815260200191505060405180910390f35b6100d661020e565b604051808273ffffffffffffffffffffffffffffffffffffffff1673ffffffffffffffffffffffffffffffffffffffff16815260200191505060405180910390f35b610120610233565b604051808273ffffffffffffffffffffffffffffffffffffffff1673ffffffffffffffffffffffffffffffffffffffff16815260200191505060405180910390f35b61016a61025c565b6040518082815260200191505060405180910390f35b610188610262565b6040518082815260200191505060405180910390f35b6101a661026c565b604051808273ffffffffffffffffffffffffffffffffffffffff1673ffffffffffffffffffffffffffffffffffffffff16815260200191505060405180910390f35b600260009054906101000a900473ffffffffffffffffffffffffffffffffffffffff1681565b6000809054906101000a900473ffffffffffffffffffffffffffffffffffffffff1681565b60008060009054906101000a900473ffffffffffffffffffffffffffffffffffffffff16905090565b60015481565b6000600154905090565b6000600260009054906101000a900473ffffffffffffffffffffffffffffffffffffffff1690509056fea165627a7a72305820eed5a3654727fd0b814c116e8c63cf37b84905d5f8f48d616409cf9cd275d2c50029",
  "source": "pragma solidity ^0.5.0;\n\nimport \"./AsureToken.sol\";\nimport \"./AsureCrowdsale.sol\";\nimport \"openzeppelin-solidity/contracts/drafts/TokenVesting.sol\";\n\ncontract VestingUser {\n  address payable public _addr;\n  uint256 public _amount;\n  address payable public _tokenVestingAddr;\n\n  function addr() public view returns (address) {\n    return _addr;\n  }\n\n  function amount() public view returns (uint256) {\n    return _amount;\n  }\n\n  function tokenVestingAddr() public view returns (address) {\n    return _tokenVestingAddr;\n  }\n}\n\n\ncontract AsureCrowdsaleDeployer {\n  AsureToken public token;\n  AsureCrowdsale public presale;\n  AsureCrowdsale public mainsale;\n\n  constructor(\n    address payable owner,\n    uint256 preSaleOpeningTime, // opening time in unix epoch seconds\n    uint256 preSaleClosingTime, // closing time in unix epoch seconds\n    uint256 mainSaleOpeningTime, // mainSale start\n    uint256 mainSaleClosingTime//,   // mainSale end\n    //VestingUser[] memory teamUsers,\n    //VestingUser[] memory advisorUsers\n  )\n  public\n  {\n    token = new AsureToken(\"AsureToken\", \"ASR\", 18);\n\n    presale = new AsureCrowdsale(\n      1000, // rate, in AsureTokens - 1 ETH == 1000 RUHR\n      owner, // wallet to send Ether\n      token, // the token\n      10 * 10 ** 24, // total cap, in wei - 20 Millionen\n      preSaleOpeningTime, // opening time in unix epoch seconds\n      preSaleClosingTime  // closing time in unix epoch seconds\n    );\n\n\n    token.mint(address(presale), 10 * 10 ** 24);\n\n    token.mint(0xcbBc3D3d381f3A9a48CbAE9Ca701aC3c92e0aEA5, 5 * 10 ** 24);\n    //bounty\n    token.mint(0xcbBc3D3d381f3A9a48CbAE9Ca701aC3c92e0aEA5, 5 * 10 ** 24);\n    //family & friends\n\n    mainsale = new AsureCrowdsale(\n      1000, // rate, in AsureTokens - 1 ETH == 1000\n      owner, // wallet to send Ether\n      token, // the token\n      35 * 10 ** 24, // total cap, in wei - 40 Millionen\n      mainSaleOpeningTime, // opening time in unix epoch seconds\n      mainSaleClosingTime  // closing time in unix epoch seconds\n    );\n\n    token.mint(address(mainsale), 35 * 10 ** 24);\n    //foundation\n    token.mint(0xcbBc3D3d381f3A9a48CbAE9Ca701aC3c92e0aEA5, 35 * 10 ** 24);\n\n\n//    for (uint i = 0; i < teamUsers.length; i++) {\n//        token.mint(teamUsers[i].tokenVestingAddr(), teamUsers[i].amount());\n//    }\n//\n//    for (uint i = 0; i < advisorUsers.length; i++) {\n//      token.mint(advisorUsers[i].tokenVestingAddr(), advisorUsers[i].amount());\n//    }\n\n    /*\n          //team\n          TokenVesting team = new TokenVesting(0xcbBc3D3d381f3A9a48CbAE9Ca701aC3c92e0aEA5,\n          mainSaleOpeningTime, //unix timestemp\n          0, //cliffDuration\n          63072000, // duration in sec\n          false // bool revocable\n          );\n          token.mint(address(team), 8*10**24);\n\n\n    //advisor\n    TokenVesting advisor = new TokenVesting(owner,\n      mainSaleOpeningTime, //unix timestemp\n      0, //cliffDuration\n      63072000, // duration in s\n      false // bool revocable\n    );\n\n    token.mint(address(advisor), 2 * 10 ** 24);\n    */\n  }\n}\n\n/*\nconst year1 = 31536000 // ~1 yr = 60*60*24*365\nconst year2 = 63072000 // ~2 yr = 60*60*24*365*2\nconst year3 = 94608000 // ~3 yr = 60*60*24*365*3\nconst year4 = 126144000 // ~4yrs =60*60*24*365*4\n*/\n",
  "sourcePath": "C:/git/crowdsale/packages/crowdsale/contracts/AsureCrowdsaleDeployer.sol",
  "compiler": {
    "name": "solc",
    "version": "0.5.6+commit.b259423e.Emscripten.clang"
  },
  "schemaVersion": "3.0.2",
  "updatedAt": "2019-03-16T01:52:30.398Z",
  "devdoc": {
    "methods": {}
  },
  "userdoc": {
    "methods": {}
  }
}